:040000003BEF00F0E2
:100008005B82D9CF03F0DACF04F00E0137A70FEFE8
:1000180000F011EF00F014EF00F0E351AEEC26F021
:100028000E0137A51AEF00F01CEF00F035EF00F0D5
:100038002DA521EF00F023EF00F035EF00F000ECE4
:1000480027F0E806D8A42BEF00F02DEF00F033EFEF
:1000580000F06EEC26F00E01E46F35EF00F00E01B3
:100068002D9504C0DAFF03C0D9FF5B9211000AEF97
:0200780026F070
:100E00000025642C25642C25642C2564200D0A0003
:100E1000426C75653A20202566200D005265643AC3
:100E20002025662025642000477265656E3A2025DE
:100E30006620004C6967687420426C75650020204C
:100E4000433A2020256620004F72616E6765005985
:100E5000656C6C6F770057686974650047726565EB
:0F0E60006E00696E66006E616E00526564000080
:100E700025EC26F057EC26F0000E186EC70E176E04
:100E80001CEC23F07C9E849E809688967C988498A7
:100E9000809088907E908690809288927C968496AE
:100EA0007C887E8080807E807C867F807D8E798637
:100EB0008790859E819686840E01B4958686B49728
:100EC000000E0101936F000E926F000E956F000EE1
:100ED000946F000E976F000E966F000E996F000EC4
:100EE000986F000E816F1E0E806F000E7D6F0C0ECE
:100EF0007C6F000E7F6F0A0E7E6F000E686F000E13
:100F0000696F880E6A6F420E6B6F000E6C6F000E79
:100F10006D6F640E6E6F420E6F6F000E706F000E7D
:100F2000716F580E726F420E736F000E646F000E79
:100F3000656F430E666F430E676F000E8E6F000E77
:100F40008F6F000E906F000E916F000E866F000E77
:100F5000876F000E886F000E896F000E8A6F000E7B
:100F60008B6F000E8C6F000E8D6F8EB4BAEF07F092
:100F7000BCEF07F046EF08F0000E0101756F000EA0
:100F8000746F75BFCDEF07F0755109E1140E745DF4
:100F9000D8A0CDEF07F0CFEF07F0D1EF07F0F6EFD5
:100FA00007F07CAED6EF07F0DBEF07F00001D56B62
:100FB000D52BDDEF07F00001D56BD533D5337C5051
:100FC000D5197F0BD5197C6E090E0001D66F1E0E48
:100FD000D56FE40EE82EFED7D52FFCD7D62FFAD743
:100FE00000F00101744B752BC1EF07F07CAEFBEFF5
:100FF00007F000EF08F00001D56BD52B02EF08F0E9
:101000000001D56BD533D5337C50D5197F0BD5195D
:101010007C6E290E0001D66F960ED56F7F0EE82EDE
:10102000FED7D52FFCD7D62FFAD7920E106E010E11
:10103000116ED6EC23F092C180F193C181F194C17D
:101040007CF195C17DF196C17EF197C17FF1290EAA
:101050000001D66F960ED56F7F0EE82EFED7D52FE6
:10106000FCD7D62FFAD77CAE38EF08F03DEF08F06A
:101070000001D56BD52B3FEF08F00001D56BD533C0
:10108000D5337C50D5197F0BD5197C6E8EB64BEFBE
:1010900008F04DEF08F00FEF09F0000E0101776F37
:1010A000000E766F77BF5EEF08F0775109E1140EFE
:1010B000765DD8A05EEF08F060EF08F062EF08F010
:1010C00087EF08F07CAE67EF08F06CEF08F00001E6
:1010D000D56BD52B6EEF08F00001D56BD533D5332A
:1010E0007C50D5197F0BD5197C6E090E0001D66F87
:1010F0001E0ED56FE40EE82EFED7D52FFCD7D62FC7
:10110000FAD700F00101764B772B52EF08F07CAE56
:101110008CEF08F091EF08F00001D56BD52B93EF21
:1011200008F00001D56BD533D5337C50D5197F0B32
:10113000D5197C6E290E0001D66F960ED56F7F0EE5
:10114000E82EFED7D52FFCD7D62FFAD7920E106EE9
:10115000010E116ED6EC23F092C105F093C106F09A
:10116000076A086A000E8EEC1EF005C068F106C022
:1011700069F107C06AF108C06BF194C105F095C12F
:1011800006F0076A086A000E8EEC1EF005C06CF1CE
:1011900006C06DF107C06EF108C06FF196C105F091
:1011A00097C106F0076A086A000E8EEC1EF005C0B3
:1011B00070F106C071F107C072F108C073F198C1F7
:1011C00005F099C106F0076A086A000E8EEC1EF061
:1011D00005C064F106C065F107C066F108C067F19B
:1011E000290E0001D66F960ED56F7F0EE82EFED722
:1011F000D52FFCD7D62FFAD77CAE01EF09F006EF3A
:1012000009F00001D56BD52B08EF09F00001D56B73
:10121000D533D5337C50D5197F0BD5197C6E920E02
:10122000106E010E116ED6EC23F080A61AEF09F0B5
:101230001FEF09F00001D56BD52B21EF09F000015C
:10124000D56BD547D547D5478050D519F70BD5195C
:10125000806E98C105F099C106F0076A086A000E11
:101260008EEC1EF005C036F006C037F007C038F02F
:1012700008C039F064C13AF065C13BF066C13CF08A
:1012800067C13DF0F4EC18F036C082F137C083F14D
:1012900038C084F139C085F101018051925D0001AF
:1012A000D56F0101815193590001D66FD5C005F06A
:1012B000D6C006F0076A086A000E8EEC1EF005C064
:1012C00036F006C037F007C038F008C039F082C1E8
:1012D00021F083C122F084C123F085C124F080C1B4
:1012E00005F081C106F0076A086A000E8EEC1EF058
:1012F00005C019F006C01AF007C01BF008C01CF0AA
:1013000068C115F069C116F06AC117F06BC118F019
:1013100046EC25F015C01DF016C01EF017C01FF0DA
:1013200018C020F0DFEC16F01DC03AF01EC03BF0F4
:101330001FC03CF020C03DF0F4EC18F036C08EF138
:1013400037C08FF138C090F139C091F101017C5163
:10135000945D0001D56F01017D5195590001D66F53
:10136000D5C005F0D6C006F0076A086A000E8EECFC
:101370001EF005C036F006C037F007C038F008C0D0
:1013800039F082C121F083C122F084C123F085C1EC
:1013900024F07CC105F07DC106F0076A086A000EE2
:1013A0008EEC1EF005C019F006C01AF007C01BF045
:1013B00008C01CF06CC115F06DC116F06EC117F0BD
:1013C0006FC118F046EC25F015C01DF016C01EF0D8
:1013D00017C01FF018C020F0DFEC16F01DC03AF067
:1013E0001EC03BF01FC03CF020C03DF0F4EC18F0F4
:1013F00036C08AF137C08BF138C08CF139C08DF11D
:1014000001017E51965D0001D56F01017F51975911
:101410000001D66FD5C005F0D6C006F0076A086A8D
:10142000000E8EEC1EF005C036F006C037F007C087
:1014300038F008C039F082C121F083C122F084C1A4
:1014400023F085C124F07EC105F07FC106F0076A54
:10145000086A000E8EEC1EF005C019F006C01AF0E6
:1014600007C01BF008C01CF070C115F071C116F068
:1014700072C117F073C118F046EC25F015C01DF0CD
:1014800016C01EF017C01FF018C020F0DFEC16F0D9
:101490001DC03AF01EC03BF01FC03CF020C03DF024
:1014A000F4EC18F036C086F137C087F138C088F107
:1014B00039C089F18F0E366EC20E376EF50E386E5A
:1014C0003D0E396E82C13AF083C13BF084C13CF0DD
:1014D00085C13DF061EC21F0D8B071EF0AF073EFF7
:1014E0000AF0C9EF0DF0660E366E660E376E660EA8
:1014F000386E3F0E396E8EC13AF08FC13BF090C10D
:101500003CF091C13DF061EC21F0D8B08AEF0AF0D7
:101510008CEF0AF0DAEF0AF0660E366E660E376E62
:10152000660E386E3F0E396E8AC13AF08BC13BF0C1
:101530008CC13CF08DC13DF061EC21F0D8B0A3EF3F
:101540000AF0A5EF0AF0DAEF0AF0660E366E660EC4
:10155000376E660E386E3F0E396E86C13AF087C11F
:101560003BF088C13CF089C13DF061EC21F0D8B07E
:10157000BCEF0AF0BEEF0AF0DAEF0AF0500E0001FD
:10158000BC6F010EBD6F560EBE6F0E0EBF6F30ECFE
:1015900024F0500E066E010E076E3FEC26F0E7ECCD
:1015A00026F02A0E0001D56F8D0EE82EFED7D52F1E
:1015B000FCD700D0000E366E000E376EC00E386EAF
:1015C0003F0E396E8EC13AF08FC13BF090C13CF0B6
:1015D00091C13DF061EC21F0D8B0F1EF0AF0F3EFEA
:1015E0000AF065EF0BF0CD0E366ECC0E376E4C0E5A
:1015F000386E3F0E396E8AC119F08BC11AF08CC15A
:101600001BF08DC11CF08EC115F08FC116F090C17A
:1016100017F091C118F046EC25F015C03AF016C04D
:101620003BF017C03CF018C03DF061EC21F0D8B0A1
:101630001CEF0BF01EEF0BF065EF0BF0CD0E366ECE
:10164000CC0E376E4C0E386E3F0E396E86C119F0D7
:1016500087C11AF088C11BF089C11CF08EC115F03A
:101660008FC116F090C117F091C118F046EC25F02B
:1016700015C03AF016C03BF017C03CF018C03DF062
:1016800061EC21F0D8B047EF0BF049EF0BF065EFBC
:101690000BF0500E0001BC6F010EBD6F6A0EBE6FE5
:1016A0000E0EBF6F30EC24F0500E066E010E076E6A
:1016B0003FEC26F0E7EC26F02A0E0001D56F8D0EE8
:1016C000E82EFED7D52FFCD700D0660E366E660EFC
:1016D000376EA60E386E3F0E396E8EC13AF08FC14E
:1016E0003BF090C13CF091C13DF061EC21F0D8B0ED
:1016F0007CEF0BF07EEF0BF0CCEF0BF0000E366EB4
:10170000000E376E000E386E3F0E396E8AC13AF009
:101710008BC13BF08CC13CF08DC13DF061EC21F000
:10172000D8B095EF0BF097EF0BF0CCEF0BF0000E6D
:10173000366E000E376E000E386E3F0E396E86C163
:101740003AF087C13BF088C13CF089C13DF061ECC3
:1017500021F0D8B0AEEF0BF0B0EF0BF0CCEF0BF008
:10176000500E0001BC6F010EBD6F480EBE6F0E0E15
:10177000BF6F30EC24F0500E066E010E076E3FEC8A
:1017800026F0E7EC26F02A0E0001D56F8D0EE82E2C
:10179000FED7D52FFCD700D0000E366E000E376E68
:1017A000800E386E3F0E396E8EC13AF08FC13BF01D
:1017B00090C13CF091C13DF061EC21F0D8B0E3EF75
:1017C0000BF0E5EF0BF033EF0CF0CD0E366ECC0ED8
:1017D000376E4C0E386E3F0E396E8AC13AF08BC1AF
:1017E0003BF08CC13CF08DC13DF061EC21F0D8B0F4
:1017F000FCEF0BF0FEEF0BF033EF0CF086C136F090
:1018000087C137F088C138F089C139F0CD0E3A6E02
:10181000CC0E3B6E4C0E3C6E3F0E3D6E61EC21F0EB
:10182000D8B015EF0CF017EF0CF033EF0CF0500EB2
:101830000001BC6F010EBD6F4F0EBE6F0E0EBF6F6D
:1018400030EC24F0500E066E010E076E3FEC26F0D1
:10185000E7EC26F02A0E0001D56F8D0EE82EFED79C
:10186000D52FFCD700D0000E366E000E376E000E5E
:10187000386E3F0E396E8EC119F08FC11AF090C1CB
:101880001BF091C11CF086C115F087C116F088C10C
:1018900017F089C118F046EC25F015C03AF016C0D3
:1018A0003BF017C03CF018C03DF061EC21F0D8B01F
:1018B0005CEF0CF05EEF0CF0D7EF0CF08EC136F061
:1018C0008FC137F090C138F091C139F0000E3A6EF7
:1018D000000E3B6E000E3C6E3F0E3D6E61EC21F043
:1018E000D8B075EF0CF077EF0CF0D7EF0CF0000EDE
:1018F000366E000E376E000E386E3F0E396E8AC19E
:1019000019F08BC11AF08CC11BF08DC11CF086C17F
:1019100015F087C116F088C117F089C118F046ECA0
:1019200025F015C03AF016C03BF017C03CF018C0C7
:101930003DF061EC21F0D8B0A0EF0CF0A2EF0CF07C
:10194000D7EF0CF0CD0E366ECC0E376E4C0E386ED7
:101950003F0E396E86C13AF087C13BF088C13CF03A
:1019600089C13DF061EC21F0D8B0B9EF0CF0BBEFCC
:101970000CF0D7EF0CF0500E0001BC6F010EBD6FE4
:10198000390EBE6F0E0EBF6F30EC24F0500E066E97
:10199000010E076E3FEC26F0E7EC26F02A0E000160
:1019A000D56F8D0EE82EFED7D52FFCD700D0CD0EEB
:1019B000366ECC0E376ECC0E386E3E0E396E8EC142
:1019C00019F08FC11AF090C11BF091C11CF08AC1AF
:1019D00015F08BC116F08CC117F08DC118F046ECD4
:1019E00025F015C03AF016C03BF017C03CF018C007
:1019F0003DF061EC21F0D8B000EF0DF002EF0DF0FA
:101A000062EF0DF0000E366E000E376E800E386EEF
:101A10003F0E396E8AC13AF08BC13BF08CC13CF06D
:101A20008DC13DF061EC21F0D8B019EF0DF01BEF46
:101A30000DF062EF0DF0CD0E366ECC0E376ECC0E83
:101A4000386E3E0E396E86C119F087C11AF088C112
:101A50001BF089C11CF08AC115F08BC116F08CC136
:101A600017F08DC118F046EC25F015C03AF016C0FD
:101A70003BF017C03CF018C03DF061EC21F0D8B04D
:101A800044EF0DF046EF0DF062EF0DF0500E000147
:101A9000BC6F010EBD6F5C0EBE6F0E0EBF6F30ECE3
:101AA00024F0500E066E010E076E3FEC26F0E7ECB8
:101AB00026F02A0E0001D56F8D0EE82EFED7D52F09
:101AC000FCD700D08EC136F08FC137F090C138F00E
:101AD00091C139F0330E3A6E330E3B6E330E3C6ECD
:101AE0003F0E3D6E61EC21F0D8B079EF0DF07BEF49
:101AF0000DF0C9EF0DF0000E366E000E376E800E41
:101B0000386E3F0E396E8AC13AF08BC13BF08CC102
:101B10003CF08DC13DF061EC21F0D8B092EF0DF0BA
:101B200094EF0DF0C9EF0DF0000E366E000E376E1B
:101B3000800E386E3F0E396E86C13AF087C13BF099
:101B400088C13CF089C13DF061EC21F0D8B0ABEF29
:101B50000DF0ADEF0DF0C9EF0DF0500E0001BC6FB0
:101B6000010EBD6F330EBE6F0E0EBF6F30EC24F052
:101B7000500E066E010E076E3FEC26F0E7EC26F0E5
:101B80002A0E0001D56F8D0EE82EFED7D52FFCD77B
:101B900000D03C0E0001BC6F010EBD6F3E0EBE6F4B
:101BA0000E0EBF6F82C1C0F083C1C1F084C1C2F00C
:101BB00085C1C3F030EC24F03C0E066E010E076EBA
:101BC0003FEC26F0E7EC26F02A0E0001D56F8D0ED3
:101BD000E82EFED7D52FFCD700D001018051925DB1
:101BE0000001D56F0101815193590001D66FD5C015
:101BF00005F0D6C006F0076A086A000E8EEC1EF0EB
:101C000005C036F006C037F007C038F008C039F01C
:101C100082C121F083C122F084C123F085C124F068
:101C200080C105F081C106F0076A086A000E8EECDB
:101C30001EF005C019F006C01AF007C01BF008C05E
:101C40001CF068C115F069C116F06AC117F06BC1CC
:101C500018F046EC25F015C01DF016C01EF017C098
:101C60001FF018C020F0DFEC16F01DC03AF01EC0C7
:101C70003BF01FC03CF020C03DF0F4EC18F036C043
:101C800078F137C079F138C07AF139C07BF1000EB4
:101C90000001BC6F010EBD6F1C0EBE6F0E0EBF6F3C
:101CA00078C1C0F079C1C1F07AC1C2F07BC1C3F084
:101CB00001018051925D0001C46F0101815193596E
:101CC0000001C56F30EC24F0000E066E010E076EA9
:101CD0003FEC26F0E7EC26F02A0E0001D56F8D0EC2
:101CE000E82EFED7D52FFCD700D001017C51945DA2
:101CF0000001D56F01017D5195590001D66FD5C006
:101D000005F0D6C006F0076A086A000E8EEC1EF0D9
:101D100005C036F006C037F007C038F008C039F00B
:101D200082C121F083C122F084C123F085C124F057
:101D30007CC105F07DC106F0076A086A000E8EECD2
:101D40001EF005C019F006C01AF007C01BF008C04D
:101D50001CF06CC115F06DC116F06EC117F06FC1AB
:101D600018F046EC25F015C01DF016C01EF017C087
:101D70001FF018C020F0DFEC16F01DC03AF01EC0B6
:101D80003BF01FC03CF020C03DF0F4EC18F036C032
:101D900078F137C079F138C07AF139C07BF1140E8F
:101DA0000001BC6F010EBD6F280EBE6F0E0EBF6F1F
:101DB00078C1C0F079C1C1F07AC1C2F07BC1C3F073
:101DC00030EC24F0140E066E010E076E3FEC26F088
:101DD000E7EC26F02A0E0001D56F8D0EE82EFED717
:101DE000D52FFCD700D001017E51965D0001D56F43
:101DF00001017F5197590001D66FD5C005F0D6C0BB
:101E000006F0076A086A000E8EEC1EF005C036F078
:101E100006C037F007C038F008C039F082C121F0A1
:101E200083C122F084C123F085C124F07EC105F076
:101E30007FC106F0076A086A000E8EEC1EF005C02E
:101E400019F006C01AF007C01BF008C01CF070C1E2
:101E500015F071C116F072C117F073C118F046EC9D
:101E600025F015C01DF016C01EF017C01FF018C0D9
:101E700020F0DFEC16F01DC03AF01EC03BF01FC092
:101E80003CF020C03DF0F4EC18F036C078F137C0DB
:101E900079F138C07AF139C07BF1280E0001BC6FAE
:101EA000010EBD6F100EBE6F0E0EBF6F78C1C0F079
:101EB00079C1C1F07AC1C2F07BC1C3F030EC24F02B
:101EC000280E066E010E076E3FEC26F0E7EC26F0BA
:101ED0002A0E0001D56F8D0EE82EFED7D52FFCD728
:101EE00000D0190E0001D66F5A0ED56FB10EE82E34
:101EF000FED7D52FFCD7D62FFAD700D0B5EF07F0F5
:101F00003BEF00F0000E0001986F72C099F073C0B3
:101F10009AF074C09BF075C09CF09CBF94EF0FF0DA
:101F200092EF0FF0A8EF0FF0010E986F99C005F037
:101F30009AC006F09BC007F09CC008F0EEEC25F0BC
:101F400005C099F006C09AF007C09BF008C09CF04D
:101F5000000E00019E6F000E9D6FF3C088F0F4C06C
:101F600089F09851D8B4B7EF0FF0B9EF0FF0CDEF7B
:101F70000FF09851D8A4BFEF0FF0C1EF0FF0C7EFEB
:101F80000FF0000E7E6F2B0E7D6FCBEF0FF0000E6B
:101F90007E6F2D0E7D6F7DC098F099C005F09AC0C0
:101FA00006F09BC007F09CC008F0E3EC21F00504AC
:101FB0000610D8A4DEEF0FF0E0EF0FF013EF10F0F3
:101FC00000019851D8B4E7EF0FF0E9EF0FF0F2EF0E
:101FD0000FF098C09AF18807D8A08907000E9E6F6D
:101FE000010E9D6F9A0E9D25056E010E9E21066EB7
:101FF000620E076E0E0E086E69EC25F00001FD0EF4
:102000008827FF0E892370C015F071C016F09A0E54
:10201000176E010E186E88C019F089C01AF066ECB0
:1020200023F07EEF14F099C005F09AC006F09BC033
:1020300007F09CC008F0E3EC21F005500610D8A48E
:1020400024EF10F026EF10F046EF10F00001985149
:10205000D8B42DEF10F02FEF10F038EF10F098C03B
:102060009AF18807D8A08907000E9E6F010E9D6F18
:102070009A0E9D25056E010E9E21066E660E076E58
:102080000E0E086E69EC25F0FEEF0FF0000E000159
:102090009F6F000EA06F800EA16F3F0EA26F000E0B
:1020A000876F000E866F99C005F09AC006F09BC03E
:1020B00007F09CC008F0000E096E000E0A6E000EBC
:1020C0000B6E000E0C6EC7EC22F0D8B06AEF10F069
:1020D0006CEF10F04BEF11F079EF10F08AC09FF029
:1020E0008BC0A0F08CC0A1F08DC0A2F00001864B87
:1020F000872B9FC01DF0A0C01EF0A1C01FF0A2C082
:1021000020F0000E216E000E226E200E236E410E76
:10211000246EDFEC16F01DC08AF01EC08BF01FC0CD
:102120008CF020C08DF000018A51995D056E8B51B5
:102130009A59066E8C519B59076E8D519C59086EA9
:10214000A3EC23F008BEB0EF10F008500710061003
:1021500009E1020E055CD8A0B0EF10F0B2EF10F06C
:102160006EEF10F08AC036F08BC037F08CC038F0BC
:102170008DC039F099C03AF09AC03BF09BC03CF05A
:102180009CC03DF061EC21F0D8A0C9EF10F0CBEF7E
:1021900010F06EEF10F000019F51995D056EA05197
:1021A0009A59066EA1519B59076EA2519C59086E0F
:1021B000A3EC23F008BEEAEF10F008500710061059
:1021C00007E1020E055CD8B0E8EF10F0EAEF10F07E
:1021D00032EF11F09FC099F0A0C09AF0A1C09BF01F
:1021E000A2C09CF04BEF11F09FC036F0A0C037F0BA
:1021F000A1C038F0A2C039F0000E3A6E000E3B6E5E
:10220000200E3C6E410E3D6EF4EC18F036C09FF08F
:1022100037C0A0F038C0A1F039C0A2F00001860795
:10222000D8A087079F51995D056EA0519A59066EF7
:10223000A1519B59076EA2519C59086EA3EC23F043
:1022400008BE30EF11F008500710061007E1020E2B
:10225000055CD8B02EEF11F030EF11F032EF11F035
:10226000EAEF10F099C036F09AC037F09BC038F012
:102270009CC039F09FC03AF0A0C03BF0A1C03CF038
:10228000A2C03DF061EC21F0D8A049EF11F04BEF76
:1022900011F0F4EF10F076C080F080C081F0000102
:1022A000F6BF55EF11F057EF11F05DEF11F0F5C0EB
:1022B00079F0F6C07AF061EF11F0000E7A6F060E39
:1022C000796F79C084F07AC085F0844B852B660ED7
:1022D0008119D8A46EEF11F070EF11F090EF11F0AA
:1022E00087BF77EF11F075EF11F083EF11F0000E5B
:1022F0009F6F000EA06F800EA16F3F0EA26F000EA9
:10230000876F000E866F670E8019D8B48AEF11F0C0
:102310008CEF11F090EF11F08651842787518523BF
:10232000000E8F6F000E8E6F99C090F09AC091F0E2
:102330009BC092F09CC093F09FC08AF0A0C08BF02D
:10234000A1C08CF0A2C08DF021EF12F090C036F049
:1023500091C037F092C038F093C039F09FC03AF086
:10236000A0C03BF0A1C03CF0A2C03DF0F4EC18F0DE
:1023700036C04FF037C050F038C051F039C052F07D
:1023800083EC1DF04FC094F050C095F051C096F012
:1023900052C097F094C005F095C006F096C007F0C3
:1023A00097C008F0DEEC20F005C082F006C083F094
:1023B00090C015F091C016F092C017F093C018F0BD
:1023C00094C021F095C022F096C023F097C024F06D
:1023D0009FC01DF0A0C01EF0A1C01FF0A2C020F041
:1023E000DFEC16F01DC019F01EC01AF01FC01BF064
:1023F00020C01CF046EC25F015C090F016C091F0FE
:1024000017C092F018C093F09FC036F0A0C037F00C
:10241000A1C038F0A2C039F0000E3A6E000E3B6E3B
:10242000200E3C6E410E3D6EF4EC18F036C09FF06D
:1024300037C0A0F038C0A1F039C0A2F000018E4B27
:102440008F2B84518E5D8F51800A536E8551800A87
:102450005358D8A02EEF12F030EF12F0A6EF11F083
:102460009FC01DF0A0C01EF0A1C01FF0A2C020F0B0
:10247000000E216E000E226EA00E236E400E246E02
:10248000DFEC16F01DC094F01EC095F01FC096F052
:1024900020C097F090C036F091C037F092C038F06D
:1024A00093C039F094C03AF095C03BF096C03CF030
:1024B00097C03DF061EC21F0D8B061EF12F063EF0E
:1024C00012F06EEF12F0000E0001946F000E956F87
:1024D000000E966F000E976F97EF12F090C005F008
:1024E00091C006F092C007F093C008F094C009F0C4
:1024F00095C00AF096C00BF097C00CF0C7EC22F024
:10250000D8A085EF12F087EF12F097EF12F00001DC
:1025100082B18DEF12F08FEF12F097EF12F0000EF4
:10252000946F000E956F000E966F000E976F99C016
:1025300005F09AC006F09BC007F09CC008F094C05C
:1025400009F095C00AF096C00BF097C00CF07FEC34
:1025500014F005C090F006C091F007C092F008C0DA
:1025600093F090C036F091C037F092C038F093C02D
:1025700039F0000E216E000E226E200E236E410EE9
:10258000246E8AC01DF08BC01EF08CC01FF08DC061
:1025900020F0DFEC16F01DC03AF01EC03BF01FC06B
:1025A0003CF020C03DF061EC21F0D8A0DAEF12F051
:1025B000DCEF12F005EF13F00001864B872B8AC089
:1025C0001DF08BC01EF08CC01FF08DC020F0000EDF
:1025D000216E000E226E200E236E410E246EDFEC63
:1025E00016F01DC08AF01EC08BF01FC08CF020C0FA
:1025F0008DF0660E00018119D8A401EF13F003EFEE
:1026000013F005EF13F0844B852B8AC09FF08BC02D
:10261000A0F08CC0A1F08DC0A2F086C077F087C07A
:1026200078F0000E00017F6F000E7C6F000E7B6F54
:10263000000E8F6F000E8E6F03EF14F090C036F017
:1026400091C037F092C038F093C039F09FC03AF093
:10265000A0C03BF0A1C03CF0A2C03DF0F4EC18F0EB
:1026600036C04FF037C050F038C051F039C052F08A
:1026700083EC1DF04FC094F050C095F051C096F01F
:1026800052C097F094C005F095C006F096C007F0D0
:1026900097C008F0DEEC20F006BE5AEF13F00650AB
:1026A00007E10A0E055CD8B058EF13F05AEF13F0AB
:1026B0006AEF13F094C005F095C006F096C007F0DD
:1026C00097C008F0DEEC20F005C082F006C083F071
:1026D0006FEF13F0000E0001836F090E826F00018F
:1026E0007F51D8A476EF13F078EF13F0A0EF13F03A
:1026F00078BF7FEF13F07DEF13F0A0EF13F09A0E89
:102700009D25D96E010E9E21DA6E2E0EDF6E9D4B39
:102710009E2B8807D8A08907010E7F6FA0EF13F0CA
:102720009A0E9D25D96E010E9E21DA6E300EDF6E57
:102730009D4B9E2B8807D8A089077B07D8A07C07D4
:102740007B517C11D8A4A7EF13F0A9EF13F090EF01
:1027500013F09A0E9D25D96E010E9E21DA6E8251DC
:10276000300FDF6E9D4B9E2B8807D8A0890790C045
:1027700015F091C016F092C017F093C018F094C0F5
:1027800021F095C022F096C023F097C024F09FC09E
:102790001DF0A0C01EF0A1C01FF0A2C020F0DFEC11
:1027A00016F01DC019F01EC01AF01FC01BF020C08B
:1027B0001CF046EC25F015C090F016C091F017C043
:1027C00092F018C093F09FC036F0A0C037F0A1C0BF
:1027D00038F0A2C039F0000E3A6E000E3B6E200EAB
:1027E0003C6E410E3D6EF4EC18F036C09FF037C0E1
:1027F000A0F038C0A1F039C0A2F000017707D8A03E
:1028000078078E4B8F2B84518E5D8F51800A536ECB
:102810008551800A5358D8B010EF14F012EF14F01D
:1028200020EF14F09EBF1EEF14F09E5109E14B0EF5
:102830009D5DD8A01EEF14F020EF14F01EEF13F0F2
:10284000000E8F6F4F0E8E6F9A0E8E25D96E010E71
:102850008F21DA6E000EDF6E9A0E536E010E546EEB
:102860009D51535E9E51545A8E515324056E8F5183
:102870005420066E9A0E076E010E086E9DC009F078
:102880009EC00AF059EC24F000019D518E5D9D6FB1
:102890009E518F599E6F9851D8A451EF14F054EF68
:1028A00014F0010E55EF14F0000E8E6F8F6B9851DF
:1028B000D8B45DEF14F05FEF14F06AEF14F09D07E9
:1028C000D8A09E079A0E9D25D96E010E9E21DA6E24
:1028D00098C0DFFF8E51885F8F51895B70C015F003
:1028E00071C016F09A0E9D25176E010E9E21186E6E
:1028F00088C019F089C01AF066EC23F01200085065
:10290000800B116E08500824136E07AE8AEF14F086
:102910008CEF14F08DEF14F013801350D8B493EFB4
:1029200014F095EF14F0AAEF14F01328D8A49BEF3D
:1029300014F09DEF14F0A5EF14F0000E056E000EDC
:10294000066E000E076E000E086E078E000E086EF3
:10295000B2EF14F0000E056E000E066E000E076E4C
:10296000000E086E0C50800B126E11501218D8B465
:10297000BCEF14F0BEEF14F0BFEF14F0118C0C504C
:102980000C24126E0BAEC7EF14F0C9EF14F0CAEFAF
:1029900014F012801250D8B4D0EF14F0D2EF14F02B
:1029A000E7EF14F01228D8A4D8EF14F0DAEF14F0FF
:1029B000E2EF14F0000E096E000E0A6E000E0B6EB0
:1029C000000E0C6E0B8E000E0C6EEFEF14F0000E6E
:1029D000096E000E0A6E000E0B6E000E0C6E135088
:1029E000125CD8B0F6EF14F0F8EF14F01FEF15F00A
:1029F00011ACFDEF14F0FFEF14F001EF15F0800EB5
:102A0000111A13C014F012C013F014C012F005C054
:102A100014F009C005F014C009F006C014F00AC093
:102A200006F014C00AF007C014F00BC007F014C081
:102A30000BF008C014F00CC008F014C00CF0000E2D
:102A4000146E135012C00DF00E6A0D5E000E0E5A79
:102A50000EBE34EF15F00E5009E11A0E0D5CD8A031
:102A600034EF15F036EF15F06DEF15F00550061048
:102A700007100810D8A43FEF15F042EF15F0010E33
:102A800043EF15F0000E146E000E056E000E066E7C
:102A9000000E076E000E086E12C013F076EF15F0F0
:102AA00014A055EF15F057EF15F05DEF15F0D89025
:102AB00014300109146E5FEF15F0D890143205A0A0
:102AC00064EF15F066EF15F067EF15F0148E08341B
:102AD0000832073206320532132A1250135CD8A08E
:102AE00074EF15F076EF15F050EF15F011BC7BEF99
:102AF00015F07DEF15F0BDEF15F01350D8A483EF5E
:102B000015F085EF15F08FEF15F0000E056E000E35
:102B1000066E000E076E000E086EDEEF16F009500E
:102B200005260A5006220B5007220C50082208A046
:102B30009CEF15F09EEF15F04AEF16F014A0A3EFEE
:102B400015F0A5EF15F0ABEF15F0D8901430010992
:102B5000146EADEF15F0D890143205A0B2EF15F059
:102B6000B4EF15F0B5EF15F0148E083408320732C3
:102B700006320532132A4AEF16F00950055C0A5056
:102B800006580B5007580850800A0D6E0C50800AEA
:102B90000D58D8B0CEEF15F0D0EF15F0FBEF15F0D3
:102BA0000550095C0D6E06500A580E6E07500B5802
:102BB0000F6E08500C58106EFF0E0D24056EFF0EA0
:102BC0000E20066EFF0E0F20076EFF0E1020086EFF
:102BD000800E111A146C1450D8A4F1EF15F0F3EF15
:102BE00015F003EF16F0010E0526000E062207224F
:102BF000082203EF16F00950055E0A50065A0B50E2
:102C0000075A0C50085A0550061007100810D8A48F
:102C10000CEF16F00EEF16F043EF16F01450D8A498
:102C200014EF16F016EF16F043EF16F0000E056ED7
:102C3000000E066E000E076E000E086EDEEF16F038
:102C4000D890053606360736083614AE2AEF16F049
:102C50002CEF16F02DEF16F0058014A032EF16F0D1
:102C600034EF16F038EF16F0D88014363AEF16F03D
:102C7000D89014361350D8B440EF16F042EF16F047
:102C800043EF16F0130607AE48EF16F04AEF16F0C2
:102C900020EF16F0000E126E14AE51EF16F053EF47
:102CA00016F06BEF16F014C00DF07F0E0D16D8B4B1
:102CB0005CEF16F05EEF16F062EF16F0010E126E8A
:102CC0006BEF16F005A067EF16F069EF16F06BEFEB
:102CD00016F05EEF16F01250D8B471EF16F073EFE5
:102CE00016F09EEF16F0010E0526000E06220722B2
:102CF000082208A07EEF16F080EF16F09EEF16F087
:102D000005C00DF006C00EF007C00FF008C010F0AF
:102D1000103410320F320E320D320DC005F00EC0DD
:102D200006F00FC007F010C008F01328D8B49BEFCE
:102D300016F09DEF16F09EEF16F0132A1328D8B464
:102D4000A4EF16F0A6EF16F0AEEF16F01350D8A4CD
:102D5000ACEF16F0AEEF16F0C0EF16F0000E056EF9
:102D6000000E066E000E076E000E086E1350D8A4FB
:102D7000BCEF16F0BEEF16F0C0EF16F0000E116EAD
:102D800013A0C5EF16F0C7EF16F0CAEF16F0078EC6
:102D9000CBEF16F0079ED8901330086E11AED3EF2C
:102DA00016F0D5EF16F0D6EF16F0088E05C005F038
:102DB00006C006F007C007F008C008F01200205057
:102DC000800B296E205020242F6E1FAEEAEF16F0E4
:102DD000ECEF16F0EDEF16F02F802F50D8B4F3EF94
:102DE00016F0F5EF16F008EF17F02F28D8A4FBEF38
:102DF00016F0FDEF16F005EF17F0000E1D6E000E39
:102E00001E6E000E1F6E000E206E1F8E10EF17F04C
:102E1000000E1D6E000E1E6E000E1F6E000E206E48
:102E20002450800B291A245024242E6E23AE1BEF2D
:102E300017F01DEF17F01EEF17F02E802E50D8B4AC
:102E400024EF17F026EF17F039EF17F02E28D8A44B
:102E50002CEF17F02EEF17F036EF17F0000E216E63
:102E6000000E226E000E236E000E246E238E41EFA4
:102E700017F0000E216E000E226E000E236E000E63
:102E8000246E2E50D8B447EF17F049EF17F051EFEA
:102E900017F02F50D8A44FEF17F051EF17F05BEF5A
:102EA00017F0000E1D6E000E1E6E000E1F6E000E3F
:102EB000206EF3EF18F023501D02F3CF34F0F4CF5F
:102EC00035F034502A6E2B6A2C6A2D6A3550306EDC
:102ED000316A326A336A22501E02F3CF34F0F4CFE3
:102EE00035F034502A26000E2B222C222D2235506C
:102EF0003026000E31223222332221501F02F3CF1E
:102F000034F0F4CF35F034502A26000E2B222C2238
:102F10002D2235503026000E3122322233222CC091
:102F20002DF02BC02CF02AC02BF02A6A21501E0253
:102F3000F3CF34F0F4CF35F034502A2635502B221D
:102F4000000E2C22000E2D2222501D02F3CF34F051
:102F5000F4CF35F034502A2635502B22000E2C2287
:102F6000000E2D222CC02DF02BC02CF02AC02BF0EF
:102F70002A6A21501D02F3CF34F0F4CF35F03450DB
:102F80002A2635502B22000E2C22000E2D222350F3
:102F90001E02F3CF34F0F4CF35F0345030263550E4
:102FA0003122000E3222000E332222501F02F3CFB4
:102FB00034F0F4CF35F03450302635503122000E45
:102FC0003222000E332223501F02F3CF34F0F4CF0D
:102FD00035F03450256E3550266E276A286A27C092
:102FE00028F026C027F025C026F0256A2550302677
:102FF0002650312227503222285033222AC025F071
:103000002BC026F02CC027F02DC028F0190E0EEF93
:1030100018F0D8902832273226322532E82E09EFD0
:1030200018F02550302626503122275032222850C1
:1030300033222CC02DF02BC02CF02AC02BF02A6A92
:103040002E502FC025F0266A2526000E2622820E3D
:103050002524346EFF0E2620356E44EF18F0D890EC
:1030600030363136323633362DAE39EF18F03BEF8D
:1030700018F03CEF18F03080D8902A362B362C36DA
:103080002D363406D8A0350632AE49EF18F04BEF96
:1030900018F02FEF18F0000E2E6E2DAE52EF18F034
:1030A00054EF18F078EF18F0FF0E2A14256EFF0E7B
:1030B0002B14266EFF0E2C14276E7F0E2D14286EF7
:1030C0002550261027102810D8B469EF18F06BEFA0
:1030D00018F06FEF18F0010E2E6E78EF18F030A098
:1030E00074EF18F076EF18F078EF18F06BEF18F037
:1030F0002E50D8B47EEF18F080EF18F0A4EF18F03F
:10310000010E3026000E31223222332233A08BEF03
:1031100018F08DEF18F0A4EF18F030C025F031C092
:1031200026F032C027F033C028F028342832273266
:103130002632253225C030F026C031F027C032F0CB
:1031400028C033F0344A352A35BEAFEF18F0355079
:1031500008E13428D8A0AFEF18F0B1EF18F0BBEFBA
:1031600018F0000E306E000E316E800E326E7F0E43
:10317000336EE9EF18F035BEC8EF18F0355006E1B0
:103180003404D8B0C6EF18F0C8EF18F0D4EF18F038
:10319000000E306E000E316E000E326E000E336E79
:1031A000000E296EE9EF18F034C02FF0FF0E301634
:1031B000FF0E31167F0E3216000E33162FA0E3EFEE
:1031C00018F0E5EF18F0E6EF18F0328ED8902F30B7
:1031D000336E2950331230C01DF031C01EF032C0A2
:1031E0001FF033C020F012003950800B466E39506A
:1031F00039244D6E38AEFFEF18F001EF19F002EFF1
:1032000019F04D804D50D8B408EF19F00AEF19F0BD
:103210001FEF19F04D28D8A410EF19F012EF19F094
:103220001AEF19F0000E366E000E376E000E386E73
:10323000000E396E388E000E396E27EF19F0000E31
:10324000366E000E376E000E386E000E396E3D5031
:10325000800B461A3D503D244E6E3CAE32EF19F0C5
:1032600034EF19F035EF19F04E804E50D8B43BEFE3
:1032700019F03DEF19F052EF19F04E28D8A443EFA2
:1032800019F045EF19F04DEF19F0000E3A6E000EEF
:103290003B6E000E3C6E000E3D6E3C8E000E3D6E91
:1032A0005AEF19F0000E3A6E000E3B6E000E3C6EA7
:1032B000000E3D6E3A503B103C103D10D8A463EF19
:1032C00019F065EF19F07DEF19F0000E366E000E63
:1032D000376E000E386E000E396E800E38127F0E7B
:1032E00039124650391236C036F037C037F038C080
:1032F00038F039C039F0C0EF1AF04D50D8A483EF40
:1033000019F085EF19F08FEF19F0000E366E000EF0
:10331000376E000E386E000E396EC0EF1AF04E5048
:103320004DC03EF03F6A3E5E000E3F5A7F0E3E2487
:10333000476E000E3F20486E36C042F037C043F063
:1033400038C044F039C045F0000E366E000E376EBE
:10335000000E386E000E396E000E496E000E4A6E79
:10336000000E4B6E000E4C6E000E4E6EF0EF19F01C
:103370004E50D8B4BEEF19F0C0EF19F0D7EF19F0E6
:10338000D8904236433644364536D89036363736AE
:10339000383639364CAECFEF19F0D1EF19F0D2EF05
:1033A00019F03680D89049364A364B364C363A506A
:1033B000425C3B5043583C5044583D504558D8A07F
:1033C000E4EF19F0E6EF19F0EFEF19F04C8C3A50FA
:1033D000425E3B50435A3C50445A3D50455A4E2A57
:1033E000190E4E64F6EF19F0F8EF19F0B8EF19F076
:1033F0004250431044104510D8B401EF1AF003EFC7
:103400001AF01BEF1AF049801BEF1AF0D8903636ED
:103410003736383639364CAE10EF1AF012EF1AF054
:1034200013EF1AF03680D89049364A364B364C3670
:103430004706D8A0480638AE20EF1AF022EF1AF05F
:1034400006EF1AF0000E4E6E4CAE29EF1AF02BEF7D
:103450001AF04FEF1AF0FF0E49143E6EFF0E4A1499
:103460003F6EFF0E4B14406E7F0E4C14416E3E506B
:103470003F1040104110D8B440EF1AF042EF1AF05C
:1034800046EF1AF0010E4E6E4FEF1AF036A04BEFDA
:103490001AF04DEF1AF04FEF1AF042EF1AF04E50BB
:1034A000D8B455EF1AF057EF1AF07BEF1AF0010E6F
:1034B0003626000E37223822392239A062EF1AF060
:1034C00064EF1AF07BEF1AF036C03EF037C03FF0E1
:1034D00038C040F039C041F04134413240323F32CF
:1034E0003E323EC036F03FC037F040C038F041C0F9
:1034F00039F0474A482A48BE86EF1AF0485008E19A
:103500004728D8A086EF1AF088EF1AF093EF1AF048
:10351000000E486E4768000E366E000E376E000EC5
:10352000386E000E396E48BEA0EF1AF0485006E122
:103530004704D8B09EEF1AF0A0EF1AF0AEEF1AF0E1
:10354000000E486E000E476E000E366E000E376E8F
:10355000000E386E000E396E000E466E47C04DF0FC
:103560004DA0B5EF1AF0B7EF1AF0BAEF1AF0388E97
:10357000BBEF1AF0389ED8904D30396E71EF19F0CC
:103580001200A5C0D9FFA6C0DAFFDECFF6FFDDCF5F
:10359000F7FF000EF86E0800F550250AD8A4D3EF07
:1035A0001AF0D5EF1AF02DEF1CF0A5C0D9FFA6C078
:1035B000DAFFDE2A000EDD22000E0001F46F000E9D
:1035C000F36FF3C0F7F0F569F669A5C0D9FFA6C09F
:1035D000DAFFDECFB2F0DDCFB3F0B2C0F6FFB3C09A
:1035E000F7FF000EF86E0800F550640AD8B4FBEF40
:1035F0001AF0FDEF1AF00DEF1BF0B2C0F6FFB3C0EA
:10360000F7FF000EF86E0800F550690AD8A40BEF1A
:103610001BF00DEF1BF050EF1BF0A7C0D9FFA8C0A7
:10362000DAFFDFCF55F0020EDE26DFCF56F0000EB8
:10363000DD2255C0D9FF56C0DAFFDECFA9F0DDCFBD
:10364000AAF0000EAABFFF0EAB6FAC6FAD6FAE6FEE
:10365000AF6FB06F010EB225556E000EB321566EDE
:10366000A5C0D9FFA6C0DAFF55C0DEFF56C0DDFFFA
:10367000A3C020F0A4C021F0A9C022F0AAC023F06A
:10368000ABC024F0ACC025F0ADC026F0AEC027F032
:10369000AFC028F0B0C029F044EC1CF043EF1CF0A0
:1036A000A5C0D9FFA6C0DAFFDECFB2F0DDCFB3F000
:1036B000B2C0F6FFB3C0F7FF000EF86E0800F5CFFA
:1036C000B1F06FEF1BF0B24BB32B88EF1BF06C0E19
:1036D000B16F88EF1BF0000EB16F88EF1BF0B15196
:1036E000556E566A5650000AD8B479EF1BF06BEF4E
:1036F0001BF055504C0AD8B463EF1BF02A0AD8B41B
:1037000067EF1BF00A0AD8B463EF1BF06BEF1BF0F6
:10371000B2C0F6FFB3C0F7FF000EF86E0800F55018
:10372000660AD8A496EF1BF098EF1BF024EF1CF06C
:10373000CEEF1BF0A7C0D9FFA8C0DAFFDFCF55F04E
:10374000040EDE26DFCF56F0000EDD2255C0D9FF75
:1037500056C0DAFFDECFA9F0DECFAAF0DECFABF0A5
:10376000DECFACF0E3EF1BF0A7C0D9FFA8C0DAFFB3
:10377000DFCF55F0040EDE26DFCF56F0000EDD223F
:1037800055C0D9FF56C0DAFFDECFA9F0DECFAAF0D0
:10379000DECFABF0DECFACF0E3EF1BF0B151556EF6
:1037A000566A5650000AD8B4D8EF1BF0E3EF1BF06E
:1037B00055504C0AD8B4B4EF1BF0200AD8B49AEF95
:1037C0001BF0E3EF1BF0010EB225556E000EB32186
:1037D000566EA5C0D9FFA6C0DAFF55C0DEFF56C0A1
:1037E000DDFF0CEF1CF0A3C070F0A4C071F0A9C005
:1037F00072F0AAC073F0ABC074F0ACC075F0B2C088
:10380000F6FFB3C0F7FF000EF86E0800F5CF76F0B4
:1038100082EC0FF043EF1CF0B2C0F6FFB3C0F7FF2D
:10382000000EF86E0800F550556E566A5650000AA4
:10383000D8B41DEF1CF024EF1CF05550660AD8B424
:10384000F3EF1BF024EF1CF0A5C0D9FFA6C0DAFFF0
:10385000DE2A000EDD2243EF1CF0A5C0D9FFA6C072
:10386000DAFFDECFF6FFDDCFF7FF000EF86E0800BF
:10387000F550056E066AA3C007F0A4C008F062EC1C
:1038800022F024EF1CF0120022C038F023C039F0DF
:1038900024C03AF025C03BF026C03CF027C03DF0E4
:1038A00028C03EF029C03FF03FBE59EF1CF05CEF4E
:1038B0001CF0010E5DEF1CF0000E426E4250D8B4B9
:1038C00064EF1CF066EF1CF076EF1CF03F1E3E1E0E
:1038D0003D1E3C1E3B1E3A1E391E386C000E39221E
:1038E0003A223B223C223D223E223F220001F6BFEB
:1038F00084EF1CF0F65106E1F505D8B082EF1CF01C
:1039000084EF1CF08AEF1CF0000E356E010E346E51
:103910008EEF1CF0F5C034F0F6C035F0F3C036F091
:10392000F4C037F04250D8B498EF1CF09AEF1CF076
:10393000B1EF1CF03606D8A037064250D8A4A3EF4A
:103940001CF0A5EF1CF0ABEF1CF0000E336E2B0E3D
:10395000326EAFEF1CF0000E336E2D0E326E32C0A1
:1039600042F0000E416E4F0E406E000E0101E96FF5
:1039700036EF1DF04006D8A041069A0E4024D96EBD
:10398000010E4120DA6E38C005F039C006F03AC0A9
:1039900007F03BC008F03CC009F03DC00AF03EC053
:1039A0000BF03FC00CF00A0E0D6E000E0E6E000EF6
:1039B0000F6E000E106E000E116E000E126E000ED5
:1039C000136E000E146E2CEC20F005C02AF006C019
:1039D0002BF007C02CF008C02DF009C02EF00AC053
:1039E0002FF00BC030F00CC031F02AC017F02BC004
:1039F00018F0CEEC25F01750300FDF6E3406D8A04B
:103A000035063606D8A0370638C005F039C006F0AE
:103A10003AC007F03BC008F03CC009F03DC00AF0D6
:103A20003EC00BF03FC00CF00A0E0D6E000E0E6E85
:103A3000000E0F6E000E106E000E116E000E126E54
:103A4000000E136E000E146E68EC1FF005C038F007
:103A500006C039F007C03AF008C03BF009C03CF09E
:103A60000AC03DF00BC03EF00CC03FF041BE41EF3C
:103A70001DF0415008E14004D8A041EF1DF043EF94
:103A80001DF05FEF1DF0385039103A103B103C101C
:103A90003D103E103F10D8A450EF1DF052EF1DF026
:103AA000BAEF1CF035BE5FEF1DF0355006E134046F
:103AB000D8B05DEF1DF05FEF1DF0BAEF1CF0425083
:103AC000D8B465EF1DF067EF1DF072EF1DF04006F2
:103AD000D8A041069A0E4024D96E010E4120DA6E1C
:103AE00042C0DFFF20C015F021C016F09A0E40241E
:103AF000176E010E4120186E36C019F037C01AF04B
:103B000066EC23F01200EBC06CF0ECC06DF0EDC081
:103B10006EF0EEC06FF04FC06CF050C06DF051C051
:103B20006EF052C06FF0810E0001606FFF0E616F8A
:103B30006CC062F06DC063F06EC064F06FC065F081
:103B4000180EA8EF1DF0D8906533643363336233E9
:103B5000E82EA3EF1DF0625160256A6F000E61210F
:103B60006B6F6BBFBDEF1DF06B5109E1170E6A5D06
:103B7000D8A0BDEF1DF0BFEF1DF0C9EF1DF04FC085
:103B80004FF050C050F051C051F052C052F08DEF84
:103B90001EF06BBFCEEF1DF0D0EF1DF041EF1EF019
:103BA0006AC060F0FF0E616FFF0E626F7F0E636F81
:103BB000000E646F6067DFEF1DF0E7EF1DF0643506
:103BC0006433633362336133602FDAEF1DF061C019
:103BD00066F062C067F063C068F064C069F000011D
:103BE00066516C15606F67516D15616F68516E1588
:103BF000626F69516F15636F6051611162116311DA
:103C0000D8A405EF1EF007EF1EF009EF1EF0BFEF7E
:103C10001DF06CC060F06DC061F06EC062F06FC0EE
:103C200063F0200E19EF1EF0D890633362336133D6
:103C30006033E82E14EF1EF06051611162116311C0
:103C4000D8B425EF1EF027EF1EF02FEF1EF06651BF
:103C50006C2767516D2368516E2369516F23661D70
:103C6000606F671D616F681D626F691D636F6051D2
:103C70006C1761516D1762516E1763516F1785EFA5
:103C80001EF06CC060F06DC061F06EC062F06FC07D
:103C900063F0200E51EF1EF0D8906333623361332E
:103CA0006033E82E4CEF1EF0605161116211631118
:103CB000D8A45DEF1EF05FEF1EF069EF1EF0000E5E
:103CC0006C6F000E6D6F000E6E6F000E6F6F85EFE4
:103CD0001EF0D8906C35606F6D35616F6E35626F18
:103CE0006F35636F6051611162116311D8B47BEF5E
:103CF0001EF07DEF1EF085EF1EF0000E6C6F000EC3
:103D00006D6F800E6E6FBF0E6F6F6CC04FF06DC029
:103D100050F06EC051F06FC052F012000D6E0D5099
:103D2000D8B495EF1EF097EF1EF0B9EF1EF008BE65
:103D30009EEF1EF09CEF1EF0B9EF1EF005C009F0DB
:103D400006C00AF007C00BF008C00CF0091E0A1EDE
:103D50000B1E0C1E092A000E0A220B220C2209C07F
:103D60000FF00AC010F00BC011F00CC012F0C1EF40
:103D70001EF005C00FF006C010F007C011F008C01B
:103D800012F00550061007100810D8A4CAEF1EF054
:103D9000CCEF1EF0D6EF1EF0000E056E000E066E84
:103DA000000E076E000E086E67EF1FF0960E0E6E87
:103DB000E0EF1EF00E2AD8901232113210320F327C
:103DC000000E0F14096E000E10140A6E000E11146E
:103DD0000B6EFE0E12140C6E09500A100B100C1014
:103DE000D8A4F5EF1EF0F7EF1EF0DAEF1EF005EFA6
:103DF0001FF00E2A010E0F26000E10221122122291
:103E0000D8901232113210320F32000E0F14096E98
:103E1000000E10140A6E000E11140B6EFF0E121419
:103E20000C6E09500A100B100C10D8A41AEF1FF0DA
:103E30001CEF1FF0F9EF1EF024EF1FF00E06D890D4
:103E40000F3610361136123611BE29EF1FF02BEF48
:103E50001FF033EF1FF0020E0E6031EF1FF033EF53
:103E60001FF01EEF1FF00EB038EF1FF03AEF1FF0FB
:103E70003BEF1FF0119ED8900E320EC009F00A6A77
:103E80000B6A0C6A09C00CF00B6A0A6A096A0950CD
:103E90000F120A5010120B5011120C5012120D502A
:103EA000D8B455EF1FF057EF1FF05FEF1FF008BEBB
:103EB0005EEF1FF05CEF1FF05FEF1FF0128E0FC080
:103EC00005F010C006F011C007F012C008F0120093
:103ED000000E166E14BE71EF1FF06FEF1FF083EF30
:103EE0001FF0141E131E121E111E101E0F1E0E1E7A
:103EF0000D6C000E0E220F2210221122122213220C
:103F00001422010E166E0CBE8AEF1FF088EF1FF010
:103F10009CEF1FF00C1E0B1E0A1E091E081E071E1A
:103F2000061E056C000E06220722082209220A221C
:103F30000B220C22010E161A20EE17F0070EDE6A75
:103F4000E806FDE20D500E100F10101011101210A7
:103F500013101410D8B4AFEF1FF0B1EF1FF003EF40
:103F600020F0010E156EBFEF1FF0D8900D360E3603
:103F70000F3610361136123613361436152A14AE93
:103F8000C4EF1FF0C6EF1FF0B5EF1FF0D890173643
:103F9000183619361A361B361C361D361E360D508D
:103FA000055C0E5006580F50075810500858115015
:103FB000095812500A5813500B5814500C58D8A0D6
:103FC000E4EF1FF0E6EF1FF0F7EF1FF00D50055E76
:103FD0000E50065A0F50075A1050085A1150095ADD
:103FE00012500A5A13500B5A14500C5A1780D8907A
:103FF000143213321232113210320F320E320D32AD
:10400000152EC6EF1FF01650D8B409EF20F00BEFB5
:1040100020F01BEF20F01E1E1D1E1C1E1B1E1A1E54
:10402000191E181E176C000E182219221A221B22A4
:104030001C221D221E2217C005F018C006F019C050
:1040400007F01AC008F01BC009F01CC00AF01DC020
:104050000BF01EC00CF01200000E166E0CBE35EFF9
:1040600020F033EF20F047EF20F00C1E0B1E0A1E4D
:10407000091E081E071E061E056C000E06220722DA
:10408000082209220A220B220C22010E166E14BEEF
:104090004EEF20F04CEF20F05EEF20F0141E131EC8
:1040A000121E111E101E0F1E0E1E0D6C000E0E2273
:1040B0000F22102211221222132214220D500E1050
:1040C0000F1010101110121013101410D8B46BEF41
:1040D00020F06DEF20F0B5EF20F0010E156E7BEFB4
:1040E00020F0D8900D360E360F36103611361236B7
:1040F00013361436152A14AE80EF20F082EF20F02C
:1041000071EF20F00D50055C0E5006580F50075807
:10411000105008581150095812500A5813500B5893
:1041200014500C58D8A097EF20F099EF20F0A9EF89
:1041300020F00D50055E0E50065A0F50075A1050D1
:10414000085A1150095A12500A5A13500B5A145057
:104150000C5AD890143213321232113210320F32FC
:104160000E320D32152E82EF20F01650D8B4BBEF70
:1041700020F0BDEF20F0CDEF20F00C1E0B1E0A1E2C
:10418000091E081E071E061E056C000E06220722C9
:10419000082209220A220B220C2205C005F006C0C3
:1041A00006F007C007F008C008F009C009F00AC00F
:1041B0000AF00BC00BF00CC00CF0120007340834EE
:1041C0000E6E0E50D8A4E7EF20F0E9EF20F0F3EFE9
:1041D00020F0000E056E000E066E000E076E000E3B
:1041E000086E60EF21F005C009F006C00AF007C0B4
:1041F0000BF008C00CF0200E03EF21F0D8900C3229
:104200000B320A320932E82EFEEF20F009500D6E13
:10421000078EFF0E0516FF0E0616FF0E0716000E80
:104220000816960E0E5E0EBE1AEF21F018EF21F062
:1042300030EF21F00E50800A970FD8B022EF21F016
:1042400024EF21F026EF21F0E9EF20F0D89008329A
:104250000732063205320E3E26EF21F048EF21F0FC
:104260001F0E0E6436EF21F038EF21F040EF21F001
:10427000E9EF20F0D89005360636073608360E06E8
:104280000E50D8A446EF21F048EF21F03AEF21F08C
:104290000D50D8B44EEF21F050EF21F058EF21F03F
:1042A000081E071E061E056C000E062207220822A5
:1042B00005C005F006C006F007C007F008C008F00A
:1042C0001200000E36143E6E000E37143F6E800E44
:1042D0003814406E7F0E3914416E3E503F1040102E
:1042E0004110D8A476EF21F078EF21F080EF21F093
:1042F000000E366E000E376E000E386E000E396EF0
:10430000000E3A143E6E000E3B143F6E800E3C14BD
:10431000406E7F0E3D14416E3E503F1040104110E4
:10432000D8A495EF21F097EF21F09FEF21F0000E38
:104330003A6E000E3B6E000E3C6E000E3D6E39AEC6
:10434000A4EF21F0A6EF21F0AFEF21F0366C371E7D
:10435000D8B0372A381ED8B0382A800E39563DAE2C
:10436000B4EF21F0B6EF21F0BFEF21F03A6C3B1E25
:10437000D8B03B2A3C1ED8B03C2A800E3D56000ED9
:10438000361A000E371A000E381A800E391A000E2F
:104390003A1A000E3B1A000E3C1A800E3D1A3A5093
:1043A000365C3B5037583C5038583D503958D8B09F
:1043B000DCEF21F0DEEF21F0E1EF21F0D890E2EF29
:1043C00021F0D8801200EFC00FF0F0C010F0F1C063
:1043D00011F0F2C012F005C00FF006C010F007C0D7
:1043E00011F008C012F00FC009F010C00AF011C09F
:1043F0000BF012C00CF0180E03EF22F0D8900C3224
:104400000B320A320932E82EFEEF21F009500D6E10
:104410000E6A0D500E10D8A410EF22F012EF22F009
:1044200032EF22F0D8900F34096E10340A6E113436
:104430000B6E12340C6E09500A100B100C10D8A41D
:1044400024EF22F026EF22F02CEF22F0000E066E71
:10445000020E056E61EF22F0000E066E030E056E71
:1044600061EF22F00D280E10D8A439EF22F03BEFB7
:1044700022F05DEF22F00FC009F010C00AF011C069
:104480000BF012C00CF0090ED89009360A360B3624
:104490000C36E82E44EF22F009500A100B100C10D5
:1044A000D8B455EF22F058EF22F0010E59EF22F068
:1044B000000E056E066A61EF22F0000E066E040E15
:1044C000056E120007500810D8B469EF22F06BEFA8
:1044D00022F074EF22F007500810D8A472EF22F0F7
:1044E00074EF22F079EF22F0055021EC27F0C6EFAF
:1044F00022F020EE09F00750D9260850DA22DE50CB
:10450000DE10D8B486EF22F088EF22F0A3EF22F07D
:1045100020EE09F00750D9260850DA2210EE03F0F9
:104520000750E1260850E222DE50E65CE650800AA1
:104530000D6EDE50800A0D58D8B0A1EF22F0A3EF27
:1045400022F0C6EF22F020EE03F00750D9260850E3
:10455000DA22DECF09F0DDCF0AF007C0D9FF08C0AC
:10456000DAFFDECF0BF0DDCF0CF009500B24D96E53
:104570000A500C20DA6E05C0DFFF20EE03F0075072
:10458000D9260850DA22DE2A000EDD221200000EA3
:1045900005140D6E000E06140E6E800E07140F6EBD
:1045A0007F0E0814106E0D500E100F101010D8A4AE
:1045B000DCEF22F0DEEF22F0E6EF22F0000E056ED7
:1045C000000E066E000E076E000E086E000E091437
:1045D0000D6E000E0A140E6E800E0B140F6E7F0E01
:1045E0000C14106E0D500E100F101010D8A4FBEF0D
:1045F00022F0FDEF22F005EF23F0000E096E000E11
:104600000A6E000E0B6E000E0C6E095005180FE1BD
:104610000A5006180CE10B50071809E10C50081855
:10462000D8B415EF23F017EF23F01AEF23F0D8904A
:104630001BEF23F0D88012007D947D987B9E7F9C99
:1046400085948598839E879C050E0E01746F060ED7
:10465000766F070E696F080E886FBD508F0B30099B
:10466000BD6EE00EBE16BF50F00B0109BF6EC70E47
:10467000BC6EBD8E000EAA6E000EA66E000E0F015F
:10468000256F000E216FFC0EAD16F30EAD16CF0E8A
:10469000AD163F0EAD16AB88AB50F00B0C09AB6EF0
:1046A000AB8EA788A750F00B0C09A76EA78E2689A2
:1046B0002651F00B0C09266F268F22892251F00B10
:1046C0000C09226F228F21EC25F012001ABE6BEF2D
:1046D00023F06DEF23F073EF23F019C01EF01AC022
:1046E0001FF077EF23F0000E1F6E000E1E6E000EFF
:1046F0001D6E000E1C6E89EF23F0000E066E200E5C
:10470000056E15C007F016C008F062EC22F01C4AD6
:104710001D2A1E501C5C1D50800A1B6E1F50800AF3
:104720001B58D8A096EF23F098EF23F07DEF23F0ED
:1047300017C00EF018C00FF015C010F016C011F021
:104740008BEC25F0120008BEB2EF23F008500710E2
:10475000061006E10504D8B0B0EF23F0B2EF23F065
:10476000CDEF23F005C009F006C00AF007C00BF03A
:1047700008C00CF0091E0A1E0B1E0C1E092A000E92
:104780000A220B220C2209C005F00AC006F00BC059
:1047900007F00CC008F0D5EF23F005C005F006C007
:1047A00006F007C007F008C008F0120081EC24F002
:1047B00010C0D9FF11C0DAFF09C0DEFF0AC0DDFF5B
:1047C000A9EC24F020EE02F01050D9261150DA2284
:1047D00009C0DEFF0AC0DDFFF9EC24F020EE04F092
:1047E0001050D9261150DA2209C0DEFF0AC0DDFFC1
:1047F000D1EC24F020EE06F01050D9261150DA2228
:1048000009C0DEFF0AC0DDFF1200B6C0BAF0B7C0B3
:10481000BBF01AEF24F0B4C0A3F0B5C0A4F0BA0EF8
:104820000001A56F000EA66FB8C0A7F0B9C0A8F030
:10483000C1EC1AF0BAC0F6FFBBC0F7FF000EF86E6D
:104840000800F5500009D8A428EF24F02AEF24F03E
:104850000BEF24F0000E0001B56F000EB46F1200D4
:10486000C00E0001C86F000EC96FBCC0CAF0BDC049
:10487000CBF0000ECE6F000ECD6F000ED46F000E89
:10488000D36FCA0EB46F000EB56FBEC0B6F0BFC016
:10489000B7F0C80EB86F000EB96F05EC24F0000138
:1048A000CD51BC25D96ECE51BD21DA6E000EDF6E22
:1048B000120007C00DF008C00EF005C00BF006C0D6
:1048C0000CF073EF24F00DC0D9FF0EC0DAFFDF50FB
:1048D0000F6E0D4A0E2A0BC0D9FF0CC0DAFF0FC0B5
:1048E000DFFF0B4A0C2A0906D8A00A06092806E1B0
:1048F0000A28D8A47EEF24F080EF24F063EF24F0A0
:1049000012001CEC27F0520E0CEC27F0B60E0CEC4B
:1049100027F012EC27F0530E0CEC27F0010EADEC53
:1049200025F00B6E0B500E6E0F6A000EADEC25F0ED
:104930000B6E0B500D6E0C6A0E500C100E6E0F505D
:104940000D100F6E17EC27F00EC009F00FC00AF023
:1049500012001CEC27F0520E0CEC27F0B80E0CECF9
:1049600027F012EC27F0530E0CEC27F0010EADEC03
:1049700025F00B6E0B500E6E0F6A000EADEC25F09D
:104980000B6E0B500D6E0C6A0E500C100E6E0F500D
:104990000D100F6E17EC27F00EC009F00FC00AF0D3
:1049A00012001CEC27F0520E0CEC27F0B40E0CECAD
:1049B00027F012EC27F0530E0CEC27F0010EADECB3
:1049C00025F00B6E0B500E6E0F6A000EADEC25F04D
:1049D0000B6E0B500D6E0C6A0E500C100E6E0F50BD
:1049E0000D100F6E17EC27F00EC009F00FC00AF083
:1049F00012001CEC27F0520E0CEC27F0BA0E0CEC57
:104A000027F012EC27F0530E0CEC27F0010EADEC62
:104A100025F00B6E0B500E6E0F6A000EADEC25F0FC
:104A20000B6E0B500D6E0C6A0E500C100E6E0F506C
:104A30000D100F6E17EC27F00EC009F00FC00AF032
:104A40001200000E056E010E066E010E076EAA0E14
:104A50000A6E0F0E0B6EA60E0C6E0F0E0D6E000E74
:104A6000096EC70E086E000E0E6E010E0F6E010E5F
:104A7000106E250E136E0F0E146E210E156E0F0E96
:104A8000166E000E126EC70E116E1200000E191A6D
:104A9000000E1A1A000E1B1A800E1C1A15C005F003
:104AA00016C006F017C007F018C008F019C009F0CA
:104AB0001AC00AF01BC00BF01CC00CF07FEC14F005
:104AC00005C015F006C016F007C017F008C018F0B2
:104AD000120007C009F008C00AF005C00BF006C0BC
:104AE0000CF009C0F6FF0AC0F7FF094A0A2A000EB7
:104AF000F86E0BC0D9FF0CC0DAFF0B4A0C2A080075
:104B0000F5CFDFFFDF50D8A488EF25F08AEF25F03E
:104B100071EF25F01200000E146E000E136E9CEF64
:104B200025F012C005F0066A10C007F011C008F0A9
:104B300062EC22F0134A142A13500E24D96E14503A
:104B40000F20DA6EDF50126E1250D8A4AAEF25F0B3
:104B5000ACEF25F091EF25F01200076EC3EC26F0C4
:104B60000E01DA87C3EC26F0D5CE08F0C3EC26F0B0
:104B70000750D8B4BEEF25F0C2EF25F0066A062A2A
:104B8000C3EF25F0066A063A06460E01DA5106180A
:104B9000DF0B0618DA6FDA890850120018BEDBEF57
:104BA00025F0185006E11704D8B0D9EF25F0DBEF57
:104BB00025F0E9EF25F017C019F018C01AF0191EFA
:104BC0001A1E194A1A2A19C017F01AC018F0EDEF68
:104BD00025F017C017F018C018F012000550061085
:104BE00007100810D8B4F7EF25F0F9EF25F001EF22
:104BF00026F0000E051A000E061A000E071A800E87
:104C0000081A05C005F006C006F007C007F008C086
:104C100008F0120002EE00F03C0EEE6AE806FDE13C
:104C200001EE9AF0500EEE6AE806FDE100EED7F0D4
:104C3000210EEE6AE806FDE15A6A596A586A576A17
:104C40005B905B92000138EF07F084EC26F0010ED8
:104C5000076E000ED7EC26F03F0E096E550EE82EBB
:104C6000FED7092EFCD700F0030E076E000ED7EC1E
:104C700026F0D50E076E010ED7EC26F012004AEF93
:104C800026F006C0D9FF07C0DAFFDF5099EC26F006
:104C9000064A072A06C0D9FF07C0DAFFDF50D8A4AA
:104CA00054EF26F056EF26F041EF26F012000E01E9
:104CB000E997E895330EE56F000EE66FE789E88B1C
:104CC000E78F8382120E626F110E156FF28EF28AD9
:104CD000F28C2D872D952387238512003B0E576478
:104CE00074EF26F076EF26F078EF26F0000E576E80
:104CF000572A5704016E026A000E0124D96E020E73
:104D00000220DA6EDF5012000E01D951F00B0809B3
:104D1000D96FD98B9F0ED66F848A848CA79BA79D51
:104D20001D0E1D6F1E0E1C6F1C0E6F6F1B0E706F05
:104D30001200056E3B0E5864A0EF26F0A2EF26F09D
:104D4000A4EF26F0000E586E000E5824D96EDA6AD1
:104D5000020EDA2205C0DFFF582A1200016E130E80
:104D60005A64B5EF26F0B7EF26F0B9EF26F0000E43
:104D70005A6ED70E5A24D96EDA6A000EDA2201C0B2
:104D8000DFFF5A2A12000E01D8B5C9EF26F0CBEF8B
:104D900026F0C3EF26F0DACE05F01F0E0516D8A4D4
:104DA000D4EF26F0D6EF26F0C3EF26F01200086EFF
:104DB0001CEC27F0520E0CEC27F0085080090CEC8C
:104DC00027F007500CEC27F017EC27F01200F4EC5A
:104DD00026F00009D8B4EFEF26F0F1EF26F0F3EF5C
:104DE00026F00E012D85120057505818D8A4FBEF5D
:104DF00026F0FEEF26F0010EFFEF26F0000E120067
:104E000057505818D8A407EF27F00AEF27F0010EE3
:104E10000BEF27F0000E1200066EC3EC26F006C062
:104E2000D5FE1200C3EC26F00E01DA831200C3ECAB
:104E300026F00E01DA851200C3EC26F00E01DA81AD
:044E4000120012004A
:020000040020DA
:10000000FF0FFF0FFF0FFF0FFF0FFF0FFF0FFF0F80
:020000040030CA
:0C000000AAFFFFFF9FFFFFFFFFFFFFFFB5
:00000001FF
