:040000003BEF00F0E2
:100008005B82D9CF03F0DACF04F00E0137A70FEFE8
:1000180000F011EF00F014EF00F0E351A1EC20F034
:100028000E0137A51AEF00F01CEF00F035EF00F0D5
:100038002DA521EF00F023EF00F035EF00F0F3ECF1
:1000480020F0E806D8A42BEF00F02DEF00F033EFF6
:1000580000F061EC20F00E01E46F35EF00F00E01C6
:100068002D9504C0DAFF03C0D9FF5B921100FDEFA4
:020078001FF077
:100E00000025642C25642C25642C2564200D0A0003
:100E1000426C75653A20202566200D005265643AC3
:100E20002025662025642000477265656E3A2025DE
:100E3000662000433A202025662000696E66006E19
:100E4000616E0000000E0001986F72C099F073C0CF
:100E50009AF074C09BF075C09CF09CBF34EF07F013
:100E600032EF07F048EF07F0010E986F99C005F0D8
:100E70009AC006F09BC007F09CC008F0E1EC1FF0A0
:100E800005C099F006C09AF007C09BF008C09CF01E
:100E9000000E00019E6F000E9D6FF3C088F0F4C03D
:100EA00089F09851D8B457EF07F059EF07F06DEF7C
:100EB00007F09851D8A45FEF07F061EF07F067EFF4
:100EC00007F0000E7E6F2B0E7D6F6BEF07F0000EAC
:100ED0007E6F2D0E7D6F7DC098F099C005F09AC091
:100EE00006F09BC007F09CC008F0D6EC1BF0050490
:100EF0000610D8A47EEF07F080EF07F0B3EF07F0FD
:100F000000019851D8B487EF07F089EF07F092EF0E
:100F100007F098C076F18807D8A08907000E9E6F69
:100F2000010E9D6F760E9D25056E010E9E21066EAB
:100F30003B0E076E0E0E086E5CEC1FF00001FD0EFE
:100F40008827FF0E892370C015F071C016F0760E49
:100F5000176E010E186E88C019F089C01AF059EC8E
:100F60001DF01EEF0CF099C005F09AC006F09BC072
:100F700007F09CC008F0D6EC1BF005500610D8A472
:100F8000C4EF07F0C6EF07F0E6EF07F00001985155
:100F9000D8B4CDEF07F0CFEF07F0D8EF07F098C047
:100FA00076F18807D8A08907000E9E6F010E9D6F0D
:100FB000760E9D25056E010E9E21066E3F0E076E74
:100FC0000E0E086E5CEC1FF09EEF07F0000E0001A5
:100FD0009F6F000EA06F800EA16F3F0EA26F000EDC
:100FE000876F000E866F99C005F09AC006F09BC00F
:100FF00007F09CC008F0000E096E000E0A6E000E8D
:101000000B6E000E0C6EBAEC1CF0D8B00AEF08F0B4
:101010000CEF08F0EBEF08F019EF08F08AC09FF032
:101020008BC0A0F08CC0A1F08DC0A2F00001864B57
:10103000872B9FC01DF0A0C01EF0A1C01FF0A2C052
:1010400020F0000E216E000E226E200E236E410E47
:10105000246ED2EC10F01DC08AF01EC08BF01FC0B1
:101060008CF020C08DF000018A51995D056E8B5186
:101070009A59066E8C519B59076E8D519C59086E7A
:1010800096EC1DF008BE50EF08F00850071006104F
:1010900009E1020E055CD8A050EF08F052EF08F00D
:1010A0000EEF08F08AC036F08BC037F08CC038F0F5
:1010B0008DC039F099C03AF09AC03BF09BC03CF02B
:1010C0009CC03DF054EC1BF0D8A069EF08F06BEF2A
:1010D00008F00EEF08F000019F51995D056EA051D8
:1010E0009A59066EA1519B59076EA2519C59086EE0
:1010F00096EC1DF008BE8AEF08F0085007100610A5
:1011000007E1020E055CD8B088EF08F08AEF08F01E
:10111000D2EF08F09FC099F0A0C09AF0A1C09BF058
:10112000A2C09CF0EBEF08F09FC036F0A0C037F0F3
:10113000A1C038F0A2C039F0000E3A6E000E3B6E2E
:10114000200E3C6E410E3D6EE7EC12F036C09FF073
:1011500037C0A0F038C0A1F039C0A2F00001860766
:10116000D8A087079F51995D056EA0519A59066EC8
:10117000A1519B59076EA2519C59086E96EC1DF027
:1011800008BED0EF08F008500710061007E1020E65
:10119000055CD8B0CEEF08F0D0EF08F0D2EF08F041
:1011A0008AEF08F099C036F09AC037F09BC038F04B
:1011B0009CC039F09FC03AF0A0C03BF0A1C03CF009
:1011C000A2C03DF054EC1BF0D8A0E9EF08F0EBEF23
:1011D00008F094EF08F076C080F080C081F0000144
:1011E000F6BFF5EF08F0F7EF08F0FDEF08F0F5C0F7
:1011F00079F0F6C07AF001EF09F0000E7A6F060E72
:10120000796F79C084F07AC085F0844B852B660EA7
:101210008119D8A40EEF09F010EF09F030EF09F0B2
:1012200087BF17EF09F015EF09F023EF09F0000E63
:101230009F6F000EA06F800EA16F3F0EA26F000E79
:10124000876F000E866F670E8019D8B42AEF09F0F9
:101250002CEF09F030EF09F0865184278751852360
:10126000000E8F6F000E8E6F99C090F09AC091F0B3
:101270009BC092F09CC093F09FC08AF0A0C08BF0FE
:10128000A1C08CF0A2C08DF0C1EF09F090C036F083
:1012900091C037F092C038F093C039F09FC03AF057
:1012A000A0C03BF0A1C03CF0A2C03DF0E7EC12F0C2
:1012B00036C04FF037C050F038C051F039C052F04E
:1012C00076EC17F04FC094F050C095F051C096F0F6
:1012D00052C097F094C005F095C006F096C007F094
:1012E00097C008F0D1EC1AF005C082F006C083F078
:1012F00090C015F091C016F092C017F093C018F08E
:1013000094C021F095C022F096C023F097C024F03D
:101310009FC01DF0A0C01EF0A1C01FF0A2C020F011
:10132000D2EC10F01DC019F01EC01AF01FC01BF047
:1013300020C01CF039EC1FF015C090F016C091F0E1
:1013400017C092F018C093F09FC036F0A0C037F0DD
:10135000A1C038F0A2C039F0000E3A6E000E3B6E0C
:10136000200E3C6E410E3D6EE7EC12F036C09FF051
:1013700037C0A0F038C0A1F039C0A2F000018E4BF8
:101380008F2B84518E5D8F51800A536E8551800A58
:101390005358D8A0CEEF09F0D0EF09F046EF09F08E
:1013A0009FC01DF0A0C01EF0A1C01FF0A2C020F081
:1013B000000E216E000E226EA00E236E400E246ED3
:1013C000D2EC10F01DC094F01EC095F01FC096F036
:1013D00020C097F090C036F091C037F092C038F03E
:1013E00093C039F094C03AF095C03BF096C03CF001
:1013F00097C03DF054EC1BF0D8B001EF0AF003EFBA
:101400000AF00EEF0AF0000E0001946F000E956FC7
:10141000000E966F000E976F37EF0AF090C005F040
:1014200091C006F092C007F093C008F094C009F094
:1014300095C00AF096C00BF097C00CF0BAEC1CF007
:10144000D8A025EF0AF027EF0AF037EF0AF00001E5
:1014500082B12DEF0AF02FEF0AF037EF0AF0000EFD
:10146000946F000E956F000E966F000E976F99C0E7
:1014700005F09AC006F09BC007F09CC008F094C02D
:1014800009F095C00AF096C00BF097C00CF01FEC65
:101490000CF005C090F006C091F007C092F008C0B3
:1014A00093F090C036F091C037F092C038F093C0FE
:1014B00039F0000E216E000E226E200E236E410EBA
:1014C000246E8AC01DF08BC01EF08CC01FF08DC032
:1014D00020F0D2EC10F01DC03AF01EC03BF01FC04F
:1014E0003CF020C03DF054EC1BF0D8A07AEF0AF09D
:1014F0007CEF0AF0A5EF0AF00001864B872B8AC02B
:101500001DF08BC01EF08CC01FF08DC020F0000EAF
:10151000216E000E226E200E236E410E246ED2EC40
:1015200010F01DC08AF01EC08BF01FC08CF020C0D0
:101530008DF0660E00018119D8A4A1EF0AF0A3EF87
:101540000AF0A5EF0AF0844B852B8AC09FF08BC070
:10155000A0F08CC0A1F08DC0A2F086C077F087C04B
:1015600078F0000E00017F6F000E7C6F000E7B6F25
:10157000000E8F6F000E8E6FA3EF0BF090C036F051
:1015800091C037F092C038F093C039F09FC03AF064
:10159000A0C03BF0A1C03CF0A2C03DF0E7EC12F0CF
:1015A00036C04FF037C050F038C051F039C052F05B
:1015B00076EC17F04FC094F050C095F051C096F003
:1015C00052C097F094C005F095C006F096C007F0A1
:1015D00097C008F0D1EC1AF006BEFAEF0AF00650F8
:1015E00007E10A0E055CD8B0F8EF0AF0FAEF0AF04E
:1015F0000AEF0BF094C005F095C006F096C007F016
:1016000097C008F0D1EC1AF005C082F006C083F054
:101610000FEF0BF0000E0001836F090E826F0001C7
:101620007F51D8A416EF0BF018EF0BF040EF0BF042
:1016300078BF1FEF0BF01DEF0BF040EF0BF0760EB5
:101640009D25D96E010E9E21DA6E2E0EDF6E9D4B0A
:101650009E2B8807D8A08907010E7F6F40EF0BF003
:10166000760E9D25D96E010E9E21DA6E300EDF6E4C
:101670009D4B9E2B8807D8A089077B07D8A07C07A5
:101680007B517C11D8A447EF0BF049EF0BF030EF02
:101690000BF0760E9D25D96E010E9E21DA6E8251D9
:1016A000300FDF6E9D4B9E2B8807D8A0890790C016
:1016B00015F091C016F092C017F093C018F094C0C6
:1016C00021F095C022F096C023F097C024F09FC06F
:1016D0001DF0A0C01EF0A1C01FF0A2C020F0D2ECEF
:1016E00010F01DC019F01EC01AF01FC01BF020C062
:1016F0001CF039EC1FF015C090F016C091F017C027
:1017000092F018C093F09FC036F0A0C037F0A1C08F
:1017100038F0A2C039F0000E3A6E000E3B6E200E7B
:101720003C6E410E3D6EE7EC12F036C09FF037C0C4
:10173000A0F038C0A1F039C0A2F000017707D8A00E
:1017400078078E4B8F2B84518E5D8F51800A536E9C
:101750008551800A5358D8B0B0EF0BF0B2EF0BF0C0
:10176000C0EF0BF09EBFBEEF0BF09E5109E14B0E98
:101770009D5DD8A0BEEF0BF0C0EF0BF0BEEF0AF0FE
:10178000000E8F6F4F0E8E6F760E8E25D96E010E66
:101790008F21DA6E000EDF6E760E536E010E546EE0
:1017A0009D51535E9E51545A8E515324056E8F5154
:1017B0005420066E760E076E010E086E9DC009F06D
:1017C0009EC00AF04CEC1EF000019D518E5D9D6F95
:1017D0009E518F599E6F9851D8A4F1EF0BF0F4EF02
:1017E0000BF0010EF5EF0BF0000E8E6F8F6B985122
:1017F000D8B4FDEF0BF0FFEF0BF00AEF0CF09D07F4
:10180000D8A09E07760E9D25D96E010E9E21DA6E18
:1018100098C0DFFF8E51885F8F51895B70C015F0D3
:1018200071C016F0760E9D25176E010E9E21186E62
:1018300088C019F089C01AF059EC1DF01200085048
:10184000800B116E08500824136E07AE2AEF0CF0BF
:101850002CEF0CF02DEF0CF013801350D8B433EFB5
:101860000CF035EF0CF04AEF0CF01328D8A43BEF46
:101870000CF03DEF0CF045EF0CF0000E056E000E85
:10188000066E000E076E000E086E078E000E086EC4
:1018900052EF0CF0000E056E000E066E000E076E85
:1018A000000E086E0C50800B126E11501218D8B436
:1018B0005CEF0CF05EEF0CF05FEF0CF0118C0C5055
:1018C0000C24126E0BAE67EF0CF069EF0CF06AEFB0
:1018D0000CF012801250D8B470EF0CF072EF0CF0D4
:1018E00087EF0CF01228D8A478EF0CF07AEF0CF008
:1018F00082EF0CF0000E096E000E0A6E000E0B6EE9
:10190000000E0C6E0B8E000E0C6E8FEF0CF0000EA6
:10191000096E000E0A6E000E0B6E000E0C6E135058
:10192000125CD8B096EF0CF098EF0CF0BFEF0CF013
:1019300011AC9DEF0CF09FEF0CF0A1EF0CF0800EBE
:10194000111A13C014F012C013F014C012F005C025
:1019500014F009C005F014C009F006C014F00AC064
:1019600006F014C00AF007C014F00BC007F014C052
:101970000BF008C014F00CC008F014C00CF0000EFE
:10198000146E135012C00DF00E6A0D5E000E0E5A4A
:101990000EBED4EF0CF00E5009E11A0E0D5CD8A06B
:1019A000D4EF0CF0D6EF0CF00DEF0DF00550061053
:1019B00007100810D8A4DFEF0CF0E2EF0CF0010ED6
:1019C000E3EF0CF0000E146E000E056E000E066EB6
:1019D000000E076E000E086E12C013F016EF0DF029
:1019E00014A0F5EF0CF0F7EF0CF0FDEF0CF0D89031
:1019F00014300109146EFFEF0CF0D890143205A0DA
:101A000004EF0DF006EF0DF007EF0DF0148E083423
:101A10000832073206320532132A1250135CD8A05E
:101A200014EF0DF016EF0DF0F0EF0CF011BC1BEF02
:101A30000DF01DEF0DF05DEF0DF01350D8A423EF66
:101A40000DF025EF0DF02FEF0DF0000E056E000EDE
:101A5000066E000E076E000E086E7EEF0EF0095047
:101A600005260A5006220B5007220C50082208A017
:101A70003CEF0DF03EEF0DF0EAEF0DF014A043EF58
:101A80000DF045EF0DF04BEF0DF0D890143001093B
:101A9000146E4DEF0DF0D890143205A052EF0DF0FA
:101AA00054EF0DF055EF0DF0148E08340832073264
:101AB00006320532132AEAEF0DF00950055C0A5090
:101AC00006580B5007580850800A0D6E0C50800ABB
:101AD0000D58D8B06EEF0DF070EF0DF09BEF0DF0DC
:101AE0000550095C0D6E06500A580E6E07500B58D3
:101AF0000F6E08500C58106EFF0E0D24056EFF0E71
:101B00000E20066EFF0E0F20076EFF0E1020086ECF
:101B1000800E111A146C1450D8A491EF0DF093EFAD
:101B20000DF0A3EF0DF0010E0526000E0622072290
:101B30000822A3EF0DF00950055E0A50065A0B501B
:101B4000075A0C50085A0550061007100810D8A460
:101B5000ACEF0DF0AEEF0DF0E3EF0DF01450D8A4A4
:101B6000B4EF0DF0B6EF0DF0E3EF0DF0000E056EE3
:101B7000000E066E000E076E000E086E7EEF0EF071
:101B8000D890053606360736083614AECAEF0DF083
:101B9000CCEF0DF0CDEF0DF0058014A0D2EF0DF0DD
:101BA000D4EF0DF0D8EF0DF0D8801436DAEF0DF049
:101BB000D89014361350D8B4E0EF0DF0E2EF0DF0EA
:101BC000E3EF0DF0130607AEE8EF0DF0EAEF0DF0CE
:101BD000C0EF0DF0000E126E14AEF1EF0DF0F3EF4A
:101BE0000DF00BEF0EF014C00DF07F0E0D16D8B4F3
:101BF000FCEF0DF0FEEF0DF002EF0EF0010E126E95
:101C00000BEF0EF005A007EF0EF009EF0EF00BEF53
:101C10000EF0FEEF0DF01250D8B411EF0EF013EFEE
:101C20000EF03EEF0EF0010E0526000E06220722F2
:101C3000082208A01EEF0EF020EF0EF03EEF0EF08F
:101C400005C00DF006C00EF007C00FF008C010F080
:101C5000103410320F320E320D320DC005F00EC0AE
:101C600006F00FC007F010C008F01328D8B43BEFFF
:101C70000EF03DEF0EF03EEF0EF0132A1328D8B40D
:101C800044EF0EF046EF0EF04EEF0EF01350D8A4D6
:101C90004CEF0EF04EEF0EF060EF0EF0000E056E02
:101CA000000E066E000E076E000E086E1350D8A4CC
:101CB0005CEF0EF05EEF0EF060EF0EF0000E116EB6
:101CC00013A065EF0EF067EF0EF06AEF0EF0078ECF
:101CD0006BEF0EF0079ED8901330086E11AE73EFC5
:101CE0000EF075EF0EF076EF0EF0088E05C005F0E1
:101CF00006C006F007C007F008C008F0120018EC94
:101D000020F04AEC20F0000E186EC70E176E0FEC94
:101D10001DF07C9E849E7C988498809088907E9014
:101D20008690809288927C9684967C887E80808043
:101D30007E807C867F907D9E79968790859E819619
:101D4000000E01016F6F000E6E6F000E716F000EBE
:101D5000706F000E736F000E726F000E756F000EC5
:101D6000746F000E656F1E0E646F000E616F0C0EB7
:101D7000606F000E636F0A0E626F000E506F000EF0
:101D8000516F880E526F420E536F000E546F000E4B
:101D9000556F640E566F420E576F000E586F000E4F
:101DA000596F580E5A6F420E5B6F000E5C6F000E3B
:101DB0005D6F430E5E6F430E5F6F6E0E106E010E11
:101DC000116EC9EC1DF07CAEE8EF0EF0EDEF0EF0F9
:101DD0000001D56BD52BEFEF0EF00001D56BD5339D
:101DE000D5337C50D5197F0BD5197C6E74C105F0A5
:101DF00075C106F0076A086A000E81EC18F005C08C
:101E000036F006C037F007C038F008C039F05CC1C2
:101E10003AF05DC13BF05EC13CF05FC13DF0E7ECE4
:101E200012F036C06AF137C06BF138C06CF139C0BE
:101E30006DF13C0E0001BC6F010EBD6F330EBE6F25
:101E40000E0EBF6F6AC1C0F06BC1C1F06CC1C2F0B1
:101E50006DC1C3F023EC1EF03C0E066E010E076E42
:101E600032EC20F0DAEC20F02A0E0001D56F8D0E56
:101E7000E82EFED7D52FFCD700D0010164516E5D4E
:101E80000001D56F010165516F590001D66FD5C0B2
:101E900005F0D6C006F0076A086A000E81EC18F05B
:101EA00005C036F006C037F007C038F008C039F07A
:101EB0006AC121F06BC122F06CC123F06DC124F026
:101EC00064C105F065C106F0076A086A000E81EC7E
:101ED00018F005C019F006C01AF007C01BF008C0C2
:101EE0001CF050C115F051C116F052C117F053C18A
:101EF00018F039EC1FF015C01DF016C01EF017C009
:101F00001FF018C020F0D2EC10F01DC03AF01EC037
:101F10003BF01FC03CF020C03DF0E7EC12F036C0B3
:101F200066F137C067F138C068F139C069F1000E59
:101F30000001BC6F010EBD6F1C0EBE6F0E0EBF6F99
:101F400066C1C0F067C1C1F068C1C2F069C1C3F029
:101F5000010164516E5D0001C46F010165516F594B
:101F60000001C56F23EC1EF0000E066E010E076E19
:101F700032EC20F0DAEC20F02A0E0001D56F8D0E45
:101F8000E82EFED7D52FFCD700D001016051705D3F
:101F90000001D56F0101615171590001D66FD5C0A3
:101FA00005F0D6C006F0076A086A000E81EC18F04A
:101FB00005C036F006C037F007C038F008C039F069
:101FC0006AC121F06BC122F06CC123F06DC124F015
:101FD00060C105F061C106F0076A086A000E81EC75
:101FE00018F005C019F006C01AF007C01BF008C0B1
:101FF0001CF054C115F055C116F056C117F057C169
:1020000018F039EC1FF015C01DF016C01EF017C0F7
:102010001FF018C020F0D2EC10F01DC03AF01EC026
:102020003BF01FC03CF020C03DF0E7EC12F036C0A2
:1020300066F137C067F138C068F139C069F1140E34
:102040000001BC6F010EBD6F280EBE6F0E0EBF6F7C
:1020500066C1C0F067C1C1F068C1C2F069C1C3F018
:1020600023EC1EF0140E066E010E076E32EC20F00B
:10207000DAEC20F02A0E0001D56F8D0EE82EFED787
:10208000D52FFCD700D001016251725D0001D56FE0
:102090000101635173590001D66FD5C005F0D6C058
:1020A00006F0076A086A000E81EC18F005C036F0E9
:1020B00006C037F007C038F008C039F06AC121F017
:1020C0006BC122F06CC123F06DC124F062C105F038
:1020D00063C106F0076A086A000E81EC18F005C0BB
:1020E00019F006C01AF007C01BF008C01CF058C158
:1020F00015F059C116F05AC117F05BC118F039EC50
:102100001FF015C01DF016C01EF017C01FF018C03C
:1021100020F0D2EC10F01DC03AF01EC03BF01FC002
:102120003CF020C03DF0E7EC12F036C066F137C05D
:1021300067F138C068F139C069F1280E0001BC6F41
:10214000010EBD6F100EBE6F0E0EBF6F66C1C0F0E8
:1021500067C1C1F068C1C2F069C1C3F023EC1EF0D1
:10216000280E066E010E076E32EC20F0DAEC20F03D
:102170002A0E0001D56F8D0EE82EFED7D52FFCD785
:1021800000D0520E0001D66F2B0ED56F000EE82E38
:10219000FED7D52FFCD7D62FFAD700F0DDEF0EF003
:1021A0003BEF00F02050800B296E205020242F6E32
:1021B0001FAEDDEF10F0DFEF10F0E0EF10F02F803A
:1021C0002F50D8B4E6EF10F0E8EF10F0FBEF10F06E
:1021D0002F28D8A4EEEF10F0F0EF10F0F8EF10F089
:1021E000000E1D6E000E1E6E000E1F6E000E206E85
:1021F0001F8E03EF11F0000E1D6E000E1E6E000EFE
:102200001F6E000E206E2450800B291A24502424A7
:102210002E6E23AE0EEF11F010EF11F011EF11F052
:102220002E802E50D8B417EF11F019EF11F02CEFCB
:1022300011F02E28D8A41FEF11F021EF11F029EF93
:1022400011F0000E216E000E226E000E236E000EA5
:10225000246E238E34EF11F0000E216E000E226EDC
:10226000000E236E000E246E2E50D8B43AEF11F0FB
:102270003CEF11F044EF11F02F50D8A442EF11F0D1
:1022800044EF11F04EEF11F0000E1D6E000E1E6EA9
:10229000000E1F6E000E206EE6EF12F023501D029E
:1022A000F3CF34F0F4CF35F034502A6E2B6A2C6A19
:1022B0002D6A3550306E316A326A336A22501E02FE
:1022C000F3CF34F0F4CF35F034502A26000E2B2211
:1022D0002C222D2235503026000E3122322233227C
:1022E00021501F02F3CF34F0F4CF35F034502A26BA
:1022F000000E2B222C222D2235503026000E3122AA
:10230000322233222CC02DF02BC02CF02AC02BF00F
:102310002A6A21501E02F3CF34F0F4CF35F0345046
:102320002A2635502B22000E2C22000E2D22225060
:102330001D02F3CF34F0F4CF35F034502A26355057
:102340002B22000E2C22000E2D222CC02DF02BC093
:102350002CF02AC02BF02A6A21501D02F3CF34F052
:10236000F4CF35F034502A2635502B22000E2C2283
:10237000000E2D2223501E02F3CF34F0F4CF35F09F
:102380003450302635503122000E3222000E3322D6
:1023900022501F02F3CF34F0F4CF35F03450302602
:1023A00035503122000E3222000E332223501F02FC
:1023B000F3CF34F0F4CF35F03450256E3550266E1F
:1023C000276A286A27C028F026C027F025C026F0F3
:1023D000256A255030262650312227503222285097
:1023E00033222AC025F02BC026F02CC027F02DC0A8
:1023F00028F0190E01EF12F0D89028322732263239
:102400002532E82EFCEF11F02550302626503122DF
:1024100027503222285033222CC02DF02BC02CF014
:102420002AC02BF02A6A2E502FC025F0266A2526B6
:10243000000E2622820E2524346EFF0E2620356ED5
:1024400037EF12F0D89030363136323633362DAE83
:102450002CEF12F02EEF12F02FEF12F03080D89008
:102460002A362B362C362D363406D8A0350632AE19
:102470003CEF12F03EEF12F022EF12F0000E2E6E43
:102480002DAE45EF12F047EF12F06BEF12F0FF0E9A
:102490002A14256EFF0E2B14266EFF0E2C14276EA9
:1024A0007F0E2D14286E2550261027102810D8B422
:1024B0005CEF12F05EEF12F062EF12F0010E2E6E82
:1024C0006BEF12F030A067EF12F069EF12F06BEFD4
:1024D00012F05EEF12F02E50D8B471EF12F073EFDD
:1024E00012F097EF12F0010E3026000E3122322248
:1024F000332233A07EEF12F080EF12F097EF12F04C
:1025000030C025F031C026F032C027F033C028F0AB
:102510002834283227322632253225C030F026C012
:1025200031F027C032F028C033F0344A352A35BEA6
:10253000A2EF12F0355008E13428D8A0A2EF12F033
:10254000A4EF12F0AEEF12F0000E306E000E316EFE
:10255000800E326E7F0E336EDCEF12F035BEBBEFB5
:1025600012F0355006E13404D8B0B9EF12F0BBEFE9
:1025700012F0C7EF12F0000E306E000E316E000E3A
:10258000326E000E336E000E296EDCEF12F034C096
:102590002FF0FF0E3016FF0E31167F0E3216000E92
:1025A00033162FA0D6EF12F0D8EF12F0D9EF12F0B9
:1025B000328ED8902F30336E2950331230C01DF038
:1025C00031C01EF032C01FF033C020F0120039506D
:1025D000800B466E395039244D6E38AEF2EF12F052
:1025E000F4EF12F0F5EF12F04D804D50D8B4FBEF40
:1025F00012F0FDEF12F012EF13F04D28D8A403EF04
:1026000013F005EF13F00DEF13F0000E366E000E11
:10261000376E000E386E000E396E388E000E396E31
:102620001AEF13F0000E366E000E376E000E386E85
:10263000000E396E3D50800B461A3D503D244E6EC3
:102640003CAE25EF13F027EF13F028EF13F04E8088
:102650004E50D8B42EEF13F030EF13F045EF13F0D7
:102660004E28D8A436EF13F038EF13F040EF13F0F4
:10267000000E3A6E000E3B6E000E3C6E000E3D6E7C
:102680003C8E000E3D6E4DEF13F0000E3A6E000EC4
:102690003B6E000E3C6E000E3D6E3A503B103C10FF
:1026A0003D10D8A456EF13F058EF13F070EF13F06D
:1026B000000E366E000E376E000E386E000E396E4C
:1026C000800E38127F0E39124650391236C036F05D
:1026D00037C037F038C038F039C039F0B3EF14F0F4
:1026E0004D50D8A476EF13F078EF13F082EF13F08B
:1026F000000E366E000E376E000E386E000E396E0C
:10270000B3EF14F04E504DC03EF03F6A3E5E000EF7
:102710003F5A7F0E3E24476E000E3F20486E36C063
:1027200042F037C043F038C044F039C045F0000EE5
:10273000366E000E376E000E386E000E396E000ECB
:10274000496E000E4A6E000E4B6E000E4C6E000E6F
:102750004E6EE3EF13F04E50D8B4B1EF13F0B3EF79
:1027600013F0CAEF13F0D89042364336443645365C
:10277000D89036363736383639364CAEC2EF13F08D
:10278000C4EF13F0C5EF13F03680D89049364A36BF
:102790004B364C363A50425C3B5043583C504458C0
:1027A0003D504558D8A0D7EF13F0D9EF13F0E2EF22
:1027B00013F04C8C3A50425E3B50435A3C50445AC2
:1027C0003D50455A4E2A190E4E64E9EF13F0EBEFD7
:1027D00013F0ABEF13F04250431044104510D8B43F
:1027E000F4EF13F0F6EF13F00EEF14F049800EEF54
:1027F00014F0D89036363736383639364CAE03EFCB
:1028000014F005EF14F006EF14F03680D890493636
:102810004A364B364C364706D8A0480638AE13EF3A
:1028200014F015EF14F0F9EF13F0000E4E6E4CAEED
:102830001CEF14F01EEF14F042EF14F0FF0E4914D9
:102840003E6EFF0E4A143F6EFF0E4B14406E7F0E1D
:102850004C14416E3E503F1040104110D8B433EF3D
:1028600014F035EF14F039EF14F0010E4E6E42EF14
:1028700014F036A03EEF14F040EF14F042EF14F0E5
:1028800035EF14F04E50D8B448EF14F04AEF14F07E
:102890006EEF14F0010E3626000E37223822392250
:1028A00039A055EF14F057EF14F06EEF14F036C066
:1028B0003EF037C03FF038C040F039C041F04134FD
:1028C000413240323F323E323EC036F03FC037F0F8
:1028D00040C038F041C039F0474A482A48BE79EF35
:1028E00014F0485008E14728D8A079EF14F07BEFA6
:1028F00014F086EF14F0000E486E4768000E366E36
:10290000000E376E000E386E000E396E48BE93EF23
:1029100014F0485006E14704D8B091EF14F093EF5B
:1029200014F0A1EF14F0000E486E000E476E000E7A
:10293000366E000E376E000E386E000E396E000EC9
:10294000466E47C04DF04DA0A8EF14F0AAEF14F06A
:10295000ADEF14F0388EAEEF14F0389ED8904D30B5
:10296000396E64EF13F01200A5C0D9FFA6C0DAFFDC
:10297000DECFF6FFDDCFF7FF000EF86E0800F55052
:10298000250AD8A4C6EF14F0C8EF14F020EF16F013
:10299000A5C0D9FFA6C0DAFFDE2A000EDD22000E98
:1029A0000001F46F000EF36FF3C0F7F0F569F669FC
:1029B000A5C0D9FFA6C0DAFFDECFB2F0DDCFB3F0FD
:1029C000B2C0F6FFB3C0F7FF000EF86E0800F55076
:1029D000640AD8B4EEEF14F0F0EF14F000EF15F045
:1029E000B2C0F6FFB3C0F7FF000EF86E0800F55056
:1029F000690AD8A4FEEF14F000EF15F043EF15F0CC
:102A0000A7C0D9FFA8C0DAFFDFCF55F0020EDE263F
:102A1000DFCF56F0000EDD2255C0D9FF56C0DAFFD9
:102A2000DECFA9F0DDCFAAF0000EAABFFF0EAB6F7C
:102A3000AC6FAD6FAE6FAF6FB06F010EB225556E5C
:102A4000000EB321566EA5C0D9FFA6C0DAFF55C04F
:102A5000DEFF56C0DDFFA3C020F0A4C021F0A9C056
:102A600022F0AAC023F0ABC024F0ACC025F0ADC06A
:102A700026F0AEC027F0AFC028F0B0C029F037EC88
:102A800016F036EF16F0A5C0D9FFA6C0DAFFDECFEC
:102A9000B2F0DDCFB3F0B2C0F6FFB3C0F7FF000E67
:102AA000F86E0800F5CFB1F062EF15F0B24BB32B22
:102AB0007BEF15F06C0EB16F7BEF15F0000EB16F70
:102AC0007BEF15F0B151556E566A5650000AD8B4D6
:102AD0006CEF15F05EEF15F055504C0AD8B456EF78
:102AE00015F02A0AD8B45AEF15F00A0AD8B456EFEE
:102AF00015F05EEF15F0B2C0F6FFB3C0F7FF000EA1
:102B0000F86E0800F550660AD8A489EF15F08BEF2F
:102B100015F017EF16F0C1EF15F0A7C0D9FFA8C048
:102B2000DAFFDFCF55F0040EDE26DFCF56F0000EC1
:102B3000DD2255C0D9FF56C0DAFFDECFA9F0DECFC7
:102B4000AAF0DECFABF0DECFACF0D6EF15F0A7C029
:102B5000D9FFA8C0DAFFDFCF55F0040EDE26DFCFA5
:102B600056F0000EDD2255C0D9FF56C0DAFFDECF89
:102B7000A9F0DECFAAF0DECFABF0DECFACF0D6EF1F
:102B800015F0B151556E566A5650000AD8B4CBEFC5
:102B900015F0D6EF15F055504C0AD8B4A7EF15F044
:102BA000200AD8B48DEF15F0D6EF15F0010EB2253E
:102BB000556E000EB321566EA5C0D9FFA6C0DAFF30
:102BC00055C0DEFF56C0DDFFFFEF15F0A3C070F06B
:102BD000A4C071F0A9C072F0AAC073F0ABC074F0C9
:102BE000ACC075F0B2C0F6FFB3C0F7FF000EF86ED0
:102BF0000800F5CF76F022EC07F036EF16F0B2C001
:102C0000F6FFB3C0F7FF000EF86E0800F550556EE2
:102C1000566A5650000AD8B410EF16F017EF16F0A7
:102C20005550660AD8B4E6EF15F017EF16F0A5C0B8
:102C3000D9FFA6C0DAFFDE2A000EDD2236EF16F03D
:102C4000A5C0D9FFA6C0DAFFDECFF6FFDDCFF7FFC4
:102C5000000EF86E0800F550056E066AA3C007F076
:102C6000A4C008F055EC1CF017EF16F0120022C0BB
:102C700038F023C039F024C03AF025C03BF026C01C
:102C80003CF027C03DF028C03EF029C03FF03FBED9
:102C90004CEF16F04FEF16F0010E50EF16F0000E4D
:102CA000426E4250D8B457EF16F059EF16F069EF64
:102CB00016F03F1E3E1E3D1E3C1E3B1E3A1E391E98
:102CC000386C000E39223A223B223C223D223E2221
:102CD0003F220001F6BF77EF16F0F65106E1F50549
:102CE000D8B075EF16F077EF16F07DEF16F0000E06
:102CF000356E010E346E81EF16F0F5C034F0F6C07B
:102D000035F0F3C036F0F4C037F04250D8B48BEF52
:102D100016F08DEF16F0A4EF16F03606D8A03706A1
:102D20004250D8A496EF16F098EF16F09EEF16F0EA
:102D3000000E336E2B0E326EA2EF16F0000E336EC5
:102D40002D0E326E32C042F0000E416E4F0E406EBC
:102D5000000E0101C56F29EF17F04006D8A041060B
:102D6000760E4024D96E010E4120DA6E38C005F08F
:102D700039C006F03AC007F03BC008F03CC009F08B
:102D80003DC00AF03EC00BF03FC00CF00A0E0D6EC5
:102D9000000E0E6E000E0F6E000E106E000E116E05
:102DA000000E126E000E136E000E146E1FEC1AF061
:102DB00005C02AF006C02BF007C02CF008C02DF08B
:102DC00009C02EF00AC02FF00BC030F00CC031F05B
:102DD0002AC017F02BC018F0C1EC1FF01750300FAD
:102DE000DF6E3406D8A035063606D8A0370638C0C0
:102DF00005F039C006F03AC007F03BC008F03CC00F
:102E000009F03DC00AF03EC00BF03FC00CF00A0EC6
:102E10000D6E000E0E6E000E0F6E000E106E000E88
:102E2000116E000E126E000E136E000E146E5BEC2F
:102E300019F005C038F006C039F007C03AF008C0F4
:102E40003BF009C03CF00AC03DF00BC03EF00CC0A6
:102E50003FF041BE34EF17F0415008E14004D8A0E4
:102E600034EF17F036EF17F052EF17F038503910F3
:102E70003A103B103C103D103E103F10D8A443EFD9
:102E800017F045EF17F0ADEF16F035BE52EF17F023
:102E9000355006E13404D8B050EF17F052EF17F078
:102EA000ADEF16F04250D8B458EF17F05AEF17F0C4
:102EB00065EF17F04006D8A04106760E4024D96E83
:102EC000010E4120DA6E42C0DFFF20C015F021C0A4
:102ED00016F0760E4024176E010E4120186E36C093
:102EE00019F037C01AF059EC1DF01200EBC06CF06D
:102EF000ECC06DF0EDC06EF0EEC06FF04FC06CF046
:102F000050C06DF051C06EF052C06FF0810E0001E4
:102F1000606FFF0E616F6CC062F06DC063F06EC0D9
:102F200064F06FC065F0180E9BEF17F0D890653312
:102F3000643363336233E82E96EF17F062516025F5
:102F40006A6F000E61216B6F6BBFB0EF17F06B51B2
:102F500009E1170E6A5DD8A0B0EF17F0B2EF17F0D5
:102F6000BCEF17F04FC04FF050C050F051C051F0BF
:102F700052C052F080EF18F06BBFC1EF17F0C3EFF3
:102F800017F034EF18F06AC060F0FF0E616FFF0EAB
:102F9000626F7F0E636F000E646F6067D2EF17F091
:102FA000DAEF17F064356433633362336133602FD3
:102FB000CDEF17F061C066F062C067F063C068F0E3
:102FC00064C069F0000166516C15606F67516D1542
:102FD000616F68516E15626F69516F15636F605153
:102FE000611162116311D8A4F8EF17F0FAEF17F02E
:102FF000FCEF17F0B2EF17F06CC060F06DC061F03D
:103000006EC062F06FC063F0200E0CEF18F0D89025
:103010006333623361336033E82E07EF18F0605199
:10302000611162116311D8B418EF18F01AEF18F09B
:1030300022EF18F066516C2767516D2368516E239B
:1030400069516F23661D606F671D616F681D626F38
:10305000691D636F60516C1761516D1762516E1776
:1030600063516F1778EF18F06CC060F06DC061F0BD
:103070006EC062F06FC063F0200E44EF18F0D8907D
:103080006333623361336033E82E3FEF18F06051F1
:10309000611162116311D8A450EF18F052EF18F0CB
:1030A0005CEF18F0000E6C6F000E6D6F000E6E6F0F
:1030B000000E6F6F78EF18F0D8906C35606F6D353B
:1030C000616F6E35626F6F35636F605161116211B0
:1030D0006311D8B46EEF18F070EF18F078EF18F0B5
:1030E000000E6C6F000E6D6F800E6E6FBF0E6F6FF7
:1030F0006CC04FF06DC050F06EC051F06FC052F018
:1031000012000D6E0D50D8B488EF18F08AEF18F049
:10311000ACEF18F008BE91EF18F08FEF18F0ACEF9D
:1031200018F005C009F006C00AF007C00BF008C08F
:103130000CF0091E0A1E0B1E0C1E092A000E0A2284
:103140000B220C2209C00FF00AC010F00BC011F0C6
:103150000CC012F0B4EF18F005C00FF006C010F06C
:1031600007C011F008C012F0055006100710081033
:10317000D8A4BDEF18F0BFEF18F0C9EF18F0000E9B
:10318000056E000E066E000E076E000E086E5AEFFA
:1031900019F0960E0E6ED3EF18F00E2AD890123258
:1031A000113210320F32000E0F14096E000E10147F
:1031B0000A6E000E11140B6EFE0E12140C6E0950E6
:1031C0000A100B100C10D8A4E8EF18F0EAEF18F072
:1031D000CDEF18F0F8EF18F00E2A010E0F26000EB2
:1031E000102211221222D8901232113210320F32D4
:1031F000000E0F14096E000E10140A6E000E11144A
:103200000B6EFF0E12140C6E09500A100B100C10EE
:10321000D8A40DEF19F00FEF19F0ECEF18F017EF3D
:1032200019F00E06D8900F3610361136123611BE30
:103230001CEF19F01EEF19F026EF19F0020E0E60C8
:1032400024EF19F026EF19F011EF19F00EB02BEF63
:1032500019F02DEF19F02EEF19F0119ED8900E32C3
:103260000EC009F00A6A0B6A0C6A09C00CF00B6AFE
:103270000A6A096A09500F120A5010120B501112F3
:103280000C5012120D50D8B448EF19F04AEF19F053
:1032900052EF19F008BE51EF19F04FEF19F052EF4D
:1032A00019F0128E0FC005F010C006F011C007F023
:1032B00012C008F01200000E166E14BE64EF19F072
:1032C00062EF19F076EF19F0141E131E121E111E74
:1032D000101E0F1E0E1E0D6C000E0E220F2210224D
:1032E0001122122213221422010E166E0CBE7DEF43
:1032F00019F07BEF19F08FEF19F00C1E0B1E0A1E50
:10330000091E081E071E061E056C000E0622072257
:10331000082209220A220B220C22010E161A20EE84
:1033200017F0070EDE6AE806FDE20D500E100F10D2
:1033300010101110121013101410D8B4A2EF19F0BD
:10334000A4EF19F0F6EF19F0010E156EB2EF19F0B7
:10335000D8900D360E360F3610361136123613361B
:103360001436152A14AEB7EF19F0B9EF19F0A8EF1B
:1033700019F0D8901736183619361A361B361C36FF
:103380001D361E360D50055C0E5006580F5007585E
:10339000105008581150095812500A5813500B5821
:1033A00014500C58D8A0D7EF19F0D9EF19F0EAEF64
:1033B00019F00D50055E0E50065A0F50075A105066
:1033C000085A1150095A12500A5A13500B5A1450E5
:1033D0000C5A1780D8901432133212321132103234
:1033E0000F320E320D32152EB9EF19F01650D8B437
:1033F000FCEF19F0FEEF19F00EEF1AF01E1E1D1E65
:103400001C1E1B1E1A1E191E181E176C000E1822D9
:1034100019221A221B221C221D221E2217C005F06F
:1034200018C006F019C007F01AC008F01BC009F058
:103430001CC00AF01DC00BF01EC00CF01200000EE4
:10344000166E0CBE28EF1AF026EF1AF03AEF1AF0BB
:103450000C1E0B1E0A1E091E081E071E061E056CEA
:10346000000E06220722082209220A220B220C2221
:10347000010E166E14BE41EF1AF03FEF1AF051EF35
:103480001AF0141E131E121E111E101E0F1E0E1EE9
:103490000D6C000E0E220F22102211221222132276
:1034A00014220D500E100F101010111012101310C6
:1034B0001410D8B45EEF1AF060EF1AF0A8EF1AF00B
:1034C000010E156E6EEF1AF0D8900D360E360F36CF
:1034D00010361136123613361436152A14AE73EF21
:1034E0001AF075EF1AF064EF1AF00D50055C0E50EB
:1034F00006580F50075810500858115009581250CC
:103500000A5813500B5814500C58D8A08AEF1AF0D0
:103510008CEF1AF09CEF1AF00D50055E0E50065A13
:103520000F50075A1050085A1150095A12500A5A8F
:1035300013500B5A14500C5AD890143213321232C2
:10354000113210320F320E320D32152E75EF1AF085
:103550001650D8B4AEEF1AF0B0EF1AF0C0EF1AF070
:103560000C1E0B1E0A1E091E081E071E061E056CD9
:10357000000E06220722082209220A220B220C2210
:1035800005C005F006C006F007C007F008C008F047
:1035900009C009F00AC00AF00BC00BF00CC00CF017
:1035A0001200073408340E6E0E50D8A4DAEF1AF069
:1035B000DCEF1AF0E6EF1AF0000E056E000E066E54
:1035C000000E076E000E086E53EF1BF005C009F0E9
:1035D00006C00AF007C00BF008C00CF0200EF6EF92
:1035E0001AF0D8900C320B320A320932E82EF1EF81
:1035F0001AF009500D6E078EFF0E0516FF0E061607
:10360000FF0E0716000E0816960E0E5E0EBE0DEF8C
:103610001BF00BEF1BF023EF1BF00E50800A970FEF
:10362000D8B015EF1BF017EF1BF019EF1BF0DCEF14
:103630001AF0D89008320732063205320E3E19EFE2
:103640001BF03BEF1BF01F0E0E6429EF1BF02BEF5E
:103650001BF033EF1BF0DCEF1AF0D890053606367E
:10366000073608360E060E50D8A439EF1BF03BEF94
:103670001BF02DEF1BF00D50D8B441EF1BF043EFC2
:103680001BF04BEF1BF0081E071E061E056C000EFC
:1036900006220722082205C005F006C006F007C072
:1036A00007F008C008F01200000E36143E6E000E3F
:1036B00037143F6E800E3814406E7F0E3914416E01
:1036C0003E503F1040104110D8A469EF1BF06BEF43
:1036D0001BF073EF1BF0000E366E000E376E000EFF
:1036E000386E000E396E000E3A143E6E000E3B141A
:1036F0003F6E800E3C14406E7F0E3D14416E3E5076
:103700003F1040104110D8A488EF1BF08AEF1BF047
:1037100092EF1BF0000E3A6E000E3B6E000E3C6EF8
:10372000000E3D6E39AE97EF1BF099EF1BF0A2EF44
:103730001BF0366C371ED8B0372A381ED8B0382A5E
:10374000800E39563DAEA7EF1BF0A9EF1BF0B2EF8C
:103750001BF03A6C3B1ED8B03B2A3C1ED8B03C2A2A
:10376000800E3D56000E361A000E371A000E381A1B
:10377000800E391A000E3A1A000E3B1A000E3C1A3F
:10378000800E3D1A3A50365C3B5037583C50385802
:103790003D503958D8B0CFEF1BF0D1EF1BF0D4EF2C
:1037A0001BF0D890D5EF1BF0D8801200EFC00FF0BF
:1037B000F0C010F0F1C011F0F2C012F005C00FF02F
:1037C00006C010F007C011F008C012F00FC009F0D9
:1037D00010C00AF011C00BF012C00CF0180EF6EF7A
:1037E0001BF0D8900C320B320A320932E82EF1EF7E
:1037F0001BF009500D6E0E6A0D500E10D8A403EF89
:103800001CF005EF1CF025EF1CF0D8900F34096E6A
:1038100010340A6E11340B6E12340C6E09500A10FB
:103820000B100C10D8A417EF1CF019EF1CF01FEFB1
:103830001CF0000E066E020E056E54EF1CF0000E1A
:10384000066E030E056E54EF1CF00D280E10D8A462
:103850002CEF1CF02EEF1CF050EF1CF00FC009F005
:1038600010C00AF011C00BF012C00CF0090ED89075
:1038700009360A360B360C36E82E37EF1CF00950A5
:103880000A100B100C10D8B448EF1CF04BEF1CF0D2
:10389000010E4CEF1CF0000E056E066A54EF1CF092
:1038A000000E066E040E056E120007500810D8B404
:1038B0005CEF1CF05EEF1CF067EF1CF00750081087
:1038C000D8A465EF1CF067EF1CF06CEF1CF00550FE
:1038D00014EC21F0B9EF1CF020EE09F00750D926C6
:1038E0000850DA22DE50DE10D8B479EF1CF07BEFFE
:1038F0001CF096EF1CF020EE09F00750D926085076
:10390000DA2210EE03F00750E1260850E222DE50E2
:10391000E65CE650800A0D6EDE50800A0D58D8B085
:1039200094EF1CF096EF1CF0B9EF1CF020EE03F0C2
:103930000750D9260850DA22DECF09F0DDCF0AF091
:1039400007C0D9FF08C0DAFFDECF0BF0DDCF0CF0E7
:1039500009500B24D96E0A500C20DA6E05C0DFFF27
:1039600020EE03F00750D9260850DA22DE2A000E96
:10397000DD221200000E05140D6E000E06140E6EF0
:10398000800E07140F6E7F0E0814106E0D500E106F
:103990000F101010D8A4CFEF1CF0D1EF1CF0D9EF0E
:1039A0001CF0000E056E000E066E000E076E000E77
:1039B000086E000E09140D6E000E0A140E6E800EB5
:1039C0000B140F6E7F0E0C14106E0D500E100F1096
:1039D0001010D8A4EEEF1CF0F0EF1CF0F8EF1CF084
:1039E000000E096E000E0A6E000E0B6E000E0C6EBD
:1039F000095005180FE10A5006180CE10B50071882
:103A000009E10C500818D8B408EF1DF00AEF1DF0BA
:103A10000DEF1DF0D8900EEF1DF0D88012007D94B0
:103A20007D987B9E7F9C85948598839E879C050EC0
:103A30000E01746F060E766F070E696F080E886FA1
:103A4000BD508F0B3009BD6EE00EBE16BF50F00B9F
:103A50000109BF6EC70EBC6EBD8E000EAA6E000EB1
:103A6000A66E000E0F01256F000E216FFC0EAD1625
:103A7000F30EAD16CF0EAD163F0EAD16AB88AB50A4
:103A8000F00B0C09AB6EAB8EA788A750F00B0C099E
:103A9000A76EA78E26892651F00B0C09266F268F5C
:103AA00022892251F00B0C09226F228F14EC1FF097
:103AB00012001ABE5EEF1DF060EF1DF066EF1DF004
:103AC00019C01EF01AC01FF06AEF1DF0000E1F6E25
:103AD000000E1E6E000E1D6E000E1C6E7CEF1DF0A3
:103AE000000E066E200E056E15C007F016C008F019
:103AF00055EC1CF01C4A1D2A1E501C5C1D50800AEF
:103B00001B6E1F50800A1B58D8A089EF1DF08BEF49
:103B10001DF070EF1DF017C00EF018C00FF015C0AB
:103B200010F016C011F07EEC1FF0120008BEA5EFD9
:103B30001DF008500710061006E10504D8B0A3EFE9
:103B40001DF0A5EF1DF0C0EF1DF005C009F006C087
:103B50000AF007C00BF008C00CF0091E0A1E0B1E6D
:103B60000C1E092A000E0A220B220C2209C005F0A5
:103B70000AC006F00BC007F00CC008F0C8EF1DF03B
:103B800005C005F006C006F007C007F008C008F041
:103B9000120074EC1EF010C0D9FF11C0DAFF09C08A
:103BA000DEFF0AC0DDFF9CEC1EF020EE02F010509C
:103BB000D9261150DA2209C0DEFF0AC0DDFFECEC85
:103BC0001EF020EE04F01050D9261150DA2209C060
:103BD000DEFF0AC0DDFFC4EC1EF020EE06F0105040
:103BE000D9261150DA2209C0DEFF0AC0DDFF12001B
:103BF000B6C0BAF0B7C0BBF00DEF1EF0B4C0A3F072
:103C0000B5C0A4F0BA0E0001A56F000EA66FB8C033
:103C1000A7F0B9C0A8F0B4EC14F0BAC0F6FFBBC06E
:103C2000F7FF000EF86E0800F5500009D8A41BEF4E
:103C30001EF01DEF1EF0FEEF1DF0000E0001B56F2F
:103C4000000EB46F1200C00E0001C86F000EC96FE5
:103C5000BCC0CAF0BDC0CBF0000ECE6F000ECD6F61
:103C6000000ED46F000ED36FCA0EB46F000EB56F86
:103C7000BEC0B6F0BFC0B7F0C80EB86F000EB96FC7
:103C8000F8EC1DF00001CD51BC25D96ECE51BD21FF
:103C9000DA6E000EDF6E120007C00DF008C00EF0E5
:103CA00005C00BF006C00CF066EF1EF00DC0D9FF8A
:103CB0000EC0DAFFDF500F6E0D4A0E2A0BC0D9FF7F
:103CC0000CC0DAFF0FC0DFFF0B4A0C2A0906D8A090
:103CD0000A06092806E10A28D8A471EF1EF073EF3E
:103CE0001EF056EF1EF012000FEC21F0520EFFEC0A
:103CF00020F0B60EFFEC20F005EC21F0530EFFECA7
:103D000020F0010EA0EC1FF00B6E0B500E6E0F6A30
:103D1000000EA0EC1FF00B6E0B500D6E0C6A0E50D7
:103D20000C100E6E0F500D100F6E0AEC21F00EC02D
:103D300009F00FC00AF012000FEC21F0520EFFEC58
:103D400020F0B80EFFEC20F005EC21F0530EFFEC54
:103D500020F0010EA0EC1FF00B6E0B500E6E0F6AE0
:103D6000000EA0EC1FF00B6E0B500D6E0C6A0E5087
:103D70000C100E6E0F500D100F6E0AEC21F00EC0DD
:103D800009F00FC00AF012000FEC21F0520EFFEC08
:103D900020F0B40EFFEC20F005EC21F0530EFFEC08
:103DA00020F0010EA0EC1FF00B6E0B500E6E0F6A90
:103DB000000EA0EC1FF00B6E0B500D6E0C6A0E5037
:103DC0000C100E6E0F500D100F6E0AEC21F00EC08D
:103DD00009F00FC00AF012000FEC21F0520EFFECB8
:103DE00020F0BA0EFFEC20F005EC21F0530EFFECB2
:103DF00020F0010EA0EC1FF00B6E0B500E6E0F6A40
:103E0000000EA0EC1FF00B6E0B500D6E0C6A0E50E6
:103E10000C100E6E0F500D100F6E0AEC21F00EC03C
:103E200009F00FC00AF01200000E056E010E066EBA
:103E3000010E076EAA0E0A6E0F0E0B6EA60E0C6E0A
:103E40000F0E0D6E000E096EC70E086E000E0E6E80
:103E5000010E0F6E010E106E250E136E0F0E146EF6
:103E6000210E156E0F0E166E000E126EC70E116E1D
:103E70001200000E191A000E1A1A000E1B1A800EDC
:103E80001C1A15C005F016C006F017C007F018C0C0
:103E900008F019C009F01AC00AF01BC00BF01CC0D2
:103EA0000CF01FEC0CF005C015F006C016F007C0B2
:103EB00017F008C018F0120007C009F008C00AF097
:103EC00005C00BF006C00CF009C0F6FF0AC0F7FFF2
:103ED000094A0A2A000EF86E0BC0D9FF0CC0DAFF9F
:103EE0000B4A0C2A0800F5CFDFFFDF50D8A47BEF88
:103EF0001FF07DEF1FF064EF1FF01200000E146E34
:103F0000000E136E8FEF1FF012C005F0066A10C08E
:103F100007F011C008F055EC1CF0134A142A135096
:103F20000E24D96E14500F20DA6EDF50126E12502C
:103F3000D8A49DEF1FF09FEF1FF084EF1FF0120039
:103F4000076EB6EC20F00E01DA87B6EC20F0D5CE85
:103F500008F0B6EC20F00750D8B4B1EF1FF0B5EF81
:103F60001FF0066A062AB6EF1FF0066A063A0646F2
:103F70000E01DA510618DF0B0618DA6FDA890850DD
:103F8000120018BECEEF1FF0185006E11704D8B08B
:103F9000CCEF1FF0CEEF1FF0DCEF1FF017C019F0D1
:103FA00018C01AF0191E1A1E194A1A2A19C017F039
:103FB0001AC018F0E0EF1FF017C017F018C018F083
:103FC00012000550061007100810D8B4EAEF1FF0D1
:103FD000ECEF1FF0F4EF1FF0000E051A000E061AAA
:103FE000000E071A800E081A05C005F006C006F07C
:103FF00007C007F008C008F0120002EE00F03C0E07
:10400000EE6AE806FDE101EE76F0500EEE6AE80693
:10401000FDE100EED7F0210EEE6AE806FDE15A6AF6
:10402000596A586A576A5B905B9200017FEF0EF005
:1040300077EC20F0010E076E000ECAEC20F03F0E68
:10404000096E550EE82EFED7092EFCD700F0030EA0
:10405000076E000ECAEC20F0D50E076E010ECAECFA
:1040600020F012003DEF20F006C0D9FF07C0DAFFB4
:10407000DF508CEC20F0064A072A06C0D9FF07C0A3
:10408000DAFFDF50D8A447EF20F049EF20F034EFFB
:1040900020F012000E01E997E895330EE56F000E4F
:1040A000E66FE789E88BE78F8382120E626F110E4D
:1040B000156FF28EF28AF28C2D872D95238723853A
:1040C00012003B0E576467EF20F069EF20F06BEFB2
:1040D00020F0000E576E572A5704016E026A000E38
:1040E0000124D96E020E0220DA6EDF5012000E019A
:1040F000D951F00B0809D96FD98B9F0ED66F848ADE
:10410000848CA79BA79D1D0E1D6F1E0E1C6F1C0E81
:104110006F6F1B0E706F1200056E3B0E586493EFAD
:1041200020F095EF20F097EF20F0000E586E000E73
:104130005824D96EDA6A020EDA2205C0DFFF582A47
:104140001200016E130E5A64A8EF20F0AAEF20F0BF
:10415000ACEF20F0000E5A6ED70E5A24D96EDA6AF0
:10416000000EDA2201C0DFFF5A2A12000E01D8B574
:10417000BCEF20F0BEEF20F0B6EF20F0DACE05F075
:104180001F0E0516D8A4C7EF20F0C9EF20F0B6EF38
:1041900020F01200086E0FEC21F0520EFFEC20F020
:1041A00008508009FFEC20F00750FFEC20F00AECEB
:1041B00021F01200E7EC20F00009D8B4E2EF20F083
:1041C000E4EF20F0E6EF20F00E012D8512005750AD
:1041D0005818D8A4EEEF20F0F1EF20F0010EF2EF26
:1041E00020F0000E120057505818D8A4FAEF20F013
:1041F000FDEF20F0010EFEEF20F0000E1200066E23
:10420000B6EC20F006C0D5FE1200B6EC20F00E0190
:10421000DA831200B6EC20F00E01DA851200B6EC5B
:0A42200020F00E01DA8112001200F6
:020000040020DA
:10000000FF0FFF0FFF0FFF0FFF0FFF0FFF0FFF0F80
:020000040030CA
:0C000000AAFFFFFF9FFFFFFFFFFFFFFFB5
:00000001FF
