:0400000034EF00F0E9
:100008005B82D9CF03F0DACF04F00E0137A70FEFE8
:1000180000F011EF00F014EF00F0E35175EC2BF055
:100028000E0137A51AEF00F01CEF00F02EEF00F0DC
:10003800EAEC2BF00009D8B424EF00F026EF00F02A
:100048002CEF00F035EC2BF00E01E46F2EEF00F0F2
:100058000E012D9504C0DAFF03C0D9FF5B92110091
:040068001AEF2AF071
:100E0000002020433A2025642020256420202566E8
:100E1000200D00696E66006E616E00007E0E106E21
:100E2000000E116ECFEC28F064C0D9FF65C0DAFF68
:100E3000DECF78F0DDCF79F0000120EE02F06451D2
:100E4000D9266551DA22DECF7AF0DDCF7BF020EEB5
:100E500004F06451D9266551DA22DECF7CF0DDCF73
:100E60007DF066C0D9FF67C0DAFFDECF4FF0DDCF7F
:100E700050F04FC005F050C006F0076A086A000E37
:100E8000EEEC1CF005C06CF006C06DF007C06EF013
:100E900008C06FF0000120EE02F06651D9266751BC
:100EA000DA22DECF4FF0DDCF50F04FC005F050C05A
:100EB00006F0076A086A000EEEEC1CF005C070F040
:100EC00006C071F007C072F008C073F0000120EE98
:100ED00004F06651D9266751DA22DECF4FF0DDCF1C
:100EE00050F04FC005F050C006F0076A086A000EC7
:100EF000EEEC1CF005C074F006C075F007C076F08B
:100F000008C077F0000120EE06F06651D92667513F
:100F1000DA22DECF4FF0DDCF50F04FC005F050C0E9
:100F200006F0076A086A000EEEEC1CF0000178512A
:100F30007E5D4F6E79517F59506E4FC005F050C0A5
:100F400006F0076A086A000EEEEC1CF005C036F0E9
:100F500006C037F007C038F008C039F060C019F09B
:100F600061C01AF062C01BF063C01CF078C005F0CD
:100F700079C006F0076A086A000EEEEC1CF005C0A6
:100F800032F006C033F007C034F008C035F06CC052
:100F90002EF06DC02FF06EC030F06FC031F03FEC1E
:100FA0002AF02EC015F02FC016F030C017F031C057
:100FB00018F01CEC14F015C03AF016C03BF017C046
:100FC0003CF018C03DF031EC16F036C086F037C06A
:100FD00087F038C088F039C089F000017A51805D0F
:100FE0004F6E7B518159506E4FC005F050C006F0D6
:100FF000076A086A000EEEEC1CF005C036F006C069
:1010000037F007C038F008C039F060C019F061C08F
:101010001AF062C01BF063C01CF07AC005F07BC000
:1010200006F0076A086A000EEEEC1CF005C032F00C
:1010300006C033F007C034F008C035F070C02EF0A1
:1010400071C02FF072C030F073C031F03FEC2AF065
:101050002EC015F02FC016F030C017F031C018F0B8
:101060001CEC14F015C03AF016C03BF017C03CF071
:1010700018C03DF031EC16F036C08AF037C08BF066
:1010800038C08CF039C08DF000017C51825D4F6E0C
:101090007D518359506E4FC005F050C006F0076A6D
:1010A000086A000EEEEC1CF005C036F006C037F002
:1010B00007C038F008C039F060C019F061C01AF0FC
:1010C00062C01BF063C01CF07CC005F07DC006F060
:1010D000076A086A000EEEEC1CF005C032F006C08C
:1010E00033F007C034F008C035F074C02EF075C07E
:1010F0002FF076C030F077C031F03FEC2AF02EC0F0
:1011000015F02FC016F030C017F031C018F01CECED
:1011100014F015C03AF016C03BF017C03CF018C0F0
:101120003DF031EC16F036C08EF037C08FF038C08D
:1011300090F039C091F0000189BFA1EF08F0A3EF52
:1011400008F0BCEF08F0000E366E000E376E000E91
:10115000386E400E396E86C03AF087C03BF088C0CA
:101160003CF089C03DF091EC23F0D8B0BAEF08F024
:10117000BCEF08F0C5EF08F0000E0001866F000E0E
:10118000876F000E886F000E896F00018DBFCBEF57
:1011900008F0CDEF08F0E6EF08F0000E366E000E16
:1011A000376E000E386E400E396E8AC03AF08BC032
:1011B0003BF08CC03CF08DC03DF091EC23F0D8B0FA
:1011C000E4EF08F0E6EF08F0EFEF08F0000E0001A2
:1011D0008A6F000E8B6F000E8C6F000E8D6F0001FA
:1011E00091BFF5EF08F0F7EF08F010EF09F0000EEF
:1011F000366E000E376E000E386E400E396E8EC0A1
:101200003AF08FC03BF090C03CF091C03DF091ECC3
:1012100023F0D8B00EEF09F010EF09F019EF09F044
:10122000000E00018E6F000E8F6F000E906F000E8B
:10123000916F660E366E660E376E660E386E3F0E16
:10124000396E86C03AF087C03BF088C03CF089C058
:101250003DF091EC23F0D8B030EF09F032EF09F017
:1012600072EF09F0660E366E660E376E660E386ED9
:101270003F0E396E8AC03AF08BC03BF08CC03CF018
:101280008DC03DF091EC23F0D8B049EF09F04BEF61
:1012900009F072EF09F0660E366E660E376E660E56
:1012A000386E3F0E396E8EC03AF08FC03BF090C062
:1012B0003CF091C03DF091EC23F0D8B062EF09F022
:1012C00064EF09F072EF09F02A0E4F6E8E0EE82ED1
:1012D000FED74F2EFCD72A0E4F6E8E0EE82EFED76D
:1012E0004F2EFCD7000E366E000E376EC00E386ED5
:1012F0003F0E396E86C03AF087C03BF088C03CF0A4
:1013000089C03DF091EC23F0D8B089EF09F08BEF64
:1013100009F0F2EF09F0CD0E366ECC0E376E4C0EA2
:10132000386E3F0E396E8AC032F08BC033F08CC0FD
:1013300034F08DC035F086C02EF087C02FF088C005
:1013400030F089C031F03FEC2AF02EC03AF02FC0C7
:101350003BF030C03CF031C03DF091EC23F0D8B010
:10136000B4EF09F0B6EF09F0F2EF09F0CD0E366EEA
:10137000CC0E376E4C0E386E3F0E396E8EC032F08A
:101380008FC033F090C034F091C035F086C02EF09D
:1013900087C02FF088C030F089C031F03FEC2AF0D0
:1013A0002EC03AF02FC03BF030C03CF031C03DF0D1
:1013B00091EC23F0D8B0DFEF09F0E1EF09F0F2EFA4
:1013C00009F068C01EF069C01FF06AC020F06BC051
:1013D00021F032EC21F02A0E4F6E8E0EE82EFED751
:1013E0004F2EFCD7660E366E660E376EA60E386E22
:1013F0003F0E396E86C03AF087C03BF088C03CF0A3
:1014000089C03DF091EC23F0D8B009EF0AF00BEF62
:101410000AF055EF0AF0000E366E000E376E000E21
:10142000386E3F0E396E8AC03AF08BC03BF08CC0EC
:101430003CF08DC03DF091EC23F0D8B022EF0AF0E3
:1014400024EF0AF055EF0AF0000E366E000E376EEC
:10145000000E386E3F0E396E8EC03AF08FC03BF0F2
:1014600090C03CF091C03DF091EC23F0D8B03BEF40
:101470000AF03DEF0AF055EF0AF02A0E4F6E8E0E7D
:10148000E82EFED74F2EFCD768C01EF069C01FF0B3
:101490006AC020F06BC021F093EC20F02A0E4F6E52
:1014A0008E0EE82EFED74F2EFCD7000E366E000EA5
:1014B000376E800E386E3F0E396E86C03AF087C0A8
:1014C0003BF088C03CF089C03DF091EC23F0D8B0EF
:1014D0006CEF0AF06EEF0AF0B8EF0AF0CD0E366E40
:1014E000CC0E376E4C0E386E3F0E396E8AC03AF015
:1014F0008BC03BF08CC03CF08DC03DF091EC23F0F4
:10150000D8B085EF0AF087EF0AF0B8EF0AF08EC086
:1015100036F08FC037F090C038F091C039F0CD0E62
:101520003A6ECC0E3B6E4C0E3C6E3F0E3D6E91EC17
:1015300023F0D8B09EEF0AF0A0EF0AF0B8EF0AF05F
:101540002A0E4F6E8E0EE82EFED74F2EFCD768C0A7
:1015500024F069C025F06AC026F06BC027F0A3EC28
:1015600027F02A0E4F6E8E0EE82EFED74F2EFCD798
:10157000330E366E330E376E330E386E3F0E396EC5
:1015800086C032F087C033F088C034F089C035F0AF
:101590008EC02EF08FC02FF090C030F091C031F08F
:1015A0003FEC2AF02EC03AF02FC03BF030C03CF0A8
:1015B00031C03DF091EC23F0D8B0E1EF0AF0E3EF59
:1015C0000AF03FEF0BF09A0E366E990E376E990EB9
:1015D000386E3E0E396E8AC032F08BC033F08CC04C
:1015E00034F08DC035F08EC02EF08FC02FF090C03B
:1015F00030F091C031F03FEC2AF02EC03AF02FC00D
:101600003BF030C03CF031C03DF091EC23F0D8B05D
:101610000CEF0BF00EEF0BF03FEF0BF0330E366ECE
:10162000330E376E330E386E3F0E396E8EC03AF081
:101630008FC03BF090C03CF091C03DF091EC23F0A6
:10164000D8B025EF0BF027EF0BF03FEF0BF02A0E91
:101650004F6E8E0EE82EFED74F2EFCD768C01EF0C0
:1016600069C01FF06AC020F06BC021F0F4EC1FF0DD
:101670002A0E4F6E8E0EE82EFED74F2EFCD7CD0EC3
:10168000366ECC0E376ECC0E386E3E0E396E86C07E
:1016900032F087C033F088C034F089C035F08AC09A
:1016A0002EF08BC02FF08CC030F08DC031F03FECAD
:1016B0002AF02EC03AF02FC03BF030C03CF031C0D1
:1016C0003DF091EC23F0D8B068EF0BF06AEF0BF02F
:1016D000C6EF0BF0000E366E000E376E800E386EC1
:1016E0003F0E396E8AC03AF08BC03BF08CC03CF0A4
:1016F0008DC03DF091EC23F0D8B081EF0BF083EF7B
:101700000BF0C6EF0BF0CD0E366ECC0E376ECC0E56
:10171000386E3E0E396E8EC032F08FC033F090C0FE
:1017200034F091C035F08AC02EF08BC02FF08CC001
:1017300030F08DC031F03FEC2AF02EC03AF02FC0CF
:101740003BF030C03CF031C03DF091EC23F0D8B01C
:10175000ACEF0BF0AEEF0BF0C6EF0BF02A0E4F6EB6
:101760008E0EE82EFED74F2EFCD768C01EF069C043
:101770001FF06AC020F06BC021F0D1EC21F02A0EDE
:101780004F6E8E0EE82EFED74F2EFCD786C036F059
:1017900087C037F088C038F089C039F0330E3A6E10
:1017A000330E3B6E330E3C6E3F0E3D6E91EC23F0DC
:1017B000D8B0DDEF0BF0DFEF0BF029EF0CF0000EEF
:1017C000366E000E376E800E386E3F0E396E8AC050
:1017D0003AF08BC03BF08CC03CF08DC03DF091ECFA
:1017E00023F0D8B0F6EF0BF0F8EF0BF029EF0CF088
:1017F000000E366E000E376E800E386E3F0E396E5C
:101800008EC03AF08FC03BF090C03CF091C03DF0EC
:1018100091EC23F0D8B00FEF0CF011EF0CF029EFA2
:101820000CF02A0E4F6E8E0EE82EFED74F2EFCD7F0
:1018300068C01EF069C01FF06AC020F06BC021F0C4
:1018400070EC22F02A0E4F6E8E0EE82EFED74F2E31
:10185000FCD7330E366E330E376E730E386E3F0E76
:10186000396E86C03AF087C03BF088C03CF089C032
:101870003DF091EC23F0D8B040EF0CF042EF0CF0CB
:10188000BEEF0CF0CD0E366ECC0E376E4C0E386EB1
:101890003F0E396E8AC03AF08BC03BF08CC03CF0F2
:1018A0008DC03DF091EC23F0D8B059EF0CF05BEF18
:1018B0000CF0BEEF0CF08AC036F08BC037F08CC055
:1018C00038F08DC039F0660E3A6E660E3B6E660ECD
:1018D0003C6E3F0E3D6E91EC23F0D8B072EF0CF0F1
:1018E00074EF0CF0BEEF0CF0CD0E366ECC0E376EF2
:1018F0004C0E386E3F0E396E8EC03AF08FC03BF002
:1019000090C03CF091C03DF091EC23F0D8B08BEF4B
:101910000CF08DEF0CF0BEEF0CF08EC036F08FC0E7
:1019200037F090C038F091C039F0330E3A6E330E74
:101930003B6E730E3C6E3F0E3D6E91EC23F0D8B0C3
:10194000A4EF0CF0A6EF0CF0BEEF0CF02A0E4F6ED9
:101950008E0EE82EFED74F2EFCD768C024F069C04B
:1019600025F06AC026F06BC027F0E4EC27F02A0EC1
:101970004F6E8E0EE82EFED74F2EFCD71200000EB3
:101980000001986F72C099F073C09AF074C09BF018
:1019900075C09CF09CBFD1EF0CF0CFEF0CF0E5EFE1
:1019A0000CF0010E986F99C005F09AC006F09BC02C
:1019B00007F09CC008F0E7EC2AF005C099F006C0DB
:1019C0009AF007C09BF008C09CF0000E00019E6FCB
:1019D000000E9D6FF3C088F0F4C089F09851D8B420
:1019E000F4EF0CF0F6EF0CF00AEF0DF09851D8A4DC
:1019F000FCEF0CF0FEEF0CF004EF0DF0000E7E6F2C
:101A00002B0E7D6F08EF0DF0000E7E6F2D0E7D6F9B
:101A10007DC098F099C005F09AC006F09BC007F011
:101A20009CC008F013EC24F005040610D8A41BEFAA
:101A30000DF01DEF0DF050EF0DF000019851D8B4EE
:101A400024EF0DF026EF0DF02FEF0DF098C03CF1D4
:101A50008807D8A08907000E9E6F010E9D6F3C0E6F
:101A60009D25056E010E9E21066E130E076E0E0E4D
:101A7000086E62EC2AF00001FD0E8827FF0E892314
:101A800070C015F071C016F03C0E176E010E186E86
:101A900088C019F089C01AF025EC28F0BBEF11F0CE
:101AA00099C005F09AC006F09BC007F09CC008F0F2
:101AB00013EC24F005500610D8A461EF0DF063EF8D
:101AC0000DF083EF0DF000019851D8B46AEF0DF0DE
:101AD0006CEF0DF075EF0DF098C03CF18807D8A0C1
:101AE0008907000E9E6F010E9D6F3C0E9D25056EB1
:101AF000010E9E21066E170E076E0E0E086E62EC2A
:101B00002AF03BEF0DF0000E00019F6F000EA06F5A
:101B1000800EA16F3F0EA26F000E876F000E866FC2
:101B200099C005F09AC006F09BC007F09CC008F071
:101B3000000E096E000E0A6E000E0B6E000E0C6E8B
:101B400006EC27F0D8B0A7EF0DF0A9EF0DF088EF65
:101B50000EF0B6EF0DF08AC09FF08BC0A0F08CC0E5
:101B6000A1F08DC0A2F00001864B872B9FC015F01D
:101B7000A0C016F0A1C017F0A2C018F0000E196E98
:101B8000000E1A6E200E1B6E410E1C6E1CEC14F023
:101B900015C08AF016C08BF017C08CF018C08DF0FD
:101BA00000018A51995D056E8B519A59066E8C51D0
:101BB0009B59076E8D519C59086E9CEC28F008BE0D
:101BC000EDEF0DF008500710061009E1020E055C5C
:101BD000D8A0EDEF0DF0EFEF0DF0ABEF0DF08AC0F8
:101BE00036F08BC037F08CC038F08DC039F099C01A
:101BF0003AF09AC03BF09BC03CF09CC03DF091ECA9
:101C000023F0D8A006EF0EF008EF0EF0ABEF0DF0CA
:101C100000019F51995D056EA0519A59066EA15120
:101C20009B59076EA2519C59086E9CEC28F008BE87
:101C300027EF0EF008500710061007E1020E055CB2
:101C4000D8B025EF0EF027EF0EF06FEF0EF09FC02B
:101C500099F0A0C09AF0A1C09BF0A2C09CF088EFC0
:101C60000EF09FC036F0A0C037F0A1C038F0A2C07F
:101C700039F0000E3A6E000E3B6E200E3C6E410EA7
:101C80003D6E31EC16F036C09FF037C0A0F038C082
:101C9000A1F039C0A2F000018607D8A087079F51A4
:101CA000995D056EA0519A59066EA1519B59076E18
:101CB000A2519C59086E9CEC28F008BE6DEF0EF006
:101CC00008500710061007E1020E055CD8B06BEF54
:101CD0000EF06DEF0EF06FEF0EF027EF0EF099C0E3
:101CE00036F09AC037F09BC038F09CC039F09FC0E6
:101CF0003AF0A0C03BF0A1C03CF0A2C03DF091EC96
:101D000023F0D8A086EF0EF088EF0EF031EF0EF042
:101D100076C080F080C081F00001F6BF92EF0EF037
:101D200094EF0EF09AEF0EF0F5C079F0F6C07AF06D
:101D30009EEF0EF0000E7A6F060E796F79C084F078
:101D40007AC085F0844B852B660E8119D8A4ABEF41
:101D50000EF0ADEF0EF0CDEF0EF087BFB4EF0EF04A
:101D6000B2EF0EF0C0EF0EF0000E9F6F000EA06FEE
:101D7000800EA16F3F0EA26F000E876F000E866F60
:101D8000670E8019D8B4C7EF0EF0C9EF0EF0CDEF93
:101D90000EF08651842787518523000E8F6F000E29
:101DA0008E6F99C090F09AC091F09BC092F09CC049
:101DB00093F09FC08AF0A0C08BF0A1C08CF0A2C0AD
:101DC0008DF05EEF0FF090C036F091C037F092C00A
:101DD00038F093C039F09FC03AF0A0C03BF0A1C0EA
:101DE0003CF0A2C03DF031EC16F036C04FF037C0E9
:101DF00050F038C051F039C052F0E3EC1BF04FC046
:101E000094F050C095F051C096F052C097F094C035
:101E100005F095C006F096C007F097C008F00EECEC
:101E200023F005C082F006C083F090C02EF091C070
:101E30002FF092C030F093C031F094C019F095C0EB
:101E40001AF096C01BF097C01CF09FC015F0A0C000
:101E500016F0A1C017F0A2C018F01CEC14F015C0C9
:101E600032F016C033F017C034F018C035F03FEC34
:101E70002AF02EC090F02FC091F030C092F031C007
:101E800093F09FC036F0A0C037F0A1C038F0A2C0D8
:101E900039F0000E3A6E000E3B6E200E3C6E410E85
:101EA0003D6E31EC16F036C09FF037C0A0F038C060
:101EB000A1F039C0A2F000018E4B8F2B84518E5DB2
:101EC0008F51800A536E8551800A5358D8A06BEF0A
:101ED0000FF06DEF0FF0E3EF0EF09FC015F0A0C014
:101EE00016F0A1C017F0A2C018F0000E196E000E77
:101EF0001A6EA00E1B6E400E1C6E1CEC14F015C06A
:101F000094F016C095F017C096F018C097F090C0E6
:101F100036F091C037F092C038F093C039F094C0D9
:101F20003AF095C03BF096C03CF097C03DF091EC84
:101F300023F0D8B09EEF0FF0A0EF0FF0ABEF0FF053
:101F4000000E0001946F000E956F000E966F000E4C
:101F5000976FD4EF0FF090C005F091C006F092C0DB
:101F600007F093C008F094C009F095C00AF096C03D
:101F70000BF097C00CF006EC27F0D8A0C2EF0FF0E2
:101F8000C4EF0FF0D4EF0FF0000182B1CAEF0FF0F1
:101F9000CCEF0FF0D4EF0FF0000E946F000E956FA2
:101FA000000E966F000E976F99C005F09AC006F06C
:101FB0009BC007F09CC008F094C009F095C00AF0DF
:101FC00096C00BF097C00CF0BCEC11F005C090F07F
:101FD00006C091F007C092F008C093F090C036F0B0
:101FE00091C037F092C038F093C039F0000E196EEE
:101FF000000E1A6E200E1B6E410E1C6E8AC015F06C
:102000008BC016F08CC017F08DC018F01CEC14F0CB
:1020100015C03AF016C03BF017C03CF018C03DF0B8
:1020200091EC23F0D8A017EF10F019EF10F042EF69
:1020300010F00001864B872B8AC015F08BC016F07C
:102040008CC017F08DC018F0000E196E000E1A6EBD
:10205000200E1B6E410E1C6E1CEC14F015C08AF095
:1020600016C08BF017C08CF018C08DF0660E000102
:102070008119D8A43EEF10F040EF10F042EF10F0BD
:10208000844B852B8AC09FF08BC0A0F08CC0A1F040
:102090008DC0A2F086C077F087C078F0000E0001F6
:1020A0007F6F000E7C6F000E7B6F000E8F6F000E37
:1020B0008E6F40EF11F090C036F091C037F092C0B3
:1020C00038F093C039F09FC03AF0A0C03BF0A1C0F7
:1020D0003CF0A2C03DF031EC16F036C04FF037C0F6
:1020E00050F038C051F039C052F0E3EC1BF04FC053
:1020F00094F050C095F051C096F052C097F094C043
:1021000005F095C006F096C007F097C008F00EECF9
:1021100023F006BE97EF10F0065007E10A0E055CAB
:10212000D8B095EF10F097EF10F0A7EF10F094C033
:1021300005F095C006F096C007F097C008F00EECC9
:1021400023F005C082F006C083F0ACEF10F0000E63
:102150000001836F090E826F00017F51D8A4B3EF95
:1021600010F0B5EF10F0DDEF10F078BFBCEF10F01D
:10217000BAEF10F0DDEF10F03C0E9D25D96E010E88
:102180009E21DA6E2E0EDF6E9D4B9E2B8807D8A007
:102190008907010E7F6FDDEF10F03C0E9D25D96E93
:1021A000010E9E21DA6E300EDF6E9D4B9E2B88074E
:1021B000D8A089077B07D8A07C077B517C11D8A4C5
:1021C000E4EF10F0E6EF10F0CDEF10F03C0E9D259F
:1021D000D96E010E9E21DA6E8251300FDF6E9D4B5B
:1021E0009E2B8807D8A0890790C02EF091C02FF0B1
:1021F00092C030F093C031F094C019F095C01AF03D
:1022000096C01BF097C01CF09FC015F0A0C016F040
:10221000A1C017F0A2C018F01CEC14F015C032F0E9
:1022200016C033F017C034F018C035F03FEC2AF078
:102230002EC090F02FC091F030C092F031C093F0DA
:102240009FC036F0A0C037F0A1C038F0A2C039F06E
:10225000000E3A6E000E3B6E200E3C6E410E3D6E3F
:1022600031EC16F036C09FF037C0A0F038C0A1F0B6
:1022700039C0A2F000017707D8A078078E4B8F2BCA
:1022800084518E5D8F51800A536E8551800A535858
:10229000D8B04DEF11F04FEF11F05DEF11F09EBF90
:1022A0005BEF11F09E5109E14B0E9D5DD8A05BEFF5
:1022B00011F05DEF11F05BEF10F0000E8F6F4F0E1D
:1022C0008E6F3C0E8E25D96E010E8F21DA6E000EB8
:1022D000DF6E3C0E536E010E546E9D51535E9E5147
:1022E000545A8E515324056E8F515420066E3C0E65
:1022F000076E010E086E9DC009F09EC00AF052ECF8
:1023000029F000019D518E5D9D6F9E518F599E6FEA
:102310009851D8A48EEF11F091EF11F0010E92EFC9
:1023200011F0000E8E6F8F6B9851D8B49AEF11F0A8
:102330009CEF11F0A7EF11F09D07D8A09E073C0E6F
:102340009D25D96E010E9E21DA6E98C0DFFF8E5159
:10235000885F8F51895B70C015F071C016F03C0E1C
:102360009D25176E010E9E21186E88C019F089C038
:102370001AF025EC28F012000850800B116E08505E
:102380000824136E07AEC7EF11F0C9EF11F0CAEFC2
:1023900011F013801350D8B4D0EF11F0D2EF11F038
:1023A000E7EF11F01328D8A4D8EF11F0DAEF11F00D
:1023B000E2EF11F0000E056E000E066E000E076EC5
:1023C000000E086E078E000E086EEFEF11F0000E83
:1023D000056E000E066E000E076E000E086E0C50A5
:1023E000800B126E11501218D8B4F9EF11F0FBEFF8
:1023F00011F0FCEF11F0118C0C500C24126E0BAE8E
:1024000004EF12F006EF12F007EF12F012801250F4
:10241000D8B40DEF12F00FEF12F024EF12F01228E3
:10242000D8A415EF12F017EF12F01FEF12F0000E04
:10243000096E000E0A6E000E0B6E000E0C6E0B8EF7
:10244000000E0C6E2CEF12F0000E096E000E0A6EDC
:10245000000E0B6E000E0C6E1350125CD8B033EFF2
:1024600012F035EF12F05CEF12F011AC3AEF12F00F
:102470003CEF12F03EEF12F0800E111A13C014F070
:1024800012C013F014C012F005C014F009C005F01A
:1024900014C009F006C014F00AC006F014C00AF017
:1024A00007C014F00BC007F014C00BF008C014F004
:1024B0000CC008F014C00CF0000E146E135012C0C3
:1024C0000DF00E6A0D5E000E0E5A0EBE71EF12F088
:1024D0000E5009E11A0E0D5CD8A071EF12F073EFE7
:1024E00012F0AAEF12F00550061007100810D8A439
:1024F0007CEF12F07FEF12F0010E80EF12F0000E71
:10250000146E000E056E000E066E000E076E000EB5
:10251000086E12C013F0B3EF12F014A092EF12F095
:1025200094EF12F09AEF12F0D89014300109146E63
:102530009CEF12F0D890143205A0A1EF12F0A3EF97
:1025400012F0A4EF12F0148E08340832073206326B
:102550000532132A1250135CD8A0B1EF12F0B3EF7A
:1025600012F08DEF12F011BCB8EF12F0BAEF12F0CA
:10257000FAEF12F01350D8A4C0EF12F0C2EF12F02D
:10258000CCEF12F0000E056E000E066E000E076E08
:10259000000E086E1BEF14F0095005260A500622A3
:1025A0000B5007220C50082208A0D9EF12F0DBEFE5
:1025B00012F087EF13F014A0E0EF12F0E2EF12F048
:1025C000E8EF12F0D89014300109146EEAEF12F01F
:1025D000D890143205A0EFEF12F0F1EF12F0F2EF05
:1025E00012F0148E08340832073206320532132AEC
:1025F00087EF13F00950055C0A5006580B50075836
:102600000850800A0D6E0C50800A0D58D8B00BEFA0
:1026100013F00DEF13F038EF13F00550095C0D6E59
:1026200006500A580E6E07500B580F6E08500C5883
:10263000106EFF0E0D24056EFF0E0E20066EFF0EAF
:102640000F20076EFF0E1020086E800E111A146CFA
:102650001450D8A42EEF13F030EF13F040EF13F026
:10266000010E0526000E06220722082240EF13F075
:102670000950055E0A50065A0B50075A0C50085A6A
:102680000550061007100810D8A449EF13F04BEFBF
:1026900013F080EF13F01450D8A451EF13F053EF60
:1026A00013F080EF13F0000E056E000E066E000EA4
:1026B000076E000E086E1BEF14F0D8900536063634
:1026C0000736083614AE67EF13F069EF13F06AEFC0
:1026D00013F0058014A06FEF13F071EF13F075EF96
:1026E00013F0D880143677EF13F0D89014361350C7
:1026F000D8B47DEF13F07FEF13F080EF13F01306E3
:1027000007AE85EF13F087EF13F05DEF13F0000EC7
:10271000126E14AE8EEF13F090EF13F0A8EF13F0DB
:1027200014C00DF07F0E0D16D8B499EF13F09BEF87
:1027300013F09FEF13F0010E126EA8EF13F005A037
:10274000A4EF13F0A6EF13F0A8EF13F09BEF13F034
:102750001250D8B4AEEF13F0B0EF13F0DBEF13F07C
:10276000010E0526000E06220722082208A0BBEF54
:1027700013F0BDEF13F0DBEF13F005C00DF006C052
:102780000EF007C00FF008C010F0103410320F32F6
:102790000E320D320DC005F00EC006F00FC007F06E
:1027A00010C008F01328D8B4D8EF13F0DAEF13F004
:1027B000DBEF13F0132A1328D8B4E1EF13F0E3EFA3
:1027C00013F0EBEF13F01350D8A4E9EF13F0EBEF95
:1027D00013F0FDEF13F0000E056E000E066E000EF6
:1027E000076E000E086E1350D8A4F9EF13F0FBEF3C
:1027F00013F0FDEF13F0000E116E13A002EF14F0B2
:1028000004EF14F007EF14F0078E08EF14F0079EA2
:10281000D8901330086E11AE10EF14F012EF14F0D0
:1028200013EF14F0088E05C005F006C006F007C0CF
:1028300007F008C008F012001850800B216E1850E5
:102840001824276E17AE27EF14F029EF14F02AEFA3
:1028500014F027802750D8B430EF14F032EF14F082
:1028600045EF14F02728D8A438EF14F03AEF14F00D
:1028700042EF14F0000E156E000E166E000E176E6D
:10288000000E186E178E4DEF14F0000E156E000E30
:10289000166E000E176E000E186E1C50800B211A5B
:1028A0001C501C24266E1BAE58EF14F05AEF14F087
:1028B0005BEF14F026802650D8B461EF14F063EF7C
:1028C00014F076EF14F02628D8A469EF14F06BEF1B
:1028D00014F073EF14F0000E196E000E1A6E000E55
:1028E0001B6E000E1C6E1B8E7EEF14F0000E196E18
:1028F000000E1A6E000E1B6E000E1C6E2650D8B411
:1029000084EF14F086EF14F08EEF14F02750D8A463
:102910008CEF14F08EEF14F098EF14F0000E156E9B
:10292000000E166E000E176E000E186E30EF16F0C9
:102930001B501502F3CF2CF0F4CF2DF02C50226E4B
:10294000236A246A256A2D50286E296A2A6A2B6A0E
:102950001A501602F3CF2CF0F4CF2DF02C50222673
:10296000000E2322242225222D502826000E292263
:102970002A222B2219501702F3CF2CF0F4CF2DF07E
:102980002C502226000E2322242225222D502826D8
:10299000000E29222A222B2224C025F023C024F055
:1029A00022C023F0226A19501602F3CF2CF0F4CF84
:1029B0002DF02C5022262D502322000E2422000E12
:1029C00025221A501502F3CF2CF0F4CF2DF02C5005
:1029D00022262D502322000E2422000E252224C060
:1029E00025F023C024F022C023F0226A19501502DA
:1029F000F3CF2CF0F4CF2DF02C5022262D50232293
:102A0000000E2422000E25221B501602F3CF2CF0BC
:102A1000F4CF2DF02C5028262D502922000E2A22EA
:102A2000000E2B221A501702F3CF2CF0F4CF2DF00A
:102A30002C5028262D502922000E2A22000E2B224F
:102A40001B501702F3CF2CF0F4CF2DF02C501D6E3D
:102A50002D501E6E1F6A206A1FC020F01EC01FF07E
:102A60001DC01EF01D6A1D5028261E5029221F5011
:102A70002A2220502B2222C01DF023C01EF024C089
:102A80001FF025C020F0190E4BEF15F0D890203222
:102A90001F321E321D32E82E46EF15F01D5028263B
:102AA0001E5029221F502A2220502B2224C025F0FC
:102AB00023C024F022C023F0226A265027C01DF034
:102AC0001E6A1D26000E1E22820E1D242C6EFF0E75
:102AD0001E202D6E81EF15F0D890283629362A3623
:102AE0002B3625AE76EF15F078EF15F079EF15F06F
:102AF0002880D89022362336243625362C06D8A0B6
:102B00002D062AAE86EF15F088EF15F06CEF15F064
:102B1000000E266E25AE8FEF15F091EF15F0B5EF94
:102B200015F0FF0E22141D6EFF0E23141E6EFF0EF5
:102B300024141F6E7F0E2514206E1D501E101F10B2
:102B40002010D8B4A6EF15F0A8EF15F0ACEF15F0F3
:102B5000010E266EB5EF15F028A0B1EF15F0B3EF1A
:102B600015F0B5EF15F0A8EF15F02650D8B4BBEF6F
:102B700015F0BDEF15F0E1EF15F0010E2826000E5F
:102B800029222A222B222BA0C8EF15F0CAEF15F01C
:102B9000E1EF15F028C01DF029C01EF02AC01FF07B
:102BA0002BC020F0203420321F321E321D321DC0B7
:102BB00028F01EC029F01FC02AF020C02BF02C4A9C
:102BC0002D2A2DBEECEF15F02D5008E12C28D8A0B1
:102BD000ECEF15F0EEEF15F0F8EF15F0000E286EA3
:102BE000000E296E800E2A6E7F0E2B6E26EF16F0D9
:102BF0002DBE05EF16F02D5006E12C04D8B003EFE2
:102C000016F005EF16F011EF16F0000E286E000E0C
:102C1000296E000E2A6E000E2B6E000E216E26EF1E
:102C200016F02CC027F0FF0E2816FF0E29167F0E77
:102C30002A16000E2B1627A020EF16F022EF16F012
:102C400023EF16F02A8ED89027302B6E21502B12AE
:102C500028C015F029C016F02AC017F02BC018F0B4
:102C600012003950800B466E395039244D6E38AE03
:102C70003CEF16F03EEF16F03FEF16F04D804D5052
:102C8000D8B445EF16F047EF16F05CEF16F04D287C
:102C9000D8A44DEF16F04FEF16F057EF16F0000ED8
:102CA000366E000E376E000E386E000E396E388E9E
:102CB000000E396E64EF16F0000E366E000E376EA1
:102CC000000E386E000E396E3D50800B461A3D5096
:102CD0003D244E6E3CAE6FEF16F071EF16F072EFC2
:102CE00016F04E804E50D8B478EF16F07AEF16F00A
:102CF0008FEF16F04E28D8A480EF16F082EF16F072
:102D00008AEF16F0000E3A6E000E3B6E000E3C6E1F
:102D1000000E3D6E3C8E000E3D6E97EF16F0000EDD
:102D20003A6E000E3B6E000E3C6E000E3D6E3A5049
:102D30003B103C103D10D8A4A0EF16F0A2EF16F007
:102D4000BAEF16F0000E366E000E376E000E386EBB
:102D5000000E396E800E38127F0E3912465039122D
:102D600036C036F037C037F038C038F039C039F0E7
:102D7000FDEF17F04D50D8A4C0EF16F0C2EF16F0DB
:102D8000CCEF16F0000E366E000E376E000E386E69
:102D9000000E396EFDEF17F04E504DC03EF03F6A09
:102DA0003E5E000E3F5A7F0E3E24476E000E3F20CF
:102DB000486E36C042F037C043F038C044F039C0E6
:102DC00045F0000E366E000E376E000E386E000EA7
:102DD000396E000E496E000E4A6E000E4B6E000EEC
:102DE0004C6E000E4E6E2DEF17F04E50D8B4FBEF28
:102DF00016F0FDEF16F014EF17F0D8904236433678
:102E000044364536D89036363736383639364CAEB5
:102E10000CEF17F00EEF17F00FEF17F03680D89089
:102E200049364A364B364C363A50425C3B50435852
:102E30003C5044583D504558D8A021EF17F023EF9F
:102E400017F02CEF17F04C8C3A50425E3B50435A2F
:102E50003C50445A3D50455A4E2A190E4E6433EFA9
:102E600017F035EF17F0F5EF16F04250431044100D
:102E70004510D8B43EEF17F040EF17F058EF17F0B9
:102E8000498058EF17F0D89036363736383639360D
:102E90004CAE4DEF17F04FEF17F050EF17F03680B4
:102EA000D89049364A364B364C364706D8A04806A5
:102EB00038AE5DEF17F05FEF17F043EF17F0000E3D
:102EC0004E6E4CAE66EF17F068EF17F08CEF17F010
:102ED000FF0E49143E6EFF0E4A143F6EFF0E4B1458
:102EE000406E7F0E4C14416E3E503F10401041101A
:102EF000D8B47DEF17F07FEF17F083EF17F0010ED6
:102F00004E6E8CEF17F036A088EF17F08AEF17F0AF
:102F10008CEF17F07FEF17F04E50D8B492EF17F008
:102F200094EF17F0B8EF17F0010E3626000E372297
:102F30003822392239A09FEF17F0A1EF17F0B8EF30
:102F400017F036C03EF037C03FF038C040F039C00F
:102F500041F04134413240323F323E323EC036F0E1
:102F60003FC037F040C038F041C039F0474A482AE6
:102F700048BEC3EF17F0485008E14728D8A0C3EF78
:102F800017F0C5EF17F0D0EF17F0000E486E476846
:102F9000000E366E000E376E000E386E000E396E63
:102FA00048BEDDEF17F0485006E14704D8B0DBEF2C
:102FB00017F0DDEF17F0EBEF17F0000E486E000E84
:102FC000476E000E366E000E376E000E386E000E25
:102FD000396E000E466E47C04DF04DA0F2EF17F06F
:102FE000F4EF17F0F7EF17F0388EF8EF17F0389E80
:102FF000D8904D30396EAEEF16F01200A5C0D9FF53
:10300000A6C0DAFFDECFF6FFDDCFF7FF000EF86EC9
:103010000800F550250AD8A410EF18F012EF18F0A8
:103020006AEF19F0A5C0D9FFA6C0DAFFDE2A000EAC
:10303000DD22000E0001F46F000EF36FF3C0FBF011
:10304000F569F669A5C0D9FFA6C0DAFFDECFB2F0F8
:10305000DDCFB3F0B2C0F6FFB3C0F7FF000EF86EDD
:103060000800F550640AD8B438EF18F03AEF18F0B9
:103070004AEF18F0B2C0F6FFB3C0F7FF000EF86ECB
:103080000800F550690AD8A448EF18F04AEF18F084
:103090008DEF18F0A7C0D9FFA8C0DAFFDFCF55F039
:1030A000020EDE26DFCF56F0000EDD2255C0D9FF1E
:1030B00056C0DAFFDECFA9F0DDCFAAF0000EAABF1E
:1030C000FF0EAB6FAC6FAD6FAE6FAF6FB06F010E39
:1030D000B225556E000EB321566EA5C0D9FFA6C00D
:1030E000DAFF55C0DEFF56C0DDFFA3C020F0A4C04C
:1030F00021F0A9C022F0AAC023F0ABC024F0ACC0DC
:1031000025F0ADC026F0AEC027F0AFC028F0B0C0AB
:1031100029F081EC19F080EF19F0A5C0D9FFA6C005
:10312000DAFFDECFB2F0DDCFB3F0B2C0F6FFB3C04E
:10313000F7FF000EF86E0800F5CFB1F0ACEF18F015
:10314000B24BB32BC5EF18F06C0EB16FC5EF18F092
:10315000000EB16FC5EF18F0B151556E566A56505A
:10316000000AD8B4B6EF18F0A8EF18F055504C0A82
:10317000D8B4A0EF18F02A0AD8B4A4EF18F00A0ABD
:10318000D8B4A0EF18F0A8EF18F0B2C0F6FFB3C0A3
:10319000F7FF000EF86E0800F550660AD8A4D3EFCA
:1031A00018F0D5EF18F061EF19F00BEF19F0A7C088
:1031B000D9FFA8C0DAFFDFCF55F0040EDE26DFCF3F
:1031C00056F0000EDD2255C0D9FF56C0DAFFDECF23
:1031D000A9F0DECFAAF0DECFABF0DECFACF020EF6F
:1031E00019F0A7C0D9FFA8C0DAFFDFCF55F0040E51
:1031F000DE26DFCF56F0000EDD2255C0D9FF56C0C7
:10320000DAFFDECFA9F0DECFAAF0DECFABF0DECF63
:10321000ACF020EF19F0B151556E566A5650000AC5
:10322000D8B415EF19F020EF19F055504C0AD8B466
:10323000F1EF18F0200AD8B4D7EF18F020EF19F00A
:10324000010EB225556E000EB321566EA5C0D9FFF2
:10325000A6C0DAFF55C0DEFF56C0DDFF49EF19F00A
:10326000A3C070F0A4C071F0A9C072F0AAC073F03E
:10327000ABC074F0ACC075F0B2C0F6FFB3C0F7FFDE
:10328000000EF86E0800F5CF76F0BFEC0CF080EF82
:1032900019F0B2C0F6FFB3C0F7FF000EF86E0800D9
:1032A000F550556E566A5650000AD8B45AEF19F0C8
:1032B00061EF19F05550660AD8B430EF19F061EF9C
:1032C00019F0A5C0D9FFA6C0DAFFDE2A000EDD2264
:1032D00080EF19F0A5C0D9FFA6C0DAFFDECFF6FF58
:1032E000DDCFF7FF000EF86E0800F550056E066A98
:1032F000A3C007F0A4C008F04AEC26F061EF19F073
:10330000120022C038F023C039F024C03AF025C0A2
:103310003BF026C03CF027C03DF028C03EF029C05D
:103320003FF03FBE96EF19F099EF19F0010E9AEFBA
:1033300019F0000E426E4250D8B4A1EF19F0A3EF7D
:1033400019F0B3EF19F03F1E3E1E3D1E3C1E3B1E02
:103350003A1E391E386C000E39223A223B223C229A
:103360003D223E223F220001F6BFC1EF19F0F65187
:1033700006E1F505D8B0BFEF19F0C1EF19F0C7EFBE
:1033800019F0000E356E010E346ECBEF19F0F5C05A
:1033900034F0F6C035F0F3C036F0F4C037F04250E8
:1033A000D8B4D5EF19F0D7EF19F0EEEF19F03606D3
:1033B000D8A037064250D8A4E0EF19F0E2EF19F098
:1033C000E8EF19F0000E336E2B0E326EECEF19F0B1
:1033D000000E336E2D0E326E32C042F0000E416E82
:1033E0004F0E406E000E01018B6F73EF1AF0400616
:1033F000D8A041063C0E4024D96E010E4120DA6E61
:1034000038C005F039C006F03AC007F03BC008F0FC
:103410003CC009F03DC00AF03EC00BF03FC00CF0CC
:103420000A0E0D6E000E0E6E000E0F6E000E106E68
:10343000000E116E000E126E000E136E000E146E52
:1034400042EC1FF005C02AF006C02BF007C02CF09C
:1034500008C02DF009C02EF00AC02FF00BC030F0CC
:103460000CC031F02AC017F02BC018F0C7EC2AF0BE
:103470001750300FDF6E3406D8A035063606D8A0B8
:10348000370638C005F039C006F03AC007F03BC037
:1034900008F03CC009F03DC00AF03EC00BF03FC050
:1034A0000CF00A0E0D6E000E0E6E000E0F6E000E6A
:1034B000106E000E116E000E126E000E136E000ED6
:1034C000146EC8EC1DF005C038F006C039F007C016
:1034D0003AF008C03BF009C03CF00AC03DF00BC018
:1034E0003EF00CC03FF041BE7EEF1AF0415008E1C3
:1034F0004004D8A07EEF1AF080EF1AF09CEF1AF08B
:10350000385039103A103B103C103D103E103F101F
:10351000D8A48DEF1AF08FEF1AF0F7EF19F035BE3F
:103520009CEF1AF0355006E13404D8B09AEF1AF047
:103530009CEF1AF0F7EF19F04250D8B4A2EF1AF04E
:10354000A4EF1AF0AFEF1AF04006D8A041063C0EE7
:103550004024D96E010E4120DA6E42C0DFFF20C048
:1035600015F021C016F03C0E4024176E010E4120CC
:10357000186E36C019F037C01AF025EC28F012008A
:1035800003EC2BF0B1EC2BF0000E066EC70E056EAF
:103590005BEC27F07C9E849E809688967C9884982D
:1035A000809088907E908690809288927C96849677
:1035B0007C887E8080807E807C867F807D8E798600
:1035C0008790859E819686840E01B4958686B497F1
:1035D000C90E056E010E066EC00E076E010E086E56
:1035E000E1EC25F0B00E106E010E116ECFEC28F05C
:1035F0008EB4FDEF1AF0FFEF1AF005EF1BF0A80EE6
:10360000126E010E136E04EC25F08EB60AEF1BF05D
:103610000CEF1BF012EF1BF0B80E126E010E136EC2
:1036200092EC24F080A617EF1BF01CEF1BF00001BA
:10363000D56BD52B1EEF1BF00001D56BD547D547B9
:10364000D5478050D519F70BD519806EBEC105F04E
:10365000BFC106F0076A086A000EEEEC1CF005C058
:10366000A0F106C0A1F107C0A2F108C0A3F1B6C144
:1036700005F0B7C106F0076A086A000EEEEC1CF010
:1036800005C036F006C037F007C038F008C039F082
:10369000A0C13AF0A1C13BF0A2C13CF0A3C13DF0F2
:1036A00031EC16F036C0A4F137C0A5F138C0A6F150
:1036B00039C0A7F18F0E366EC20E376EF50E386E1A
:1036C0003D0E396EA4C13AF0A5C13BF0A6C13CF055
:1036D000A7C13DF091EC23F0D8B071EF1BF073EF70
:1036E0001BF09CEF1BF0A4C160F0A5C161F0A6C166
:1036F00062F0A7C163F0A80E0001646F010E656F50
:10370000B80E666F010E676FC90E686F010E696FA4
:10371000C00E6A6F010E6B6F0EEC07F0290E0001F0
:10372000D66F960ED56F7F0EE82EFED7D52FFCD71D
:10373000D62FFAD7A6EF1BF0C90E186E010E196E20
:10374000C00E1A6E010E1B6EAFEC26F0090E0001C2
:10375000D66F1E0ED56FE40EE82EFED7D52FFCD700
:10376000D62FFAD700F08C0E0001BC6F010EBD6F92
:10377000010EBE6F0E0EBF6FB6C1C0F0B7C1C1F073
:10378000BEC1C2F0BFC1C3F0A4C1C4F0A5C1C5F0A1
:10379000A6C1C6F0A7C1C7F029EC29F08C0E066EB1
:1037A000010E076E1DEC2BF0D1EC2BF02A0E000160
:1037B000D56F8D0EE82EFED7D52FFCD700D0F2EFB7
:1037C0001AF034EF00F0EBC06CF0ECC06DF0EDC01F
:1037D0006EF0EEC06FF04FC06CF050C06DF051C095
:1037E0006EF052C06FF0810E0001606FFF0E616FCE
:1037F0006CC062F06DC063F06EC064F06FC065F0C5
:10380000180E08EF1CF0D8906533643363336233CD
:10381000E82E03EF1CF0625160256A6F000E6121F3
:103820006B6F6BBF1DEF1CF06B5109E1170E6A5DEA
:10383000D8A01DEF1CF01FEF1CF029EF1CF04FC0AB
:103840004FF050C050F051C051F052C052F0EDEF67
:103850001CF06BBF2EEF1CF030EF1CF0A1EF1CF042
:103860006AC060F0FF0E616FFF0E626F7F0E636FC4
:10387000000E646F60673FEF1CF047EF1CF064358B
:103880006433633362336133602F3AEF1CF061C0FD
:1038900066F062C067F063C068F064C069F0000160
:1038A00066516C15606F67516D15616F68516E15CB
:1038B000626F69516F15636F60516111621163111D
:1038C000D8A465EF1CF067EF1CF069EF1CF01FEF48
:1038D0001CF06CC060F06DC061F06EC062F06FC033
:1038E00063F0200E79EF1CF0D890633362336133BC
:1038F0006033E82E74EF1CF06051611162116311A6
:10390000D8B485EF1CF087EF1CF08FEF1CF06651E8
:103910006C2767516D2368516E2369516F23661DB3
:10392000606F671D616F681D626F691D636F605115
:103930006C1761516D1762516E1763516F17E5EF88
:103940001CF06CC060F06DC061F06EC062F06FC0C2
:1039500063F0200EB1EF1CF0D89063336233613313
:103960006033E82EACEF1CF06051611162116311FD
:10397000D8A4BDEF1CF0BFEF1CF0C9EF1CF0000E87
:103980006C6F000E6D6F000E6E6F000E6F6FE5EFC7
:103990001CF0D8906C35606F6D35616F6E35626F5D
:1039A0006F35636F6051611162116311D8B4DBEF41
:1039B0001CF0DDEF1CF0E5EF1CF0000E6C6F000E4C
:1039C0006D6F800E6E6FBF0E6F6F6CC04FF06DC06D
:1039D00050F06EC051F06FC052F012000D6E0D50DD
:1039E000D8B4F5EF1CF0F7EF1CF019EF1DF008BE8E
:1039F000FEEF1CF0FCEF1CF019EF1DF005C009F004
:103A000006C00AF007C00BF008C00CF0091E0A1E21
:103A10000B1E0C1E092A000E0A220B220C2209C0C2
:103A20000FF00AC010F00BC011F00CC012F021EF23
:103A30001DF005C00FF006C010F007C011F008C05F
:103A400012F00550061007100810D8A42AEF1DF038
:103A50002CEF1DF036EF1DF0000E056E000E066E09
:103A6000000E076E000E086EC7EF1DF0960E0E6E6C
:103A700040EF1DF00E2AD8901232113210320F3260
:103A8000000E0F14096E000E10140A6E000E1114B1
:103A90000B6EFE0E12140C6E09500A100B100C1057
:103AA000D8A455EF1DF057EF1DF03AEF1DF065EF6C
:103AB0001DF00E2A010E0F26000E102211221222D6
:103AC000D8901232113210320F32000E0F14096EDC
:103AD000000E10140A6E000E11140B6EFF0E12145D
:103AE0000C6E09500A100B100C10D8A47AEF1DF0C0
:103AF0007CEF1DF059EF1DF084EF1DF00E06D890FD
:103B00000F3610361136123611BE89EF1DF08BEFCD
:103B10001DF093EF1DF0020E0E6091EF1DF093EF7C
:103B20001DF07EEF1DF00EB098EF1DF09AEF1DF026
:103B30009BEF1DF0119ED8900E320EC009F00A6A5C
:103B40000B6A0C6A09C00CF00B6A0A6A096A095010
:103B50000F120A5010120B5011120C5012120D506D
:103B6000D8B4B5EF1DF0B7EF1DF0BFEF1DF008BEE4
:103B7000BEEF1DF0BCEF1DF0BFEF1DF0128E0FC0A9
:103B800005F010C006F011C007F012C008F01200D6
:103B9000000E166E14BED1EF1DF0CFEF1DF0E3EF57
:103BA0001DF0141E131E121E111E101E0F1E0E1EBF
:103BB0000D6C000E0E220F2210221122122213224F
:103BC0001422010E166E0CBEEAEF1DF0E8EF1DF098
:103BD000FCEF1DF00C1E0B1E0A1E091E081E071E00
:103BE000061E056C000E06220722082209220A2260
:103BF0000B220C22010E161A20EE17F0070EDE6AB9
:103C0000E806FDE20D500E100F10101011101210EA
:103C100013101410D8B40FEF1EF011EF1EF063EF65
:103C20001EF0010E156E1FEF1EF0D8900D360E36E9
:103C30000F3610361136123613361436152A14AED6
:103C400024EF1EF026EF1EF015EF1EF0D890173669
:103C5000183619361A361B361C361D361E360D50D0
:103C6000055C0E5006580F50075810500858115058
:103C7000095812500A5813500B5814500C58D8A019
:103C800044EF1EF046EF1EF057EF1EF00D50055E9C
:103C90000E50065A0F50075A1050085A1150095A20
:103CA00012500A5A13500B5A14500C5A1780D890BD
:103CB000143213321232113210320F320E320D32F0
:103CC000152E26EF1EF01650D8B469EF1EF06BEFDC
:103CD0001EF07BEF1EF01E1E1D1E1C1E1B1E1A1E3C
:103CE000191E181E176C000E182219221A221B22E8
:103CF0001C221D221E2217C005F018C006F019C094
:103D000007F01AC008F01BC009F01CC00AF01DC063
:103D10000BF01EC00CF0120020EE02F01250D9265B
:103D20001350DA22DF50D8B498EF1EF09AEF1EF04D
:103D3000CEEF1EF012C0D9FF13C0DAFFDF50146EB1
:103D40001450056E066A20EE03F01250D926135067
:103D5000DA22DECF07F0DDCF08F09EEC2BF005C0B5
:103D60000BF006C00CF0000E0E6E640E0D6E62ECD1
:103D700028F020EE03F01250D9261350DA22DF503B
:103D8000156E0B50155C166E20EE03F01250D926FE
:103D90001350DA22DF50176EF1EF1EF0000E166E90
:103DA00012C0D9FF13C0DAFFDF50146E1450056E35
:103DB000066A20EE03F01250D9261350DA22DECF25
:103DC00007F0DDCF08F09EEC2BF005C00BF006C02D
:103DD0000CF0000E0E6E640E0D6E62EC28F00B50AF
:103DE000176E20EE01F01250D9261350DA22DF5060
:103DF000D8B4FDEF1EF0FFEF1EF021EF1FF020EE14
:103E000005F01250D9261350DA22DECF14F0DDCFA0
:103E100015F014C0D9FF15C0DAFF16C0DFFF20EE81
:103E200007F01250D9261350DA22DECF14F0DDCF7E
:103E300015F014C0D9FF15C0DAFF17C0DFFF41EF3E
:103E40001FF020EE05F01250D9261350DA22DECFF3
:103E500014F0DDCF15F014C0D9FF15C0DAFF17C07C
:103E6000DFFF20EE07F01250D9261350DA22DECF02
:103E700014F0DDCF15F014C0D9FF15C0DAFF16C05D
:103E8000DFFF1200000E166E0CBE4BEF1FF049EF65
:103E90001FF05DEF1FF00C1E0B1E0A1E091E081EF0
:103EA000071E061E056C000E0622072208220922A4
:103EB0000A220B220C22010E166E14BE64EF1FF0B4
:103EC00062EF1FF074EF1FF0141E131E121E111E5E
:103ED000101E0F1E0E1E0D6C000E0E220F22102241
:103EE00011221222132214220D500E100F10101046
:103EF0001110121013101410D8B481EF1FF083EFBB
:103F00001FF0CBEF1FF0010E156E91EF1FF0D89050
:103F10000D360E360F36103611361236133614366D
:103F2000152A14AE96EF1FF098EF1FF087EF1FF0E1
:103F30000D50055C0E5006580F5007581050085889
:103F40001150095812500A5813500B5814500C585D
:103F5000D8A0ADEF1FF0AFEF1FF0BFEF1FF00D5077
:103F6000055E0E50065A0F50075A1050085A11504D
:103F7000095A12500A5A13500B5A14500C5AD8901E
:103F8000143213321232113210320F320E320D321D
:103F9000152E98EF1FF01650D8B4D1EF1FF0D3EFC5
:103FA0001FF0E3EF1FF00C1E0B1E0A1E091E081E59
:103FB000071E061E056C000E062207220822092293
:103FC0000A220B220C2205C005F006C006F007C02D
:103FD00007F008C008F009C009F00AC00AF00BC0D9
:103FE0000BF00CC00CF012001EC018F01FC019F02E
:103FF00020C01AF021C01BF0AFEC26F0090E236E92
:104000001E0E226EE40EE82EFED7222EFCD7232EA3
:10401000FAD700D01EC018F01FC019F020C01AF047
:1040200021C01BF076EC25F0110E236E3C0E226EA3
:10403000CB0EE82EFED7222EFCD7232EFAD700F087
:104040001EC018F01FC019F020C01AF021C01BF0CC
:10405000AFEC26F020EE01F01E50D9261F50DA22D8
:10406000000EDF6E20EE01F02050D9262150DA221A
:10407000010EDF6E20EE02F01E50D9261F50DA220C
:10408000010EDF6E20EE02F01E50D9261F50DA22FC
:10409000010EDF6E64EF20F01EC0D9FF1FC0DAFFF3
:1040A0000A0EDF2620C0D9FF21C0DAFF0A0EDF2664
:1040B0001EC012F01FC013F08CEC1EF020C012F0D6
:1040C00021C013F08CEC1EF01EC0D9FF1FC0DAFF18
:1040D000450EDF646EEF20F070EF20F04CEF20F023
:1040E00020C0D9FF21C0DAFF450EDF647AEF20F04F
:1040F0007CEF20F04CEF20F0180E236E610E226E44
:10410000580EE82EFED7222EFCD7232EFAD700D049
:104110001EC018F01FC019F020C01AF021C01BF0FB
:10412000AFEC26F012001EC018F01FC019F020C01E
:104130001AF021C01BF0AFEC26F0090E236E1E0E04
:10414000226EE40EE82EFED7222EFCD7232EFAD7BD
:1041500000D01EC018F01FC019F020C01AF021C0F6
:104160001BF076EC25F0110E236E3C0E226ECB0E6A
:10417000E82EFED7222EFCD7232EFAD700F01EC041
:1041800018F01FC019F020C01AF021C01BF0AFECCE
:1041900026F020EE01F01E50D9261F50DA22010E23
:1041A000DF6E20EE01F02050D9262150DA22000ED9
:1041B000DF6E20EE02F01E50D9261F50DA22010ECB
:1041C000DF6E20EE02F01E50D9261F50DA22010EBB
:1041D000DF6E03EF21F01EC0D9FF1FC0DAFF0A0E09
:1041E000DF2620C0D9FF21C0DAFF0A0EDF261EC05D
:1041F00012F01FC013F08CEC1EF020C012F021C092
:1042000013F08CEC1EF01EC0D9FF1FC0DAFF4F0E5A
:10421000DF640DEF21F00FEF21F0EBEF20F020C075
:10422000D9FF21C0DAFF4F0EDF6419EF21F01BEF39
:1042300021F0EBEF20F0060E236ED90E226E140E45
:10424000E82EFED7222EFCD7232EFAD700D01EC090
:1042500018F01FC019F020C01AF021C01BF0AFECFD
:1042600026F012001EC018F01FC019F020C01AF06E
:1042700021C01BF0AFEC26F0090E236E1E0E226E3D
:10428000E40EE82EFED7222EFCD7232EFAD700D03C
:104290001EC018F01FC019F020C01AF021C01BF07A
:1042A00076EC25F0110E236E3C0E226ECB0EE82E1E
:1042B000FED7222EFCD7232EFAD700F01EC018F00E
:1042C0001FC019F020C01AF021C01BF0AFEC26F07F
:1042D00020EE01F01E50D9261F50DA22010EDF6EAB
:1042E00020EE01F02050D9262150DA22000EDF6E98
:1042F00020EE02F01E50D9261F50DA22010EDF6E8A
:1043000020EE02F01E50D9261F50DA22010EDF6E79
:10431000A2EF21F01EC0D9FF1FC0DAFF0A0EDF2670
:1043200020C0D9FF21C0DAFF0A0EDF261EC012F01E
:104330001FC013F08CEC1EF020C012F021C013F04F
:104340008CEC1EF01EC0D9FF1FC0DAFF4F0EDF64D9
:10435000ACEF21F0AEEF21F08AEF21F020C0D9FFC1
:1043600021C0DAFF4F0EDF64B8EF21F0BAEF21F081
:104370008AEF21F0060E236ED90E226E140EE82E5F
:10438000FED7222EFCD7232EFAD700D01EC018F05D
:104390001FC019F020C01AF021C01BF0AFEC26F0AE
:1043A00012001EC018F01FC019F020C01AF021C062
:1043B0001BF0AFEC26F0090E236E1E0E226EE40EEB
:1043C000E82EFED7222EFCD7232EFAD700D01EC00F
:1043D00018F01FC019F020C01AF021C01BF076ECB5
:1043E00025F0110E236E3C0E226ECB0EE82EFED76A
:1043F000222EFCD7232EFAD700F01EC018F01FC0C3
:1044000019F020C01AF021C01BF0AFEC26F020EE0E
:1044100001F01E50D9261F50DA22000EDF6E20EE6A
:1044200001F02050D9262150DA22010EDF6E20EE55
:1044300002F01E50D9261F50DA22010EDF6E20EE48
:1044400002F01E50D9261F50DA22010EDF6E41EF16
:1044500022F01EC0D9FF1FC0DAFF0A0EDF2620C0DF
:10446000D9FF21C0DAFF0A0EDF261EC012F01FC0DE
:1044700013F08CEC1EF020C012F021C013F08CEC75
:104480001EF01EC0D9FF1FC0DAFF4F0EDF644BEFD6
:1044900022F04DEF22F029EF22F020C0D9FF21C0F9
:1044A000DAFF4F0EDF6457EF22F059EF22F029EFC9
:1044B00022F00C0E236EB10E226E2B0EE82EFED7CC
:1044C000222EFCD7232EFAD700F01EC018F01FC0F2
:1044D00019F020C01AF021C01BF0AFEC26F012003A
:1044E0001EC018F01FC019F020C01AF021C01BF028
:1044F000AFEC26F0090E236E1E0E226EE40EE82E9F
:10450000FED7222EFCD7232EFAD700D01EC018F0DB
:104510001FC019F020C01AF021C01BF076EC25F066
:10452000110E236E3C0E226ECB0EE82EFED7222EED
:10453000FCD7232EFAD700F01EC018F01FC019F0C8
:1045400020C01AF021C01BF0AFEC26F020EE01F0E5
:104550001E50D9261F50DA22000EDF6E20EE01F029
:104560002050D9262150DA22010EDF6E20EE02F013
:104570001E50D9261F50DA22010EDF6E20EE02F007
:104580001E50D9261F50DA22010EDF6EE0EF22F016
:104590001EC0D9FF1FC0DAFF0A0EDF2620C0D9FFD8
:1045A00021C0DAFF0A0EDF261EC012F01FC013F072
:1045B0008CEC1EF020C012F021C013F08CEC1EF029
:1045C0001EC0D9FF1FC0DAFF4F0EDF64EAEF22F0F2
:1045D000ECEF22F0C8EF22F020C0D9FF21C0DAFFB3
:1045E0004F0EDF64F6EF22F0F8EF22F0C8EF22F072
:1045F000120E236E890E226E420EE82EFED7222E58
:10460000FCD7232EFAD71EC018F01FC019F020C007
:104610001AF021C01BF0AFEC26F01200073408346A
:104620000E6E0E50D8A417EF23F019EF23F023EFEE
:1046300023F0000E056E000E066E000E076E000ED3
:10464000086E90EF23F005C009F006C00AF007C01D
:104650000BF008C00CF0200E33EF23F0D8900C3292
:104660000B320A320932E82E2EEF23F009500D6E7C
:10467000078EFF0E0516FF0E0616FF0E0716000E1C
:104680000816960E0E5E0EBE4AEF23F048EF23F09A
:1046900060EF23F00E50800A970FD8B052EF23F04E
:1046A00054EF23F056EF23F019EF23F0D89008329F
:1046B0000732063205320E3E56EF23F078EF23F034
:1046C0001F0E0E6466EF23F068EF23F070EF23F007
:1046D00019EF23F0D89005360636073608360E0651
:1046E0000E50D8A476EF23F078EF23F06AEF23F092
:1046F0000D50D8B47EEF23F080EF23F088EF23F045
:10470000081E071E061E056C000E06220722082240
:1047100005C005F006C006F007C007F008C008F0A5
:104720001200000E36143E6E000E37143F6E800EDF
:104730003814406E7F0E3914416E3E503F104010C9
:104740004110D8A4A6EF23F0A8EF23F0B0EF23F098
:10475000000E366E000E376E000E386E000E396E8B
:10476000000E3A143E6E000E3B143F6E800E3C1459
:10477000406E7F0E3D14416E3E503F104010411080
:10478000D8A4C5EF23F0C7EF23F0CFEF23F0000E3E
:104790003A6E000E3B6E000E3C6E000E3D6E39AE62
:1047A000D4EF23F0D6EF23F0DFEF23F0366C371E83
:1047B000D8B0372A381ED8B0382A800E39563DAEC8
:1047C000E4EF23F0E6EF23F0EFEF23F03A6C3B1E2B
:1047D000D8B03B2A3C1ED8B03C2A800E3D56000E75
:1047E000361A000E371A000E381A800E391A000ECB
:1047F0003A1A000E3B1A000E3C1A800E3D1A3A502F
:10480000365C3B5037583C5038583D503958D8B03A
:104810000CEF24F00EEF24F011EF24F0D89012EFFB
:1048200024F0D8801200EFC00FF0F0C010F0F1C0FB
:1048300011F0F2C012F005C00FF006C010F007C072
:1048400011F008C012F00FC009F010C00AF011C03A
:104850000BF012C00CF0180E33EF24F0D8900C328D
:104860000B320A320932E82E2EEF24F009500D6E79
:104870000E6A0D500E10D8A440EF24F042EF24F041
:1048800062EF24F0D8900F34096E10340A6E1134A0
:104890000B6E12340C6E09500A100B100C10D8A4B9
:1048A00054EF24F056EF24F05CEF24F0000E066E77
:1048B000020E056E91EF24F0000E066E030E056EDB
:1048C00091EF24F00D280E10D8A469EF24F06BEFBF
:1048D00024F08DEF24F00FC009F010C00AF011C0D1
:1048E0000BF012C00CF0090ED89009360A360B36C0
:1048F0000C36E82E74EF24F009500A100B100C103F
:10490000D8B485EF24F088EF24F0010E89EF24F06D
:10491000000E056E066A91EF24F0000E066E040E7E
:10492000056E1200000E176E000E166E7CAE9BEF29
:1049300024F09FEF24F0146A142AA0EF24F0146AE4
:10494000143214327C5014187F0B14187C6E090E2C
:10495000156E1E0E146EE40EE82EFED7142EFCD734
:10496000152EFAD700D0164A172A17BEC1EF24F029
:10497000175009E1140E165CD8A0C1EF24F0C3EF64
:1049800024F096EF24F07CAEC8EF24F0CCEF24F0B6
:10499000146A142ACDEF24F0146A143214327C50B5
:1049A00014187F0B14187C6E290E156E960E146E5B
:1049B0007F0EE82EFED7142EFCD7152EFAD700F066
:1049C00012C010F013C011F0CFEC28F0290E156EB4
:1049D000960E146E7F0EE82EFED7142EFCD7152EE1
:1049E000FAD700F07CAEF7EF24F0FBEF24F0146A66
:1049F000142AFCEF24F0146A143214327C50141878
:104A00007F0B14187C6E1200000E176E000E166ECF
:104A10007CAE0DEF25F011EF25F0146A142A12EF89
:104A200025F0146A143214327C5014187F0B1418B9
:104A30007C6E090E156E1E0E146EE40EE82EFED767
:104A4000142EFCD7152EFAD700D0164A172A17BEF7
:104A500033EF25F0175009E1140E165CD8A033EFA0
:104A600025F035EF25F008EF25F07CAE3AEF25F084
:104A70003EEF25F0146A142A3FEF25F0146A143231
:104A800014327C5014187F0B14187C6E290E156E8E
:104A9000960E146E7F0EE82EFED7142EFCD7152E20
:104AA000FAD700F012C010F013C011F0CFEC28F0CC
:104AB000290E156E960E146E7F0EE82EFED7142E5C
:104AC000FCD7152EFAD700F07CAE69EF25F06DEF1C
:104AD00025F0146A142A6EEF25F0146A1432143289
:104AE0007C5014187F0B14187C6E120020EE01F01D
:104AF0001850D9261950DA22000EDF6E20EE01F090
:104B00001A50D9261B50DA22000EDF6E20EE02F07A
:104B10001850D9261950DA22010EDF6E20EE02F06D
:104B20001850D9261950DA22010EDF6EBCEF25F09D
:104B300018C0D9FF19C0DAFF190EDF60A2EF25F007
:104B4000A4EF25F0AAEF25F018C0D9FF19C0DAFFAD
:104B5000050EDF261AC0D9FF1BC0DAFF190EDF6071
:104B6000B4EF25F0B6EF25F0BCEF25F01AC0D9FF61
:104B70001BC0DAFF050EDF2618C0D9FF19C0DAFF07
:104B8000190EDF60C6EF25F0C8EF25F0D4EF25F051
:104B90001AC0D9FF1BC0DAFF180EDF64D2EF25F070
:104BA000D4EF25F098EF25F018C012F019C013F0DB
:104BB0008CEC1EF01AC012F01BC013F08CEC1EF02F
:104BC000120005C0D9FF06C0DAFF000EDF6E20EE2E
:104BD00001F00550D9260650DA22010EDF6E20EED4
:104BE00002F00550D9260650DA22010EDF6E20EEC3
:104BF00005F00550D9260650DA22AA0EDE6E0F0EF9
:104C0000DD6E20EE07F00550D9260650DA22A60EFA
:104C1000DE6E0F0EDD6E20EE03F00550D926065035
:104C2000DA22C70EDE6E000EDD6E07C0D9FF08C0A7
:104C3000DAFF000EDF6E20EE01F00750D926085093
:104C4000DA22010EDF6E20EE02F00750D92608505E
:104C5000DA22010EDF6E20EE05F00750D92608504B
:104C6000DA22250EDE6E0F0EDD6E20EE07F0075005
:104C7000D9260850DA22210EDE6E0F0EDD6E20EEF0
:104C800003F00750D9260850DA22C70EDE6E000E58
:104C9000DD6E120007500810D8B451EF26F053EF24
:104CA00026F05CEF26F007500810D8A45AEF26F043
:104CB0005CEF26F061EF26F005500DEC2CF0AEEF26
:104CC00026F020EE09F00750D9260850DA22DE50EF
:104CD000DE10D8B46EEF26F070EF26F08BEF26F0E2
:104CE00020EE09F00750D9260850DA2210EE03F022
:104CF0000750E1260850E222DE50E65CE650800ACA
:104D00000D6EDE50800A0D58D8B089EF26F08BEF7B
:104D100026F0AEEF26F020EE03F00750D92608501B
:104D2000DA22DECF09F0DDCF0AF007C0D9FF08C0D4
:104D3000DAFFDECF0BF0DDCF0CF009500B24D96E7B
:104D40000A500C20DA6E05C0DFFF20EE03F007509A
:104D5000D9260850DA22DE2A000EDD221200E1EF09
:104D600026F018C0D9FF19C0DAFFDF50D8B4BBEF66
:104D700026F0BDEF26F0C3EF26F018C0D9FF19C00A
:104D8000DAFF050EDF5E1AC0D9FF1BC0DAFFDF5065
:104D9000D8B4CDEF26F0CFEF26F0D5EF26F01AC02D
:104DA000D9FF1BC0DAFF050EDF5E18C012F019C074
:104DB00013F08CEC1EF01AC012F01BC013F08CEC38
:104DC0001EF018C0D9FF19C0DAFFDF50D8B4EBEFDE
:104DD00026F0EDEF26F0F9EF26F01AC0D9FF1BC040
:104DE000DAFFDF50D8A4F7EF26F0F9EF26F0B1EFA5
:104DF00026F0090E1D6E1E0E1C6EE40EE82EFED768
:104E00001C2EFCD71D2EFAD700D01200000E051460
:104E10000D6E000E06140E6E800E07140F6E7F0EC0
:104E20000814106E0D500E100F101010D8A41BEFA8
:104E300027F01DEF27F025EF27F0000E056E000E7E
:104E4000066E000E076E000E086E000E09140D6E41
:104E5000000E0A140E6E800E0B140F6E7F0E0C14D3
:104E6000106E0D500E100F101010D8A43AEF27F04E
:104E70003CEF27F044EF27F0000E096E000E0A6E9B
:104E8000000E0B6E000E0C6E095005180FE10A5053
:104E900006180CE10B50071809E10C500818D8B49B
:104EA00054EF27F056EF27F059EF27F0D8905AEF3C
:104EB00027F0D88012007D947D987B9E7F9C8594FE
:104EC0008598839E879C050E0E01746F060E766F83
:104ED000070E696F080E886FBD508F0B3009BD6ECD
:104EE000E00EBE16BF50F00B0109BF6EC70EBC6EC0
:104EF000BD8E000EAA6E000EA66E000E0F01256F6D
:104F0000000E216FFC0EAD16F30EAD16CF0EAD16D2
:104F10003F0EAD16AB88AB50F00B0C09AB6EAB8EF1
:104F2000A788A750F00B0C09A76EA78E26892651DB
:104F3000F00B0C09266F268F22892251F00B0C09E9
:104F4000226F228F120024C018F025C019F026C04D
:104F50001AF027C01BF0AFEC26F0090E296E1E0ECA
:104F6000286EE40EE82EFED7282EFCD7292EFAD77D
:104F700000D024C018F025C019F026C01AF027C0B0
:104F80001BF076EC25F0290E296E960E286E7F0E0A
:104F9000E82EFED7282EFCD7292EFAD700F024C001
:104FA0001EF025C01FF026C020F027C021F032ECF3
:104FB00021F024C018F025C019F026C01AF027C02F
:104FC0001BF0AFEC26F0120024C018F025C019F039
:104FD00026C01AF027C01BF0AFEC26F0090E296E90
:104FE0001E0E286EE40EE82EFED7282EFCD7292EA2
:104FF000FAD700D024C018F025C019F026C01AF046
:1050000027C01BF076EC25F0290E296E960E286E2F
:105010007F0EE82EFED7282EFCD7292EFAD700F0D7
:1050200024C01EF025C01FF026C020F027C021F0AC
:10503000D1EC21F024C018F025C019F026C01AF0D8
:1050400027C01BF0AFEC26F012001ABE2AEF28F0A2
:105050002CEF28F032EF28F019C01EF01AC01FF014
:1050600036EF28F0000E1F6E000E1E6E000E1D6E35
:10507000000E1C6E48EF28F0000E066E200E056E26
:1050800015C007F016C008F04AEC26F01C4A1D2A8D
:105090001E501C5C1D50800A1B6E1F50800A1B583E
:1050A000D8A055EF28F057EF28F03CEF28F017C0B4
:1050B0000EF018C00FF015C010F016C011F084ECFF
:1050C0002AF01200000E106E000E0F6E0D500E1022
:1050D000D8B46DEF28F06FEF28F097EF28F0010EAD
:1050E000116E77EF28F0D8900D360E36112A0EAEDD
:1050F0007CEF28F07EEF28F073EF28F0D8900F3681
:1051000010360D500B5C0E500C58D8A08AEF28F0CA
:105110008CEF28F091EF28F00D500B5E0E500C5ADA
:105120000F80D8900E320D32112E7EEF28F00FC076
:105130000BF010C00CF0120008BEABEF28F00850C6
:105140000710061006E10504D8B0A9EF28F0ABEF70
:1051500028F0C6EF28F005C009F006C00AF007C025
:105160000BF008C00CF0091E0A1E0B1E0C1E092AAB
:10517000000E0A220B220C2209C005F00AC006F01C
:105180000BC007F00CC008F0CEEF28F005C005F00A
:1051900006C006F007C007F008C008F012007AEC5D
:1051A00029F010C0D9FF11C0DAFF09C0DEFF0AC024
:1051B000DDFFA2EC29F020EE02F01050D9261150AC
:1051C000DA2209C0DEFF0AC0DDFFF2EC29F020EE92
:1051D00004F01050D9261150DA2209C0DEFF0AC0AF
:1051E000DDFFCAEC29F020EE06F01050D926115050
:1051F000DA2209C0DEFF0AC0DDFF1200B6C0BAF035
:10520000B7C0BBF013EF29F0B4C0A3F0B5C0A4F051
:10521000BA0E0001A56F000EA66FB8C0A7F0B9C006
:10522000A8F0FEEC17F0BAC0F6FFBBC0F7FF000E07
:10523000F86E0800F5500009D8A421EF29F023EFFB
:1052400029F004EF29F0000E0001B56F000EB46FD5
:105250001200C00E0001C86F000EC96FBCC0CAF0BA
:10526000BDC0CBF0000ECE6F000ECD6F000ED46F20
:10527000000ED36FCA0EB46F000EB56FBEC0B6F08D
:10528000BFC0B7F0C80EB86F000EB96FFEEC28F0C3
:105290000001CD51BC25D96ECE51BD21DA6E000E74
:1052A000DF6E120007C00DF008C00EF005C00BF055
:1052B00006C00CF06CEF29F00DC0D9FF0EC0DAFF6C
:1052C000DF500F6E0D4A0E2A0BC0D9FF0CC0DAFF5B
:1052D0000FC0DFFF0B4A0C2A0906D8A00A060928CE
:1052E00006E10A28D8A477EF29F079EF29F05CEFDE
:1052F00029F0120001EC2CF0520EF6EC2BF0B60E59
:10530000F6EC2BF006EC2CF0530EF6EC2BF0010E25
:10531000A6EC2AF00B6E0B500E6E0F6A000EA6EC78
:105320002AF00B6E0B500D6E0C6A0E500C100E6EA8
:105330000F500D100F6EFCEC2BF00EC009F00FC0DB
:105340000AF0120001EC2CF0520EF6EC2BF0B80E25
:10535000F6EC2BF006EC2CF0530EF6EC2BF0010ED5
:10536000A6EC2AF00B6E0B500E6E0F6A000EA6EC28
:105370002AF00B6E0B500D6E0C6A0E500C100E6E58
:105380000F500D100F6EFCEC2BF00EC009F00FC08B
:105390000AF0120001EC2CF0520EF6EC2BF0B40ED9
:1053A000F6EC2BF006EC2CF0530EF6EC2BF0010E85
:1053B000A6EC2AF00B6E0B500E6E0F6A000EA6ECD8
:1053C0002AF00B6E0B500D6E0C6A0E500C100E6E08
:1053D0000F500D100F6EFCEC2BF00EC009F00FC03B
:1053E0000AF0120001EC2CF0520EF6EC2BF0BA0E83
:1053F000F6EC2BF006EC2CF0530EF6EC2BF0010E35
:10540000A6EC2AF00B6E0B500E6E0F6A000EA6EC87
:105410002AF00B6E0B500D6E0C6A0E500C100E6EB7
:105420000F500D100F6EFCEC2BF00EC009F00FC0EA
:105430000AF01200160EF66E580EF76E000EF86E99
:1054400000EEFCF010EE04F00900F5CFEEFFE550A1
:10545000E150FAE101EE00F08C0EEE6AE806FDE1A3
:1054600000EED7F0250EEE6AE806FDE15A6A596AA9
:10547000586A576A5B905B920001C0EF1AF0000E09
:10548000321A000E331A000E341A800E351A2EC04E
:1054900005F02FC006F030C007F031C008F032C070
:1054A00009F033C00AF034C00BF035C00CF0BCEC8E
:1054B00011F005C02EF006C02FF007C030F008C074
:1054C00031F0120007C009F008C00AF005C00BF067
:1054D00006C00CF009C0F6FF0AC0F7FF094A0A2A05
:1054E000000EF86E0BC0D9FF0CC0DAFF0B4A0C2A75
:1054F0000800F5CFDFFFDF50D8A481EF2AF083EF5B
:105500002AF06AEF2AF01200000E146E000E136EDD
:1055100095EF2AF012C005F0066A10C007F011C01E
:1055200008F04AEC26F0134A142A13500E24D96EC0
:1055300014500F20DA6EDF50126E1250D8A4A3EF71
:105540002AF0A5EF2AF08AEF2AF01200076E8AEC03
:105550002BF00E01DA878AEC2BF0D5CE08F08AEC1E
:105560002BF00750D8B4B7EF2AF0BBEF2AF0066A49
:10557000062ABCEF2AF0066A063A06460E01DA5100
:105580000618DF0B0618DA6FDA890850120018BE09
:10559000D4EF2AF0185006E11704D8B0D2EF2AF061
:1055A000D4EF2AF0E2EF2AF017C019F018C01AF071
:1055B000191E1A1E194A1A2A19C017F01AC018F013
:1055C000E6EF2AF017C017F018C018F012000550C7
:1055D000061007100810D8B4F0EF2AF0F2EF2AF006
:1055E000FAEF2AF0000E051A000E061A000E071A2E
:1055F000800E081A05C005F006C006F007C007F0C7
:1056000008C008F012004BEC2BF0010E076E000EE4
:10561000C1EC2BF03F0E096E550EE82EFED7092E79
:10562000FCD700F0030E076E000EC1EC2BF0D50E78
:10563000076E010EC1EC2BF0120028EF2BF006C014
:10564000D9FF07C0DAFFDF5060EC2BF0064A072ACB
:1056500006C0D9FF07C0DAFFDF50D8A432EF2BF025
:1056600034EF2BF01FEF2BF012003B0E57643BEF93
:105670002BF03DEF2BF03FEF2BF0000E576E572A2B
:105680005704016E026A000E0124D96E010E022039
:10569000DA6EDF5012000E01D951F00B0809D96FF4
:1056A000D98B9F0ED66F848A848CA79BA79D1D0ED5
:1056B0001D6F1E0E1C6F1C0E6F6F1B0E706F120085
:1056C000056E3B0E586467EF2BF069EF2BF06BEF24
:1056D0002BF0000E586E000E5824D96EDA6A010EB7
:1056E000DA2205C0DFFF582A1200016E130E5A6439
:1056F0007CEF2BF07EEF2BF080EF2BF0000E5A6E3C
:10570000D70E5A24D96EDA6A000EDA2201C0DFFF02
:105710005A2A12000E01D8B590EF2BF092EF2BF021
:105720008AEF2BF0DACE05F01F0E0516D8A49BEFFA
:105730002BF09DEF2BF08AEF2BF0120005500702A3
:10574000F3CF09F0F4CF0AF005500802F3500A260F
:1057500006500702F3500A2609C005F00AC006F0F9
:105760001200120E0E01626F110E156F8382E997FF
:10577000E895330EE56F000EE66FE789E88BE78F5B
:105780001200086E01EC2CF0520EF6EC2BF00850D3
:105790008009F6EC2BF00750F6EC2BF0FCEC2BF02C
:1057A0001200DEEC2BF00009D8B4D9EF2BF0DBEFC0
:1057B0002BF0DDEF2BF00E012D85120057505818FD
:1057C000D8A4E5EF2BF0E8EF2BF0010EE9EF2BF07A
:1057D000000E120057505818D8A4F1EF2BF0F4EF38
:1057E0002BF0010EF5EF2BF0000E1200066E8AEC86
:1057F0002BF006C0D5FE12008AEC2BF00E01DA85E4
:1058000012008AEC2BF00E01DA8112008AEC2BF0E8
:0C5810000E01DA831200C80048001200EC
:020000040020DA
:10000000FF0FFF0FFF0FFF0FFF0FFF0FFF0FFF0F80
:020000040030CA
:0C000000AAFFFFFF9FFFFFFFFFFFFFFFB5
:00000001FF
