:040000003BEF00F0E2
:100008005B82D9CF03F0DACF04F00E0137A70FEFE8
:1000180000F011EF00F014EF00F0E351A0EC25F030
:100028000E0137A51AEF00F01CEF00F035EF00F0D5
:100038002DA521EF00F023EF00F035EF00F005ECDF
:1000480026F0E806D8A42BEF00F02DEF00F033EFF0
:1000580000F060EC25F00E01E46F35EF00F00E01C2
:100068002D9504C0DAFF03C0D9FF5B9211006CEF35
:0200780024F072
:100E0000004B3A256420493A256420433A25642062
:100E1000543A2564200D0025642C25642C25642C6F
:070E20002564200D0A00000B
:100E2800BD0E106E000E116E4AEC23F0A1C0D9FF62
:100E3800A2C0DAFFDECFB5F0DDCFB6F0000120EEBC
:100E480002F0A151D926A251DA22DECFB7F0DDCFC8
:100E5800B8F020EE04F0A151D926A251DA22DECF53
:100E6800B9F0DDCFBAF0A3C0D9FFA4C0DAFFDECF56
:100E78004FF0DDCF50F04FC005F050C006F0076AC4
:100E8800086A000EC5EC17F005C0A9F006C0AAF064
:100E980007C0ABF008C0ACF0000120EE02F0A3518F
:100EA800D926A451DA22DECF4FF0DDCF50F04FC063
:100EB80005F050C006F0076A086A000EC5EC17F086
:100EC80005C0ADF006C0AEF007C0AFF008C0B0F086
:100ED800000120EE04F0A351D926A451DA22DECF76
:100EE8004FF0DDCF50F04FC005F050C006F0076A54
:100EF800086A000EC5EC17F005C0B1F006C0B2F0E4
:100F080007C0B3F008C0B4F0000120EE06F0A3510A
:100F1800D926A451DA22DECF4FF0DDCF50F04FC0F2
:100F280005F050C006F0076A086A000EC5EC17F015
:100F38000001B551BD5D4F6EB651BE59506E4FC0E0
:100F480005F050C006F0076A086A000EC5EC17F0F5
:100F580005C036F006C037F007C038F008C039F0D1
:100F68009DC021F09EC022F09FC023F0A0C024F0B5
:100F7800B5C005F0B6C006F0076A086A000EC5ECF1
:100F880017F005C019F006C01AF007C01BF008C01A
:100F98001CF0A9C015F0AAC016F0ABC017F0ACC081
:100FA80018F091EC24F015C01DF016C01EF017C003
:100FB8001FF018C020F077EC11F01DC03AF01EC0E9
:100FC8003BF01FC03CF020C03DF08CEC13F036C065
:100FD800C5F037C0C6F038C0C7F039C0C8F0000146
:100FE800B751BF5D4F6EB851C059506E4FC005F034
:100FF80050C006F0076A086A000EC5EC17F005C075
:1010080036F006C037F007C038F008C039F09DC088
:1010180021F09EC022F09FC023F0A0C024F0B7C0EA
:1010280005F0B8C006F0076A086A000EC5EC17F0AC
:1010380005C019F006C01AF007C01BF008C01CF064
:10104800ADC015F0AEC016F0AFC017F0B0C018F0C4
:1010580091EC24F015C01DF016C01EF017C01FF04B
:1010680018C020F077EC11F01DC03AF01EC03BF01C
:101078001FC03CF020C03DF08CEC13F036C0C9F026
:1010880037C0CAF038C0CBF039C0CCF00001B95134
:10109800C15D4F6EBA51C259506E4FC005F050C075
:1010A80006F0076A086A000EC5EC17F005C036F0AE
:1010B80006C037F007C038F008C039F09DC021F0ED
:1010C8009EC022F09FC023F0A0C024F0B9C005F054
:1010D800BAC006F0076A086A000EC5EC17F005C02A
:1010E80019F006C01AF007C01BF008C01CF0B1C008
:1010F80015F0B2C016F0B3C017F0B4C018F091ECF8
:1011080024F015C01DF016C01EF017C01FF018C03F
:1011180020F077EC11F01DC03AF01EC03BF01FC064
:101128003CF020C03DF08CEC13F036C0CDF037C059
:10113800CEF038C0CFF039C0D0F0000E0001BC6F3F
:101148000B0EBB6FC8BFABEF08F0ADEF08F0C6EFF2
:1011580008F0000E1D6E000E1E6E000E1F6E400E73
:10116800206EC5C021F0C6C022F0C7C023F0C8C099
:1011780024F094EC1EF0D8B0C4EF08F0C6EF08F0E5
:10118800CFEF08F0000E0001C56F000EC66F000E0D
:10119800C76F000EC86F0001CCBFD5EF08F0D7EFBE
:1011A80008F0F0EF08F0000E1D6E000E1E6E000E27
:1011B8001F6E400E206EC9C021F0CAC022F0CBC0FD
:1011C80023F0CCC024F094EC1EF0D8B0EEEF08F079
:1011D800F0EF08F0F9EF08F0000E0001C96F000EFB
:1011E800CA6F000ECB6F000ECC6F0001D0BFFFEFAF
:1011F80008F001EF09F01AEF09F0000E1D6E000E5D
:101208001E6E000E1F6E400E206ECDC021F0CEC0A7
:1012180022F0CFC023F0D0C024F094EC1EF0D8B058
:1012280018EF09F01AEF09F023EF09F0000E00019A
:10123800CD6F000ECE6F000ECF6F000ED06F660E12
:101248001D6E660E1E6E660E1F6E3F0E206EC5C0AA
:1012580021F0C6C022F0C7C023F0C8C024F094EC27
:101268001EF0D8B03AEF09F03CEF09F075EF09F03D
:10127800660E1D6E660E1E6E660E1F6E3F0E206E8B
:10128800C9C021F0CAC022F0CBC023F0CCC024F0E2
:1012980094EC1EF0D8B053EF09F055EF09F075EF54
:1012A80009F0660E1D6E660E1E6E660E1F6E3F0EF0
:1012B800206ECDC021F0CEC022F0CFC023F0D0C028
:1012C80024F094EC1EF0D8B06CEF09F06EEF09F042
:1012D80075EF09F0000E0001BC6F080EBB6FF9EF47
:1012E8000CF0000E1D6E000E1E6EC00E1F6E3F0E1F
:1012F800206EC5C021F0C6C022F0C7C023F0C8C008
:1013080024F094EC1EF0D8B08CEF09F08EEF09F0C1
:1013180003EF0AF0CD0E1D6ECC0E1E6E4C0E1F6E26
:101328003F0E206EC9C019F0CAC01AF0CBC01BF01E
:10133800CCC01CF0C5C015F0C6C016F0C7C017F069
:10134800C8C018F091EC24F015C021F016C022F0A6
:1013580017C023F018C024F094EC1EF0D8B0B7EFF3
:1013680009F0B9EF09F003EF0AF0CD0E1D6ECC0EAF
:101378001E6E4C0E1F6E3F0E206ECDC019F0CEC0F3
:101388001AF0CFC01BF0D0C01CF0C5C015F0C6C005
:1013980016F0C7C017F0C8C018F091EC24F015C0BB
:1013A80021F016C022F017C023F018C024F094ECE6
:1013B8001EF0D8B0E2EF09F0E4EF09F003EF0AF00D
:1013C8002A0E4F6E8E0EE82EFED74F2EFCD7A5C0E4
:1013D8001EF0A6C01FF0A7C020F0A8C021F0B8ECEE
:1013E8001CF02A0E4F6E8E0EE82EFED74F2EFCD71D
:1013F800000E0001BC6F010EBB6FF9EF0CF0CD0EB3
:101408001D6ECC0E1E6ECC0E1F6E3E0E206EC5C01D
:1014180019F0C6C01AF0C7C01BF0C8C01CF0C9C07C
:1014280015F0CAC016F0CBC017F0CCC018F091EC7C
:1014380024F015C021F016C022F017C023F018C000
:1014480024F094EC1EF0D8B02CEF0AF02EEF0AF03E
:1014580091EF0AF0000E1D6E000E1E6E800E1F6EBC
:101468003F0E206EC9C021F0CAC022F0CBC023F0C5
:10147800CCC024F094EC1EF0D8B045EF0AF047EF4A
:101488000AF091EF0AF0CD0E1D6ECC0E1E6ECC0E3A
:101498001F6E3E0E206ECDC019F0CEC01AF0CFC020
:1014A8001BF0D0C01CF0C9C015F0CAC016F0CBC0E4
:1014B80017F0CCC018F091EC24F015C021F016C03C
:1014C80022F017C023F018C024F094EC1EF0D8B016
:1014D80070EF0AF072EF0AF091EF0AF02A0E4F6EE1
:1014E8008E0EE82EFED74F2EFCD7A5C01EF0A6C044
:1014F8001FF0A7C020F0A8C021F057EC1DF02A0E5D
:101508004F6E8E0EE82EFED74F2EFCD7000E000130
:10151800BC6F020EBB6FF9EF0CF0330E1D6E330E6D
:101528001E6E330E1F6E3F0E206EC5C019F0C6C06A
:101538001AF0C7C01BF0C8C01CF0CDC015F0CEC053
:1015480016F0CFC017F0D0C018F091EC24F015C0F9
:1015580021F016C022F017C023F018C024F094EC34
:101568001EF0D8B0BAEF0AF0BCEF0AF01FEF0BF08C
:101578009A0E1D6E990E1E6E990E1F6E3E0E206EEF
:10158800C9C019F0CAC01AF0CBC01BF0CCC01CF0FF
:10159800CDC015F0CEC016F0CFC017F0D0C018F0EF
:1015A80091EC24F015C021F016C022F017C023F0EA
:1015B80018C024F094EC1EF0D8B0E5EF0AF0E7EF7D
:1015C8000AF01FEF0BF0330E1D6E330E1E6E330E36
:1015D8001F6E3F0E206ECDC021F0CEC022F0CFC0CE
:1015E80023F0D0C024F094EC1EF0D8B0FEEF0AF03F
:1015F80000EF0BF01FEF0BF02A0E4F6E8E0EE82E49
:10160800FED74F2EFCD7A5C01EF0A6C01FF0A7C05E
:1016180020F0A8C021F07AEC1BF02A0E4F6E8E0E37
:10162800E82EFED74F2EFCD7000E0001BC6F030E2C
:10163800BB6FF9EF0CF0000E1D6E000E1E6E800ED3
:101648001F6E3F0E206EC5C021F0C6C022F0C7C075
:1016580023F0C8C024F094EC1EF0D8B036EF0BF09D
:1016680038EF0BF089EF0BF0CD0E1D6ECC0E1E6E11
:101678004C0E1F6E3F0E206EC9C021F0CAC022F06A
:10168800CBC023F0CCC024F094EC1EF0D8B04FEFC0
:101698000BF051EF0BF089EF0BF0CDC01DF0CEC071
:1016A8001EF0CFC01FF0D0C020F0CD0E216ECC0EA2
:1016B800226E4C0E236E3F0E246E94EC1EF0D8B0B2
:1016C80068EF0BF06AEF0BF089EF0BF02A0E4F6E04
:1016D8008E0EE82EFED74F2EFCD7A5C024F0A6C04C
:1016E80025F0A7C026F0A8C027F0F5EC21F02A0EB7
:1016F8004F6E8E0EE82EFED74F2EFCD7000E00013F
:10170800BC6F040EBB6FF9EF0CF0330E1D6E330E79
:101718001E6E730E1F6E3F0E206EC5C021F0C6C030
:1017280022F0C7C023F0C8C024F094EC1EF0D8B053
:10173800A0EF0BF0A2EF0BF025EF0CF0CD0E1D6E15
:10174800CC0E1E6E4C0E1F6E3F0E206EC9C021F0CF
:10175800CAC022F0CBC023F0CCC024F094EC1EF019
:10176800D8B0B9EF0BF0BBEF0BF025EF0CF0C9C008
:101778001DF0CAC01EF0CBC01FF0CCC020F0660E12
:10178800216E660E226E660E236E3F0E246E94EC5A
:101798001EF0D8B0D2EF0BF0D4EF0BF025EF0CF021
:1017A800CD0E1D6ECC0E1E6E4C0E1F6E3F0E206EA3
:1017B800CDC021F0CEC022F0CFC023F0D0C024F09D
:1017C80094EC1EF0D8B0EBEF0BF0EDEF0BF025EF3B
:1017D8000CF0CDC01DF0CEC01EF0CFC01FF0D0C0A1
:1017E80020F0330E216E330E226E730E236E3F0EE1
:1017F800246E94EC1EF0D8B004EF0CF006EF0CF059
:1018080025EF0CF02A0E4F6E8E0EE82EFED74F2EC7
:10181800FCD7A5C024F0A6C025F0A7C026F0A8C014
:1018280027F040EC22F02A0E4F6E8E0EE82EFED7DF
:101838004F2EFCD7000E0001BC6F050EBB6FF9EFF1
:101848000CF0660E1D6E660E1E6EA60E1F6E3F0E07
:10185800206EC5C021F0C6C022F0C7C023F0C8C0A2
:1018680024F094EC1EF0D8B03CEF0CF03EEF0CF0F6
:101878008FEF0CF0000E1D6E000E1E6E000E1F6E18
:101888003F0E206EC9C021F0CAC022F0CBC023F0A1
:10189800CCC024F094EC1EF0D8B055EF0CF057EF04
:1018A8000CF08FEF0CF0000E1D6E000E1E6E000E79
:1018B8001F6E3F0E206ECDC021F0CEC022F0CFC0EB
:1018C80023F0D0C024F094EC1EF0D8B06EEF0CF0EA
:1018D80070EF0CF08FEF0CF02A0E4F6E8E0EE82E84
:1018E800FED74F2EFCD7A5C01EF0A6C01FF0A7C07C
:1018F80020F0A8C021F0F6EC1DF02A0E4F6E8E0ED7
:10190800E82EFED74F2EFCD7000E0001BC6F060E46
:10191800BB6FF9EF0CF0C5C01DF0C6C01EF0C7C004
:101928001FF0C8C020F0330E216E330E226E330E26
:10193800236E3F0E246E94EC1EF0D8B0A6EF0CF088
:10194800A8EF0CF0F9EF0CF0000E1D6E000E1E6EE5
:10195800800E1F6E3F0E206EC9C021F0CAC022F053
:10196800CBC023F0CCC024F094EC1EF0D8B0BFEF6D
:101978000CF0C1EF0CF0F9EF0CF0000E1D6E000E2C
:101988001E6E800E1F6E3F0E206ECDC021F0CEC0A1
:1019980022F0CFC023F0D0C024F094EC1EF0D8B0D1
:1019A800D8EF0CF0DAEF0CF0F9EF0CF02A0E4F6ECE
:1019B8008E0EE82EFED74F2EFCD7A5C01EF0A6C06F
:1019C8001FF0A7C020F0A8C021F019EC1CF02A0EC7
:1019D8004F6E8E0EE82EFED74F2EFCD7000E00015C
:1019E800BC6F070EBB6FF9EF0CF0BBC09DF0BCC01D
:1019F8009EF012000850800B116E08500824136ED8
:101A080007AE09EF0DF00BEF0DF00CEF0DF01380A2
:101A18001350D8B412EF0DF014EF0DF029EF0DF0BC
:101A28001328D8A41AEF0DF01CEF0DF024EF0DF0D9
:101A3800000E056E000E066E000E076E000E086E94
:101A4800078E000E086E31EF0DF0000E056E000EC9
:101A5800066E000E076E000E086E0C50800B126E9C
:101A680011501218D8B43BEF0DF03DEF0DF03EEFDA
:101A78000DF0118C0C500C24126E0BAE46EF0DF0CD
:101A880048EF0DF049EF0DF012801250D8B44FEF27
:101A98000DF051EF0DF066EF0DF01228D8A457EFB6
:101AA8000DF059EF0DF061EF0DF0000E096E000E0C
:101AB8000A6E000E0B6E000E0C6E0B8E000E0C6E76
:101AC8006EEF0DF0000E096E000E0A6E000E0B6E22
:101AD800000E0C6E1350125CD8B075EF0DF077EF56
:101AE8000DF09EEF0DF011AC7CEF0DF07EEF0DF0D8
:101AF80080EF0DF0800E111A13C014F012C013F00D
:101B080014C012F005C014F009C005F014C009F0A3
:101B180006C014F00AC006F014C00AF007C014F09A
:101B28000BC007F014C00BF008C014F00CC008F08C
:101B380014C00CF0000E146E135012C00DF00E6A93
:101B48000D5E000E0E5A0EBEB3EF0DF00E5009E1F9
:101B58001A0E0D5CD8A0B3EF0DF0B5EF0DF0ECEF59
:101B68000DF00550061007100810D8A4BEEF0DF0B0
:101B7800C1EF0DF0010EC2EF0DF0000E146E000E55
:101B8800056E000E066E000E076E000E086E12C07F
:101B980013F0F5EF0DF014A0D4EF0DF0D6EF0DF023
:101BA800DCEF0DF0D89014300109146EDEEF0DF063
:101BB800D890143205A0E3EF0DF0E5EF0DF0E6EF55
:101BC8000DF0148E08340832073206320532132A13
:101BD8001250135CD8A0F3EF0DF0F5EF0DF0CFEF36
:101BE8000DF011BCFAEF0DF0FCEF0DF03CEF0EF02C
:101BF8001350D8A402EF0EF004EF0EF00EEF0EF023
:101C0800000E056E000E066E000E076E000E086EC2
:101C18005DEF0FF0095005260A5006220B500722E7
:101C28000C50082208A01BEF0EF01DEF0EF0C9EFB4
:101C38000EF014A022EF0EF024EF0EF02AEF0EF0B3
:101C4800D89014300109146E2CEF0EF0D89014328D
:101C580005A031EF0EF033EF0EF034EF0EF0148ED6
:101C680008340832073206320532132AC9EF0EF05B
:101C78000950055C0A5006580B5007580850800A4E
:101C88000D6E0C50800A0D58D8B04DEF0EF04FEF86
:101C98000EF07AEF0EF00550095C0D6E06500A58EA
:101CA8000E6E07500B580F6E08500C58106EFF0E32
:101CB8000D24056EFF0E0E20066EFF0E0F20076E18
:101CC800FF0E1020086E800E111A146C1450D8A440
:101CD80070EF0EF072EF0EF082EF0EF0010E052697
:101CE800000E06220722082282EF0EF00950055E38
:101CF8000A50065A0B50075A0C50085A055006103D
:101D080007100810D8A48BEF0EF08DEF0EF0C2EF7D
:101D18000EF01450D8A493EF0EF095EF0EF0C2EF2A
:101D28000EF0000E056E000E066E000E076E000E19
:101D3800086E5DEF0FF0D890053606360736083680
:101D480014AEA9EF0EF0ABEF0EF0ACEF0EF005807D
:101D580014A0B1EF0EF0B3EF0EF0B7EF0EF0D8808D
:101D68001436B9EF0EF0D89014361350D8B4BFEF2C
:101D78000EF0C1EF0EF0C2EF0EF0130607AEC7EF7C
:101D88000EF0C9EF0EF09FEF0EF0000E126E14AEBB
:101D9800D0EF0EF0D2EF0EF0EAEF0EF014C00DF017
:101DA8007F0E0D16D8B4DBEF0EF0DDEF0EF0E1EF8D
:101DB8000EF0010E126EEAEF0EF005A0E6EF0EF03F
:101DC800E8EF0EF0EAEF0EF0DDEF0EF01250D8B4A7
:101DD800F0EF0EF0F2EF0EF01DEF0FF0010E0526FA
:101DE800000E06220722082208A0FDEF0EF0FFEFE2
:101DF8000EF01DEF0FF005C00DF006C00EF007C085
:101E08000FF008C010F0103410320F320E320D32BD
:101E18000DC005F00EC006F00FC007F010C008F0A6
:101E28001328D8B41AEF0FF01CEF0FF01DEF0FF0C6
:101E3800132A1328D8B423EF0FF025EF0FF02DEF56
:101E48000FF01350D8A42BEF0FF02DEF0FF03FEF4A
:101E58000FF0000E056E000E066E000E076E000EE7
:101E6800086E1350D8A43BEF0FF03DEF0FF03FEF93
:101E78000FF0000E116E13A044EF0FF046EF0FF0B5
:101E880049EF0FF0078E4AEF0FF0079ED8901330F6
:101E9800086E11AE52EF0FF054EF0FF055EF0FF040
:101EA800088E05C005F006C006F007C007F008C098
:101EB80008F0120017EC25F049EC25F0000E066E2C
:101EC800C70E056E8BEC22F07C9E849E80968896C9
:101ED8007C988498809088907E9086908092889252
:101EE8007C9684967C887E8080807E807C867F80BD
:101EF8007D8E79868790859E819686840E01B4951D
:101F08008686B497000E0201946FB00E056E020E1D
:101F1800066EA70E076E020E086ED0EC20F0000EBB
:101F280002019E6F000E9D6F000E856F000E846F7C
:101F3800950E126E020E136E88EC1FF08C0E106E4A
:101F4800020E116E4AEC23F08EB4ADEF0FF0AFEF36
:101F58000FF0D2EF0FF08EB6B4EF0FF0B6EF0FF030
:101F6800D2EF0FF07C8E8086290E0001D26F960E7C
:101F7800D16F7F0EE82EFED7D12FFCD7D22FFAD7FC
:101F88007C9E809602019451D8B4CDEF0FF0D0EF2B
:101F98000FF0010ED1EF0FF0000E946F8EA4D7EF63
:101FA8000FF0DAEF0FF0010EDBEF0FF0000E00017B
:101FB800D16FD26B8EB6E3EF0FF0E7EF0FF0D36B74
:101FC800D32BE9EF0FF00001D36BD351D117000EDB
:101FD800D217D151D211D8B4F4EF0FF0F6EF0FF0B9
:101FE800FCEF0FF0950E126E020E136E88EC1FF0C8
:101FF8008EA601EF10F004EF10F0010E05EF10F0BF
:10200800000E0001D16FD26B8EB40DEF10F011EFFE
:1020180010F0D36BD32B13EF10F00001D36BD35117
:10202800D117000ED217D151D211D8B41EEF10F02B
:1020380020EF10F026EF10F09F0E126E020E136EB6
:1020480016EC1FF080A62BEF10F030EF10F0000117
:10205800D16BD12B32EF10F00001D16BD147D147B2
:10206800D1478050D119F70BD119806EA5C205F060
:10207800A6C206F0076A086A000EC5EC17F005C08C
:1020880080F206C081F207C082F208C083F292C2D1
:1020980005F093C206F0076A086A000EC5EC17F04F
:1020A80005C036F006C037F007C038F008C039F070
:1020B80080C23AF081C23BF082C23CF083C23DF05C
:1020C8008CEC13F036C086F237C087F238C088F23D
:1020D80039C089F28F0E1D6EC20E1E6EF50E1F6E70
:1020E8003D0E206E86C221F087C222F088C223F0FE
:1020F80089C224F094EC1EF0D8B085EF10F087EF79
:1021080010F033EF11F002019451D8B48EEF10F0B3
:1021180090EF10F033EF11F086C29DF087C29EF069
:1021280088C29FF089C2A0F0950E0001A16F020E2F
:10213800A26F9F0EA36F020EA46FB00EA56F020EC2
:10214800A66FA70EA76F020EA86F14EC07F09DC02C
:102158008AF29EC08BF202018B5107E1090E8A5D5B
:10216800D8B0B9EF10F0BBEF10F033EF11F0D89002
:102178009D35D96E9E35DA6E400ED926020EDA22CA
:10218800000EDE6E000EDD6ED8909D35D96E9E3540
:10219800DA6E000ED926020EDA2284C2DEFF85C26C
:1021A800DDFF9D4B9E2B000E856F000E846F080E81
:1021B8008A198B11D8A4E3EF10F0E5EF10F00BEFBC
:1021C80011F0B00E1E6E020E1F6EA70E206E020ECC
:1021D800216E7AEC1BF07C8E8086400E0001BC6F6D
:1021E800020EBD6F000EBE6F020EBF6F9DC2C0F023
:1021F8009EC2C1F0B00EC26F020EC36FA70EC46FAD
:10220800020EC56F97EC16F0000E0201946FD8907D
:102218009D35D96E9E35DA6E400ED926020EDA2229
:102228008AC2DEFF8BC2DDFFD8909D35D96E9E3500
:10223800DA6E000ED926020EDA22010EDE6E000ECC
:10224800DD6E9D4B9E2B290E0001D26F960ED16F2D
:102258007F0EE82EFED7D12FFCD7D22FFAD7020156
:102268009451D8B43AEF11F03CEF11F05DEF11F052
:10227800B00E186E020E196EA70E1A6E020E1B6EA5
:10228800FAEC1FF07CA84BEF11F050EF11F00001B1
:10229800D16BD12B52EF11F00001D16BD13B7C50A7
:1022A800D119EF0BD1197C6E0201844B852B67EF96
:1022B80011F0B00E186E020E196EA70E1A6E020EED
:1022C8001B6E9EEC21F0050E0001D26F0F0ED16F30
:1022D800F10EE82EFED7D12FFCD7D22FFAD7A2EFD6
:1022E8000FF03BEF00F02050800B296E2050202487
:1022F8002F6E1FAE82EF11F084EF11F085EF11F011
:102308002F802F50D8B48BEF11F08DEF11F0A0EF84
:1023180011F02F28D8A493EF11F095EF11F09DEF4D
:1023280011F0000E1D6E000E1E6E000E1F6E000EC8
:10233800206E1F8EA8EF11F0000E1D6E000E1E6E8F
:10234800000E1F6E000E206E2450800B291A245098
:1023580024242E6E23AEB3EF11F0B5EF11F0B6EFD3
:1023680011F02E802E50D8B4BCEF11F0BEEF11F052
:10237800D1EF11F02E28D8A4C4EF11F0C6EF11F058
:10238800CEEF11F0000E216E000E226E000E236EAD
:10239800000E246E238ED9EF11F0000E216E000E70
:1023A800226E000E236E000E246E2E50D8B4DFEF7E
:1023B80011F0E1EF11F0E9EF11F02F50D8A4E7EF99
:1023C80011F0E9EF11F0F3EF11F0000E1D6E000EA1
:1023D8001E6E000E1F6E000E206E8BEF13F0235042
:1023E8001D02F3CF34F0F4CF35F034502A6E2B6A47
:1023F8002C6A2D6A3550306E316A326A336A22503F
:102408001E02F3CF34F0F4CF35F034502A26000EF4
:102418002B222C222D2235503026000E312232223A
:10242800332221501F02F3CF34F0F4CF35F034506B
:102438002A26000E2B222C222D2235503026000E63
:102448003122322233222CC02DF02BC02CF02AC08E
:102458002BF02A6A21501E02F3CF34F0F4CF35F066
:1024680034502A2635502B22000E2C22000E2D2205
:1024780022501D02F3CF34F0F4CF35F034502A2621
:1024880035502B22000E2C22000E2D222CC02DF0B0
:102498002BC02CF02AC02BF02A6A21501D02F3CF42
:1024A80034F0F4CF35F034502A2635502B22000E64
:1024B8002C22000E2D2223501E02F3CF34F0F4CF2D
:1024C80035F03450302635503122000E3222000EBD
:1024D800332222501F02F3CF34F0F4CF35F03450BA
:1024E800302635503122000E3222000E332223507E
:1024F8001F02F3CF34F0F4CF35F03450256E355049
:10250800266E276A286A27C028F026C027F025C02B
:1025180026F0256A255030262650312227503222AF
:10252800285033222AC025F02BC026F02CC027F0D3
:102538002DC028F0190EA6EF12F0D89028322732B5
:1025480026322532E82EA1EF12F0255030262650EB
:10255800312227503222285033222CC02DF02BC094
:102568002CF02AC02BF02A6A2E502FC025F0266A9C
:102578002526000E2622820E2524346EFF0E2620E4
:10258800356EDCEF12F0D8903036313632363336CD
:102598002DAED1EF12F0D3EF12F0D4EF12F030805D
:1025A800D8902A362B362C362D363406D8A0350648
:1025B80032AEE1EF12F0E3EF12F0C7EF12F0000EC7
:1025C8002E6E2DAEEAEF12F0ECEF12F010EF13F0D2
:1025D800FF0E2A14256EFF0E2B14266EFF0E2C14E8
:1025E800276E7F0E2D14286E2550261027102810D0
:1025F800D8B401EF13F003EF13F007EF13F0010E57
:102608002E6E10EF13F030A00CEF13F00EEF13F056
:1026180010EF13F003EF13F02E50D8B416EF13F0A9
:1026280018EF13F03CEF13F0010E3026000E3122A4
:102638003222332233A023EF13F025EF13F03CEFBF
:1026480013F030C025F031C026F032C027F033C077
:1026580028F02834283227322632253225C030F097
:1026680026C031F027C032F028C033F0344A352A6A
:1026780035BE47EF13F0355008E13428D8A047EFAE
:1026880013F049EF13F053EF13F0000E306E000E05
:10269800316E800E326E7F0E336E81EF13F035BED1
:1026A80060EF13F0355006E13404D8B05EEF13F054
:1026B80060EF13F06CEF13F0000E306E000E316E09
:1026C800000E326E000E336E000E296E81EF13F08D
:1026D80034C02FF0FF0E3016FF0E31167F0E321663
:1026E800000E33162FA07BEF13F07DEF13F07EEF73
:1026F80013F0328ED8902F30336E2950331230C0F9
:102708001DF031C01EF032C01FF033C020F012009F
:102718003950800B466E395039244D6E38AE97EFDC
:1027280013F099EF13F09AEF13F04D804D50D8B491
:10273800A0EF13F0A2EF13F0B7EF13F04D28D8A4D1
:10274800A8EF13F0AAEF13F0B2EF13F0000E366EF5
:10275800000E376E000E386E000E396E388E000E81
:10276800396EBFEF13F0000E366E000E376E000E96
:10277800386E000E396E3D50800B461A3D503D2490
:102788004E6E3CAECAEF13F0CCEF13F0CDEF13F062
:102798004E804E50D8B4D3EF13F0D5EF13F0EAEFD4
:1027A80013F04E28D8A4DBEF13F0DDEF13F0E5EFBC
:1027B80013F0000E3A6E000E3B6E000E3C6E000EDB
:1027C8003D6E3C8E000E3D6EF2EF13F0000E3A6E39
:1027D800000E3B6E000E3C6E000E3D6E3A503B10F4
:1027E8003C103D10D8A4FBEF13F0FDEF13F015EFEC
:1027F80014F0000E366E000E376E000E386E000EA6
:10280800396E800E38127F0E39124650391236C092
:1028180036F037C037F038C038F039C039F058EFE3
:1028280015F04D50D8A41BEF14F01DEF14F027EF4E
:1028380014F0000E366E000E376E000E386E000E65
:10284800396E58EF15F04E504DC03EF03F6A3E5E6F
:10285800000E3F5A7F0E3E24476E000E3F20486E02
:1028680036C042F037C043F038C044F039C045F0B4
:10287800000E366E000E376E000E386E000E396E82
:10288800000E496E000E4A6E000E4B6E000E4C6E26
:10289800000E4E6E88EF14F04E50D8B456EF14F078
:1028A80058EF14F06FEF14F0D890423643364436A0
:1028B8004536D89036363736383639364CAE67EF27
:1028C80014F069EF14F06AEF14F03680D8904936A6
:1028D8004A364B364C363A50425C3B5043583C5093
:1028E80044583D504558D8A07CEF14F07EEF14F0C2
:1028F80087EF14F04C8C3A50425E3B50435A3C50A0
:10290800445A3D50455A4E2A190E4E648EEF14F023
:1029180090EF14F050EF14F042504310441045105B
:10292800D8B499EF14F09BEF14F0B3EF14F049808A
:10293800B3EF14F0D89036363736383639364CAED1
:10294800A8EF14F0AAEF14F0ABEF14F03680D8908B
:1029580049364A364B364C364706D8A0480638AE74
:10296800B8EF14F0BAEF14F09EEF14F0000E4E6EAC
:102978004CAEC1EF14F0C3EF14F0E7EF14F0FF0E04
:1029880049143E6EFF0E4A143F6EFF0E4B14406E04
:102998007F0E4C14416E3E503F1040104110D8B489
:1029A800D8EF14F0DAEF14F0DEEF14F0010E4E6EEB
:1029B800E7EF14F036A0E3EF14F0E5EF14F0E7EFDB
:1029C80014F0DAEF14F04E50D8B4EDEF14F0EFEF46
:1029D80014F013EF15F0010E3626000E37223822B8
:1029E800392239A0FAEF14F0FCEF14F013EF15F0C8
:1029F80036C03EF037C03FF038C040F039C041F033
:102A08004134413240323F323E323EC036F03FC060
:102A180037F040C038F041C039F0474A482A48BE2C
:102A28001EEF15F0485008E14728D8A01EEF15F012
:102A380020EF15F02BEF15F0000E486E4768000EDA
:102A4800366E000E376E000E386E000E396E48BEB8
:102A580038EF15F0485006E14704D8B036EF15F0C6
:102A680038EF15F046EF15F0000E486E000E476E71
:102A7800000E366E000E376E000E386E000E396E80
:102A8800000E466E47C04DF04DA04DEF15F04FEFCC
:102A980015F052EF15F0388E53EF15F0389ED89098
:102AA8004D30396E09EF14F0120022C038F023C0FF
:102AB80039F024C03AF025C03BF026C03CF027C0CE
:102AC8003DF028C03EF029C03FF03FBE6EEF15F044
:102AD80071EF15F0010E72EF15F0000E406E4050C8
:102AE800D8B479EF15F07BEF15F08BEF15F03F1E9A
:102AF8003E1E3D1E3C1E3B1E3A1E391E386C000E03
:102B080039223A223B223C223D223E223F2200012A
:102B180077BF99EF15F0775106E17605D8B097EFB2
:102B280015F099EF15F09FEF15F0000E356E010EB8
:102B3800346EA3EF15F076C034F077C035F074C06A
:102B480036F075C037F04050D8B4ADEF15F0AFEFA0
:102B580015F0C6EF15F03606D8A037064050D8A4B1
:102B6800B8EF15F0BAEF15F0C0EF15F0000E336EA0
:102B78002B0E326EC4EF15F0000E336E2D0E326E32
:102B880032C040F0000E426E1F0E416E000E9C6F68
:102B98004AEF16F04106D8A042067D0E4124D96EB0
:102BA800000E4220DA6E38C005F039C006F03AC08F
:102BB80007F03BC008F03CC009F03DC00AF03EC039
:102BC8000BF03FC00CF00A0E0D6E000E0E6E000EDC
:102BD8000F6E000E106E000E116E000E126E000EBB
:102BE800136E000E146E19EC1AF005C02AF006C018
:102BF8002BF007C02CF008C02DF009C02EF00AC039
:102C08002FF00BC030F00CC031F02AC017F02BC0E9
:102C180018F0F7EC24F01750300FDF6E3406D8A008
:102C280035063606D8A0370638C005F039C006F094
:102C38003AC007F03BC008F03CC009F03DC00AF0BC
:102C48003EC00BF03FC00CF00A0E0D6E000E0E6E6B
:102C5800000E0F6E000E106E000E116E000E126E3A
:102C6800000E136E000E146E9FEC18F005C038F0BD
:102C780006C039F007C03AF008C03BF009C03CF084
:102C88000AC03DF00BC03EF00CC03FF042BE55EF0D
:102C980016F0425008E14104D8A055EF16F057EF5E
:102CA80016F073EF16F0385039103A103B103C10FC
:102CB8003D103E103F10D8A464EF16F066EF16F0F2
:102CC800CEEF15F035BE73EF16F0355006E134043B
:102CD800D8B071EF16F073EF16F0CEEF15F0405044
:102CE800D8B479EF16F07BEF16F086EF16F04106B0
:102CF800D8A042067D0E4124D96E000E4220DA6E1D
:102D080040C0DFFF20C015F021C016F07D0E412421
:102D1800176E000E4220186E36C019F037C01AF030
:102D2800D3EC22F01200C0C098F1C1C099F10101A2
:102D380099BFA3EF16F0A1EF16F0A5EF16F0C4EFB8
:102D480017F02A0E0001C66F8D0EE82EFED7C62F8B
:102D5800FCD700D0000E0001A36F010EA46F010E76
:102D6800A56F0E0EA66F98C1A7F099C1A8F0C0C0B4
:102D7800A9F0C1C0AAF0D89001019835D96E99354B
:102D8800DA6E0001BE51D926BF51DA22DECFABF090
:102D9800DDCFACF0D89001019835D96E9935DA6E4F
:102DA8000001BC51D926BD51DA22DECFADF0DDCF0E
:102DB800AEF0A3EC23F0000E066E010E076E31ECA8
:102DC80025F0ECEC25F02A0E0001C66F8D0EE82EDA
:102DD800FED7C62FFCD700D074EF17F0C2C01EF084
:102DE800C3C01FF0C4C020F0C5C021F057EC1DF0CF
:102DF800ADEF17F0C2C01EF0C3C01FF0C4C020F072
:102E0800C5C021F0B8EC1CF0ADEF17F0C2C01EF041
:102E1800C3C01FF0C4C020F0C5C021F07AEC1BF07D
:102E2800ADEF17F0C2C01EF0C3C01FF0C4C020F041
:102E3800C5C021F019EC1CF0ADEF17F0C2C01EF0B0
:102E4800C3C01FF0C4C020F0C5C021F0F6EC1DF0CF
:102E5800ADEF17F0C2C018F0C3C019F0C4C01AF023
:102E6800C5C01BF0FAEC1FF0D89001019835D96E57
:102E78009935DA6E0001BE51D926BF51DA22DECF6C
:102E880096F1DDCF97F158EF17F09607D8A097077E
:102E9800050E0001C76F0F0EC66FF10EE82EFED7A4
:102EA800C62FFCD7C72FFAD7010197BF66EF17F0D7
:102EB800975106E19605D8B064EF17F066EF17F062
:102EC80049EF17F0ADEF17F0C2C018F0C3C019F002
:102ED800C4C01AF0C5C01BF09EEC21F0ADEF17F08E
:102EE800D89001019835D96E9935DA6E0001BC5138
:102EF800D926BD51DA22DECFC6F0DDCFC7F0C751E3
:102F0800000AD8B48AEF17F068EF17F0C651000A24
:102F1800D8B42EEF17F0010AD8B4F2EF16F0030A6E
:102F2800D8B4FEEF16F0010AD8B40AEF17F0070A72
:102F3800D8B4F2EF16F0010AD8B4FEEF16F0030A7F
:102F4800D8B416EF17F0010AD8B422EF17F068EFDB
:102F580017F0050E0001C76F0F0EC66FF10EE82EB1
:102F6800FED7C62FFCD7C72FFAD701019807D8A0DC
:102F7800990799BFC4EF17F0C2EF17F0A5EF16F045
:102F880012000D6E0D50D8B4CCEF17F0CEEF17F03D
:102F9800F0EF17F008BED5EF17F0D3EF17F0F0EF0A
:102FA80017F005C009F006C00AF007C00BF008C00A
:102FB8000CF0091E0A1E0B1E0C1E092A000E0A22FE
:102FC8000B220C2209C00FF00AC010F00BC011F040
:102FD8000CC012F0F8EF17F005C00FF006C010F0A3
:102FE80007C011F008C012F00550061007100810AD
:102FF800D8A401EF18F003EF18F00DEF18F0000E49
:10300800056E000E066E000E076E000E086E9EEF2F
:1030180018F0960E0E6E17EF18F00E2AD89012328E
:10302800113210320F32000E0F14096E000E1014F8
:103038000A6E000E11140B6EFE0E12140C6E09505F
:103048000A100B100C10D8A42CEF18F02EEF18F063
:1030580011EF18F03CEF18F00E2A010E0F26000EA3
:10306800102211221222D8901232113210320F324D
:10307800000E0F14096E000E10140A6E000E1114C3
:103088000B6EFF0E12140C6E09500A100B100C1068
:10309800D8A451EF18F053EF18F030EF18F05BEFA9
:1030A80018F00E06D8900F3610361136123611BEAB
:1030B80060EF18F062EF18F06AEF18F0020E0E6079
:1030C80068EF18F06AEF18F055EF18F00EB06FEFD0
:1030D80018F071EF18F072EF18F0119ED8900E32B8
:1030E8000EC009F00A6A0B6A0C6A09C00CF00B6A78
:1030F8000A6A096A09500F120A5010120B5011126D
:103108000C5012120D50D8B48CEF18F08EEF18F046
:1031180096EF18F008BE95EF18F093EF18F096EFB9
:1031280018F0128E0FC005F010C006F011C007F09D
:1031380012C008F01200000E166E14BEA8EF18F0A8
:10314800A6EF18F0BAEF18F0141E131E121E111E67
:10315800101E0F1E0E1E0D6C000E0E220F221022C6
:103168001122122213221422010E166E0CBEC1EF78
:1031780018F0BFEF18F0D3EF18F00C1E0B1E0A1E44
:10318800091E081E071E061E056C000E06220722D1
:10319800082209220A220B220C22010E161A20EEFE
:1031A80017F0070EDE6AE806FDE20D500E100F104C
:1031B80010101110121013101410D8B4E6EF18F0F4
:1031C800E8EF18F03AEF19F0010E156EF6EF18F067
:1031D800D8900D360E360F36103611361236133695
:1031E8001436152A14AEFBEF18F0FDEF18F0ECEFCB
:1031F80018F0D8901736183619361A361B361C367A
:103208001D361E360D50055C0E5006580F500758D7
:10321800105008581150095812500A5813500B589A
:1032280014500C58D8A01BEF19F01DEF19F02EEF11
:1032380019F00D50055E0E50065A0F50075A1050DF
:10324800085A1150095A12500A5A13500B5A14505E
:103258000C5A1780D89014321332123211321032AD
:103268000F320E320D32152EFDEF18F01650D8B46D
:1032780040EF19F042EF19F052EF19F01E1E1D1E13
:103288001C1E1B1E1A1E191E181E176C000E182253
:1032980019221A221B221C221D221E2217C005F0E9
:1032A80018C006F019C007F01AC008F01BC009F0D2
:1032B8001CC00AF01DC00BF01EC00CF0120020EE5E
:1032C80002F01250D9261350DA22DF50D8B46FEF2B
:1032D80019F071EF19F0A5EF19F012C0D9FF13C05A
:1032E800DAFFDF50146E1450056E066A20EE03F004
:1032F8001250D9261350DA22DECF07F0DDCF08F0BE
:10330800C9EC25F005C00BF006C00CF0000E0E6EDF
:10331800640E0D6E10EC23F020EE03F01250D92647
:103328001350DA22DF50156E0B50155C166E20EE26
:1033380003F01250D9261350DA22DF50176EC8EF67
:1033480019F0000E166E12C0D9FF13C0DAFFDF5055
:10335800146E1450056E066A20EE03F01250D9263A
:103368001350DA22DECF07F0DDCF08F0C9EC25F0E4
:1033780005C00BF006C00CF0000E0E6E640E0D6E4C
:1033880010EC23F00B50176E20EE01F01250D926E6
:103398001350DA22DF50D8B4D4EF19F0D6EF19F071
:1033A800F8EF19F020EE05F01250D9261350DA2262
:1033B800DECF14F0DDCF15F014C0D9FF15C0DAFF49
:1033C80016C0DFFF20EE07F01250D9261350DA227C
:1033D800DECF14F0DDCF15F014C0D9FF15C0DAFF29
:1033E80017C0DFFF18EF1AF020EE05F01250D926AB
:1033F8001350DA22DECF14F0DDCF15F014C0D9FF58
:1034080015C0DAFF17C0DFFF20EE07F01250D926EB
:103418001350DA22DECF14F0DDCF15F014C0D9FF37
:1034280015C0DAFF16C0DFFF1200000E166E0CBEC4
:1034380022EF1AF020EF1AF034EF1AF00C1E0B1ED0
:103448000A1E091E081E071E061E056C000E06220F
:103458000722082209220A220B220C22010E166ECC
:1034680014BE3BEF1AF039EF1AF04BEF1AF0141EA6
:10347800131E121E111E101E0F1E0E1E0D6C000EA6
:103488000E220F22102211221222132214220D5072
:103498000E100F1010101110121013101410D8B4B1
:1034A80058EF1AF05AEF1AF0A2EF1AF0010E156E43
:1034B80068EF1AF0D8900D360E360F3610361136E2
:1034C800123613361436152A14AE6DEF1AF06FEF54
:1034D8001AF05EEF1AF00D50055C0E5006580F50AA
:1034E8000758105008581150095812500A581350CC
:1034F8000B5814500C58D8A084EF1AF086EF1AF025
:1035080096EF1AF00D50055E0E50065A0F50075AE6
:103518001050085A1150095A12500A5A13500B5A8F
:1035280014500C5AD890143213321232113210320D
:103538000F320E320D32152E6FEF1AF01650D8B426
:10354800A8EF1AF0AAEF1AF0BAEF1AF00C1E0B1E29
:103558000A1E091E081E071E061E056C000E0622FE
:103568000722082209220A220B220C2205C005F094
:1035780006C006F007C007F008C008F009C009F047
:103588000AC00AF00BC00BF00CC00CF0120045C0CA
:10359800D9FF46C0DAFFDECFF6FFDDCFF7FF000E1A
:1035A800F86E0800F550250AD8A4DDEF1AF0DFEF11
:1035B8001AF063EF1BF045C0D9FF46C0DAFFDE2AD8
:1035C800000EDD22000E0001756F000E746F74C0CE
:1035D8007CF07669776945C0D9FF46C0DAFFDECF4F
:1035E80053F0DDCF54F053C0F6FF54C0F7FF000E80
:1035F800F86E0800F550640AD8B405EF1BF007EF21
:103608001BF017EF1BF053C0F6FF54C0F7FF000E76
:10361800F86E0800F550690AD8A415EF1BF017EFEB
:103628001BF05AEF1BF047C0D9FF48C0DAFFDFCFC5
:1036380049F0020EDE26DFCF4AF0000EDD2249C037
:10364800D9FF4AC0DAFFDECF4BF0DDCF4CF0000ED9
:103658004CBEFF0E4D6E4E6E4F6E506E516E526EDA
:10366800010E5324496E000E54204A6E45C0D9FFFE
:1036780046C0DAFF49C0DEFF4AC0DDFF43C020F084
:1036880044C021F04BC022F04CC023F04DC024F0C0
:103698004EC025F04FC026F050C027F051C028F08A
:1036A80052C029F059EC15F079EF1BF045C0D9FF4D
:1036B80046C0DAFFDE2A000EDD2279EF1BF045C096
:1036C800D9FF46C0DAFFDECFF6FFDDCFF7FF000EE9
:1036D800F86E0800F550056E066A43C007F044C04E
:1036E80008F039EC21F05AEF1BF012001EC018F058
:1036F8001FC019F020C01AF021C01BF09EEC21F069
:10370800090E236E1E0E226EE40EE82EFED7222E20
:10371800FCD7232EFAD700D01EC018F01FC019F00E
:1037280020C01AF021C01BF065EC20F0390E236E82
:10373800D20E226E4C0EE82EFED7222EFCD7232E58
:10374800FAD700D01EC018F01FC019F020C01AF018
:1037580021C01BF09EEC21F020EE01F01E50D9266E
:103768001F50DA22010EDF6E20EE01F02050D9261C
:103778002150DA22000EDF6E20EE02F01E50D9260C
:103788001F50DA22010EDF6E20EE02F01E50D926FD
:103798001F50DA22010EDF6EEAEF1BF01EC0D9FFC0
:1037A8001FC0DAFF0A0EDF2620C0D9FF21C0DAFFCA
:1037B8000A0EDF261EC012F01FC013F063EC19F0CA
:1037C80020C012F021C013F063EC19F01EC0D9FF1D
:1037D8001FC0DAFF4F0EDF64F4EF1BF0F6EF1BF0AB
:1037E800D2EF1BF020C0D9FF21C0DAFF4F0EDF64F3
:1037F80000EF1CF002EF1CF0D2EF1BF0190E236E45
:10380800260E226EBF0EE82EFED7222EFCD7232EC0
:10381800FAD700F01EC018F01FC019F020C01AF027
:1038280021C01BF09EEC21F012001EC018F01FC032
:1038380019F020C01AF021C01BF09EEC21F0090EEF
:10384800236E1E0E226EE40EE82EFED7222EFCD723
:10385800232EFAD700D01EC018F01FC019F020C0C0
:103868001AF021C01BF065EC20F0390E236ED20E41
:10387800226E4C0EE82EFED7222EFCD7232EFAD726
:1038880000D01EC018F01FC019F020C01AF021C0C7
:103898001BF09EEC21F020EE01F01E50D9261F509F
:1038A800DA22000EDF6E20EE01F02050D9262150DA
:1038B800DA22010EDF6E20EE02F01E50D9261F50CC
:1038C800DA22010EDF6E20EE02F01E50D9261F50BC
:1038D800DA22010EDF6E89EF1CF01EC0D9FF1FC06F
:1038E800DAFF0A0EDF2620C0D9FF21C0DAFF0A0E50
:1038F800DF261EC012F01FC013F063EC19F020C0C1
:1039080012F021C013F063EC19F01EC0D9FF1FC0DC
:10391800DAFF4F0EDF6493EF1CF095EF1CF071EFA8
:103928001CF020C0D9FF21C0DAFF4F0EDF649FEFE3
:103938001CF0A1EF1CF071EF1CF02A0E236E660E2E
:10394800226E490EE82EFED7222EFCD7232EFAD758
:1039580000F01EC018F01FC019F020C01AF021C0D6
:103968001BF09EEC21F012001EC018F01FC019F0C9
:1039780020C01AF021C01BF09EEC21F0090E236E26
:103988001E0E226EE40EE82EFED7222EFCD7232E22
:10399800FAD700D01EC018F01FC019F020C01AF0C6
:1039A80021C01BF065EC20F0390E236ED20E226E7A
:1039B8004C0EE82EFED7222EFCD7232EFAD700D0A5
:1039C8001EC018F01FC019F020C01AF021C01BF04B
:1039D8009EEC21F020EE01F01E50D9261F50DA226D
:1039E800010EDF6E20EE01F02050D9262150DA2298
:1039F800000EDF6E20EE02F01E50D9261F50DA228C
:103A0800010EDF6E20EE02F01E50D9261F50DA227A
:103A1800010EDF6E28EF1DF01EC0D9FF1FC0DAFFB0
:103A28000A0EDF2620C0D9FF21C0DAFF0A0EDF26E2
:103A38001EC012F01FC013F063EC19F020C012F082
:103A480021C013F063EC19F01EC0D9FF1FC0DAFFC4
:103A58004F0EDF6432EF1DF034EF1DF010EF1DF054
:103A680020C0D9FF21C0DAFF4F0EDF643EEF1DF002
:103A780040EF1DF010EF1DF00E0E236ECD0E226EDE
:103A88006C0EE82EFED7222EFCD7232EFAD700D0B4
:103A98001EC018F01FC019F020C01AF021C01BF07A
:103AA8009EEC21F012001EC018F01FC019F020C0B3
:103AB8001AF021C01BF09EEC21F0090E236E1E0E99
:103AC800226EE40EE82EFED7222EFCD7232EFAD73C
:103AD80000D01EC018F01FC019F020C01AF021C075
:103AE8001BF065EC20F0390E236ED20E226E4C0EC0
:103AF800E82EFED7222EFCD7232EFAD700D01EC0E0
:103B080018F01FC019F020C01AF021C01BF09EEC5D
:103B180021F020EE01F01E50D9261F50DA22000EA7
:103B2800DF6E20EE01F02050D9262150DA22010E56
:103B3800DF6E20EE02F01E50D9261F50DA22010E49
:103B4800DF6E20EE02F01E50D9261F50DA22010E39
:103B5800DF6EC7EF1DF01EC0D9FF1FC0DAFF0A0EC7
:103B6800DF2620C0D9FF21C0DAFF0A0EDF261EC0DB
:103B780012F01FC013F063EC19F020C012F021C03E
:103B880013F063EC19F01EC0D9FF1FC0DAFF4F0E07
:103B9800DF64D1EF1DF0D3EF1DF0AFEF1DF020C0B3
:103BA800D9FF21C0DAFF4F0EDF64DDEF1DF0DFEF34
:103BB8001DF0AFEF1DF00E0E236ECD0E226E6C0EB3
:103BC800E82EFED7222EFCD7232EFAD700D01EC00F
:103BD80018F01FC019F020C01AF021C01BF09EEC8D
:103BE80021F012001EC018F01FC019F020C01AF0F2
:103BF80021C01BF09EEC21F0090E236E1E0E226ED2
:103C0800E40EE82EFED7222EFCD7232EFAD700D0BA
:103C18001EC018F01FC019F020C01AF021C01BF0F8
:103C280065EC20F0390E236ED20E226E4C0EE82E73
:103C3800FED7222EFCD7232EFAD700D01EC018F0AC
:103C48001FC019F020C01AF021C01BF09EEC21F013
:103C580020EE01F01E50D9261F50DA22010EDF6E29
:103C680020EE01F02050D9262150DA22000EDF6E16
:103C780020EE02F01E50D9261F50DA22010EDF6E08
:103C880020EE02F01E50D9261F50DA22010EDF6EF8
:103C980066EF1EF01EC0D9FF1FC0DAFF0A0EDF262E
:103CA80020C0D9FF21C0DAFF0A0EDF261EC012F09D
:103CB8001FC013F063EC19F020C012F021C013F0FC
:103CC80063EC19F01EC0D9FF1FC0DAFF4F0EDF6486
:103CD80070EF1EF072EF1EF04EEF1EF020C0D9FFFD
:103CE80021C0DAFF4F0EDF647CEF1EF07EEF1EF07E
:103CF8004EEF1EF0150E236EB30E226EA40EE82EA4
:103D0800FED7222EFCD7232EFAD71EC018F01FC0CC
:103D180019F020C01AF021C01BF09EEC21F012000F
:103D2800000E1D14256E000E1E14266E800E1F1424
:103D3800276E7F0E2014286E255026102710281075
:103D4800D8A4A9EF1EF0ABEF1EF0B3EF1EF0000EE3
:103D58001D6E000E1E6E000E1F6E000E206E000EF1
:103D68002114256E000E2214266E800E2314276E51
:103D78007F0E2414286E2550261027102810D8A44A
:103D8800C8EF1EF0CAEF1EF0D2EF1EF0000E216E33
:103D9800000E226E000E236E000E246E20AED7EFAA
:103DA8001EF0D9EF1EF0E2EF1EF01D6C1E1ED8B0FB
:103DB8001E2A1F1ED8B01F2A800E205624AEE7EFF9
:103DC8001EF0E9EF1EF0F2EF1EF0216C221ED8B0B3
:103DD800222A231ED8B0232A800E2456000E1D1A2C
:103DE800000E1E1A000E1F1A800E201A000E211A2D
:103DF800000E221A000E231A800E241A21501D5C70
:103E080022501E5823501F5824502058D8B00FEF66
:103E18001FF011EF1FF014EF1FF0D89015EF1FF0EF
:103E2800D8801200000E176E000E166E7CAE1FEFC3
:103E38001FF023EF1FF0146A142A24EF1FF0146AEE
:103E4800143214327C5014187F0B14187C6E090E2F
:103E5800156E1E0E146EE40EE82EFED7142EFCD737
:103E6800152EFAD700D0164A172A17BE45EF1FF0AD
:103E7800175009E1140E165CD8A045EF1FF047EF64
:103E88001FF01AEF1FF07CAE4CEF1FF050EF1FF041
:103E9800146A142A51EF1FF0146A143214327C5039
:103EA80014187F0B14187C6E290E156E960E146E5E
:103EB8007F0EE82EFED7142EFCD7152EFAD700F069
:103EC80012C010F013C011F04AEC23F0290E156E41
:103ED800960E146E7F0EE82EFED7142EFCD7152EE4
:103EE800FAD700F07CAE7BEF1FF07FEF1FF0146A6B
:103EF800142A80EF1FF0146A143214327C501418FC
:103F08007F0B14187C6E1200000E176E000E166ED2
:103F18007CAE91EF1FF095EF1FF0146A142A96EF0C
:103F28001FF0146A143214327C5014187F0B1418C2
:103F38007C6E090E156E1E0E146EE40EE82EFED76A
:103F4800142EFCD7152EFAD700D0164A172A17BEFA
:103F5800B7EF1FF0175009E1140E165CD8A0B7EFA1
:103F68001FF0B9EF1FF08CEF1FF07CAEBEEF1FF013
:103F7800C2EF1FF0146A142AC3EF1FF0146A143238
:103F880014327C5014187F0B14187C6E290E156E91
:103F9800960E146E7F0EE82EFED7142EFCD7152E23
:103FA800FAD700F012C010F013C011F04AEC23F059
:103FB800290E156E960E146E7F0EE82EFED7142E5F
:103FC800FCD7152EFAD700F07CAEEDEF1FF0F1EF1D
:103FD8001FF0146A142AF2EF1FF0146A1432143214
:103FE8007C5014187F0B14187C6E120020EE01F020
:103FF8001850D9261950DA22010EDF6E20EE01F092
:104008001A50D9261B50DA22010EDF6E20EE02F07C
:104018001850D9261950DA22010EDF6E20EE02F070
:104028001850D9261950DA22010EDF6E40EF20F021
:1040380018C0D9FF19C0DAFF280EDF6026EF20F07C
:1040480028EF20F02EEF20F018C0D9FF19C0DAFFB2
:10405800050EDF261AC0D9FF1BC0DAFF280EDF6065
:1040680038EF20F03AEF20F040EF20F01AC0D9FFE7
:104078001BC0DAFF050EDF2618C0D9FF19C0DAFF0A
:10408800280EDF604AEF20F04CEF20F058EF20F0C8
:104098001AC0D9FF1BC0DAFF270EDF6456EF20F0E5
:1040A80058EF20F01CEF20F018C012F019C013F0E0
:1040B80063EC19F01AC012F01BC013F063EC19F08E
:1040C800120020EE01F01850D9261950DA22000EFD
:1040D800DF6E20EE01F01A50D9261B50DA22000EAE
:1040E800DF6E20EE02F01850D9261950DA22010EA0
:1040F800DF6E20EE02F01850D9261950DA22010E90
:10410800DF6EABEF20F018C0D9FF19C0DAFF190E27
:10411800DF6091EF20F093EF20F099EF20F018C0C6
:10412800D9FF19C0DAFF050EDF261AC0D9FF1BC058
:10413800DAFF190EDF60A3EF20F0A5EF20F0ABEF58
:1041480020F01AC0D9FF1BC0DAFF050EDF2618C001
:10415800D9FF19C0DAFF190EDF60B5EF20F0B7EF0D
:1041680020F0C3EF20F01AC0D9FF1BC0DAFF180EE9
:10417800DF64C1EF20F0C3EF20F087EF20F018C014
:1041880012F019C013F063EC19F01AC012F01BC03A
:1041980013F063EC19F0120005C0D9FF06C0DAFF6E
:1041A800000EDF6E20EE01F00550D9260650DA2207
:1041B800010EDF6E20EE02F00550D9260650DA22F5
:1041C800010EDF6E20EE05F00550D9260650DA22E2
:1041D800AA0EDE6E0F0EDD6E20EE07F00550D92612
:1041E8000650DA22A60EDE6E0F0EDD6E20EE03F00C
:1041F8000550D9260650DA22C70EDE6E000EDD6E97
:1042080007C0D9FF08C0DAFF000EDF6E20EE01F00C
:104218000750D9260850DA22010EDF6E20EE02F090
:104228000750D9260850DA22010EDF6E20EE05F07D
:104238000750D9260850DA22250EDE6E0F0EDD6EE5
:1042480020EE07F00750D9260850DA22210EDE6E3C
:104258000F0EDD6E20EE03F00750D9260850DA2243
:10426800C70EDE6E000EDD6E120007500810D8B4BF
:1042780040EF21F042EF21F04BEF21F007500810FA
:10428800D8A449EF21F04BEF21F050EF21F0055071
:1042980028EC26F09DEF21F020EE09F00750D926F2
:1042A8000850DA22DE50DE10D8B45DEF21F05FEF5F
:1042B80021F07AEF21F020EE09F00750D9260850B6
:1042C800DA2210EE03F00750E1260850E222DE5011
:1042D800E65CE650800A0D6EDE50800A0D58D8B0B4
:1042E80078EF21F07AEF21F09DEF21F020EE03F036
:1042F8000750D9260850DA22DECF09F0DDCF0AF0C0
:1043080007C0D9FF08C0DAFFDECF0BF0DDCF0CF015
:1043180009500B24D96E0A500C20DA6E05C0DFFF55
:1043280020EE03F00750D9260850DA22DE2A000EC4
:10433800DD221200D0EF21F018C0D9FF19C0DAFF32
:10434800DF50D8B4AAEF21F0ACEF21F0B2EF21F0A2
:1043580018C0D9FF19C0DAFF050EDF5E1AC0D9FFF1
:104368001BC0DAFFDF50D8B4BCEF21F0BEEF21F05C
:10437800C4EF21F01AC0D9FF1BC0DAFF050EDF5EBB
:1043880018C012F019C013F063EC19F01AC012F03B
:104398001BC013F063EC19F018C0D9FF19C0DAFF7D
:1043A800DF50D8B4DAEF21F0DCEF21F0E8EF21F0AC
:1043B8001AC0D9FF1BC0DAFFDF50D8A4E6EF21F0FE
:1043C800E8EF21F0A0EF21F0090E1D6E1E0E1C6E05
:1043D800E40EE82EFED71C2EFCD71D2EFAD700D0EF
:1043E800120024C018F025C019F026C01AF027C002
:1043F8001BF065EC20F0390E296ED20E286E4C0E9B
:10440800E82EFED7282EFCD7292EFAD700D024C0B4
:1044180018F025C019F026C01AF027C01BF09EEC32
:1044280021F024C018F025C019F026C01AF027C0C2
:104438001BF065EC20F0390E296ED20E286E4C0E5A
:10444800E82EFED7282EFCD7292EFAD700D024C074
:104458001EF025C01FF026C020F027C021F0B8ECC0
:104468001CF024C018F025C019F026C01AF027C087
:104478001BF09EEC21F0120024C018F025C019F0A2
:1044880026C01AF027C01BF065EC20F0390E296E03
:10449800D20E286E4C0EE82EFED7282EFCD7292ED9
:1044A800FAD700D024C018F025C019F026C01AF099
:1044B80027C01BF09EEC21F024C018F025C019F08D
:1044C80026C01AF027C01BF065EC20F0390E296EC3
:1044D800D20E286E4C0EE82EFED7282EFCD7292E99
:1044E800FAD700D024C01EF025C01FF026C020F047
:1044F80027C021F057EC1DF024C018F025C019F092
:1045080026C01AF027C01BF09EEC21F012007D9403
:104518007D987B9E7F9C85948598839E879C050EBD
:104528000E01746F060E766F070E696F080E886F9E
:10453800BD508F0B3009BD6EE00EBE16BF50F00B9C
:104548000109BF6EC70EBC6EBD8E000EAA6E000EAE
:10455800A66E000E0F01256F000E216FFC0EAD1622
:10456800F30EAD16CF0EAD163F0EAD16AB88AB50A1
:10457800F00B0C09AB6EAB8EA788A750F00B0C099B
:10458800A76EA78E26892651F00B0C09266F268F59
:1045980022892251F00B0C09226F228F12001ABEB9
:1045A800D8EF22F0DAEF22F0E0EF22F019C01EF087
:1045B8001AC01FF0E4EF22F0000E1F6E000E1E6EF0
:1045C800000E1D6E000E1C6EF6EF22F0000E066E39
:1045D800200E056E15C007F016C008F039EC21F062
:1045E8001C4A1D2A1E501C5C1D50800A1B6E1F5041
:1045F800800A1B58D8A003EF23F005EF23F0EAEF59
:1046080022F017C00EF018C00FF015C010F016C039
:1046180011F0B4EC24F01200000E106E000E0F6EB4
:104628000D500E10D8B41BEF23F01DEF23F045EF0B
:1046380023F0010E116E25EF23F0D8900D360E36BB
:10464800112A0EAE2AEF23F02CEF23F021EF23F0EE
:10465800D8900F3610360D500B5C0E500C58D8A061
:1046680038EF23F03AEF23F03FEF23F00D500B5EC5
:104678000E500C5A0F80D8900E320D32112E2CEF9E
:1046880023F00FC00BF010C00CF01200CCEC23F09C
:1046980010C0D9FF11C0DAFF09C0DEFF0AC0DDFF74
:1046A800F4EC23F020EE02F01050D9261150DA2253
:1046B80009C0DEFF0AC0DDFF44EC24F020EE04F060
:1046C8001050D9261150DA2209C0DEFF0AC0DDFFDA
:1046D8001CEC24F020EE06F01050D9261150DA22F6
:1046E80009C0DEFF0AC0DDFF12009FC055F0A0C060
:1046F80056F08DEF23F09DC043F09EC044F0550E58
:10470800456E000E466EA1C047F0A2C048F0CBEC43
:104718001AF055C0F6FF56C0F7FF000EF86E0800F5
:10472800F5500009D8A49BEF23F09DEF23F07FEF0D
:1047380023F0000E00019E6F000E9D6F1200A70E61
:104748000001AF6F000EB06FA3C0B1F0A4C0B2F00B
:10475800000EB56F000EB46F000EBB6F000EBA6F7F
:10476800B10E9D6F000E9E6FA5C09FF0A6C0A0F071
:10477800AF0EA16F000EA26F79EC23F00001B451C7
:10478800A325D96EB551A421DA6E000EDF6E120092
:104798001CEC26F0520E11EC26F0B60E11EC26F0A9
:1047A80021EC26F0530E11EC26F0010ED6EC24F085
:1047B8000B6E0B500E6E0F6A000ED6EC24F00B6ECB
:1047C8000B500D6E0C6A0E500C100E6E0F500D1023
:1047D8000F6E17EC26F00EC009F00FC00AF0120099
:1047E8001CEC26F0520E11EC26F0B80E11EC26F057
:1047F80021EC26F0530E11EC26F0010ED6EC24F035
:104808000B6E0B500E6E0F6A000ED6EC24F00B6E7A
:104818000B500D6E0C6A0E500C100E6E0F500D10D2
:104828000F6E17EC26F00EC009F00FC00AF0120048
:104838001CEC26F0520E11EC26F0B40E11EC26F00A
:1048480021EC26F0530E11EC26F0010ED6EC24F0E4
:104858000B6E0B500E6E0F6A000ED6EC24F00B6E2A
:104868000B500D6E0C6A0E500C100E6E0F500D1082
:104878000F6E17EC26F00EC009F00FC00AF01200F8
:104888001CEC26F0520E11EC26F0BA0E11EC26F0B4
:1048980021EC26F0530E11EC26F0010ED6EC24F094
:1048A8000B6E0B500E6E0F6A000ED6EC24F00B6EDA
:1048B8000B500D6E0C6A0E500C100E6E0F500D1032
:1048C8000F6E17EC26F00EC009F00FC00AF01200A8
:1048D8004C0EF66E4C0EF76E000EF86E00EED4F02D
:1048E80010EE04F00900F5CFEEFFE550E150FAE1D3
:1048F80001EE9AF03C0EEE6AE806FDE100EE60F08B
:104908003D0EEE6AE806FDE15A6A596A586A576A26
:104918005B905B9200015EEF0FF0000E191A000E1B
:104928001A1A000E1B1A800E1C1A15C005F016C0A4
:1049380006F017C007F018C008F019C009F01AC02F
:104948000AF01BC00BF01CC00CF0FEEC0CF005C00C
:1049580015F006C016F007C017F008C018F01200CE
:10496800000E146E000E136EC5EF24F012C005F091
:10497800066A10C007F011C008F039EC21F0134A9C
:10498800142A13500E24D96E14500F20DA6EDF50FB
:10499800126E1250D8A4D3EF24F0D5EF24F0BAEF5A
:1049A80024F01200076EB5EC25F00E01DA87B5EC9D
:1049B80025F0D5CE08F0B5EC25F00750D8B4E7EFD0
:1049C80024F0EBEF24F0066A062AECEF24F0066ADE
:1049D800063A06460E01DA510618DF0B0618DA6F9A
:1049E800DA890850120018BE04EF25F0185006E1C5
:1049F8001704D8B002EF25F004EF25F012EF25F0E8
:104A080017C019F018C01AF0191E1A1E194A1A2AC6
:104A180019C017F01AC018F016EF25F017C017F0D4
:104A280018C018F012008BEC25F0010E076E000E6E
:104A3800DCEC25F03F0E096E550EE82EFED7092E48
:104A4800FCD700F0030E076E000EDCEC25F0D50E47
:104A5800076E010EDCEC25F012003CEF25F006C0D5
:104A6800D9FF07C0DAFFDF5076EC25F0064A072A9F
:104A780006C0D9FF07C0DAFFDF50D8A446EF25F0FB
:104A880048EF25F033EF25F012000E01E997E8957D
:104A9800330EE56F000EE66FE789E88BE78F8382B8
:104AA800120E626F110E156FF28EF28AF28C2D873C
:104AB8002D952387238512003B0E576466EF25F05A
:104AC80068EF25F06AEF25F0000E576E572A570455
:104AD800016E026A9A0E0124D96E010E0220DA6E66
:104AE800DF501200056E3B0E58647DEF25F07FEF16
:104AF80025F081EF25F0000E586E9A0E5824D96ED5
:104B0800DA6A010EDA2205C0DFFF582A12000E0108
:104B1800D951F00B0809D96FD98B9F0ED66F848AAB
:104B2800848CA79BA79D1D0E1D6F1E0E1C6F1C0E4F
:104B38006F6F1B0E706F1200016E130E5A64A7EF91
:104B480025F0A9EF25F0ABEF25F0000E5A6E600EA8
:104B58005A24D96EDA6A000EDA2201C0DFFF5A2A17
:104B680012000E01D8B5BBEF25F0BDEF25F0B5EF6B
:104B780025F0DACE05F01F0E0516D8A4C6EF25F0ED
:104B8800C8EF25F0B5EF25F0120005500702F3CF66
:104B980009F0F4CF0AF005500802F3500A2606502F
:104BA8000702F3500A2609C005F00AC006F01200F1
:104BB800086E1CEC26F0520E11EC26F00850800905
:104BC80011EC26F0075011EC26F017EC26F0120035
:104BD800F9EC25F00009D8B4F4EF25F0F6EF25F04C
:104BE800F8EF25F00E012D85120057505818D8A45B
:104BF80000EF26F003EF26F0010E04EF26F0000E7A
:104C0800120057505818D8A40CEF26F00FEF26F0D2
:104C1800010E10EF26F0000E1200066EB5EC25F01E
:104C280006C0D5FE1200B5EC25F00E01DA8512009B
:104C3800B5EC25F00E01DA811200B5EC25F00E0175
:0A4C4800DA831200BC02AA00120079
:020000040020DA
:10000000FF0FFF0FFF0FFF0FFF0FFF0FFF0FFF0F80
:020000040030CA
:0C000000AAFFFFFF9FFFFFFFFFFFFFFFB5
:00000001FF
