:040000003BEF00F0E2
:100008005B82D9CF03F0DACF04F00E0137A70FEFE8
:1000180000F011EF00F014EF00F0E351C9EC25F007
:100028000E0137A51AEF00F01CEF00F035EF00F0D5
:100038002DA521EF00F023EF00F035EF00F02EECB6
:1000480026F0E806D8A42BEF00F02DEF00F033EFF0
:1000580000F089EC25F00E01E46F35EF00F00E0199
:100068002D9504C0DAFF03C0D9FF5B92110095EF0C
:0200780024F072
:100E0000004B3A256420493A256420433A25642062
:100E1000543A2564200D0025642C25642C25642C6F
:070E20002564200D0A00000B
:100E2800800E106E000E116E73EC23F064C0D9FFB3
:100E380065C0DAFFDECF78F0DDCF79F0000120EE73
:100E480002F06451D9266551DA22DECF7AF0DDCF7F
:100E58007BF020EE04F06451D9266551DA22DECF0A
:100E68007CF0DDCF7DF066C0D9FF67C0DAFFDECF4A
:100E78004FF0DDCF50F04FC005F050C006F0076AC4
:100E8800086A000EEFEC17F005C06CF006C06DF0B4
:100E980007C06EF008C06FF0000120EE02F0665146
:100EA800D9266751DA22DECF4FF0DDCF50F04FC0A0
:100EB80005F050C006F0076A086A000EEFEC17F05C
:100EC80005C070F006C071F007C072F008C073F07A
:100ED800000120EE04F06651D9266751DA22DECFF0
:100EE8004FF0DDCF50F04FC005F050C006F0076A54
:100EF800086A000EEFEC17F005C074F006C075F034
:100F080007C076F008C077F0000120EE06F06651C1
:100F1800D9266751DA22DECF4FF0DDCF50F04FC02F
:100F280005F050C006F0076A086A000EEFEC17F0EB
:100F380000017851805D4F6E79518159506E4FC0D4
:100F480005F050C006F0076A086A000EEFEC17F0CB
:100F580005C036F006C037F007C038F008C039F0D1
:100F680060C021F061C022F062C023F063C024F0A9
:100F780078C005F079C006F0076A086A000EEFEC41
:100F880017F005C019F006C01AF007C01BF008C01A
:100F98001CF06CC015F06DC016F06EC017F06FC075
:100FA80018F0BAEC24F015C01DF016C01EF017C0DA
:100FB8001FF018C020F097EC11F01DC03AF01EC0C9
:100FC8003BF01FC03CF020C03DF0ACEC13F036C045
:100FD80088F037C089F038C08AF039C08BF000013A
:100FE8007A51825D4F6E7B518359506E4FC005F028
:100FF80050C006F0076A086A000EEFEC17F005C04B
:1010080036F006C037F007C038F008C039F060C0C5
:1010180021F061C022F062C023F063C024F07AC0DE
:1010280005F07BC006F0076A086A000EEFEC17F0BF
:1010380005C019F006C01AF007C01BF008C01CF064
:1010480070C015F071C016F072C017F073C018F0B8
:10105800BAEC24F015C01DF016C01EF017C01FF022
:1010680018C020F097EC11F01DC03AF01EC03BF0FC
:101078001FC03CF020C03DF0ACEC13F036C08CF043
:1010880037C08DF038C08EF039C08FF000017C5128
:10109800845D4F6E7D518559506E4FC005F050C02C
:1010A80006F0076A086A000EEFEC17F005C036F084
:1010B80006C037F007C038F008C039F060C021F02A
:1010C80061C022F062C023F063C024F07CC005F048
:1010D8007DC006F0076A086A000EEFEC17F005C03D
:1010E80019F006C01AF007C01BF008C01CF074C045
:1010F80015F075C016F076C017F077C018F0BAEC86
:1011080024F015C01DF016C01EF017C01FF018C03F
:1011180020F097EC11F01DC03AF01EC03BF01FC044
:101128003CF020C03DF0ACEC13F036C090F037C076
:1011380091F038C092F039C093F0000E00017F6F33
:101148000B0E7E6F8BBFABEF08F0ADEF08F0C6EF6C
:1011580008F0000E1D6E000E1E6E000E1F6E400E73
:10116800206E88C021F089C022F08AC023F08BC08D
:1011780024F0BDEC1EF0D8B0C4EF08F0C6EF08F0BC
:10118800CFEF08F0000E0001886F000E896F000E87
:101198008A6F000E8B6F00018FBFD5EF08F0D7EF75
:1011A80008F0F0EF08F0000E1D6E000E1E6E000E27
:1011B8001F6E400E206E8CC021F08DC022F08EC0B4
:1011C80023F08FC024F0BDEC1EF0D8B0EEEF08F08D
:1011D800F0EF08F0F9EF08F0000E00018C6F000E38
:1011E8008D6F000E8E6F000E8F6F000193BFFFEFA3
:1011F80008F001EF09F01AEF09F0000E1D6E000E5D
:101208001E6E000E1F6E400E206E90C021F091C021
:1012180022F092C023F093C024F0BDEC1EF0D8B0A9
:1012280018EF09F01AEF09F023EF09F0000E00019A
:10123800906F000E916F000E926F000E936F660E06
:101248001D6E660E1E6E660E1F6E3F0E206E88C0E7
:1012580021F089C022F08AC023F08BC024F0BDECB5
:101268001EF0D8B03AEF09F03CEF09F075EF09F03D
:10127800660E1D6E660E1E6E660E1F6E3F0E206E8B
:101288008CC021F08DC022F08EC023F08FC024F0D6
:10129800BDEC1EF0D8B053EF09F055EF09F075EF2B
:1012A80009F0660E1D6E660E1E6E660E1F6E3F0EF0
:1012B800206E90C021F091C022F092C023F093C01C
:1012C80024F0BDEC1EF0D8B06CEF09F06EEF09F019
:1012D80075EF09F0000E00017F6F080E7E6FF9EFC1
:1012E8000CF0000E1D6E000E1E6EC00E1F6E3F0E1F
:1012F800206E88C021F089C022F08AC023F08BC0FC
:1013080024F0BDEC1EF0D8B08CEF09F08EEF09F098
:1013180003EF0AF0CD0E1D6ECC0E1E6E4C0E1F6E26
:101328003F0E206E8CC019F08DC01AF08EC01BF0D5
:101338008FC01CF088C015F089C016F08AC017F05D
:101348008BC018F0BAEC24F015C021F016C022F0BA
:1013580017C023F018C024F0BDEC1EF0D8B0B7EFCA
:1013680009F0B9EF09F003EF0AF0CD0E1D6ECC0EAF
:101378001E6E4C0E1F6E3F0E206E90C019F091C06D
:101388001AF092C01BF093C01CF088C015F089C0F9
:1013980016F08AC017F08BC018F0BAEC24F015C00C
:1013A80021F016C022F017C023F018C024F0BDECBD
:1013B8001EF0D8B0E2EF09F0E4EF09F003EF0AF00D
:1013C8002A0E4F6E8E0EE82EFED74F2EFCD768C021
:1013D8001EF069C01FF06AC020F06BC021F043EC1A
:1013E8001CF02A0E4F6E8E0EE82EFED74F2EFCD71D
:1013F800000E00017F6F010E7E6FF9EF0CF0CD0E2D
:101408001D6ECC0E1E6ECC0E1F6E3E0E206E88C05A
:1014180019F089C01AF08AC01BF08BC01CF08CC070
:1014280015F08DC016F08EC017F08FC018F0BAEC0A
:1014380024F015C021F016C022F017C023F018C000
:1014480024F0BDEC1EF0D8B02CEF0AF02EEF0AF015
:1014580091EF0AF0000E1D6E000E1E6E800E1F6EBC
:101468003F0E206E8CC021F08DC022F08EC023F07C
:101478008FC024F0BDEC1EF0D8B045EF0AF047EF5E
:101488000AF091EF0AF0CD0E1D6ECC0E1E6ECC0E3A
:101498001F6E3E0E206E90C019F091C01AF092C0D7
:1014A8001BF093C01CF08CC015F08DC016F08EC0D8
:1014B80017F08FC018F0BAEC24F015C021F016C050
:1014C80022F017C023F018C024F0BDEC1EF0D8B0ED
:1014D80070EF0AF072EF0AF091EF0AF02A0E4F6EE1
:1014E8008E0EE82EFED74F2EFCD768C01EF069C0BE
:1014F8001FF06AC020F06BC021F0E2EC1CF02A0E4D
:101508004F6E8E0EE82EFED74F2EFCD7000E000130
:101518007F6F020E7E6FF9EF0CF0330E1D6E330EE7
:101528001E6E330E1F6E3F0E206E88C019F089C0E4
:101538001AF08AC01BF08BC01CF090C015F091C047
:1015480016F092C017F093C018F0BAEC24F015C04A
:1015580021F016C022F017C023F018C024F0BDEC0B
:101568001EF0D8B0BAEF0AF0BCEF0AF01FEF0BF08C
:101578009A0E1D6E990E1E6E990E1F6E3E0E206EEF
:101588008CC019F08DC01AF08EC01BF08FC01CF0F3
:1015980090C015F091C016F092C017F093C018F0E3
:1015A800BAEC24F015C021F016C022F017C023F0C1
:1015B80018C024F0BDEC1EF0D8B0E5EF0AF0E7EF54
:1015C8000AF01FEF0BF0330E1D6E330E1E6E330E36
:1015D8001F6E3F0E206E90C021F091C022F092C085
:1015E80023F093C024F0BDEC1EF0D8B0FEEF0AF053
:1015F80000EF0BF01FEF0BF02A0E4F6E8E0EE82E49
:10160800FED74F2EFCD768C01EF069C01FF06AC015
:1016180020F06BC021F0A4EC1BF02A0E4F6E8E0E4A
:10162800E82EFED74F2EFCD7000E00017F6F030E69
:101638007E6FF9EF0CF0000E1D6E000E1E6E800E10
:101648001F6E3F0E206E88C021F089C022F08AC02C
:1016580023F08BC024F0BDEC1EF0D8B036EF0BF0B1
:1016680038EF0BF089EF0BF0CD0E1D6ECC0E1E6E11
:101678004C0E1F6E3F0E206E8CC021F08DC022F0E4
:101688008EC023F08FC024F0BDEC1EF0D8B04FEF11
:101698000BF051EF0BF089EF0BF090C01DF091C0EB
:1016A8001EF092C01FF093C020F0CD0E216ECC0E1C
:1016B800226E4C0E236E3F0E246EBDEC1EF0D8B089
:1016C80068EF0BF06AEF0BF089EF0BF02A0E4F6E04
:1016D8008E0EE82EFED74F2EFCD768C024F069C0C6
:1016E80025F06AC026F06BC027F01EEC22F02A0E07
:1016F8004F6E8E0EE82EFED74F2EFCD7000E00013F
:101708007F6F040E7E6FF9EF0CF0330E1D6E330EF3
:101718001E6E730E1F6E3F0E206E88C021F089C0AA
:1017280022F08AC023F08BC024F0BDEC1EF0D8B0A4
:10173800A0EF0BF0A2EF0BF025EF0CF0CD0E1D6E15
:10174800CC0E1E6E4C0E1F6E3F0E206E8CC021F00C
:101758008DC022F08EC023F08FC024F0BDEC1EF0A7
:10176800D8B0B9EF0BF0BBEF0BF025EF0CF08CC045
:101778001DF08DC01EF08EC01FF08FC020F0660EC9
:10178800216E660E226E660E236E3F0E246EBDEC31
:101798001EF0D8B0D2EF0BF0D4EF0BF025EF0CF021
:1017A800CD0E1D6ECC0E1E6E4C0E1F6E3F0E206EA3
:1017B80090C021F091C022F092C023F093C024F091
:1017C800BDEC1EF0D8B0EBEF0BF0EDEF0BF025EF12
:1017D8000CF090C01DF091C01EF092C01FF093C095
:1017E80020F0330E216E330E226E730E236E3F0EE1
:1017F800246EBDEC1EF0D8B004EF0CF006EF0CF030
:1018080025EF0CF02A0E4F6E8E0EE82EFED74F2EC7
:10181800FCD768C024F069C025F06AC026F06BC008
:1018280027F069EC22F02A0E4F6E8E0EE82EFED7B6
:101838004F2EFCD7000E00017F6F050E7E6FF9EF6B
:101848000CF0660E1D6E660E1E6EA60E1F6E3F0E07
:10185800206E88C021F089C022F08AC023F08BC096
:1018680024F0BDEC1EF0D8B03CEF0CF03EEF0CF0CD
:101878008FEF0CF0000E1D6E000E1E6E000E1F6E18
:101888003F0E206E8CC021F08DC022F08EC023F058
:101898008FC024F0BDEC1EF0D8B055EF0CF057EF18
:1018A8000CF08FEF0CF0000E1D6E000E1E6E000E79
:1018B8001F6E3F0E206E90C021F091C022F092C0A2
:1018C80023F093C024F0BDEC1EF0D8B06EEF0CF0FE
:1018D80070EF0CF08FEF0CF02A0E4F6E8E0EE82E84
:1018E800FED74F2EFCD768C01EF069C01FF06AC033
:1018F80020F06BC021F081EC1DF02A0E4F6E8E0E89
:10190800E82EFED74F2EFCD7000E00017F6F060E83
:101918007E6FF9EF0CF088C01DF089C01EF08AC0F8
:101928001FF08BC020F0330E216E330E226E330E63
:10193800236E3F0E246EBDEC1EF0D8B0A6EF0CF05F
:10194800A8EF0CF0F9EF0CF0000E1D6E000E1E6EE5
:10195800800E1F6E3F0E206E8CC021F08DC022F0CD
:101968008EC023F08FC024F0BDEC1EF0D8B0BFEFBE
:101978000CF0C1EF0CF0F9EF0CF0000E1D6E000E2C
:101988001E6E800E1F6E3F0E206E90C021F091C01B
:1019980022F092C023F093C024F0BDEC1EF0D8B022
:1019A800D8EF0CF0DAEF0CF0F9EF0CF02A0E4F6ECE
:1019B8008E0EE82EFED74F2EFCD768C01EF069C0E9
:1019C8001FF06AC020F06BC021F01FEC1EF02A0E39
:1019D8004F6E8E0EE82EFED74F2EFCD7000E00015C
:1019E8007F6F070E7E6FF9EF0CF07EC060F07FC04E
:1019F80061F012000850800B116E08500824136E15
:101A080007AE09EF0DF00BEF0DF00CEF0DF01380A2
:101A18001350D8B412EF0DF014EF0DF029EF0DF0BC
:101A28001328D8A41AEF0DF01CEF0DF024EF0DF0D9
:101A3800000E056E000E066E000E076E000E086E94
:101A4800078E000E086E31EF0DF0000E056E000EC9
:101A5800066E000E076E000E086E0C50800B126E9C
:101A680011501218D8B43BEF0DF03DEF0DF03EEFDA
:101A78000DF0118C0C500C24126E0BAE46EF0DF0CD
:101A880048EF0DF049EF0DF012801250D8B44FEF27
:101A98000DF051EF0DF066EF0DF01228D8A457EFB6
:101AA8000DF059EF0DF061EF0DF0000E096E000E0C
:101AB8000A6E000E0B6E000E0C6E0B8E000E0C6E76
:101AC8006EEF0DF0000E096E000E0A6E000E0B6E22
:101AD800000E0C6E1350125CD8B075EF0DF077EF56
:101AE8000DF09EEF0DF011AC7CEF0DF07EEF0DF0D8
:101AF80080EF0DF0800E111A13C014F012C013F00D
:101B080014C012F005C014F009C005F014C009F0A3
:101B180006C014F00AC006F014C00AF007C014F09A
:101B28000BC007F014C00BF008C014F00CC008F08C
:101B380014C00CF0000E146E135012C00DF00E6A93
:101B48000D5E000E0E5A0EBEB3EF0DF00E5009E1F9
:101B58001A0E0D5CD8A0B3EF0DF0B5EF0DF0ECEF59
:101B68000DF00550061007100810D8A4BEEF0DF0B0
:101B7800C1EF0DF0010EC2EF0DF0000E146E000E55
:101B8800056E000E066E000E076E000E086E12C07F
:101B980013F0F5EF0DF014A0D4EF0DF0D6EF0DF023
:101BA800DCEF0DF0D89014300109146EDEEF0DF063
:101BB800D890143205A0E3EF0DF0E5EF0DF0E6EF55
:101BC8000DF0148E08340832073206320532132A13
:101BD8001250135CD8A0F3EF0DF0F5EF0DF0CFEF36
:101BE8000DF011BCFAEF0DF0FCEF0DF03CEF0EF02C
:101BF8001350D8A402EF0EF004EF0EF00EEF0EF023
:101C0800000E056E000E066E000E076E000E086EC2
:101C18005DEF0FF0095005260A5006220B500722E7
:101C28000C50082208A01BEF0EF01DEF0EF0C9EFB4
:101C38000EF014A022EF0EF024EF0EF02AEF0EF0B3
:101C4800D89014300109146E2CEF0EF0D89014328D
:101C580005A031EF0EF033EF0EF034EF0EF0148ED6
:101C680008340832073206320532132AC9EF0EF05B
:101C78000950055C0A5006580B5007580850800A4E
:101C88000D6E0C50800A0D58D8B04DEF0EF04FEF86
:101C98000EF07AEF0EF00550095C0D6E06500A58EA
:101CA8000E6E07500B580F6E08500C58106EFF0E32
:101CB8000D24056EFF0E0E20066EFF0E0F20076E18
:101CC800FF0E1020086E800E111A146C1450D8A440
:101CD80070EF0EF072EF0EF082EF0EF0010E052697
:101CE800000E06220722082282EF0EF00950055E38
:101CF8000A50065A0B50075A0C50085A055006103D
:101D080007100810D8A48BEF0EF08DEF0EF0C2EF7D
:101D18000EF01450D8A493EF0EF095EF0EF0C2EF2A
:101D28000EF0000E056E000E066E000E076E000E19
:101D3800086E5DEF0FF0D890053606360736083680
:101D480014AEA9EF0EF0ABEF0EF0ACEF0EF005807D
:101D580014A0B1EF0EF0B3EF0EF0B7EF0EF0D8808D
:101D68001436B9EF0EF0D89014361350D8B4BFEF2C
:101D78000EF0C1EF0EF0C2EF0EF0130607AEC7EF7C
:101D88000EF0C9EF0EF09FEF0EF0000E126E14AEBB
:101D9800D0EF0EF0D2EF0EF0EAEF0EF014C00DF017
:101DA8007F0E0D16D8B4DBEF0EF0DDEF0EF0E1EF8D
:101DB8000EF0010E126EEAEF0EF005A0E6EF0EF03F
:101DC800E8EF0EF0EAEF0EF0DDEF0EF01250D8B4A7
:101DD800F0EF0EF0F2EF0EF01DEF0FF0010E0526FA
:101DE800000E06220722082208A0FDEF0EF0FFEFE2
:101DF8000EF01DEF0FF005C00DF006C00EF007C085
:101E08000FF008C010F0103410320F320E320D32BD
:101E18000DC005F00EC006F00FC007F010C008F0A6
:101E28001328D8B41AEF0FF01CEF0FF01DEF0FF0C6
:101E3800132A1328D8B423EF0FF025EF0FF02DEF56
:101E48000FF01350D8A42BEF0FF02DEF0FF03FEF4A
:101E58000FF0000E056E000E066E000E076E000EE7
:101E6800086E1350D8A43BEF0FF03DEF0FF03FEF93
:101E78000FF0000E116E13A044EF0FF046EF0FF0B5
:101E880049EF0FF0078E4AEF0FF0079ED8901330F6
:101E9800086E11AE52EF0FF054EF0FF055EF0FF040
:101EA800088E05C005F006C006F007C007F008C098
:101EB80008F0120040EC25F072EC25F0000E066EDA
:101EC800C70E056EB4EC22F07C9E849E80968896A0
:101ED8007C988498809088907E9086908092889252
:101EE8007C9684967C887E8080807E807C867F80BD
:101EF8007D8E79868790859E819686840E01B4951D
:101F08008686B497000E0001AB6FC70E056E000EF3
:101F1800066EBE0E076E000E086EF9EC20F0000E7D
:101F28000001BD6F000EBC6F000EA06F000E9F6F0A
:101F3800AC0E126E000E136EB1EC1FF0A30E106EF5
:101F4800000E116E73EC23F08EB4ADEF0FF0AFEF0F
:101F58000FF0D2EF0FF08EB6B4EF0FF0B6EF0FF030
:101F6800D2EF0FF07C8E8086290E0001956F960EB9
:101F7800946F7F0EE82EFED7942FFCD7952FFAD7B3
:101F88007C9E80960001AB51D8B4CDEF0FF0D0EF16
:101F98000FF0010ED1EF0FF0000EAB6F8EA4D7EF4C
:101FA8000FF0DAEF0FF0010EDBEF0FF0000E00017B
:101FB800946F956B8EB6E3EF0FF0E7EF0FF0966B2B
:101FC800962BE9EF0FF00001966B96519417000ECF
:101FD800951794519511D8B4F4EF0FF0F6EF0FF070
:101FE800FCEF0FF0AC0E126E000E136EB1EC1FF08A
:101FF8008EA601EF10F004EF10F0010E05EF10F0BF
:10200800000E0001946F956B8EB40DEF10F011EF78
:1020180010F0966B962B13EF10F00001966B96510B
:102028009417000E951794519511D8B41EEF10F01F
:1020380020EF10F026EF10F0B40E126E000E136EA3
:102048003FEC1FF080A62BEF10F030EF10F00001EE
:10205800946B942B32EF10F00001946B94479447E3
:10206800944780509419F70B9419806EBAC005F004
:10207800BBC006F0076A086A000EEFEC17F005C04F
:1020880097F006C098F007C099F008C09AF0A9C068
:1020980005F0AAC006F0076A086A000EEFEC17F010
:1020A80005C036F006C037F007C038F008C039F070
:1020B80097C03AF098C03BF099C03CF09AC03DF008
:1020C800ACEC13F036C09BF037C09CF038C09DF0E4
:1020D80039C09EF08F0E1D6EC20E1E6EF50E1F6E5D
:1020E8003D0E206E9BC021F09CC022F09DC023F0C5
:1020F8009EC024F0BDEC1EF0D8B085EF10F087EF3D
:1021080010F032EF11F00001AB51D8B48EEF10F09F
:1021180090EF10F032EF11F09BC060F09CC061F0BE
:102128009DC062F09EC063F0AC0E646F000E656FD8
:10213800B40E666F000E676FC70E686F000E696F8A
:10214800BE0E6A6F000E6B6F14EC07F060C0A1F052
:1021580061C0A2F00001A25107E1090EA15DD8B04B
:10216800B8EF10F0BAEF10F032EF11F0D890BC359C
:10217800D96EBD35DA6E000ED926020EDA22000EAF
:10218800DE6E000EDD6ED890BC35D96EBD35DA6EC8
:10219800000ED926030EDA229FC0DEFFA0C0DDFFA5
:1021A800BC4BBD2B000EA06F000E9F6F080EA1192F
:1021B800A211D8A4E2EF10F0E4EF10F00AEF11F04A
:1021C800C70E1E6E000E1F6EBE0E206E000E216E14
:1021D800A4EC1BF07C8E8086000E00017F6F020E3F
:1021E800806F000E816F030E826FBCC083F0BDC08C
:1021F80084F0C70E856F000E866FBE0E876F000EC7
:10220800886FB8EC16F0000E0001AB6FD890BC35A3
:10221800D96EBD35DA6E000ED926020EDA22A1C0BB
:10222800DEFFA2C0DDFFD890BC35D96EBD35DA6EB1
:10223800000ED926030EDA22010EDE6E000EDD6EC8
:10224800BC4BBD2B290E0001956F960E946F7F0E27
:10225800E82EFED7942FFCD7952FFAD70001AB5163
:10226800D8B439EF11F03BEF11F05BEF11F0C70E66
:10227800186E000E196EBE0E1A6E000E1B6E23EC41
:1022880020F07CA84AEF11F04FEF11F00001946B99
:10229800942B51EF11F00001946B943B7C509419EE
:1022A800EF0B94197C6E9F4BA02B65EF11F0C70EB6
:1022B800186E000E196EBE0E1A6E000E1B6EC7EC5D
:1022C80021F0050E0001956F0F0E946FF10EE82EA8
:1022D800FED7942FFCD7952FFAD7D10E00019F5D1A
:1022E800070EA059D8A07BEF11F07DEF11F0A2EFF7
:1022F8000FF0000E7F6F020E806F000E816F030ECD
:10230800826FBCC083F0BDC084F0C70E856F000E1D
:10231800866FBE0E876F000E886FB8EC16F0A2EFBE
:102328000FF03BEF00F02050800B296E2050202446
:102338002F6E1FAEA2EF11F0A4EF11F0A5EF11F070
:102348002F802F50D8B4ABEF11F0ADEF11F0C0EFE4
:1023580011F02F28D8A4B3EF11F0B5EF11F0BDEFAD
:1023680011F0000E1D6E000E1E6E000E1F6E000E88
:10237800206E1F8EC8EF11F0000E1D6E000E1E6E2F
:10238800000E1F6E000E206E2450800B291A245058
:1023980024242E6E23AED3EF11F0D5EF11F0D6EF33
:1023A80011F02E802E50D8B4DCEF11F0DEEF11F0D2
:1023B800F1EF11F02E28D8A4E4EF11F0E6EF11F0B8
:1023C800EEEF11F0000E216E000E226E000E236E4D
:1023D800000E246E238EF9EF11F0000E216E000E10
:1023E800226E000E236E000E246E2E50D8B4FFEF1E
:1023F80011F001EF12F009EF12F02F50D8A407EFF7
:1024080012F009EF12F013EF12F0000E1D6E000E1D
:102418001E6E000E1F6E000E206EABEF13F02350E1
:102428001D02F3CF34F0F4CF35F034502A6E2B6A06
:102438002C6A2D6A3550306E316A326A336A2250FE
:102448001E02F3CF34F0F4CF35F034502A26000EB4
:102458002B222C222D2235503026000E31223222FA
:10246800332221501F02F3CF34F0F4CF35F034502B
:102478002A26000E2B222C222D2235503026000E23
:102488003122322233222CC02DF02BC02CF02AC04E
:102498002BF02A6A21501E02F3CF34F0F4CF35F026
:1024A80034502A2635502B22000E2C22000E2D22C5
:1024B80022501D02F3CF34F0F4CF35F034502A26E1
:1024C80035502B22000E2C22000E2D222CC02DF070
:1024D8002BC02CF02AC02BF02A6A21501D02F3CF02
:1024E80034F0F4CF35F034502A2635502B22000E24
:1024F8002C22000E2D2223501E02F3CF34F0F4CFED
:1025080035F03450302635503122000E3222000E7C
:10251800332222501F02F3CF34F0F4CF35F0345079
:10252800302635503122000E3222000E332223503D
:102538001F02F3CF34F0F4CF35F03450256E355008
:10254800266E276A286A27C028F026C027F025C0EB
:1025580026F0256A2550302626503122275032226F
:10256800285033222AC025F02BC026F02CC027F093
:102578002DC028F0190EC6EF12F0D8902832273255
:1025880026322532E82EC1EF12F02550302626508B
:10259800312227503222285033222CC02DF02BC054
:1025A8002CF02AC02BF02A6A2E502FC025F0266A5C
:1025B8002526000E2622820E2524346EFF0E2620A4
:1025C800356EFCEF12F0D89030363136323633366D
:1025D8002DAEF1EF12F0F3EF12F0F4EF12F03080BD
:1025E800D8902A362B362C362D363406D8A0350608
:1025F80032AE01EF13F003EF13F0E7EF12F0000E25
:102608002E6E2DAE0AEF13F00CEF13F030EF13F02F
:10261800FF0E2A14256EFF0E2B14266EFF0E2C14A7
:10262800276E7F0E2D14286E25502610271028108F
:10263800D8B421EF13F023EF13F027EF13F0010EB6
:102648002E6E30EF13F030A02CEF13F02EEF13F0B6
:1026580030EF13F023EF13F02E50D8B436EF13F009
:1026680038EF13F05CEF13F0010E3026000E312224
:102678003222332233A043EF13F045EF13F05CEF1F
:1026880013F030C025F031C026F032C027F033C037
:1026980028F02834283227322632253225C030F057
:1026A80026C031F027C032F028C033F0344A352A2A
:1026B80035BE67EF13F0355008E13428D8A067EF2E
:1026C80013F069EF13F073EF13F0000E306E000E85
:1026D800316E800E326E7F0E336EA1EF13F035BE71
:1026E80080EF13F0355006E13404D8B07EEF13F0D4
:1026F80080EF13F08CEF13F0000E306E000E316E89
:10270800000E326E000E336E000E296EA1EF13F02C
:1027180034C02FF0FF0E3016FF0E31167F0E321622
:10272800000E33162FA09BEF13F09DEF13F09EEFD2
:1027380013F0328ED8902F30336E2950331230C0B8
:102748001DF031C01EF032C01FF033C020F012005F
:102758003950800B466E395039244D6E38AEB7EF7C
:1027680013F0B9EF13F0BAEF13F04D804D50D8B411
:10277800C0EF13F0C2EF13F0D7EF13F04D28D8A431
:10278800C8EF13F0CAEF13F0D2EF13F0000E366E55
:10279800000E376E000E386E000E396E388E000E41
:1027A800396EDFEF13F0000E366E000E376E000E36
:1027B800386E000E396E3D50800B461A3D503D2450
:1027C8004E6E3CAEEAEF13F0ECEF13F0EDEF13F0C2
:1027D8004E804E50D8B4F3EF13F0F5EF13F00AEF34
:1027E80014F04E28D8A4FBEF13F0FDEF13F005EF1B
:1027F80014F0000E3A6E000E3B6E000E3C6E000E9A
:102808003D6E3C8E000E3D6E12EF14F0000E3A6ED7
:10281800000E3B6E000E3C6E000E3D6E3A503B10B3
:102828003C103D10D8A41BEF14F01DEF14F035EF49
:1028380014F0000E366E000E376E000E386E000E65
:10284800396E800E38127F0E39124650391236C052
:1028580036F037C037F038C038F039C039F078EF83
:1028680015F04D50D8A43BEF14F03DEF14F047EFAE
:1028780014F0000E366E000E376E000E386E000E25
:10288800396E78EF15F04E504DC03EF03F6A3E5E0F
:10289800000E3F5A7F0E3E24476E000E3F20486EC2
:1028A80036C042F037C043F038C044F039C045F074
:1028B800000E366E000E376E000E386E000E396E42
:1028C800000E496E000E4A6E000E4B6E000E4C6EE6
:1028D800000E4E6EA8EF14F04E50D8B476EF14F0F8
:1028E80078EF14F08FEF14F0D89042364336443620
:1028F8004536D89036363736383639364CAE87EFC7
:1029080014F089EF14F08AEF14F03680D890493625
:102918004A364B364C363A50425C3B5043583C5052
:1029280044583D504558D8A09CEF14F09EEF14F041
:10293800A7EF14F04C8C3A50425E3B50435A3C503F
:10294800445A3D50455A4E2A190E4E64AEEF14F0C3
:10295800B0EF14F070EF14F04250431044104510DB
:10296800D8B4B9EF14F0BBEF14F0D3EF14F04980EA
:10297800D3EF14F0D89036363736383639364CAE71
:10298800C8EF14F0CAEF14F0CBEF14F03680D890EB
:1029980049364A364B364C364706D8A0480638AE34
:1029A800D8EF14F0DAEF14F0BEEF14F0000E4E6E0C
:1029B8004CAEE1EF14F0E3EF14F007EF15F0FF0E63
:1029C80049143E6EFF0E4A143F6EFF0E4B14406EC4
:1029D8007F0E4C14416E3E503F1040104110D8B449
:1029E800F8EF14F0FAEF14F0FEEF14F0010E4E6E4B
:1029F80007EF15F036A003EF15F005EF15F007EF18
:102A080015F0FAEF14F04E50D8B40DEF15F00FEFA3
:102A180015F033EF15F0010E3626000E3722382256
:102A2800392239A01AEF15F01CEF15F033EF15F025
:102A380036C03EF037C03FF038C040F039C041F0F2
:102A48004134413240323F323E323EC036F03FC020
:102A580037F040C038F041C039F0474A482A48BEEC
:102A68003EEF15F0485008E14728D8A03EEF15F092
:102A780040EF15F04BEF15F0000E486E4768000E5A
:102A8800366E000E376E000E386E000E396E48BE78
:102A980058EF15F0485006E14704D8B056EF15F046
:102AA80058EF15F066EF15F0000E486E000E476EF1
:102AB800000E366E000E376E000E386E000E396E40
:102AC800000E466E47C04DF04DA06DEF15F06FEF4C
:102AD80015F072EF15F0388E73EF15F0389ED89018
:102AE8004D30396E29EF14F0120022C038F023C09F
:102AF80039F024C03AF025C03BF026C03CF027C08E
:102B08003DF028C03EF029C03FF03FBE8EEF15F0E3
:102B180091EF15F0010E92EF15F0000E406E405047
:102B2800D8B499EF15F09BEF15F0ABEF15F03F1EF9
:102B38003E1E3D1E3C1E3B1E3A1E391E386C000EC2
:102B480039223A223B223C223D223E223F220001EA
:102B5800E7BFB9EF15F0E75106E1E605D8B0B7EFE2
:102B680015F0B9EF15F0BFEF15F0000E356E010E38
:102B7800346EC3EF15F0E6C034F0E7C035F0E4C0BA
:102B880036F0E5C037F04050D8B4CDEF15F0CFEFB0
:102B980015F0E6EF15F03606D8A037064050D8A451
:102BA800D8EF15F0DAEF15F0E0EF15F0000E336E00
:102BB8002B0E326EE4EF15F0000E336E2D0E326ED2
:102BC80032C040F0000E426E1F0E416E000E010131
:102BD800F56F6BEF16F04106D8A04206D60E4124D9
:102BE800D96E010E4220DA6E38C005F039C006F001
:102BF8003AC007F03BC008F03CC009F03DC00AF0FD
:102C08003EC00BF03FC00CF00A0E0D6E000E0E6EAB
:102C1800000E0F6E000E106E000E116E000E126E7A
:102C2800000E136E000E146E43EC1AF005C02AF065
:102C380006C02BF007C02CF008C02DF009C02EF0FC
:102C48000AC02FF00BC030F00CC031F02AC017F0CA
:102C58002BC018F020EC25F01750300FDF6E34062B
:102C6800D8A035063606D8A0370638C005F039C0D2
:102C780006F03AC007F03BC008F03CC009F03DC080
:102C88000AF03EC00BF03FC00CF00A0E0D6E000EAD
:102C98000E6E000E0F6E000E106E000E116E000EFE
:102CA800126E000E136E000E146EC9EC18F005C0FB
:102CB80038F006C039F007C03AF008C03BF009C048
:102CC8003CF00AC03DF00BC03EF00CC03FF042BEE5
:102CD80076EF16F0425008E14104D8A076EF16F0DE
:102CE80078EF16F094EF16F0385039103A103B1080
:102CF8003C103D103E103F10D8A485EF16F087EF2A
:102D080016F0EFEF15F035BE94EF16F0355006E1EA
:102D18003404D8B092EF16F094EF16F0EFEF15F0F8
:102D28004050D8B49AEF16F09CEF16F0A7EF16F0C3
:102D38004106D8A04206D60E4124D96E010E422083
:102D4800DA6E40C0DFFF20C015F021C016F0D60EA5
:102D58004124176E010E4220186E36C019F037C094
:102D68001AF0FCEC22F0120083C098F184C099F1AB
:102D7800010199BFC4EF16F0C2EF16F0C6EF16F0C6
:102D8800EEEF17F02A0E0001896F8D0EE82EFED7A0
:102D9800892FFCD700D0000E0001666F010E676F07
:102DA800010E686F0E0E696F98C16AF099C16BF0D9
:102DB80083C06CF084C06DF0D89001019835D96E4D
:102DC8009935DA6E00018151D9268251DA22DECF97
:102DD8006EF0DDCF6FF0D89001019835D96E993536
:102DE800DA6E00017F51D9268051DA22DECF70F0E9
:102DF800DDCF71F0CCEC23F0000E066E010E076EED
:102E08005AEC25F015EC26F02A0E0001896F8D0E7C
:102E1800E82EFED7892FFCD700D09EEF17F085C08B
:102E28001EF086C01FF087C020F088C021F0E2ECB9
:102E38001CF0D7EF17F085C01EF086C01FF087C0C2
:102E480020F088C021F043EC1CF0D7EF17F085C0C4
:102E58001EF086C01FF087C020F088C021F0A4ECC7
:102E68001BF0D7EF17F085C01EF086C01FF087C093
:102E780020F088C021F01FEC1EF0D7EF17F085C0B6
:102E88001EF086C01FF087C020F088C021F081ECBA
:102E98001DF0D7EF17F085C018F086C019F087C06D
:102EA8001AF088C01BF023EC20F0D8900101983567
:102EB800D96E9935DA6E00018151D9268251DA220C
:102EC800DECF89F0DDCF8AF0FE0E89250101966FED
:102ED800FF0E00018A210101976F82EF17F0960714
:102EE800D8A09707050E00018A6F0F0E896FF10EA3
:102EF800E82EFED7892FFCD78A2FFAD7010197BF72
:102F080090EF17F0975106E19605D8B08EEF17F0BD
:102F180090EF17F073EF17F0D7EF17F085C018F0A0
:102F280086C019F087C01AF088C01BF0C7EC21F0E2
:102F3800D7EF17F0D89001019835D96E9935DA6E28
:102F480000017F51D9268051DA22DECF89F0DDCF0A
:102F58008AF08A51000AD8B4B4EF17F092EF17F04C
:102F68008951000AD8B44FEF17F0010AD8B413EF0B
:102F780017F0030AD8B41FEF17F0010AD8B42BEFE3
:102F880017F0070AD8B413EF17F0010AD8B41FEFE7
:102F980017F0030AD8B437EF17F0010AD8B443EF93
:102FA80017F092EF17F0050E00018A6F0F0E896F68
:102FB800F10EE82EFED7892FFCD78A2FFAD7010108
:102FC8009807D8A0990799BFEEEF17F0ECEF17F024
:102FD800C6EF16F012000D6E0D50D8B4F6EF17F0CC
:102FE800F8EF17F01AEF18F008BEFFEF17F0FDEF33
:102FF80017F01AEF18F005C009F006C00AF007C06C
:103008000BF008C00CF0091E0A1E0B1E0C1E092A24
:10301800000E0A220B220C2209C00FF00AC010F081
:103028000BC011F00CC012F022EF18F005C00FF021
:1030380006C010F007C011F008C012F005500610C5
:1030480007100810D8A42BEF18F02DEF18F037EF61
:1030580018F0000E056E000E066E000E076E000ECC
:10306800086EC8EF18F0960E0E6E41EF18F00E2A93
:10307800D8901232113210320F32000E0F14096E2E
:10308800000E10140A6E000E11140B6EFE0E1214B0
:103098000C6E09500A100B100C10D8A456EF18F03B
:1030A80058EF18F03BEF18F066EF18F00E2A010EF3
:1030B8000F26000E102211221222D890123211323D
:1030C80010320F32000E0F14096E000E10140A6E23
:1030D800000E11140B6EFF0E12140C6E09500A101C
:1030E8000B100C10D8A47BEF18F07DEF18F05AEFF6
:1030F80018F085EF18F00E06D8900F3610361136F6
:10310800123611BE8AEF18F08CEF18F094EF18F011
:10311800020E0E6092EF18F094EF18F07FEF18F09F
:103128000EB099EF18F09BEF18F09CEF18F0119E75
:10313800D8900E320EC009F00A6A0B6A0C6A09C0F0
:103148000CF00B6A0A6A096A09500F120A50101229
:103158000B5011120C5012120D50D8B4B6EF18F0D3
:10316800B8EF18F0C0EF18F008BEBFEF18F0BDEFC9
:1031780018F0C0EF18F0128E0FC005F010C006F05E
:1031880011C007F012C008F01200000E166E14BE2F
:10319800D2EF18F0D0EF18F0E4EF18F0141E131E59
:1031A800121E111E101E0F1E0E1E0D6C000E0E227A
:1031B8000F2210221122122213221422010E166E3F
:1031C8000CBEEBEF18F0E9EF18F0FDEF18F00C1E4D
:1031D8000B1E0A1E091E081E071E061E056C000E81
:1031E80006220722082209220A220B220C22010E9B
:1031F800161A20EE17F0070EDE6AE806FDE20D50FB
:103208000E100F1010101110121013101410D8B443
:1032180010EF19F012EF19F064EF19F0010E156EA6
:1032280020EF19F0D8900D360E360F3610361136BD
:10323800123613361436152A14AE25EF19F027EF77
:1032480019F016EF19F0D8901736183619361A36BD
:103258001B361C361D361E360D50055C0E500658A2
:103268000F500758105008581150095812500A5852
:1032780013500B5814500C58D8A045EF19F047EFCD
:1032880019F058EF19F00D50055E0E50065A0F5000
:10329800075A1050085A1150095A12500A5A135016
:1032A8000B5A14500C5A1780D89014321332123219
:1032B800113210320F320E320D32152E27EF19F05F
:1032C8001650D8B46AEF19F06CEF19F07CEF19F0CA
:1032D8001E1E1D1E1C1E1B1E1A1E191E181E176CD4
:1032E800000E182219221A221B221C221D221E221D
:1032F80017C005F018C006F019C007F01AC008F08A
:103308001BC009F01CC00AF01DC00BF01EC00CF059
:10331800120020EE02F01250D9261350DA22DF50A4
:10332800D8B499EF19F09BEF19F0CFEF19F012C04C
:10333800D9FF13C0DAFFDF50146E1450056E066A09
:1033480020EE03F01250D9261350DA22DECF07F010
:10335800DDCF08F0F2EC25F005C00BF006C00CF04C
:10336800000E0E6E640E0D6E39EC23F020EE03F0A5
:103378001250D9261350DA22DF50156E0B50155C07
:10338800166E20EE03F01250D9261350DA22DF50C1
:10339800176EF2EF19F0000E166E12C0D9FF13C0A7
:1033A800DAFFDF50146E1450056E066A20EE03F043
:1033B8001250D9261350DA22DECF07F0DDCF08F0FD
:1033C800F2EC25F005C00BF006C00CF0000E0E6EF6
:1033D800640E0D6E39EC23F00B50176E20EE01F0E1
:1033E8001250D9261350DA22DF50D8B4FEEF19F064
:1033F80000EF1AF022EF1AF020EE05F01250D9264D
:103408001350DA22DECF14F0DDCF15F014C0D9FF47
:1034180015C0DAFF16C0DFFF20EE07F01250D926DC
:103428001350DA22DECF14F0DDCF15F014C0D9FF27
:1034380015C0DAFF17C0DFFF42EF1AF020EE05F0E3
:103448001250D9261350DA22DECF14F0DDCF15F052
:1034580014C0D9FF15C0DAFF17C0DFFF20EE07F050
:103468001250D9261350DA22DECF14F0DDCF15F032
:1034780014C0D9FF15C0DAFF16C0DFFF1200000E16
:10348800166E0CBE4CEF1AF04AEF1AF05EEF1AF007
:103498000C1E0B1E0A1E091E081E071E061E056CA2
:1034A800000E06220722082209220A220B220C22D9
:1034B800010E166E14BE65EF1AF063EF1AF075EF81
:1034C8001AF0141E131E121E111E101E0F1E0E1EA1
:1034D8000D6C000E0E220F2210221122122213222E
:1034E80014220D500E100F1010101110121013107E
:1034F8001410D8B482EF1AF084EF1AF0CCEF1AF057
:10350800010E156E92EF1AF0D8900D360E360F3662
:1035180010361136123613361436152A14AE97EFB4
:103528001AF099EF1AF088EF1AF00D50055C0E505A
:1035380006580F5007581050085811500958125083
:103548000A5813500B5814500C58D8A0AEEF1AF064
:10355800B0EF1AF0C0EF1AF00D50055E0E50065A83
:103568000F50075A1050085A1150095A12500A5A47
:1035780013500B5A14500C5AD8901432133212327A
:10358800113210320F320E320D32152E99EF1AF019
:103598001650D8B4D2EF1AF0D4EF1AF0E4EF1AF0BC
:1035A8000C1E0B1E0A1E091E081E071E061E056C91
:1035B800000E06220722082209220A220B220C22C8
:1035C80005C005F006C006F007C007F008C008F0FF
:1035D80009C009F00AC00AF00BC00BF00CC00CF0CF
:1035E800120045C0D9FF46C0DAFFDECFF6FFDDCFB7
:1035F800F7FF000EF86E0800F550250AD8A407EF6B
:103608001BF009EF1BF08DEF1BF045C0D9FF46C03A
:10361800DAFFDE2A000EDD22000E0001E56F000E43
:10362800E46FE4C0ECF0E669E76945C0D9FF46C03D
:10363800DAFFDECF53F0DDCF54F053C0F6FF54C0AD
:10364800F7FF000EF86E0800F550640AD8B42FEFA3
:103658001BF031EF1BF041EF1BF053C0F6FF54C0D5
:10366800F7FF000EF86E0800F550690AD8A43FEF7E
:103678001BF041EF1BF084EF1BF047C0D9FF48C097
:10368800DAFFDFCF49F0020EDE26DFCF4AF0000E68
:10369800DD2249C0D9FF4AC0DAFFDECF4BF0DDCFCB
:1036A8004CF0000E4CBEFF0E4D6E4E6E4F6E506EBF
:1036B800516E526E010E5324496E000E54204A6E0C
:1036C80045C0D9FF46C0DAFF49C0DEFF4AC0DDFF6A
:1036D80043C020F044C021F04BC022F04CC023F07E
:1036E8004DC024F04EC025F04FC026F050C027F042
:1036F80051C028F052C029F079EC15F0A3EF1BF067
:1037080045C0D9FF46C0DAFFDE2A000EDD22A3EF4E
:103718001BF045C0D9FF46C0DAFFDECFF6FFDDCF8C
:10372800F7FF000EF86E0800F550056E066A43C0F4
:1037380007F044C008F062EC21F084EF1BF012009F
:103748001EC018F01FC019F020C01AF021C01BF0CD
:10375800C7EC21F0090E236E1E0E226EE40EE82E31
:10376800FED7222EFCD7232EFAD700D01EC018F081
:103778001FC019F020C01AF021C01BF08EEC20F0F9
:10378800350E236EC30E226E590EE82EFED7222E5A
:10379800FCD7232EFAD700F01EC018F01FC019F06E
:1037A80020C01AF021C01BF0C7EC21F020EE01F078
:1037B8001E50D9261F50DA22010EDF6E20EE01F0CE
:1037C8002050D9262150DA22000EDF6E20EE02F0BA
:1037D8001E50D9261F50DA22010EDF6E20EE02F0AD
:1037E8001E50D9261F50DA22010EDF6E14EF1CF08E
:1037F8001EC0D9FF1FC0DAFF0A0EDF2620C0D9FF7E
:1038080021C0DAFF0A0EDF261EC012F01FC013F017
:103818008DEC19F020C012F021C013F08DEC19F0D6
:103828001EC0D9FF1FC0DAFF4F0EDF641EEF1CF069
:1038380020EF1CF0FCEF1BF020C0D9FF21C0DAFFFD
:103848004F0EDF642AEF1CF02CEF1CF0FCEF1BF08E
:10385800180E236E700E226EEE0EE82EFED7222E64
:10386800FCD7232EFAD700D01EC018F01FC019F0BD
:1038780020C01AF021C01BF0C7EC21F012001EC0B6
:1038880018F01FC019F020C01AF021C01BF0C7ECB7
:1038980021F0090E236E1E0E226EE40EE82EFED7CE
:1038A800222EFCD7232EFAD700D01EC018F01FC036
:1038B80019F020C01AF021C01BF08EEC20F0350E54
:1038C800236EC30E226E590EE82EFED7222EFCD789
:1038D800232EFAD700F01EC018F01FC019F020C020
:1038E8001AF021C01BF0C7EC21F020EE01F01E50A9
:1038F800D9261F50DA22010EDF6E20EE01F020508B
:10390800D9262150DA22000EDF6E20EE02F01E507A
:10391800D9261F50DA22010EDF6E20EE02F01E506B
:10392800D9261F50DA22010EDF6EB3EF1CF01EC03D
:10393800D9FF1FC0DAFF0A0EDF2620C0D9FF21C039
:10394800DAFF0A0EDF261EC012F01FC013F08DEC3E
:1039580019F020C012F021C013F08DEC19F01EC030
:10396800D9FF1FC0DAFF4F0EDF64BDEF1CF0BFEFB9
:103978001CF09BEF1CF020C0D9FF21C0DAFF4F0ECE
:10398800DF64C9EF1CF0CBEF1CF09BEF1CF00E0EB0
:10399800236E650E226E870EE82EFED7222EFCD7E8
:1039A800232EFAD700F01EC018F01FC019F020C04F
:1039B8001AF021C01BF0C7EC21F012001EC018F04D
:1039C8001FC019F020C01AF021C01BF0C7EC21F06D
:1039D800090E236E1E0E226EE40EE82EFED7222E4E
:1039E800FCD7232EFAD700D01EC018F01FC019F03C
:1039F80020C01AF021C01BF08EEC20F0350E236E8B
:103A0800C30E226E590EE82EFED7222EFCD7232E87
:103A1800FAD700F01EC018F01FC019F020C01AF025
:103A280021C01BF0C7EC21F020EE01F01E50D92672
:103A38001F50DA22000EDF6E20EE01F02050D9264A
:103A48002150DA22010EDF6E20EE02F01E50D92638
:103A58001F50DA22010EDF6E20EE02F01E50D9262A
:103A68001F50DA22010EDF6E52EF1DF01EC0D9FF83
:103A78001FC0DAFF0A0EDF2620C0D9FF21C0DAFFF7
:103A88000A0EDF261EC012F01FC013F08DEC19F0CD
:103A980020C012F021C013F08DEC19F01EC0D9FF20
:103AA8001FC0DAFF4F0EDF645CEF1DF05EEF1DF004
:103AB8003AEF1DF020C0D9FF21C0DAFF4F0EDF64B6
:103AC80068EF1DF06AEF1DF03AEF1DF00E0E236E41
:103AD800650E226E870EE82EFED7222EFCD7232EE7
:103AE800FAD700F01EC018F01FC019F020C01AF055
:103AF80021C01BF0C7EC21F012001EC018F01FC037
:103B080019F020C01AF021C01BF0C7EC21F0090EF3
:103B1800236E1E0E226EE40EE82EFED7222EFCD750
:103B2800232EFAD700D01EC018F01FC019F020C0ED
:103B38001AF021C01BF08EEC20F0350E236EC30E58
:103B4800226E590EE82EFED7222EFCD7232EFAD746
:103B580000F01EC018F01FC019F020C01AF021C0D4
:103B68001BF0C7EC21F020EE01F01E50D9261F50A3
:103B7800DA22010EDF6E20EE01F02050D926215006
:103B8800DA22000EDF6E20EE02F01E50D9261F50FA
:103B9800DA22010EDF6E20EE02F01E50D9261F50E9
:103BA800DA22010EDF6EF1EF1DF01EC0D9FF1FC033
:103BB800DAFF0A0EDF2620C0D9FF21C0DAFF0A0E7D
:103BC800DF261EC012F01FC013F08DEC19F020C0C4
:103BD80012F021C013F08DEC19F01EC0D9FF1FC0E0
:103BE800DAFF4F0EDF64FBEF1DF0FDEF1DF0D9EF9C
:103BF8001DF020C0D9FF21C0DAFF4F0EDF6407EFA8
:103C08001EF009EF1EF0D9EF1DF0150E236E170EEA
:103C1800226ECC0EE82EFED7222EFCD7232EFAD702
:103C28001EC018F01FC019F020C01AF021C01BF0E8
:103C3800C7EC21F012001EC018F01FC019F020C0F8
:103C48001AF021C01BF0C7EC21F0090E236E1E0EDE
:103C5800226EE40EE82EFED7222EFCD7232EFAD7AA
:103C680000D01EC018F01FC019F020C01AF021C0E3
:103C78001BF08EEC20F0350E236EC30E226E590E0B
:103C8800E82EFED7222EFCD7232EFAD700F01EC02E
:103C980018F01FC019F020C01AF021C01BF0C7ECA3
:103CA80021F020EE01F01E50D9261F50DA22000E16
:103CB800DF6E20EE01F02050D9262150DA22010EC5
:103CC800DF6E20EE02F01E50D9261F50DA22010EB8
:103CD800DF6E20EE02F01E50D9261F50DA22010EA8
:103CE800DF6E8FEF1EF01EC0D9FF1FC0DAFF0A0E6D
:103CF800DF2620C0D9FF21C0DAFF0A0EDF261EC04A
:103D080012F01FC013F08DEC19F020C012F021C082
:103D180013F08DEC19F01EC0D9FF1FC0DAFF4F0E4B
:103D2800DF6499EF1EF09BEF1EF077EF1EF020C0C6
:103D3800D9FF21C0DAFF4F0EDF64A5EF1EF0A7EF11
:103D48001EF077EF1EF0150E236E170E226ECC0EA6
:103D5800E82EFED7222EFCD7232EFAD71EC018F045
:103D68001FC019F020C01AF021C01BF0C7EC21F0C9
:103D78001200000E1D14256E000E1E14266E800EF5
:103D88001F14276E7F0E2014286E2550261027102A
:103D98002810D8A4D2EF1EF0D4EF1EF0DCEF1EF0EE
:103DA800000E1D6E000E1E6E000E1F6E000E206EA1
:103DB800000E2114256E000E2214266E800E231488
:103DC800276E7F0E2414286E2550261027102810E1
:103DD800D8A4F1EF1EF0F3EF1EF0FBEF1EF0000E7B
:103DE800216E000E226E000E236E000E246E20AE91
:103DF80000EF1FF002EF1FF00BEF1FF01D6C1E1EEF
:103E0800D8B01E2A1F1ED8B01F2A800E205624AEF6
:103E180010EF1FF012EF1FF01BEF1FF0216C221E96
:103E2800D8B0222A231ED8B0232A800E2456000E8A
:103E38001D1A000E1E1A000E1F1A800E201A000EE0
:103E4800211A000E221A000E231A800E241A21505D
:103E58001D5C22501E5823501F5824502058D8B09B
:103E680038EF1FF03AEF1FF03DEF1FF0D8903EEF0C
:103E78001FF0D8801200000E176E000E166E7CAE72
:103E880048EF1FF04CEF1FF0146A142A4DEF1FF093
:103E9800146A143214327C5014187F0B14187C6E78
:103EA800090E156E1E0E146EE40EE82EFED7142EA3
:103EB800FCD7152EFAD700D0164A172A17BE6EEF70
:103EC8001FF0175009E1140E165CD8A06EEF1FF012
:103ED80070EF1FF043EF1FF07CAE75EF1FF079EF26
:103EE8001FF0146A142A7AEF1FF0146A143214327D
:103EF8007C5014187F0B14187C6E290E156E960EC4
:103F0800146E7F0EE82EFED7142EFCD7152EFAD786
:103F180000F012C010F013C011F073EC23F0290E5A
:103F2800156E960E146E7F0EE82EFED7142EFCD753
:103F3800152EFAD700F07CAEA4EF1FF0A8EF1FF003
:103F4800146A142AA9EF1FF0146A143214327C5030
:103F580014187F0B14187C6E1200000E176E000EDA
:103F6800166E7CAEBAEF1FF0BEEF1FF0146A142A6B
:103F7800BFEF1FF0146A143214327C5014187F0BF0
:103F880014187C6E090E156E1E0E146EE40EE82EC3
:103F9800FED7142EFCD7152EFAD700D0164A172AAA
:103FA80017BEE0EF1FF0175009E1140E165CD8A0F9
:103FB800E0EF1FF0E2EF1FF0B5EF1FF07CAEE7EF88
:103FC8001FF0EBEF1FF0146A142AECEF1FF0146ACD
:103FD800143214327C5014187F0B14187C6E290E7E
:103FE800156E960E146E7F0EE82EFED7142EFCD793
:103FF800152EFAD700F012C010F013C011F073ECB0
:1040080023F0290E156E960E146E7F0EE82EFED73D
:10401800142EFCD7152EFAD700F07CAE16EF20F040
:104028001AEF20F0146A142A1BEF20F0146A1432D5
:1040380014327C5014187F0B14187C6E120020EE7A
:1040480001F01850D9261950DA22010EDF6E20EE41
:1040580001F01A50D9261B50DA22010EDF6E20EE2D
:1040680002F01850D9261950DA22010EDF6E20EE20
:1040780002F01850D9261950DA22010EDF6E69EFC6
:1040880020F018C0D9FF19C0DAFF280EDF604FEF03
:1040980020F051EF20F057EF20F018C0D9FF19C0D9
:1040A800DAFF050EDF261AC0D9FF1BC0DAFF280E7B
:1040B800DF6061EF20F063EF20F069EF20F01AC0B5
:1040C800D9FF1BC0DAFF050EDF2618C0D9FF19C0BB
:1040D800DAFF280EDF6073EF20F075EF20F081EF34
:1040E80020F01AC0D9FF1BC0DAFF270EDF647FEF6C
:1040F80020F081EF20F045EF20F018C012F019C031
:1041080013F08DEC19F01AC012F01BC013F08DECEF
:1041180019F0120020EE01F01850D9261950DA22B1
:10412800000EDF6E20EE01F01A50D9261B50DA225D
:10413800000EDF6E20EE02F01850D9261950DA2250
:10414800010EDF6E20EE02F01850D9261950DA223F
:10415800010EDF6ED4EF20F018C0D9FF19C0DAFFC6
:10416800190EDF60BAEF20F0BCEF20F0C2EF20F0AC
:1041780018C0D9FF19C0DAFF050EDF261AC0D9FF0B
:104188001BC0DAFF190EDF60CCEF20F0CEEF20F075
:10419800D4EF20F01AC0D9FF1BC0DAFF050EDF26C6
:1041A80018C0D9FF19C0DAFF190EDF60DEEF20F062
:1041B800E0EF20F0ECEF20F01AC0D9FF1BC0DAFFC7
:1041C800180EDF64EAEF20F0ECEF20F0B0EF20F0FB
:1041D80018C012F019C013F08DEC19F01AC012F0C3
:1041E8001BC013F08DEC19F0120005C0D9FF06C0F2
:1041F800DAFF000EDF6E20EE01F00550D9260650DA
:10420800DA22010EDF6E20EE02F00550D9260650A4
:10421800DA22010EDF6E20EE05F00550D926065091
:10422800DA22AA0EDE6E0F0EDD6E20EE07F00550C4
:10423800D9260650DA22A60EDE6E0F0EDD6E20EEAF
:1042480003F00550D9260650DA22C70EDE6E000E9E
:10425800DD6E07C0D9FF08C0DAFF000EDF6E20EE62
:1042680001F00750D9260850DA22010EDF6E20EE41
:1042780002F00750D9260850DA22010EDF6E20EE30
:1042880005F00750D9260850DA22250EDE6E0F0EEB
:10429800DD6E20EE07F00750D9260850DA22210EED
:1042A800DE6E0F0EDD6E20EE03F00750D9260850A3
:1042B800DA22C70EDE6E000EDD6E120007500810FF
:1042C800D8B469EF21F06BEF21F074EF21F00750BB
:1042D8000810D8A472EF21F074EF21F079EF21F0E3
:1042E800055051EC26F0C6EF21F020EE09F00750FA
:1042F800D9260850DA22DE50DE10D8B486EF21F035
:1043080088EF21F0A3EF21F020EE09F00750D9261D
:104318000850DA2210EE03F00750E1260850E22296
:10432800DE50E65CE650800A0D6EDE50800A0D58BD
:10433800D8B0A1EF21F0A3EF21F0C6EF21F020EED5
:1043480003F00750D9260850DA22DECF09F0DDCF76
:104358000AF007C0D9FF08C0DAFFDECF0BF0DDCFC7
:104368000CF009500B24D96E0A500C20DA6E05C0E7
:10437800DFFF20EE03F00750D9260850DA22DE2AA4
:10438800000EDD221200F9EF21F018C0D9FF19C084
:10439800DAFFDF50D8B4D3EF21F0D5EF21F0DBEF0F
:1043A80021F018C0D9FF19C0DAFF050EDF5E1AC068
:1043B800D9FF1BC0DAFFDF50D8B4E5EF21F0E7EFF3
:1043C80021F0EDEF21F01AC0D9FF1BC0DAFF050E6E
:1043D800DF5E18C012F019C013F08DEC19F01AC086
:1043E80012F01BC013F08DEC19F018C0D9FF19C0DA
:1043F800DAFFDF50D8B403EF22F005EF22F011EF17
:1044080022F01AC0D9FF1BC0DAFFDF50D8A40FEF83
:1044180022F011EF22F0C9EF21F0090E1D6E1E0ED9
:104428001C6EE40EE82EFED71C2EFCD71D2EFAD7E4
:1044380000D0120024C018F025C019F026C01AF0C8
:1044480027C01BF08EEC20F0350E296EC30E286EA7
:10445800590EE82EFED7282EFCD7292EFAD700F0C1
:1044680024C018F025C019F026C01AF027C01BF088
:10447800C7EC21F024C018F025C019F026C01AF0A6
:1044880027C01BF08EEC20F0350E296EC30E286E67
:10449800590EE82EFED7282EFCD7292EFAD700F081
:1044A80024C01EF025C01FF026C020F027C021F030
:1044B80043EC1CF024C018F025C019F026C01AF0EF
:1044C80027C01BF0C7EC21F0120024C018F025C04B
:1044D80019F026C01AF027C01BF08EEC20F0350E1C
:1044E800296EC30E286E590EE82EFED7282EFCD74B
:1044F800292EFAD700F024C018F025C019F026C0DC
:104508001AF027C01BF0C7EC21F024C018F025C012
:1045180019F026C01AF027C01BF08EEC20F0350EDB
:10452800296EC30E286E590EE82EFED7282EFCD70A
:10453800292EFAD700F024C01EF025C01FF026C08F
:1045480020F027C021F0E2EC1CF024C018F025C0B0
:1045580019F026C01AF027C01BF0C7EC21F0120092
:104568007D947D987B9E7F9C85948598839E879C6F
:10457800050E0E01746F060E766F070E696F080E32
:10458800886FBD508F0B3009BD6EE00EBE16BF5050
:10459800F00B0109BF6EC70EBC6EBD8E000EAA6E71
:1045A800000EA66E000E0F01256F000E216FFC0E87
:1045B800AD16F30EAD16CF0EAD163F0EAD16AB8889
:1045C800AB50F00B0C09AB6EAB8EA788A750F00B65
:1045D8000C09A76EA78E26892651F00B0C09266FA9
:1045E800268F22892251F00B0C09226F228F12008C
:1045F8001ABE01EF23F003EF23F009EF23F019C0EF
:104608001EF01AC01FF00DEF23F0000E1F6E000EF3
:104618001E6E000E1D6E000E1C6E1FEF23F0000EA6
:10462800066E200E056E15C007F016C008F062EC85
:1046380021F01C4A1D2A1E501C5C1D50800A1B6E4E
:104648001F50800A1B58D8A02CEF23F02EEF23F020
:1046580013EF23F017C00EF018C00FF015C010F0BC
:1046680016C011F0DDEC24F01200000E106E000EE2
:104678000F6E0D500E10D8B444EF23F046EF23F020
:104688006EEF23F0010E116E4EEF23F0D8900D3629
:104698000E36112A0EAE53EF23F055EF23F04AEFF2
:1046A80023F0D8900F3610360D500B5C0E500C5876
:1046B800D8A061EF23F063EF23F068EF23F00D50EB
:1046C8000B5E0E500C5A0F80D8900E320D32112E00
:1046D80055EF23F00FC00BF010C00CF01200F5ECF2
:1046E80023F010C0D9FF11C0DAFF09C0DEFF0AC0ED
:1046F800DDFF1DEC24F020EE02F01050D9261150F9
:10470800DA2209C0DEFF0AC0DDFF6DEC24F020EEDE
:1047180004F01050D9261150DA2209C0DEFF0AC071
:10472800DDFF45EC24F020EE06F01050D92611509C
:10473800DA2209C0DEFF0AC0DDFF120062C055F0B0
:1047480063C056F0B6EF23F060C043F061C044F098
:10475800550E456E000E466E64C047F065C048F0C1
:10476800F5EC1AF055C0F6FF56C0F7FF000EF86ECC
:104778000800F5500009D8A4C4EF23F0C6EF23F0D1
:10478800A8EF23F0000E0001616F000E606F1200A9
:104798006A0E0001726F000E736F66C074F067C016
:1047A80075F0000E786F000E776F000E7E6F000EAA
:1047B8007D6F740E606F000E616F68C062F069C033
:1047C80063F0720E646F000E656FA2EC23F00001B7
:1047D80077516625D96E78516721DA6E000EDF6E43
:1047E800120045EC26F0520E3AEC26F0B60E3AECE2
:1047F80026F04AEC26F0530E3AEC26F0010EFFECB8
:1048080024F00B6E0B500E6E0F6A000EFFEC24F0B6
:104818000B6E0B500D6E0C6A0E500C100E6E0F5076
:104828000D100F6E40EC26F00EC009F00FC00AF014
:10483800120045EC26F0520E3AEC26F0B80E3AEC8F
:1048480026F04AEC26F0530E3AEC26F0010EFFEC67
:1048580024F00B6E0B500E6E0F6A000EFFEC24F066
:104868000B6E0B500D6E0C6A0E500C100E6E0F5026
:104878000D100F6E40EC26F00EC009F00FC00AF0C4
:10488800120045EC26F0520E3AEC26F0B40E3AEC43
:1048980026F04AEC26F0530E3AEC26F0010EFFEC17
:1048A80024F00B6E0B500E6E0F6A000EFFEC24F016
:1048B8000B6E0B500D6E0C6A0E500C100E6E0F50D6
:1048C8000D100F6E40EC26F00EC009F00FC00AF074
:1048D800120045EC26F0520E3AEC26F0BA0E3AECED
:1048E80026F04AEC26F0530E3AEC26F0010EFFECC7
:1048F80024F00B6E0B500E6E0F6A000EFFEC24F0C6
:104908000B6E0B500D6E0C6A0E500C100E6E0F5085
:104918000D100F6E40EC26F00EC009F00FC00AF023
:1049280012009E0EF66E4C0EF76E000EF86E00EE3C
:10493800EDF010EE04F00900F5CFEEFFE550E15080
:10494800FAE101EE9AF05C0EEE6AE806FDE100EE8F
:10495800D0F01D0EEE6AE806FDE15A6A596A586AF7
:10496800576A5B905B9200015EEF0FF0000E191A18
:10497800000E1A1A000E1B1A800E1C1A15C005F01C
:1049880016C006F017C007F018C008F019C009F0E3
:104998001AC00AF01BC00BF01CC00CF0FEEC0CF0A7
:1049A80005C015F006C016F007C017F008C018F0CB
:1049B8001200000E146E000E136EEEEF24F012C0FB
:1049C80005F0066A10C007F011C008F062EC21F08B
:1049D800134A142A13500E24D96E14500F20DA6E7D
:1049E800DF50126E1250D8A4FCEF24F0FEEF24F032
:1049F800E3EF24F01200076EDEEC25F00E01DA87F3
:104A0800DEEC25F0D5CE08F0DEEC25F00750D8B462
:104A180010EF25F014EF25F0066A062A15EF25F0A9
:104A2800066A063A06460E01DA510618DF0B061822
:104A3800DA6FDA890850120018BE2DEF25F01850E9
:104A480006E11704D8B02BEF25F02DEF25F03BEF4A
:104A580025F017C019F018C01AF0191E1A1E194AA5
:104A68001A2A19C017F01AC018F03FEF25F017C01E
:104A780017F018C018F01200B4EC25F0010E076EFC
:104A8800000E05EC26F03F0E096E550EE82EFED7F7
:104A9800092EFCD700F0030E076E000E05EC26F079
:104AA800D50E076E010E05EC26F0120065EF25F015
:104AB80006C0D9FF07C0DAFFDF509FEC25F0064A91
:104AC800072A06C0D9FF07C0DAFFDF50D8A46FEF66
:104AD80025F071EF25F05CEF25F012000E01E99743
:104AE800E895330EE56F000EE66FE789E88BE78FF0
:104AF8008382120E626F110E156FF28EF28AF28C9B
:104B08002D872D952387238512003B0E57648FEF41
:104B180025F091EF25F093EF25F0000E576E572AF8
:104B28005704016E026A9A0E0124D96E010E022002
:104B3800DA6EDF501200056E3B0E5864A6EF25F0C2
:104B4800A8EF25F0AAEF25F0000E586E9A0E58240B
:104B5800D96EDA6A010EDA2205C0DFFF582A120080
:104B68000E01D951F00B0809D96FD98B9F0ED66F5A
:104B7800848A848CA79BA79D1D0E1D6F1E0E1C6F1B
:104B88001C0E6F6F1B0E706F1200016E130E5A64AD
:104B9800D0EF25F0D2EF25F0D4EF25F0000E5A6EB5
:104BA800D00E5A24D96EDA6A000EDA2201C0DFFF6D
:104BB8005A2A12000E01D8B5E4EF25F0E6EF25F0E9
:104BC800DEEF25F0DACE05F01F0E0516D8A4EFEFBC
:104BD80025F0F1EF25F0DEEF25F012000550070271
:104BE800F3CF09F0F4CF0AF005500802F3500A2673
:104BF80006500702F3500A2609C005F00AC006F05D
:104C08001200086E45EC26F0520E3AEC26F00850D9
:104C180080093AEC26F007503AEC26F040EC26F0F2
:104C2800120022EC26F00009D8B41DEF26F01FEF81
:104C380026F021EF26F00E012D8512005750581846
:104C4800D8A429EF26F02CEF26F0010E2DEF26F040
:104C5800000E120057505818D8A435EF26F038EF38
:104C680026F0010E39EF26F0000E1200066EDEEC7B
:104C780025F006C0D5FE1200DEEC25F00E01DA851F
:104C88001200DEEC25F00E01DA811200DEEC25F0D0
:0C4C98000E01DA8312008A02A50012004F
:020000040020DA
:10000000FF0FFF0FFF0FFF0FFF0FFF0FFF0FFF0F80
:020000040030CA
:0C000000AAFFFFFF9FFFFFFFFFFFFFFFB5
:00000001FF
