:040000003BEF00F0E2
:100008005882D9CF03F0DACF04F00E0137A70FEFEB
:1000180000F011EF00F014EF00F0E351DEEC20F0F7
:100028000E0137A51AEF00F01CEF00F035EF00F0D5
:100038002DA521EF00F023EF00F035EF00F02AECBA
:1000480021F0E806D8A42BEF00F02DEF00F033EFF5
:1000580000F0B3EC20F00E01E46F35EF00F00E0174
:100068002D9504C0DAFF03C0D9FF5892110019EF8B
:0200780020F076
:100E00000025642C25642C25642C2564200D0A0003
:010E100000E1
:100E1200800E106E000E116E4AEC1FF064C0D9FFF6
:100E220065C0DAFFDECF78F0DDCF79F0000120EE89
:100E320002F06451D9266551DA22DECF7AF0DDCF95
:100E42007BF020EE04F06451D9266551DA22DECF20
:100E52007CF0DDCF7DF066C0D9FF67C0DAFFDECF60
:100E62004FF0DDCF50F04FC005F050C006F0076ADA
:100E7200086A000E6EEC16F005C06CF006C06DF04C
:100E820007C06EF008C06FF0000120EE02F066515C
:100E9200D9266751DA22DECF4FF0DDCF50F04FC0B6
:100EA20005F050C006F0076A086A000E6EEC16F0F4
:100EB20005C070F006C071F007C072F008C073F090
:100EC200000120EE04F06651D9266751DA22DECF06
:100ED2004FF0DDCF50F04FC005F050C006F0076A6A
:100EE200086A000E6EEC16F005C074F006C075F0CC
:100EF20007C076F008C077F0000120EE06F06651D8
:100F0200D9266751DA22DECF4FF0DDCF50F04FC045
:100F120005F050C006F0076A086A000E6EEC16F083
:100F220000017851805D4F6E79518159506E4FC0EA
:100F320005F050C006F0076A086A000E6EEC16F063
:100F420005C036F006C037F007C038F008C039F0E7
:100F520060C021F061C022F062C023F063C024F0BF
:100F620078C005F079C006F0076A086A000E6EECD8
:100F720016F005C019F006C01AF007C01BF008C031
:100F82001CF06CC015F06DC016F06EC017F06FC08B
:100F920018F03EEC20F015C01DF016C01EF017C070
:100FA2001FF018C020F065EC0FF01DC03AF01EC013
:100FB2003BF01FC03CF020C03DF08EEC13F036C079
:100FC20088F037C089F038C08AF039C08BF0000150
:100FD2007A51825D4F6E7B518359506E4FC005F03E
:100FE20050C006F0076A086A000E6EEC16F005C0E3
:100FF20036F006C037F007C038F008C039F060C0DC
:1010020021F061C022F062C023F063C024F07AC0F4
:1010120005F07BC006F0076A086A000E6EEC16F057
:1010220005C019F006C01AF007C01BF008C01CF07A
:1010320070C015F071C016F072C017F073C018F0CE
:101042003EEC20F015C01DF016C01EF017C01FF0B8
:1010520018C020F065EC0FF01DC03AF01EC03BF046
:101062001FC03CF020C03DF08EEC13F036C08CF077
:1010720037C08DF038C08EF039C08FF000017C513E
:10108200845D4F6E7D518559506E4FC005F050C042
:1010920006F0076A086A000E6EEC16F005C036F01C
:1010A20006C037F007C038F008C039F060C021F040
:1010B20061C022F062C023F063C024F07CC005F05E
:1010C2007DC006F0076A086A000E6EEC16F005C0D5
:1010D20019F006C01AF007C01BF008C01CF074C05B
:1010E20015F075C016F076C017F077C018F03EEC18
:1010F20020F015C01DF016C01EF017C01FF018C05A
:1011020020F065EC0FF01DC03AF01EC03BF01FC08E
:101112003CF020C03DF08EEC13F036C090F037C0AA
:1011220091F038C092F039C093F000018BBF9CEF70
:1011320008F09EEF08F0B7EF08F0000E1D6E000EEB
:101142001E6E000E1F6E400E206E88C021F089C0F8
:1011520022F08AC023F08BC024F036EC1BF0D8B00A
:10116200B5EF08F0B7EF08F0C0EF08F0000E00018D
:10117200886F000E896F000E8A6F000E8B6F000160
:101182008FBFC6EF08F0C8EF08F0E1EF08F0000EDD
:101192001D6E000E1E6E000E1F6E400E206E8CC065
:1011A20021F08DC022F08EC023F08FC024F036ECE7
:1011B2001BF0D8B0DFEF08F0E1EF08F0EAEF08F03B
:1011C200000E00018C6F000E8D6F000E8E6F000EF0
:1011D2008F6F000193BFF0EF08F0F2EF08F00BEF12
:1011E20009F0000E1D6E000E1E6E000E1F6E400EE8
:1011F200206E90C021F091C022F092C023F093C0E3
:1012020024F036EC1BF0D8B009EF09F00BEF09F02F
:1012120014EF09F0000E0001906F000E916F000EA6
:10122200926F000E936F660E1D6E660E1E6E660E38
:101232001F6E3F0E206E88C021F089C022F08AC046
:1012420023F08BC024F036EC1BF0D8B02BEF09F062
:101252002DEF09F07EEF09F0660E1D6E660E1E6E12
:10126200660E1F6E3F0E206E8CC021F08DC022F0E4
:101272008EC023F08FC024F036EC1BF0D8B044EFC0
:1012820009F046EF09F07EEF09F0660E1D6E660E5C
:101292001E6E660E1F6E3F0E206E90C021F091C032
:1012A20022F092C023F093C024F036EC1BF0D8B0A9
:1012B2005DEF09F05FEF09F07EEF09F02A0E4F6E45
:1012C2008E0EE82EFED74F2EFCD768C01EF069C0E6
:1012D2001FF06AC020F06BC021F05BEC15F02A0E03
:1012E2004F6E8E0EE82EFED74F2EFCD7000E000159
:1012F2007F6F080E7E6F92EF0BF0000E1D6E000ED8
:101302001E6EC00E1F6E3F0E206E88C021F089C077
:1013120022F08AC023F08BC024F036EC1BF0D8B048
:1013220095EF09F097EF09F00CEF0AF0CD0E1D6E64
:10133200CC0E1E6E4C0E1F6E3F0E206E8CC019F02E
:101342008DC01AF08EC01BF08FC01CF088C015F043
:1013520089C016F08AC017F08BC018F03EEC20F05E
:1013620015C021F016C022F017C023F018C024F0D7
:1013720036EC1BF0D8B0C0EF09F0C2EF09F00CEF69
:101382000AF0CD0E1D6ECC0E1E6E4C0E1F6E3F0E61
:10139200206E90C019F091C01AF092C01BF093C059
:1013A2001CF088C015F089C016F08AC017F08BC0F7
:1013B20018F03EEC20F015C021F016C022F017C044
:1013C20023F018C024F036EC1BF0D8B0EBEF09F094
:1013D200EDEF09F00CEF0AF02A0E4F6E8E0EE82E9A
:1013E200FED74F2EFCD768C01EF069C01FF06AC03E
:1013F20020F06BC021F05AEC19F02A0E4F6E8E0EBF
:10140200E82EFED74F2EFCD7000E00017F6F010E93
:101412007E6F92EF0BF0CD0E1D6ECC0E1E6ECC0EBB
:101422001F6E3E0E206E88C019F089C01AF08AC065
:101432001BF08BC01CF08CC015F08DC016F08EC056
:1014420017F08FC018F03EEC20F015C021F016C046
:1014520022F017C023F018C024F036EC1BF0D8B0ED
:1014620035EF0AF037EF0AF09AEF0AF0000E1D6E20
:10147200000E1E6E800E1F6E3F0E206E8CC021F07D
:101482008DC022F08EC023F08FC024F036EC1BF00A
:10149200D8B04EEF0AF050EF0AF09AEF0AF0CD0EF4
:1014A2001D6ECC0E1E6ECC0E1F6E3E0E206E90C0B8
:1014B20019F091C01AF092C01BF093C01CF08CC0BE
:1014C20015F08DC016F08EC017F08FC018F03EECEC
:1014D20020F015C021F016C022F017C023F018C06A
:1014E20024F036EC1BF0D8B079EF0AF07BEF0AF06B
:1014F2009AEF0AF02A0E4F6E8E0EE82EFED74F2E6E
:10150200FCD768C01EF069C01FF06AC020F06BC033
:1015120021F0F9EC19F02A0E4F6E8E0EE82EFED74E
:101522004F2EFCD7000E00017F6F020E7E6F92EFEE
:101532000BF0330E1D6E330E1E6E330E1F6E3F0EFA
:10154200206E88C019F089C01AF08AC01BF08BC0C7
:101552001CF090C015F091C016F092C017F093C025
:1015620018F03EEC20F015C021F016C022F017C092
:1015720023F018C024F036EC1BF0D8B0C3EF0AF009
:10158200C5EF0AF028EF0BF09A0E1D6E990E1E6E33
:10159200990E1F6E3E0E206E8CC019F08DC01AF08F
:1015A2008EC01BF08FC01CF090C015F091C016F0D9
:1015B20092C017F093C018F03EEC20F015C021F055
:1015C20016C022F017C023F018C024F036EC1BF02E
:1015D200D8B0EEEF0AF0F0EF0AF028EF0BF0330E7E
:1015E2001D6E330E1E6E330E1F6E3F0E206E90C0A8
:1015F20021F091C022F092C023F093C024F036EC87
:101602001BF0D8B007EF0BF009EF0BF028EF0BF04F
:101612002A0E4F6E8E0EE82EFED74F2EFCD768C0D4
:101622001EF069C01FF06AC020F06BC021F05BECB5
:1016320015F02A0E4F6E8E0EE82EFED74F2EFCD7D7
:10164200000E00017F6F030E7E6F92EF0BF0000E13
:101652001D6E000E1E6E800E1F6E3F0E206E88C025
:1016620021F089C022F08AC023F08BC024F036EC2E
:101672001BF0D8B03FEF0BF041EF0BF092EF0BF005
:10168200CD0E1D6ECC0E1E6E4C0E1F6E3F0E206ECA
:101692008CC021F08DC022F08EC023F08FC024F0C8
:1016A20036EC1BF0D8B058EF0BF05AEF0BF092EF7C
:1016B2000BF090C01DF091C01EF092C01FF093C0BD
:1016C20020F0CD0E216ECC0E226E4C0E236E3F0EFC
:1016D200246E36EC1BF0D8B071EF0BF073EF0BF009
:1016E20092EF0BF02A0E4F6E8E0EE82EFED74F2E83
:1016F200FCD768C024F069C025F06AC026F06BC030
:1017020027F032EC1EF02A0E4F6E8E0EE82EFED718
:101712004F2EFCD7000E00017F6F040E7E6F92EFFA
:101722000BF0330E1D6E330E1E6E730E1F6E3F0EC8
:10173200206E88C021F089C022F08AC023F08BC0BD
:1017420024F036EC1BF0D8B0A9EF0BF0ABEF0BF0A6
:101752002EEF0CF0CD0E1D6ECC0E1E6E4C0E1F6EBB
:101762003F0E206E8CC021F08DC022F08EC023F07F
:101772008FC024F036EC1BF0D8B0C2EF0BF0C4EFF0
:101782000BF02EEF0CF08CC01DF08DC01EF08EC041
:101792001FF08FC020F0660E216E660E226E660E5E
:1017A200236E3F0E246E36EC1BF0D8B0DBEF0BF04D
:1017B200DDEF0BF02EEF0CF0CD0E1D6ECC0E1E6E7B
:1017C2004C0E1F6E3F0E206E90C021F091C022F091
:1017D20092C023F093C024F036EC1BF0D8B0F4EFA3
:1017E2000BF0F6EF0BF02EEF0CF090C01DF091C055
:1017F2001EF092C01FF093C020F0330E216E330E04
:10180200226E730E236E3F0E246E36EC1BF0D8B0A0
:101812000DEF0CF00FEF0CF02EEF0CF02A0E4F6EC6
:101822008E0EE82EFED74F2EFCD768C024F069C07A
:1018320025F06AC026F06BC027F07DEC1EF02A0E60
:101842004F6E8E0EE82EFED74F2EFCD7000E0001F3
:101852007F6F050E7E6F00EF0DF0660E1D6E660E39
:101862001E6EA60E1F6E3F0E206E88C021F089C02C
:1018720022F08AC023F08BC024F036EC1BF0D8B0E3
:1018820045EF0CF047EF0CF098EF0CF0000E1D6ED8
:10189200000E1E6E000E1F6E3F0E206E8CC021F0D9
:1018A2008DC022F08EC023F08FC024F036EC1BF0E6
:1018B200D8B05EEF0CF060EF0CF098EF0CF0000E79
:1018C2001D6E000E1E6E000E1F6E3F0E206E90C02B
:1018D20021F091C022F092C023F093C024F036ECA4
:1018E2001BF0D8B077EF0CF079EF0CF098EF0CF01A
:1018F2002A0E4F6E8E0EE82EFED74F2EFCD768C0F2
:101902001EF069C01FF06AC020F06BC021F0BBEC72
:1019120018F02A0E4F6E8E0EE82EFED74F2EFCD7F1
:10192200000E00017F6F060E7E6F00EF0DF088C083
:101932001DF089C01EF08AC01FF08BC020F0330E4C
:10194200216E330E226E330E236E3F0E246E36EC62
:101952001BF0D8B0AFEF0CF0B1EF0CF000EF0DF0D0
:10196200000E1D6E000E1E6E800E1F6E3F0E206E4C
:101972008CC021F08DC022F08EC023F08FC024F0E5
:1019820036EC1BF0D8B0C8EF0CF0CAEF0CF000EF49
:101992000DF0000E1D6E000E1E6E800E1F6E3F0EAD
:1019A200206E90C021F091C022F092C023F093C02B
:1019B20024F036EC1BF0D8B0E1EF0CF0E3EF0CF0C2
:1019C20000EF0DF02A0E4F6E8E0EE82EFED74F2E30
:1019D200FCD768C01EF069C01FF06AC020F06BC05F
:1019E20021F098EC1AF02A0E4F6E8E0EE82EFED7DA
:1019F2004F2EFCD7000E00017F6F070E7E6F7EC058
:101A020060F07FC061F012000850800B116E085028
:101A12000824136E07AE10EF0DF012EF0DF013EF66
:101A22000DF013801350D8B419EF0DF01BEF0DF029
:101A320030EF0DF01328D8A421EF0DF023EF0DF0B5
:101A42002BEF0DF0000E056E000E066E000E076EF7
:101A5200000E086E078E000E086E38EF0DF0000EB5
:101A6200056E000E066E000E076E000E086E0C501C
:101A7200800B126E11501218D8B442EF0DF044EFE1
:101A82000DF045EF0DF0118C0C500C24126E0BAEC4
:101A92004DEF0DF04FEF0DF050EF0DF012801250A0
:101AA200D8B456EF0DF058EF0DF06DEF0DF012288F
:101AB200D8A45EEF0DF060EF0DF068EF0DF0000EB0
:101AC200096E000E0A6E000E0B6E000E0C6E0B8E6F
:101AD200000E0C6E75EF0DF0000E096E000E0A6E10
:101AE200000E0B6E000E0C6E1350125CD8B07CEF21
:101AF2000DF07EEF0DF0A5EF0DF011AC83EF0DF0C0
:101B020085EF0DF087EF0DF0800E111A13C014F05F
:101B120012C013F014C012F005C014F009C005F091
:101B220014C009F006C014F00AC006F014C00AF08E
:101B320007C014F00BC007F014C00BF008C014F07B
:101B42000CC008F014C00CF0000E146E135012C03A
:101B52000DF00E6A0D5E000E0E5A0EBEBAEF0DF0BB
:101B62000E5009E11A0E0D5CD8A0BAEF0DF0BCEFD1
:101B72000DF0F3EF0DF00550061007100810D8A471
:101B8200C5EF0DF0C8EF0DF0010EC9EF0DF0000E1C
:101B9200146E000E056E000E066E000E076E000E2D
:101BA200086E12C013F0FCEF0DF014A0DBEF0DF085
:101BB200DDEF0DF0E3EF0DF0D89014300109146E53
:101BC200E5EF0DF0D890143205A0EAEF0DF0ECEF3E
:101BD2000DF0EDEF0DF0148E0834083207320632A4
:101BE2000532132A1250135CD8A0FAEF0DF0FCEF65
:101BF2000DF0D6EF0DF011BC01EF0EF003EF0EF079
:101C020043EF0EF01350D8A409EF0EF00BEF0EF0D5
:101C120015EF0EF0000E056E000E066E000E076E3A
:101C2200000E086E64EF0FF0095005260A500622D6
:101C32000B5007220C50082208A022EF0EF024EFCE
:101C42000EF0D0EF0EF014A029EF0EF02BEF0EF0F5
:101C520031EF0EF0D89014300109146E33EF0EF00C
:101C6200D890143205A038EF0EF03AEF0EF03BEFA9
:101C72000EF0148E08340832073206320532132A67
:101C8200D0EF0EF00950055C0A5006580B50075869
:101C92000850800A0D6E0C50800A0D58D8B054EFCF
:101CA2000EF056EF0EF081EF0EF00550095C0D6E4E
:101CB20006500A580E6E07500B580F6E08500C58FB
:101CC200106EFF0E0D24056EFF0E0E20066EFF0E27
:101CD2000F20076EFF0E1020086E800E111A146C72
:101CE2001450D8A477EF0EF079EF0EF089EF0EF0D2
:101CF200010E0526000E06220722082289EF0EF0A9
:101D02000950055E0A50065A0B50075A0C50085AE1
:101D12000550061007100810D8A492EF0EF094EFA9
:101D22000EF0C9EF0EF01450D8A49AEF0EF09CEF0B
:101D32000EF0C9EF0EF0000E056E000E066E000EDC
:101D4200076E000E086E64EF0FF0D8900536063667
:101D52000736083614AEB0EF0EF0B2EF0EF0B3EF66
:101D62000EF0058014A0B8EF0EF0BAEF0EF0BEEF41
:101D72000EF0D8801436C0EF0EF0D89014361350FF
:101D8200D8B4C6EF0EF0C8EF0EF0C9EF0EF013068E
:101D920007AECEEF0EF0D0EF0EF0A6EF0EF0000E73
:101DA200126E14AED7EF0EF0D9EF0EF0F1EF0EF087
:101DB20014C00DF07F0E0D16D8B4E2EF0EF0E4EF72
:101DC2000EF0E8EF0EF0010E126EF1EF0EF005A02C
:101DD200EDEF0EF0EFEF0EF0F1EF0EF0E4EF0EF09C
:101DE2001250D8B4F7EF0EF0F9EF0EF024EF0FF027
:101DF200010E0526000E06220722082208A004EF83
:101E02000FF006EF0FF024EF0FF005C00DF006C043
:101E12000EF007C00FF008C010F0103410320F326D
:101E22000E320D320DC005F00EC006F00FC007F0E5
:101E320010C008F01328D8B421EF0FF023EF0FF0F1
:101E420024EF0FF0132A1328D8B42AEF0FF02CEF47
:101E52000FF034EF0FF01350D8A432EF0FF034EF3D
:101E62000FF046EF0FF0000E056E000E066E000E2C
:101E7200076E000E086E1350D8A442EF0FF044EF25
:101E82000FF046EF0FF0000E116E13A04BEF0FF0A4
:101E92004DEF0FF050EF0FF0078E51EF0FF0079E4E
:101EA200D8901330086E11AE59EF0FF05BEF0FF0C0
:101EB2005CEF0FF0088E05C005F006C006F007C003
:101EC20007F008C008F012002050800B296E205045
:101ED20020242F6E1FAE70EF0FF072EF0FF073EF32
:101EE2000FF02F802F50D8B479EF0FF07BEF0FF067
:101EF2008EEF0FF02F28D8A481EF0FF083EF0FF0B1
:101F02008BEF0FF0000E1D6E000E1E6E000E1F6E88
:101F1200000E206E1F8E96EF0FF0000E1D6E000E4B
:101F22001E6E000E1F6E000E206E2450800B291AAA
:101F3200245024242E6E23AEA1EF0FF0A3EF0FF056
:101F4200A4EF0FF02E802E50D8B4AAEF0FF0ACEF12
:101F52000FF0BFEF0FF02E28D8A4B2EF0FF0B4EFBE
:101F62000FF0BCEF0FF0000E216E000E226E000E7D
:101F7200236E000E246E238EC7EF0FF0000E216E2B
:101F8200000E226E000E236E000E246E2E50D8B468
:101F9200CDEF0FF0CFEF0FF0D7EF0FF02F50D8A407
:101FA200D5EF0FF0D7EF0FF0E1EF0FF0000E1D6E3F
:101FB200000E1E6E000E1F6E000E206E79EF11F0E5
:101FC20023501D02F3CF34F0F4CF35F034502A6E93
:101FD2002B6A2C6A2D6A3550306E316A326A336A46
:101FE20022501E02F3CF34F0F4CF35F034502A26BB
:101FF200000E2B222C222D2235503026000E3122AB
:102002003222332221501F02F3CF34F0F4CF35F0C5
:1020120034502A26000E2B222C222D223550302617
:10202200000E3122322233222CC02DF02BC02CF094
:102032002AC02BF02A6A21501E02F3CF34F0F4CFCB
:1020420035F034502A2635502B22000E2C22000E59
:102052002D2222501D02F3CF34F0F4CF35F034504C
:102062002A2635502B22000E2C22000E2D222CC0A7
:102072002DF02BC02CF02AC02BF02A6A21501D0211
:10208200F3CF34F0F4CF35F034502A2635502B22DA
:10209200000E2C22000E2D2223501E02F3CF34F00C
:1020A200F4CF35F03450302635503122000E322232
:1020B200000E332222501F02F3CF34F0F4CF35F05A
:1020C2003450302635503122000E3222000E332297
:1020D20023501F02F3CF34F0F4CF35F03450256E85
:1020E2003550266E276A286A27C028F026C027F0B6
:1020F20025C026F0256A2550302626503122275049
:102102003222285033222AC025F02BC026F02CC0C0
:1021120027F02DC028F0190E94EF10F0D890283235
:10212200273226322532E82E8FEF10F02550302646
:102132002650312227503222285033222CC02DF033
:102142002BC02CF02AC02BF02A6A2E502FC025F06B
:10215200266A2526000E2622820E2524346EFF0EC4
:102162002620356ECAEF10F0D8903036313632362E
:1021720033362DAEBFEF10F0C1EF10F0C2EF10F00A
:102182003080D8902A362B362C362D363406D8A0FD
:10219200350632AECFEF10F0D1EF10F0B5EF10F000
:1021A200000E2E6E2DAED8EF10F0DAEF10F0FEEF2B
:1021B20010F0FF0E2A14256EFF0E2B14266EFF0E52
:1021C2002C14276E7F0E2D14286E255026102710F2
:1021D2002810D8B4EFEF10F0F1EF10F0F5EF10F097
:1021E200010E2E6EFEEF10F030A0FAEF10F0FCEFB1
:1021F20010F0FEEF10F0F1EF10F02E50D8B404EF13
:1022020011F006EF11F02AEF11F0010E3026000E48
:1022120031223222332233A011EF11F013EF11F0E9
:102222002AEF11F030C025F031C026F032C027F07D
:1022320033C028F02834283227322632253225C0EE
:1022420030F026C031F027C032F028C033F0344AD3
:10225200352A35BE35EF11F0355008E13428D8A0C3
:1022620035EF11F037EF11F041EF11F0000E306E43
:10227200000E316E800E326E7F0E336E6FEF11F0F4
:1022820035BE4EEF11F0355006E13404D8B04CEFB4
:1022920011F04EEF11F05AEF11F0000E306E000EF9
:1022A200316E000E326E000E336E000E296E6FEF2D
:1022B20011F034C02FF0FF0E3016FF0E31167F0ED4
:1022C2003216000E33162FA069EF11F06BEF11F0EA
:1022D2006CEF11F0328ED8902F30336E29503312BA
:1022E20030C01DF031C01EF032C01FF033C020F0EC
:1022F200120082EC20F09CEC20F0000E066EC70E5D
:10230200056EC8EC1EF07C9E849E809688967C9812
:102312008498809088907E908690809288927C9615
:1023220084967C887E8080807E807C867F807D8E85
:1023320079868790859E819686840E01B4958686DD
:10234200B497000E0001A86FC40E056E000E066E53
:10235200BB0E076E000E086E72EC1DF0000E00013F
:10236200B26F000EB16F000E996F000E986FA90E3A
:10237200126E000E136E2AEC1CF0A00E106E000EF0
:10238200116E4AEC1FF08EA6C9EF11F0CCEF11F0DE
:10239200010ECDEF11F0000E516E8EA4D3EF11F0AD
:1023A200D6EF11F0010ED7EF11F0000E5114E8A094
:1023B200DDEF11F0DFEF11F0FBEF11F07C8E808684
:1023C200290E526E960E516E7F0EE82EFED7512EBA
:1023D200FCD7522EFAD700F07C9E80960001A851BD
:1023E200D8B4F6EF11F0F9EF11F0010EFAEF11F097
:1023F200000EA86F8EA400EF12F003EF12F0010E90
:1024020004EF12F0000E516E526A8EB60BEF12F00C
:102412000FEF12F0536A532A10EF12F0536A53501F
:102422005116000E521651505210D8B41BEF12F032
:102432001DEF12F023EF12F0A90E126E000E136EB2
:102442002AEC1CF08EA628EF12F02BEF12F0010EF0
:102452002CEF12F0000E516E526A8EB433EF12F06E
:1024620037EF12F0536A532A38EF12F0536A53507F
:102472005116000E521651505210D8B443EF12F0BA
:1024820045EF12F04BEF12F0B30E126E000E136E08
:10249200B8EC1BF080A650EF12F054EF12F0516A24
:1024A200512A55EF12F0516A514651465146805019
:1024B2005118F70B5118806EB9C005F0BAC006F07A
:1024C200076A086A000E6EEC16F005C094F006C0AA
:1024D20095F007C096F008C097F0A6C005F0A7C017
:1024E20006F0076A086A000E6EEC16F005C036F0B8
:1024F20006C037F007C038F008C039F094C03AF08F
:1025020095C03BF096C03CF097C03DF08EEC13F0C6
:1025120036C09AF037C09BF038C09CF039C09DF0AD
:102522008F0E1D6EC20E1E6EF50E1F6E3D0E206EBC
:102532009AC021F09BC022F09CC023F09DC024F0E1
:1025420036EC1BF0D8A0A8EF12F0ABEF12F0010EA0
:10255200ACEF12F0000E516E526A0001A8515116F2
:10256200000E521651505210D8B4BAEF12F0BCEF0E
:1025720012F04CEF13F0D890B135D96EB235DA6E55
:10258200000ED926010EDA22000EDE6E000EDD6E7E
:10259200D890B135D96EB235DA6E000ED926020E58
:1025A200DA2298C0DEFF99C0DDFFB14BB22B000EDC
:1025B200996F000E986F9AC060F09BC061F09CC04A
:1025C20062F09DC063F0A90E646F000E656FB30EDA
:1025D200666F000E676FC40E686F000E696FBB0EE8
:1025E2006A6F000E6B6F09EC07F060C09EF061C06D
:1025F2009FF0080E00019E199F11D8A403EF13F05B
:1026020005EF13F022EF13F07C8E8086000E246E0D
:10261200010E256E000E266E020E276EB1C028F046
:10262200B2C029F0C40E2A6E000E2B6EBB0E2C6EA9
:10263200000E2D6E48EC17F0000E0001A86F3EEF61
:1026420013F0D890B135D96EB235DA6E000ED926B4
:10265200010EDA229EC0DEFF9FC0DDFFD890B135A9
:10266200D96EB235DA6E000ED926020EDA22010ECA
:10267200DE6E000EDD6E20EF13F0B14BB22B290E91
:10268200526E960E516E7F0EE82EFED7512EFCD75B
:10269200522EFAD700F00001A851D8B453EF13F02C
:1026A20055EF13F074EF13F0C40E186E000E196E8E
:1026B200BB0E1A6E000E1B6E9CEC1CF07CA864EF25
:1026C20013F068EF13F0516A512A69EF13F0516A5F
:1026D200513A7C505118EF0B51187C6E0001984B07
:1026E200992B7EEF13F0C40E186E000E196EBB0EFE
:1026F2001A6E000E1B6EDBEC1DF0050E526E0F0EF5
:10270200516EF10EE82EFED7512EFCD7522EFAD77B
:1027120000F0BEEF11F03BEF00F03950800B466E37
:10272200395039244D6E38AE99EF13F09BEF13F008
:102732009CEF13F04D804D50D8B4A2EF13F0A4EFEC
:1027420013F0B9EF13F04D28D8A4AAEF13F0ACEFB1
:1027520013F0B4EF13F0000E366E000E376E000E5B
:10276200386E000E396E388E000E396EC1EF13F0DE
:10277200000E366E000E376E000E386E000E396E89
:102782003D50800B461A3D503D244E6E3CAECCEF80
:1027920013F0CEEF13F0CFEF13F04E804E50D8B4BB
:1027A200D5EF13F0D7EF13F0ECEF13F04E28D8A4C7
:1027B200DDEF13F0DFEF13F0E7EF13F0000E3A6EE8
:1027C200000E3B6E000E3C6E000E3D6E3C8E000E07
:1027D2003D6EF4EF13F0000E3A6E000E3B6E000EEB
:1027E2003C6E000E3D6E3A503B103C103D10D8A49A
:1027F200FDEF13F0FFEF13F017EF14F0000E366E3B
:10280200000E376E000E386E000E396E800E3812D2
:102812007F0E39124650391236C036F037C037F0C3
:1028220038C038F039C039F05AEF15F04D50D8A4FD
:102832001DEF14F01FEF14F029EF14F0000E366EA6
:10284200000E376E000E386E000E396E5AEF15F01C
:102852004E504DC03EF03F6A3E5E000E3F5A7F0E24
:102862003E24476E000E3F20486E36C042F037C00D
:1028720043F038C044F039C045F0000E366E000E09
:10288200376E000E386E000E396E000E496E000E65
:102892004A6E000E4B6E000E4C6E000E4E6E8AEFAC
:1028A20014F04E50D8B458EF14F05AEF14F071EF00
:1028B20014F0D8904236433644364536D8903636F0
:1028C2003736383639364CAE69EF14F06BEF14F008
:1028D2006CEF14F03680D89049364A364B364C3677
:1028E2003A50425C3B5043583C5044583D50455846
:1028F200D8A07EEF14F080EF14F089EF14F04C8C26
:102902003A50425E3B50435A3C50445A3D50455A1D
:102912004E2A190E4E6490EF14F092EF14F052EF1B
:1029220014F04250431044104510D8B49BEF14F0F9
:102932009DEF14F0B5EF14F04980B5EF14F0D89084
:1029420036363736383639364CAEAAEF14F0ACEF9D
:1029520014F0ADEF14F03680D89049364A364B3633
:102962004C364706D8A0480638AEBAEF14F0BCEF92
:1029720014F0A0EF14F0000E4E6E4CAEC3EF14F044
:10298200C5EF14F0E9EF14F0FF0E49143E6EFF0E8E
:102992004A143F6EFF0E4B14406E7F0E4C14416E74
:1029A2003E503F1040104110D8B4DAEF14F0DCEF83
:1029B20014F0E0EF14F0010E4E6EE9EF14F036A0C1
:1029C200E5EF14F0E7EF14F0E9EF14F0DCEF14F0A8
:1029D2004E50D8B4EFEF14F0F1EF14F015EF15F0FC
:1029E200010E3626000E37223822392239A0FCEF9A
:1029F20014F0FEEF14F015EF15F036C03EF037C0BC
:102A02003FF038C040F039C041F0413441324032E9
:102A12003F323E323EC036F03FC037F040C038F061
:102A220041C039F0474A482A48BE20EF15F04850C5
:102A320008E14728D8A020EF15F022EF15F02DEF7E
:102A420015F0000E486E4768000E366E000E376EA7
:102A5200000E386E000E396E48BE3AEF15F048503F
:102A620006E14704D8B038EF15F03AEF15F048EF19
:102A720015F0000E486E000E476E000E366E000E08
:102A8200376E000E386E000E396E000E466E47C06D
:102A92004DF04DA04FEF15F051EF15F054EF15F03A
:102AA200388E55EF15F0389ED8904D30396E0BEFB9
:102AB20014F012001EC018F01FC019F020C01AF046
:102AC20021C01BF0DBEC1DF0090E236E1E0E226EE0
:102AD200E40EE82EFED7222EFCD7232EFAD700D002
:102AE2001EC018F01FC019F020C01AF021C01BF040
:102AF20007EC1DF0390E236ED20E226E4C0EE82E1C
:102B0200FED7222EFCD7232EFAD700D01EC018F0F3
:102B12001FC019F020C01AF021C01BF0DBEC1DF021
:102B220020EE01F01E50D9261F50DA22010EDF6E70
:102B320020EE01F02050D9262150DA22000EDF6E5D
:102B420020EE02F01E50D9261F50DA22010EDF6E4F
:102B520020EE02F01E50D9261F50DA22010EDF6E3F
:102B6200CBEF15F01EC0D9FF1FC0DAFF0A0EDF2619
:102B720020C0D9FF21C0DAFF0A0EDF261EC012F0E4
:102B82001FC013F005EC18F020C012F021C013F0A2
:102B920005EC18F01EC0D9FF1FC0DAFF4F0EDF642C
:102BA200D5EF15F0D7EF15F0B3EF15F020C0D9FF30
:102BB20021C0DAFF4F0EDF64E1EF15F0E3EF15F00D
:102BC200B3EF15F0100E236E2E0E226EAA0EE82E13
:102BD200FED7222EFCD7232EFAD700D01EC018F023
:102BE2001FC019F020C01AF021C01BF0DBEC1DF051
:102BF200090E236E1E0E226EE40EE82EFED7222E42
:102C0200FCD7232EFAD700D020EE01F01E50D92691
:102C12001F50DA22010EDF6E20EE01F02050D9267D
:102C22002150DA22000EDF6E20EE02F01E50D9266D
:102C32001F50DA22010EDF6E20EE02F01E50D9265E
:102C42001F50DA22010EDF6E3FEF16F01EC0D9FFD1
:102C52001FC0DAFF0A0EDF2620C0D9FF21C0DAFF2B
:102C62000A0EDF261EC012F01FC013F005EC18F08A
:102C720020C012F021C013F005EC18F01EC0D9FFDD
:102C82001FC0DAFF4F0EDF6449EF16F04BEF16F06C
:102C920027EF16F020C0D9FF21C0DAFF4F0EDF6404
:102CA20055EF16F057EF16F027EF16F0100E236EC1
:102CB2002E0E226EAA0EE82EFED7222EFCD7232E2F
:102CC200FAD700D01EC018F01FC019F020C01AF0A9
:102CD20021C01BF0DBEC1DF012000D6E0D50D8B4BC
:102CE20075EF16F077EF16F099EF16F008BE7EEF4B
:102CF20016F07CEF16F099EF16F005C009F006C049
:102D02000AF007C00BF008C00CF0091E0A1E0B1EC9
:102D12000C1E092A000E0A220B220C2209C00FF0F7
:102D22000AC010F00BC011F00CC012F0A1EF16F0A7
:102D320005C00FF006C010F007C011F008C012F075
:102D42000550061007100810D8A4AAEF16F0ACEF31
:102D520016F0B6EF16F0000E056E000E066E000EAF
:102D6200076E000E086E47EF17F0960E0E6EC0EF5C
:102D720016F00E2AD8901232113210320F32000E93
:102D82000F14096E000E10140A6E000E11140B6E51
:102D9200FE0E12140C6E09500A100B100C10D8A45F
:102DA200D5EF16F0D7EF16F0BAEF16F0E5EF16F002
:102DB2000E2A010E0F26000E102211221222D89086
:102DC2001232113210320F32000E0F14096E000E41
:102DD20010140A6E000E11140B6EFF0E12140C6EFC
:102DE20009500A100B100C10D8A4FAEF16F0FCEFE1
:102DF20016F0D9EF16F004EF17F00E06D8900F3642
:102E020010361136123611BE09EF17F00BEF17F01C
:102E120013EF17F0020E0E6011EF17F013EF17F019
:102E2200FEEF16F00EB018EF17F01AEF17F01BEFC7
:102E320017F0119ED8900E320EC009F00A6A0B6A82
:102E42000C6A09C00CF00B6A0A6A096A09500F126F
:102E52000A5010120B5011120C5012120D50D8B40D
:102E620035EF17F037EF17F03FEF17F008BE3EEFE0
:102E720017F03CEF17F03FEF17F0128E0FC005F07E
:102E820010C006F011C007F012C008F0120028C0EE
:102E920032F029C033F033BE53EF17F051EF17F081
:102EA200C8EF17F004EF18F02AC01EF02BC01FF075
:102EB2002CC020F02DC021F0F9EC19F0FFEF17F033
:102EC2002AC01EF02BC01FF02CC020F02DC021F014
:102ED2005AEC19F0FFEF17F02AC01EF02BC01FF0BA
:102EE2002CC020F02DC021F05BEC15F0FFEF17F0A5
:102EF2002AC01EF02BC01FF02CC020F02DC021F0E4
:102F020098EC1AF0FFEF17F02AC01EF02BC01FF04A
:102F12002CC020F02DC021F0BBEC18F0FFEF17F011
:102F22002AC018F02BC019F02CC01AF02DC01BF0CB
:102F32009CEC1CF0D8903234D96E3334DA6E2650C1
:102F4200D9262750DA22DECF30F0DDCF31F0B9EFCB
:102F520017F03006D8A03106050E2F6E0F0E2E6E1A
:102F6200F10EE82EFED72E2EFCD72F2EFAD700F028
:102F720031BEC6EF17F0315006E13004D8B0C4EFCD
:102F820017F0C6EF17F0AAEF17F0FFEF17F0D8907F
:102F92003234D96E3334DA6E2450D9262550DA22EF
:102FA200DECF2EF0DDCF2FF02F50000AD8B4DCEFA9
:102FB20017F0FFEF17F02E50000AD8B491EF17F078
:102FC200010AD8B455EF17F0030AD8B461EF17F02D
:102FD200010AD8B46DEF17F0070AD8B455EF17F00D
:102FE200010AD8B461EF17F0030AD8B479EF17F0E9
:102FF200010AD8B485EF17F0FFEF17F03206D8A018
:1030020033064CEF17F0120020EE02F01250D926D0
:103012001350DA22DF50D8B411EF18F013EF18F082
:1030220047EF18F012C0D9FF13C0DAFFDF50146E59
:103032001450056E066A20EE03F01250D926135082
:10304200DA22DECF07F0DDCF08F007EC21F005C071
:103052000BF006C00CF0000E0E6E640E0D6E10EC3E
:103062001FF020EE03F01250D9261350DA22DF505F
:10307200156E0B50155C166E20EE03F01250D92619
:103082001350DA22DF50176E6AEF18F0000E166E38
:1030920012C0D9FF13C0DAFFDF50146E1450056E50
:1030A200066A20EE03F01250D9261350DA22DECF40
:1030B20007F0DDCF08F007EC21F005C00BF006C0E9
:1030C2000CF0000E0E6E640E0D6E10EC1FF00B5025
:1030D200176E20EE01F01250D9261350DA22DF507B
:1030E200D8B476EF18F078EF18F09AEF18F020EED7
:1030F20005F01250D9261350DA22DECF14F0DDCFBC
:1031020015F014C0D9FF15C0DAFF16C0DFFF20EE9C
:1031120007F01250D9261350DA22DECF14F0DDCF99
:1031220015F014C0D9FF15C0DAFF17C0DFFFBAEFE0
:1031320018F020EE05F01250D9261350DA22DECF15
:1031420014F0DDCF15F014C0D9FF15C0DAFF17C097
:10315200DFFF20EE07F01250D9261350DA22DECF1D
:1031620014F0DDCF15F014C0D9FF15C0DAFF16C078
:10317200DFFF12001EC018F01FC019F020C01AF0A5
:1031820021C01BF0DBEC1DF0090E236E1E0E226E19
:10319200E40EE82EFED7222EFCD7232EFAD700D03B
:1031A2001EC018F01FC019F020C01AF021C01BF079
:1031B20007EC1DF0390E236ED20E226E4C0EE82E55
:1031C200FED7222EFCD7232EFAD700D01EC018F02D
:1031D2001FC019F020C01AF021C01BF0DBEC1DF05B
:1031E20020EE01F01E50D9261F50DA22010EDF6EAA
:1031F20020EE01F02050D9262150DA22000EDF6E97
:1032020020EE02F01E50D9261F50DA22010EDF6E88
:1032120020EE02F01E50D9261F50DA22010EDF6E78
:103222002BEF19F01EC0D9FF1FC0DAFF0A0EDF26EE
:1032320020C0D9FF21C0DAFF0A0EDF261EC012F01D
:103242001FC013F005EC18F020C012F021C013F0DB
:1032520005EC18F01EC0D9FF1FC0DAFF4F0EDF6465
:1032620035EF19F037EF19F013EF19F020C0D9FF3D
:1032720021C0DAFF4F0EDF6441EF19F043EF19F07E
:1032820013EF19F0170E236EC50E226E810EE82E73
:10329200FED7222EFCD7232EFAD700F01EC018F03C
:1032A2001FC019F020C01AF021C01BF0DBEC1DF08A
:1032B20012001EC018F01FC019F020C01AF021C061
:1032C2001BF0DBEC1DF0090E236E1E0E226EE40EC7
:1032D200E82EFED7222EFCD7232EFAD700D01EC00E
:1032E20018F01FC019F020C01AF021C01BF007EC23
:1032F2001DF0390E236ED20E226E4C0EE82EFED732
:10330200222EFCD7232EFAD700D01EC018F01FC0E1
:1033120019F020C01AF021C01BF0DBEC1DF020EEEA
:1033220001F01E50D9261F50DA22010EDF6E20EE68
:1033320001F02050D9262150DA22000EDF6E20EE55
:1033420002F01E50D9261F50DA22010EDF6E20EE47
:1033520002F01E50D9261F50DA22010EDF6ECAEF8C
:1033620019F01EC0D9FF1FC0DAFF0A0EDF2620C0E7
:10337200D9FF21C0DAFF0A0EDF261EC012F01FC0DD
:1033820013F005EC18F020C012F021C013F005EC88
:1033920018F01EC0D9FF1FC0DAFF4F0EDF64D4EF52
:1033A20019F0D6EF19F0B2EF19F020C0D9FF21C001
:1033B200DAFF4F0EDF64E0EF19F0E2EF19F0B2EF3F
:1033C20019F0100E236E2E0E226EAA0EE82EFED7D4
:1033D200222EFCD7232EFAD700D01EC018F01FC011
:1033E20019F020C01AF021C01BF0DBEC1DF0120016
:1033F2001EC018F01FC019F020C01AF021C01BF027
:10340200DBEC1DF0090E236E1E0E226EE40EE82E7A
:10341200FED7222EFCD7232EFAD700D01EC018F0DA
:103422001FC019F020C01AF021C01BF007EC1DF0DC
:10343200390E236ED20E226E4C0EE82EFED7222EAD
:10344200FCD7232EFAD700D01EC018F01FC019F0E7
:1034520020C01AF021C01BF0DBEC1DF020EE01F0C1
:103462001E50D9261F50DA22000EDF6E20EE01F028
:103472002050D9262150DA22010EDF6E20EE02F012
:103482001E50D9261F50DA22010EDF6E20EE02F006
:103492001E50D9261F50DA22010EDF6E69EF1AF094
:1034A2001EC0D9FF1FC0DAFF0A0EDF2620C0D9FFD7
:1034B20021C0DAFF0A0EDF261EC012F01FC013F071
:1034C20005EC18F020C012F021C013F005EC18F042
:1034D2001EC0D9FF1FC0DAFF4F0EDF6473EF1AF070
:1034E20075EF1AF051EF1AF020C0D9FF21C0DAFFB0
:1034F2004F0EDF647FEF1AF081EF1AF051EF1AF0EE
:10350200100E236E2E0E226EAA0EE82EFED7222E4B
:10351200FCD7232EFAD700D01EC018F01FC019F016
:1035220020C01AF021C01BF0DBEC1DF012001EC0FF
:1035320018F01FC019F020C01AF021C01BF0DBECFC
:103542001DF0090E236E1E0E226EE40EE82EFED72B
:10355200222EFCD7232EFAD700D01EC018F01FC08F
:1035620019F020C01AF021C01BF007EC1DF0390E33
:10357200236ED20E226E4C0EE82EFED7222EFCD7E0
:10358200232EFAD700D01EC018F01FC019F020C099
:103592001AF021C01BF0DBEC1DF020EE01F01E50F2
:1035A200D9261F50DA22000EDF6E20EE01F02050E5
:1035B200D9262150DA22010EDF6E20EE02F01E50D3
:1035C200D9261F50DA22010EDF6E20EE02F01E50C5
:1035D200D9261F50DA22010EDF6E08EF1BF01EC043
:1035E200D9FF1FC0DAFF0A0EDF2620C0D9FF21C093
:1035F200DAFF0A0EDF261EC012F01FC013F005EC20
:1036020018F020C012F021C013F005EC18F01EC013
:10361200D9FF1FC0DAFF4F0EDF6412EF1BF014EF69
:103622001BF0F0EF1AF020C0D9FF21C0DAFF4F0ED5
:10363200DF641EEF1BF020EF1BF0F0EF1AF02E0EEE
:10364200236E8A0E226E040EE82EFED7222EFCD79F
:10365200232EFAD71EC018F01FC019F020C01AF08E
:1036620021C01BF0DBEC1DF01200000E1D14256EB4
:10367200000E1E14266E800E1F14276E7F0E20145D
:10368200286E2550261027102810D8A44BEF1BF0C7
:103692004DEF1BF055EF1BF0000E1D6E000E1E6E5F
:1036A200000E1F6E000E206E000E2114256E000EFD
:1036B2002214266E800E2314276E7F0E2414286E89
:1036C2002550261027102810D8A46AEF1BF06CEFA3
:1036D2001BF074EF1BF0000E216E000E226E000E26
:1036E200236E000E246E20AE79EF1BF07BEF1BF0F1
:1036F20084EF1BF01D6C1E1ED8B01E2A1F1ED8B0F0
:103702001F2A800E205624AE89EF1BF08BEF1BF090
:1037120094EF1BF0216C221ED8B0222A231ED8B0AF
:10372200232A800E2456000E1D1A000E1E1A000EA9
:103732001F1A800E201A000E211A000E221A000EE5
:10374200231A800E241A21501D5C22501E58235029
:103752001F5824502058D8B0B1EF1BF0B3EF1BF024
:10376200B6EF1BF0D890B7EF1BF0D8801200000E16
:10377200176E000E166E7CAEC1EF1BF0C5EF1BF08C
:10378200146A142AC6EF1BF0146A143214327C50E5
:1037920014187F0B14187C6E090E156E1E0E146E13
:1037A200E40EE82EFED7142EFCD7152EFAD700D041
:1037B200164A172A17BEE7EF1BF0175009E1140E3D
:1037C200165CD8A0E7EF1BF0E9EF1BF0BCEF1BF093
:1037D2007CAEEEEF1BF0F2EF1BF0146A142AF3EF4B
:1037E2001BF0146A143214327C5014187F0B141814
:1037F2007C6E290E156E960E146E7F0EE82EFED785
:10380200142EFCD7152EFAD700F012C010F013C0F8
:1038120011F04AEC1FF0290E156E960E146E7F0EF3
:10382200E82EFED7142EFCD7152EFAD700F07CAE68
:103832001DEF1CF021EF1CF0146A142A22EF1CF079
:10384200146A143214327C5014187F0B14187C6ED4
:103852001200000E176E000E166E7CAE33EF1CF0D7
:1038620037EF1CF0146A142A38EF1CF0146A143271
:1038720014327C5014187F0B14187C6E090E156ECE
:103882001E0E146EE40EE82EFED7142EFCD7152E53
:10389200FAD700D0164A172A17BE59EF1CF0175054
:1038A20009E1140E165CD8A059EF1CF05BEF1CF076
:1038B2002EEF1CF07CAE60EF1CF064EF1CF0146A7B
:1038C200142A65EF1CF0146A143214327C50141856
:1038D2007F0B14187C6E290E156E960E146E7F0ED9
:1038E200E82EFED7142EFCD7152EFAD700F012C000
:1038F20010F013C011F04AEC1FF0290E156E960E4F
:10390200146E7F0EE82EFED7142EFCD7152EFAD792
:1039120000F07CAE8FEF1CF093EF1CF0146A142AB7
:1039220094EF1CF0146A143214327C5014187F0B7A
:1039320014187C6E120020EE01F01850D92619508E
:10394200DA22010EDF6E20EE01F01A50D9261B504A
:10395200DA22010EDF6E20EE02F01850D92619503D
:10396200DA22010EDF6E20EE02F01850D92619502D
:10397200DA22010EDF6EE2EF1CF018C0D9FF19C087
:10398200DAFF280EDF60C8EF1CF0CAEF1CF0D0EFA0
:103992001CF018C0D9FF19C0DAFF050EDF261AC0C5
:1039A200D9FF1BC0DAFF280EDF60DAEF1CF0DCEF74
:1039B2001CF0E2EF1CF01AC0D9FF1BC0DAFF050EA3
:1039C200DF2618C0D9FF19C0DAFF280EDF60ECEF3E
:1039D2001CF0EEEF1CF0FAEF1CF01AC0D9FF1BC06E
:1039E200DAFF270EDF64F8EF1CF0FAEF1CF0BEEFEF
:1039F2001CF018C012F019C013F005EC18F01AC030
:103A020012F01BC013F005EC18F0120020EE01F0CA
:103A12001850D9261950DA22000EDF6E20EE01F07E
:103A22001A50D9261B50DA22000EDF6E20EE02F069
:103A32001850D9261950DA22010EDF6E20EE02F05C
:103A42001850D9261950DA22010EDF6E4DEF1DF003
:103A520018C0D9FF19C0DAFF190EDF6033EF1DF06D
:103A620035EF1DF03BEF1DF018C0D9FF19C0DAFF8A
:103A7200050EDF261AC0D9FF1BC0DAFF190EDF6060
:103A820045EF1DF047EF1DF04DEF1DF01AC0D9FFB5
:103A92001BC0DAFF050EDF2618C0D9FF19C0DAFFF6
:103AA200190EDF6057EF1DF059EF1DF065EF1DF0A5
:103AB2001AC0D9FF1BC0DAFF180EDF6463EF1DF0D6
:103AC20065EF1DF029EF1DF018C012F019C013F0B8
:103AD20005EC18F01AC012F01BC013F005EC18F038
:103AE200120005C0D9FF06C0DAFF000EDF6E20EE1D
:103AF20001F00550D9260650DA22010EDF6E20EEC3
:103B020002F00550D9260650DA22010EDF6E20EEB1
:103B120005F00550D9260650DA22AA0EDE6E0F0EE7
:103B2200DD6E20EE07F00550D9260650DA22A60EE9
:103B3200DE6E0F0EDD6E20EE03F00550D926065024
:103B4200DA22C70EDE6E000EDD6E07C0D9FF08C096
:103B5200DAFF000EDF6E20EE01F00750D926085082
:103B6200DA22010EDF6E20EE02F00750D92608504D
:103B7200DA22010EDF6E20EE05F00750D92608503A
:103B8200DA22250EDE6E0F0EDD6E20EE07F00750F4
:103B9200D9260850DA22210EDE6E0F0EDD6E20EEDF
:103BA20003F00750D9260850DA22C70EDE6E000E47
:103BB200DD6E12000DEF1EF018C0D9FF19C0DAFF3A
:103BC200DF50D8B4E7EF1DF0E9EF1DF0EFEF1DF085
:103BD20018C0D9FF19C0DAFF050EDF5E1AC0D9FF7F
:103BE2001BC0DAFFDF50D8B4F9EF1DF0FBEF1DF078
:103BF20001EF1EF01AC0D9FF1BC0DAFF050EDF5E0F
:103C020018C012F019C013F005EC18F01AC012F027
:103C12001BC013F005EC18F018C0D9FF19C0DAFF69
:103C2200DF50D8B417EF1EF019EF1EF025EF1EF08B
:103C32001AC0D9FF1BC0DAFFDF50D8A423EF1EF051
:103C420025EF1EF0DDEF1DF0090E1D6E1E0E1C6E1F
:103C5200E40EE82EFED71C2EFCD71D2EFAD700D07C
:103C6200120024C018F025C019F026C01AF027C08F
:103C72001BF007EC1DF0390E296ED20E286E4C0E89
:103C8200E82EFED7282EFCD7292EFAD700D024C042
:103C920018F025C019F026C01AF027C01BF0DBEC83
:103CA2001DF024C018F025C019F026C01AF027C054
:103CB2001BF007EC1DF0720E296EA30E286E9B0EF0
:103CC200E82EFED7282EFCD7292EFAD700F024C0E2
:103CD2001EF025C01FF026C020F027C021F05AECAC
:103CE20019F024C018F025C019F026C01AF027C018
:103CF2001BF0DBEC1DF0120024C018F025C019F0F7
:103D020026C01AF027C01BF007EC1DF0390E296EF1
:103D1200D20E286E4C0EE82EFED7282EFCD7292E66
:103D2200FAD700D024C018F025C019F026C01AF026
:103D320027C01BF0DBEC1DF024C018F025C019F0E1
:103D420026C01AF027C01BF007EC1DF0720E296E78
:103D5200A30E286E9B0EE82EFED7282EFCD7292E06
:103D6200FAD700F024C01EF025C01FF026C020F0B4
:103D720027C021F0F9EC19F024C018F025C019F081
:103D820026C01AF027C01BF0DBEC1DF012007D9458
:103D92007D987B9E7F9C85948598839E879C050E4B
:103DA2000E01746F060E766F070E696F080E886F2C
:103DB200BD508F0B3009BD6EE00EBE16BF50F00B2A
:103DC2000109BF6EC70EBC6EBD8E000EAA6E000E3C
:103DD200A66E000E0F01256F000E216FFC0EAD16B0
:103DE200F30EAD16CF0EAD163F0EAD16AB88AB502F
:103DF200F00B0C09AB6EAB8EA788A750F00B0C0929
:103E0200A76EA78E26892651F00B0C09266F268FE6
:103E120022892251F00B0C09226F228F1200000E10
:103E2200106E000E0F6E0D500E10D8B41BEF1FF067
:103E32001DEF1FF045EF1FF0010E116E25EF1FF071
:103E4200D8900D360E36112A0EAE2AEF1FF02CEF47
:103E52001FF021EF1FF0D8900F3610360D500B5C7B
:103E62000E500C58D8A038EF1FF03AEF1FF03FEF7A
:103E72001FF00D500B5E0E500C5A0F80D8900E3270
:103E82000D32112E2CEF1FF00FC00BF010C00CF0F2
:103E9200120079EC1FF010C0D9FF11C0DAFF09C07F
:103EA200DEFF0AC0DDFFA1EC1FF020EE02F0105091
:103EB200D9261150DA2209C0DEFF0AC0DDFFF1EC7B
:103EC2001FF020EE04F01050D9261150DA2209C05A
:103ED200DEFF0AC0DDFFC9EC1FF020EE06F0105035
:103EE200D9261150DA2209C0DEFF0AC0DDFF120016
:103EF20041EC21F0520E36EC21F0B60E36EC21F0F8
:103F020046EC21F0530E36EC21F0010E61EC20F06C
:103F12000B6E0B500E6E0F6A000E61EC20F00B6EF2
:103F22000B500D6E0C6A0E500C100E6E0F500D10D1
:103F32000F6E3CEC21F00EC009F00FC00AF0120027
:103F420041EC21F0520E36EC21F0B80E36EC21F0A5
:103F520046EC21F0530E36EC21F0010E61EC20F01C
:103F62000B6E0B500E6E0F6A000E61EC20F00B6EA2
:103F72000B500D6E0C6A0E500C100E6E0F500D1081
:103F82000F6E3CEC21F00EC009F00FC00AF01200D7
:103F920041EC21F0520E36EC21F0B40E36EC21F059
:103FA20046EC21F0530E36EC21F0010E61EC20F0CC
:103FB2000B6E0B500E6E0F6A000E61EC20F00B6E52
:103FC2000B500D6E0C6A0E500C100E6E0F500D1031
:103FD2000F6E3CEC21F00EC009F00FC00AF0120087
:103FE20041EC21F0520E36EC21F0BA0E36EC21F003
:103FF20046EC21F0530E36EC21F0010E61EC20F07C
:104002000B6E0B500E6E0F6A000E61EC20F00B6E01
:104012000B500D6E0C6A0E500C100E6E0F500D10E0
:104022000F6E3CEC21F00EC009F00FC00AF0120036
:10403200960EF66E420EF76E000EF86E00EEE5F08A
:1040420010EE04F00900F5CFEEFFE550E150FAE181
:1040520003EE00F03C0EEE6AE806FDE100EECDF064
:10406200180EEE6AE806FDE1576A566A556A546A06
:104072005890589200017AEF11F0000E191A000EB2
:104082001A1A000E1B1A800E1C1A15C005F016C053
:1040920006F017C007F018C008F019C009F01AC0DE
:1040A2000AF01BC00BF01CC00CF005EC0DF005C0B3
:1040B20015F006C016F007C017F008C018F012007D
:1040C200076EF3EC20F00E01DA87F3EC20F0D5CE88
:1040D20008F0F3EC20F00750D8B472EF20F076EF3E
:1040E20020F0066A062A77EF20F0066A063A0646AC
:1040F2000E01DA510618DF0B0618DA6FDA8908505A
:104102001200C9EC20F0010E076E000E1AEC21F02D
:104112003F0E096E550EE82EFED7092EFCD700F091
:10412200030E076E000E1AEC21F0D50E076E010E7B
:104132001AEC21F012000E01E997E895330EE56FB3
:10414200000EE66FE789E88BE78F8382120E626FBB
:10415200110E156FF28EF28AF28C2D872D95238720
:10416200238512003B0E5464B9EF20F0BBEF20F020
:10417200BDEF20F0000E546E542A5404016E026A00
:10418200000E0124D96E030E0220DA6EDF501200F7
:104192000E01D951F00B0809D96FD98B9F0ED66F3A
:1041A200848A848CA79BA79D1D0E1D6F1E0E1C6FFB
:1041B2001C0E6F6F1B0E706F1200016E130E576490
:1041C200E5EF20F0E7EF20F0E9EF20F0000E576E68
:1041D200CD0E5724D96EDA6A000EDA2201C0DFFF53
:1041E200572A12000E01D8B5F9EF20F0FBEF20F0AC
:1041F200F3EF20F0DACE05F01F0E0516D8A404EF77
:1042020021F006EF21F0F3EF20F012000550070233
:10421200F3CF09F0F4CF0AF005500802F3500A2652
:1042220006500702F3500A2609C005F00AC006F03C
:104232001200086E41EC21F0520E36EC21F00850CB
:10424200800936EC21F0075036EC21F03CEC21F0ED
:10425200120054505518D8A431EF21F034EF21F058
:10426200010E35EF21F0000E1200066EF3EC20F085
:1042720006C0D5FE1200F3EC20F00E01DA85120022
:10428200F3EC20F00E01DA811200F3EC20F00E01C3
:08429200DA831200BC02BB003C
:020000040020DA
:10000000FF0FFF0FFF0FFF0FFF0FFF0FFF0FFF0F80
:020000040030CA
:0C000000AAFFFFFF9FFFFFFFFFFFFFFFB5
:00000001FF
