:040000003BEF00F0E2
:100008005B82D9CF03F0DACF04F00E0137A70FEFE8
:1000180000F011EF00F014EF00F0E35112EC2DF0B6
:100028000E0137A51AEF00F01CEF00F035EF00F0D5
:100038002DA521EF00F023EF00F035EF00F077EC6D
:100048002DF0E806D8A42BEF00F02DEF00F033EFE9
:1000580000F0D2EC2CF00E01E46F35EF00F00E0149
:100068002D9504C0DAFF03C0D9FF5B9211005FEF42
:020078002AF06C
:100E000000523A20256620473A20256620423A259E
:100E100066200D0025642C25642C25642C25642077
:100E20000D0A00696E66006E616E0000260E106E7F
:100E3000010E116E30EC2AF0DDC0D9FFDEC0DAFF02
:100E4000DECF20F1DDCF21F1000120EE02F0DD51F7
:100E5000D926DE51DA22DECF22F1DDCF23F120EEDA
:100E600004F0DD51D926DE51DA22DECF24F1DDCFC8
:100E700025F1DFC0D9FFE0C0DAFFDECFE5F0DDCF3E
:100E8000E6F0E5C005F0E6C006F0076A086A000E65
:100E9000D0EC1DF005C014F106C015F107C016F125
:100EA00008C017F1000120EE02F0DF51D926E05111
:100EB000DA22DECFE5F0DDCFE6F0E5C005F0E6C0F2
:100EC00006F0076A086A000ED0EC1DF005C018F1A4
:100ED00006C019F107C01AF108C01BF1000120EE8D
:100EE00004F0DF51D926E051DA22DECFE5F0DDCF84
:100EF000E6F0E5C005F0E6C006F0076A086A000EF5
:100F0000D0EC1DF005C01CF106C01DF107C01EF19C
:100F100008C01FF1000120EE06F0DF51D926E05194
:100F2000DA22DECFE5F0DDCFE6F0E5C005F0E6C081
:100F300006F0076A086A000ED0EC1DF0010120518E
:100F4000265D0001E56F0101215127590001E66F7F
:100F5000E5C005F0E6C006F0076A086A000ED0ECAE
:100F60001DF005C036F006C037F007C038F008C0E5
:100F700039F0D9C021F0DAC022F0DBC023F0DCC0A8
:100F800024F020C105F021C106F0076A086A000EAE
:100F9000D0EC1DF005C019F006C01AF007C01BF018
:100FA00008C01CF014C115F015C116F016C117F0D9
:100FB00017C118F0A6EC2BF015C01DF016C01EF0DE
:100FC00017C01FF018C020F088EC14F01DC03AF0D4
:100FD0001EC03BF01FC03CF020C03DF09DEC16F061
:100FE00036C02EF137C02FF138C030F139C031F1A1
:100FF00001012251285D0001E56F010123512959AA
:101000000001E66FE5C005F0E6C006F0076A086A71
:10101000000ED0EC1DF005C036F006C037F007C05A
:1010200038F008C039F0D9C021F0DAC022F0DBC0B6
:1010300023F0DCC024F022C105F023C106F0076ACA
:10104000086A000ED0EC1DF005C019F006C01AF0B9
:1010500007C01BF008C01CF018C115F019C116F02C
:101060001AC117F01BC118F0A6EC2BF015C01DF02B
:1010700016C01EF017C01FF018C020F088EC14F046
:101080001DC03AF01EC03BF01FC03CF020C03DF038
:101090009DEC16F036C032F137C033F138C034F170
:1010A00039C035F1010124512A5D0001E56F0101CC
:1010B00025512B590001E66FE5C005F0E6C006F0AA
:1010C000076A086A000ED0EC1DF005C036F006C0B5
:1010D00037F007C038F008C039F0D9C021F0DAC0C5
:1010E00022F0DBC023F0DCC024F024C105F025C1D0
:1010F00006F0076A086A000ED0EC1DF005C019F072
:1011000006C01AF007C01BF008C01CF01CC115F087
:101110001DC116F01EC117F01FC118F0A6EC2BF070
:1011200015C01DF016C01EF017C01FF018C020F02B
:1011300088EC14F01DC03AF01EC03BF01FC03CF01C
:1011400020C03DF09DEC16F036C036F137C037F1C7
:1011500038C038F139C039F12A0E0001E56F8D0E23
:10116000E82EFED7E52FFCD700D0000E0001BC6FA3
:10117000010EBD6F010EBE6F0E0EBF6F2EC1C0F00F
:101180002FC1C1F030C1C2F031C1C3F032C1C4F0CF
:1011900033C1C5F034C1C6F035C1C7F036C1C8F09F
:1011A00037C1C9F038C1CAF039C1CBF0B5EC2AF06B
:1011B000000E066E010E076EA3EC2CF05EEC2DF017
:1011C0002A0E0001E56F8D0EE82EFED7E52FFCD725
:1011D00000D0010131BFEFEF08F0F1EF08F00AEFA6
:1011E00009F0000E366E000E376E000E386E400E9F
:1011F000396E2EC13AF02FC13BF030C13CF031C105
:101200003DF073EC24F0D8B008EF09F00AEF09F0D4
:1012100013EF09F0000E01012E6F000E2F6F000E6C
:10122000306F000E316F010135BF19EF09F01BEF70
:1012300009F034EF09F0000E366E000E376E000E26
:10124000386E400E396E32C13AF033C13BF034C1D2
:101250003CF035C13DF073EC24F0D8B032EF09F02A
:1012600034EF09F03DEF09F0000E0101326F000E7E
:10127000336F000E346F000E356F010139BF43EF3D
:1012800009F045EF09F05EEF09F0000E366E000E32
:10129000376E000E386E400E396E36C13AF037C1E7
:1012A0003BF038C13CF039C13DF073EC24F0D8B0CC
:1012B0005CEF09F05EEF09F067EF09F0000E010145
:1012C000366F000E376F000E386F000E396F660EE6
:1012D000366E660E376E660E386E3F0E396E2EC154
:1012E0003AF02FC13BF030C13CF031C13DF073EC1E
:1012F00024F0D8B07EEF09F080EF09F0C4EF09F0D8
:10130000660E366E660E376E660E386E3F0E396E9E
:1013100032C13AF033C13BF034C13CF035C13DF04D
:1013200073EC24F0D8B097EF09F099EF09F0C4EF0F
:1013300009F0660E366E660E376E660E386E3F0E1C
:10134000396E36C13AF037C13BF038C13CF039C193
:101350003DF073EC24F0D8B0B0EF09F0B2EF09F033
:10136000C4EF09F02A0E0001E56F8D0EE82EFED7BE
:10137000E52FFCD700D02A0E0001E56F8D0EE82E78
:10138000FED7E52FFCD700D0000E366E000E376E6C
:10139000C00E386E3F0E396E2EC13AF02FC13BF0B1
:1013A00030C13CF031C13DF073EC24F0D8B0DBEF3C
:1013B00009F0DDEF09F046EF0AF0CD0E366ECC0EE7
:1013C000376E4C0E386E3F0E396E32C119F033C194
:1013D0001AF034C11BF035C11CF02EC115F02FC11D
:1013E00016F030C117F031C118F0A6EC2BF015C083
:1013F0003AF016C03BF017C03CF018C03DF073EC5B
:1014000024F0D8B006EF0AF008EF0AF046EF0AF031
:10141000CD0E366ECC0E376E4C0E386E3F0E396EDA
:1014200036C119F037C11AF038C11BF039C11CF0B0
:101430002EC115F02FC116F030C117F031C118F0D0
:10144000A6EC2BF015C03AF016C03BF017C03CF0EC
:1014500018C03DF073EC24F0D8B031EF0AF033EF50
:101460000AF046EF0AF0E1C01EF0E2C01FF0E3C050
:1014700020F0E4C021F014EC22F02A0E0001E56F08
:101480008D0EE82EFED7E52FFCD700D0660E366E07
:10149000660E376EA60E386E3F0E396E2EC13AF0CC
:1014A0002FC13BF030C13CF031C13DF073EC24F072
:1014B000D8B05DEF0AF05FEF0AF0ADEF0AF0000E72
:1014C000366E000E376E000E386E3F0E396E32C12A
:1014D0003AF033C13BF034C13CF035C13DF073EC20
:1014E00024F0D8B076EF0AF078EF0AF0ADEF0AF00A
:1014F000000E366E000E376E000E386E3F0E396EDF
:1015000036C13AF037C13BF038C13CF039C13DF04B
:1015100073EC24F0D8B08FEF0AF091EF0AF0ADEF42
:101520000AF02A0E0001E56F8D0EE82EFED7E52F9A
:10153000FCD700D0E1C01EF0E2C01FF0E3C020F0F5
:10154000E4C021F075EC21F02A0E0001E56F8D0E4C
:10155000E82EFED7E52FFCD700D0000E366E000E29
:10156000376E800E386E3F0E396E2EC13AF02FC1A5
:101570003BF030C13CF031C13DF073EC24F0D8B009
:10158000C4EF0AF0C6EF0AF014EF0BF0CD0E366E82
:10159000CC0E376E4C0E386E3F0E396E32C13AF0BB
:1015A00033C13BF034C13CF035C13DF073EC24F065
:1015B000D8B0DDEF0AF0DFEF0AF014EF0BF036C120
:1015C00036F037C137F038C138F039C139F0CD0EB7
:1015D0003A6ECC0E3B6E4C0E3C6E3F0E3D6E73EC85
:1015E00024F0D8B0F6EF0AF0F8EF0AF014EF0BF0A1
:1015F0002A0E0001E56F8D0EE82EFED7E52FFCD7F1
:1016000000D0E1C024F0E2C025F0E3C026F0E4C041
:1016100027F0A8EC28F02A0E0001E56F8D0EE82EC9
:10162000FED7E52FFCD700D0330E366E330E376E63
:10163000330E386E3F0E396E2EC119F02FC11AF0DD
:1016400030C11BF031C11CF036C115F037C116F0A6
:1016500038C117F039C118F0A6EC2BF015C03AF0DC
:1016600016C03BF017C03CF018C03DF073EC24F0FE
:10167000D8B03DEF0BF03FEF0BF09FEF0BF09A0E61
:10168000366E990E376E990E386E3E0E396E32C137
:1016900019F033C11AF034C11BF035C11CF036C14A
:1016A00015F037C116F038C117F039C118F0A6ECA3
:1016B0002BF015C03AF016C03BF017C03CF018C034
:1016C0003DF073EC24F0D8B068EF0BF06AEF0BF04C
:1016D0009FEF0BF0330E366E330E376E330E386ECF
:1016E0003F0E396E36C13AF037C13BF038C13CF09D
:1016F00039C13DF073EC24F0D8B081EF0BF083EFEB
:101700000BF09FEF0BF02A0E0001E56F8D0EE82E17
:10171000FED7E52FFCD700D0E1C024F0E2C025F0D1
:10172000E3C026F0E4C027F04EEC2CF02A0E0001B6
:10173000E56F8D0EE82EFED7E52FFCD700D0CD0E3D
:10174000366ECC0E376ECC0E386E3E0E396E2EC114
:1017500019F02FC11AF030C11BF031C11CF032C199
:1017600015F033C116F034C117F035C118F0A6ECEE
:101770002BF015C03AF016C03BF017C03CF018C073
:101780003DF073EC24F0D8B0C8EF0BF0CAEF0BF0CB
:101790002AEF0CF0000E366E000E376E800E386E9B
:1017A0003F0E396E32C13AF033C13BF034C13CF0E8
:1017B00035C13DF073EC24F0D8B0E1EF0BF0E3EF6E
:1017C0000BF02AEF0CF0CD0E366ECC0E376ECC0E31
:1017D000386E3E0E396E36C119F037C11AF038C175
:1017E0001BF039C11CF032C115F033C116F034C101
:1017F00017F035C118F0A6EC2BF015C03AF016C062
:101800003BF017C03CF018C03DF073EC24F0D8B0AA
:101810000CEF0CF00EEF0CF02AEF0CF02A0E00018A
:10182000E56F8D0EE82EFED7E52FFCD700D0E1C086
:101830001EF0E2C01FF0E3C020F0E4C021F0B3ECE2
:1018400022F02A0E0001E56F8D0EE82EFED7E52F5F
:10185000FCD700D02EC136F02FC137F030C138F0A0
:1018600031C139F0330E3A6E330E3B6E330E3C6E9F
:101870003F0E3D6E73EC24F0D8B041EF0CF043EF17
:101880000CF091EF0CF0000E366E000E376E800EED
:10189000386E3F0E396E32C13AF033C13BF034C17D
:1018A0003CF035C13DF073EC24F0D8B05AEF0CF0A9
:1018B0005CEF0CF091EF0CF0000E366E000E376E00
:1018C000800E386E3F0E396E36C13AF037C13BF0AC
:1018D00038C13CF039C13DF073EC24F0D8B073EF5F
:1018E0000CF075EF0CF091EF0CF02A0E0001E56F93
:1018F0008D0EE82EFED7E52FFCD700D0E1C01EF0FC
:10190000E2C01FF0E3C020F0E4C021F052EC23F06D
:101910002A0E0001E56F8D0EE82EFED7E52FFCD7CD
:1019200000D0330E366E330E376E730E386E3F0EA8
:10193000396E2EC13AF02FC13BF030C13CF031C1BD
:101940003DF073EC24F0D8B0A8EF0CF0AAEF0CF047
:101950002AEF0DF0CD0E366ECC0E376E4C0E386E73
:101960003F0E396E32C13AF033C13BF034C13CF026
:1019700035C13DF073EC24F0D8B0C1EF0CF0C3EFEB
:101980000CF02AEF0DF032C136F033C137F034C11C
:1019900038F035C139F0660E3A6E660E3B6E660E53
:1019A0003C6E3F0E3D6E73EC24F0D8B0DAEF0CF0D5
:1019B000DCEF0CF02AEF0DF0CD0E366ECC0E376E4C
:1019C0004C0E386E3F0E396E36C13AF037C13BF0DF
:1019D00038C13CF039C13DF073EC24F0D8B0F3EFDE
:1019E0000CF0F5EF0CF02AEF0DF036C136F037C1F0
:1019F00037F038C138F039C139F0330E3A6E330E52
:101A00003B6E730E3C6E3F0E3D6E73EC24F0D8B00F
:101A10000CEF0DF00EEF0DF02AEF0DF02A0E000185
:101A2000E56F8D0EE82EFED7E52FFCD700D0E1C084
:101A300024F0E2C025F0E3C026F0E4C027F0F3EC88
:101A400028F02A0E0001E56F8D0EE82EFED7E52F57
:101A5000FCD700D01200000E0001986F72C099F000
:101A600073C09AF074C09BF075C09CF09CBF3DEFB2
:101A70000DF03BEF0DF051EF0DF0010E986F99C096
:101A800005F09AC006F09BC007F09CC008F06DEC12
:101A90002CF005C099F006C09AF007C09BF008C072
:101AA0009CF0000E00019E6F000E9D6FF2C088F04A
:101AB000F3C089F09851D8B460EF0DF062EF0DF0EB
:101AC00076EF0DF09851D8A468EF0DF06AEF0DF0A5
:101AD00070EF0DF0000E7E6F2B0E7D6F74EF0DF02A
:101AE000000E7E6F2D0E7D6F7DC098F099C005F0C1
:101AF0009AC006F09BC007F09CC008F0F5EC24F0FB
:101B000005040610D8A487EF0DF089EF0DF0BCEFA7
:101B10000DF000019851D8B490EF0DF092EF0DF058
:101B20009BEF0DF098C081F18807D8A08907000EBF
:101B30009E6F010E9D6F810E9D25056E010E9E21EB
:101B4000066E230E076E0E0E086EC9EC2BF0000118
:101B5000FD0E8827FF0E892370C015F071C016F0A6
:101B6000810E176E010E186E88C019F089C01AF028
:101B700086EC29F027EF12F099C005F09AC006F024
:101B80009BC007F09CC008F0F5EC24F0055006104F
:101B9000D8A4CDEF0DF0CFEF0DF0EFEF0DF0000179
:101BA0009851D8B4D6EF0DF0D8EF0DF0E1EF0DF06D
:101BB00098C081F18807D8A08907000E9E6F010E9A
:101BC0009D6F810E9D25056E010E9E21066E270ECE
:101BD000076E0E0E086EC9EC2BF0A7EF0DF0000E8D
:101BE00000019F6F000EA06F800EA16F3F0EA26FCD
:101BF000000E876F000E866F99C005F09AC006F040
:101C00009BC007F09CC008F0000E096E000E0A6E23
:101C1000000E0B6E000E0C6E53EC28F0D8B013EFD4
:101C20000EF015EF0EF0F4EF0EF022EF0EF08AC07A
:101C30009FF08BC0A0F08CC0A1F08DC0A2F000017D
:101C4000864B872B9FC01DF0A0C01EF0A1C01FF0C7
:101C5000A2C020F0000E216E000E226E200E236E18
:101C6000410E246E88EC14F01DC08AF01EC08BF06B
:101C70001FC08CF020C08DF000018A51995D056E67
:101C80008B519A59066E8C519B59076E8D519C59F8
:101C9000086EFDEC29F008BE59EF0EF00850071051
:101CA000061009E1020E055CD8A059EF0EF05BEFBB
:101CB0000EF017EF0EF08AC036F08BC037F08CC0F4
:101CC00038F08DC039F099C03AF09AC03BF09BC013
:101CD0003CF09CC03DF073EC24F0D8A072EF0EF005
:101CE00074EF0EF017EF0EF000019F51995D056E35
:101CF000A0519A59066EA1519B59076EA2519C5949
:101D0000086EFDEC29F008BE93EF0EF008500710A6
:101D1000061007E1020E055CD8B091EF0EF093EFCC
:101D20000EF0DBEF0EF09FC099F0A0C09AF0A1C0BA
:101D30009BF0A2C09CF0F4EF0EF09FC036F0A0C064
:101D400037F0A1C038F0A2C039F0000E3A6E000E94
:101D50003B6E200E3C6E410E3D6E9DEC16F036C083
:101D60009FF037C0A0F038C0A1F039C0A2F0000148
:101D70008607D8A087079F51995D056EA0519A5993
:101D8000066EA1519B59076EA2519C59086EFDEC3D
:101D900029F008BED9EF0EF008500710061007E131
:101DA000020E055CD8B0D7EF0EF0D9EF0EF0DBEFE6
:101DB0000EF093EF0EF099C036F09AC037F09BC04A
:101DC00038F09CC039F09FC03AF0A0C03BF0A1C0F1
:101DD0003CF0A2C03DF073EC24F0D8A0F2EF0EF07E
:101DE000F4EF0EF09DEF0EF076C080F080C081F031
:101DF0000001F5BFFEEF0EF000EF0FF006EF0FF061
:101E0000F4C079F0F5C07AF00AEF0FF0000E7A6FA7
:101E1000060E796F79C084F07AC085F0844B852BEB
:101E2000660E8119D8A417EF0FF019EF0FF039EFF4
:101E30000FF087BF20EF0FF01EEF0FF02CEF0FF029
:101E4000000E9F6F000EA06F800EA16F3F0EA26F5D
:101E5000000E876F000E866F670E8019D8B433EFBF
:101E60000FF035EF0FF039EF0FF0865184278751CF
:101E70008523000E8F6F000E8E6F99C090F09AC070
:101E800091F09BC092F09CC093F09FC08AF0A0C0DC
:101E90008BF0A1C08CF0A2C08DF0CAEF0FF090C003
:101EA00036F091C037F092C038F093C039F09FC03F
:101EB0003AF0A0C03BF0A1C03CF0A2C03DF09DECC8
:101EC00016F036C04FF037C050F038C051F039C06E
:101ED00052F0C5EC1CF04FC094F050C095F051C0CA
:101EE00096F052C097F094C005F095C006F096C0E9
:101EF00007F097C008F0F0EC23F005C082F006C0B0
:101F000083F090C015F091C016F092C017F093C006
:101F100018F094C021F095C022F096C023F097C02D
:101F200024F09FC01DF0A0C01EF0A1C01FF0A2C0F1
:101F300020F088EC14F01DC019F01EC01AF01FC06C
:101F40001BF020C01CF0A6EC2BF015C090F016C0C2
:101F500091F017C092F018C093F09FC036F0A0C067
:101F600037F0A1C038F0A2C039F0000E3A6E000E72
:101F70003B6E200E3C6E410E3D6E9DEC16F036C061
:101F80009FF037C0A0F038C0A1F039C0A2F0000126
:101F90008E4B8F2B84518E5D8F51800A536E8551ED
:101FA000800A5358D8A0D7EF0FF0D9EF0FF04FEFBA
:101FB0000FF09FC01DF0A0C01EF0A1C01FF0A2C076
:101FC00020F0000E216E000E226EA00E236E400E39
:101FD000246E88EC14F01DC094F01EC095F01FC054
:101FE00096F020C097F090C036F091C037F092C0C4
:101FF00038F093C039F094C03AF095C03BF096C0E9
:102000003CF097C03DF073EC24F0D8B00AEF10F02C
:102010000CEF10F017EF10F0000E0001946F000E9F
:10202000956F000E966F000E976F40EF10F090C006
:1020300005F091C006F092C007F093C008F094C07C
:1020400009F095C00AF096C00BF097C00CF053EC65
:1020500028F0D8A02EEF10F030EF10F040EF10F085
:10206000000182B136EF10F038EF10F040EF10F0C1
:10207000000E946F000E956F000E966F000E976F16
:1020800099C005F09AC006F09BC007F09CC008F00C
:1020900094C009F095C00AF096C00BF097C00CF000
:1020A00028EC12F005C090F006C091F007C092F045
:1020B00008C093F090C036F091C037F092C038F06D
:1020C00093C039F0000E216E000E226E200E236E9A
:1020D000410E246E8AC01DF08BC01EF08CC01FF014
:1020E0008DC020F088EC14F01DC03AF01EC03BF00B
:1020F0001FC03CF020C03DF073EC24F0D8A083EF6B
:1021000010F085EF10F0AEEF10F00001864B872B3A
:102110008AC01DF08BC01EF08CC01FF08DC020F057
:10212000000E216E000E226E200E236E410E246ED4
:1021300088EC14F01DC08AF01EC08BF01FC08CF01C
:1021400020C08DF0660E00018119D8A4AAEF10F00E
:10215000ACEF10F0AEEF10F0844B852B8AC09FF0EF
:102160008BC0A0F08CC0A1F08DC0A2F086C077F02B
:1021700087C078F0000E00017F6F000E7C6F000EAC
:102180007B6F000E8F6F000E8E6FACEF11F090C062
:1021900036F091C037F092C038F093C039F09FC04C
:1021A0003AF0A0C03BF0A1C03CF0A2C03DF09DECD5
:1021B00016F036C04FF037C050F038C051F039C07B
:1021C00052F0C5EC1CF04FC094F050C095F051C0D7
:1021D00096F052C097F094C005F095C006F096C0F6
:1021E00007F097C008F0F0EC23F006BE03EF11F003
:1021F000065007E10A0E055CD8B001EF11F003EFBD
:1022000011F013EF11F094C005F095C006F096C0E0
:1022100007F097C008F0F0EC23F005C082F006C08C
:1022200083F018EF11F0000E0001836F090E826F2A
:1022300000017F51D8A41FEF11F021EF11F049EFF9
:1022400011F078BF28EF11F026EF11F049EF11F0EF
:10225000810E9D25D96E010E9E21DA6E2E0EDF6E47
:102260009D4B9E2B8807D8A08907010E7F6F49EFF1
:1022700011F0810E9D25D96E010E9E21DA6E300E71
:10228000DF6E9D4B9E2B8807D8A089077B07D8A0BF
:102290007C077B517C11D8A450EF11F052EF11F064
:1022A00039EF11F0810E9D25D96E010E9E21DA6E57
:1022B0008251300FDF6E9D4B9E2B8807D8A0890777
:1022C00090C015F091C016F092C017F093C018F0AE
:1022D00094C021F095C022F096C023F097C024F05E
:1022E0009FC01DF0A0C01EF0A1C01FF0A2C020F032
:1022F00088EC14F01DC019F01EC01AF01FC01BF0AE
:1023000020C01CF0A6EC2BF015C090F016C091F088
:1023100017C092F018C093F09FC036F0A0C037F0FD
:10232000A1C038F0A2C039F0000E3A6E000E3B6E2C
:10233000200E3C6E410E3D6E9DEC16F036C09FF0B7
:1023400037C0A0F038C0A1F039C0A2F00001770773
:10235000D8A078078E4B8F2B84518E5D8F51800AC9
:10236000536E8551800A5358D8B0B9EF11F0BBEFC6
:1023700011F0C9EF11F09EBFC7EF11F09E5109E1B6
:102380004B0E9D5DD8A0C7EF11F0C9EF11F0C7EF5C
:1023900010F0000E8F6F4F0E8E6F810E8E25D96E4E
:1023A000010E8F21DA6E000EDF6E810E536E010E6C
:1023B000546E9D51535E9E51545A8E515324056E56
:1023C0008F515420066E810E076E010E086E9DC05F
:1023D00009F09EC00AF0DEEC2AF000019D518E5DEE
:1023E0009D6F9E518F599E6F9851D8A4FAEF11F0AE
:1023F000FDEF11F0010EFEEF11F0000E8E6F8F6BEE
:102400009851D8B406EF12F008EF12F013EF12F063
:102410009D07D8A09E07810E9D25D96E010E9E2195
:10242000DA6E98C0DFFF8E51885F8F51895B70C074
:1024300015F071C016F0810E9D25176E010E9E21BC
:10244000186E88C019F089C01AF086EC29F01200C5
:102450000850800B116E08500824136E07AE33EF3E
:1024600012F035EF12F036EF12F013801350D8B49B
:102470003CEF12F03EEF12F053EF12F01328D8A405
:1024800044EF12F046EF12F04EEF12F0000E056E20
:10249000000E066E000E076E000E086E078E000E10
:1024A000086E5BEF12F0000E056E000E066E000E59
:1024B000076E000E086E0C50800B126E1150121831
:1024C000D8B465EF12F067EF12F068EF12F0118CDC
:1024D0000C500C24126E0BAE70EF12F072EF12F073
:1024E00073EF12F012801250D8B479EF12F07BEF34
:1024F00012F090EF12F01228D8A481EF12F083EFBF
:1025000012F08BEF12F0000E096E000E0A6E000E34
:102510000B6E000E0C6E0B8E000E0C6E98EF12F010
:10252000000E096E000E0A6E000E0B6E000E0C6E91
:102530001350125CD8B09FEF12F0A1EF12F0C8EF69
:1025400012F011ACA6EF12F0A8EF12F0AAEF12F001
:10255000800E111A13C014F012C013F014C012F040
:1025600005C014F009C005F014C009F006C014F04D
:102570000AC006F014C00AF007C014F00BC007F040
:1025800014C00BF008C014F00CC008F014C00CF01C
:10259000000E146E135012C00DF00E6A0D5E000E88
:1025A0000E5A0EBEDDEF12F00E5009E11A0E0D5C50
:1025B000D8A0DDEF12F0DFEF12F016EF13F00550A8
:1025C000061007100810D8A4E8EF12F0EBEF12F095
:1025D000010EECEF12F0000E146E000E056E000EF0
:1025E000066E000E076E000E086E12C013F01FEF8D
:1025F00013F014A0FEEF12F000EF13F006EF13F04B
:10260000D89014300109146E08EF13F0D8901432EA
:1026100005A00DEF13F00FEF13F010EF13F0148E71
:1026200008340832073206320532132A1250135C7E
:10263000D8A01DEF13F01FEF13F0F9EF12F011BC4B
:1026400024EF13F026EF13F066EF13F01350D8A425
:102650002CEF13F02EEF13F038EF13F0000E056E91
:10266000000E066E000E076E000E086E87EF14F067
:10267000095005260A5006220B5007220C5008224A
:1026800008A045EF13F047EF13F0F3EF13F014A099
:102690004CEF13F04EEF13F054EF13F0D8901430CA
:1026A0000109146E56EF13F0D890143205A05BEFB9
:1026B00013F05DEF13F05EEF13F0148E0834083260
:1026C000073206320532132AF3EF13F00950055C86
:1026D0000A5006580B5007580850800A0D6E0C50CF
:1026E000800A0D58D8B077EF13F079EF13F0A4EF0C
:1026F00013F00550095C0D6E06500A580E6E075017
:102700000B580F6E08500C58106EFF0E0D24056EFE
:10271000FF0E0E20066EFF0E0F20076EFF0E10201C
:10272000086E800E111A146C1450D8A49AEF13F08E
:102730009CEF13F0ACEF13F0010E0526000E0622FD
:1027400007220822ACEF13F00950055E0A50065A22
:102750000B50075A0C50085A055006100710081065
:10276000D8A4B5EF13F0B7EF13F0ECEF13F014505B
:10277000D8A4BDEF13F0BFEF13F0ECEF13F0000E91
:10278000056E000E066E000E076E000E086E87EFD7
:1027900014F0D890053606360736083614AED3EF57
:1027A00013F0D5EF13F0D6EF13F0058014A0DBEF94
:1027B00013F0DDEF13F0E1EF13F0D8801436E3EF00
:1027C00013F0D89014361350D8B4E9EF13F0EBEFB0
:1027D00013F0ECEF13F0130607AEF1EF13F0F3EF85
:1027E00013F0C9EF13F0000E126E14AEFAEF13F0EF
:1027F000FCEF13F014EF14F014C00DF07F0E0D1663
:10280000D8B405EF14F007EF14F00BEF14F0010E3D
:10281000126E14EF14F005A010EF14F012EF14F084
:1028200014EF14F007EF14F01250D8B41AEF14F0AC
:102830001CEF14F047EF14F0010E0526000E0622DF
:102840000722082208A027EF14F029EF14F047EF21
:1028500014F005C00DF006C00EF007C00FF008C060
:1028600010F0103410320F320E320D320DC005F060
:102870000EC006F00FC007F010C008F01328D8B43F
:1028800044EF14F046EF14F047EF14F0132A132826
:10289000D8B44DEF14F04FEF14F057EF14F013507D
:1028A000D8A455EF14F057EF14F069EF14F0000EB0
:1028B000056E000E066E000E076E000E086E1350B9
:1028C000D8A465EF14F067EF14F069EF14F0000E70
:1028D000116E13A06EEF14F070EF14F073EF14F09C
:1028E000078E74EF14F0079ED8901330086E11AE67
:1028F0007CEF14F07EEF14F07FEF14F0088E05C02B
:1029000005F006C006F007C007F008C008F0120086
:102910002050800B296E205020242F6E1FAE93EF85
:1029200014F095EF14F096EF14F02F802F50D8B4D8
:102930009CEF14F09EEF14F0B1EF14F02F28D8A400
:10294000A4EF14F0A6EF14F0AEEF14F0000E1D6E1D
:10295000000E1E6E000E1F6E000E206E1F8EB9EF51
:1029600014F0000E1D6E000E1E6E000E1F6E000E87
:10297000206E2450800B291A245024242E6E23AE5E
:10298000C4EF14F0C6EF14F0C7EF14F02E802E50F1
:10299000D8B4CDEF14F0CFEF14F0E2EF14F02E28FE
:1029A000D8A4D5EF14F0D7EF14F0DFEF14F0000E39
:1029B000216E000E226E000E236E000E246E238EFA
:1029C000EAEF14F0000E216E000E226E000E236E50
:1029D000000E246E2E50D8B4F0EF14F0F2EF14F085
:1029E000FAEF14F02F50D8A4F8EF14F0FAEF14F027
:1029F00004EF15F0000E1D6E000E1E6E000E1F6E11
:102A0000000E206E9CEF16F023501D02F3CF34F021
:102A1000F4CF35F034502A6E2B6A2C6A2D6A35506B
:102A2000306E316A326A336A22501E02F3CF34F0BC
:102A3000F4CF35F034502A26000E2B222C222D22E2
:102A400035503026000E31223222332221501F020F
:102A5000F3CF34F0F4CF35F034502A26000E2B2279
:102A60002C222D2235503026000E312232223322E4
:102A70002CC02DF02BC02CF02AC02BF02A6A21503C
:102A80001E02F3CF34F0F4CF35F034502A263550FF
:102A90002B22000E2C22000E2D2222501D02F3CFDD
:102AA00034F0F4CF35F034502A2635502B22000E66
:102AB0002C22000E2D222CC02DF02BC02CF02AC071
:102AC0002BF02A6A21501D02F3CF34F0F4CF35F0F9
:102AD00034502A2635502B22000E2C22000E2D2297
:102AE00023501E02F3CF34F0F4CF35F034503026AB
:102AF00035503122000E3222000E332222501F02A6
:102B0000F3CF34F0F4CF35F0345030263550312245
:102B1000000E3222000E332223501F02F3CF34F076
:102B2000F4CF35F03450256E3550266E276A286A6A
:102B300027C028F026C027F025C026F0256A25509A
:102B400030262650312227503222285033222AC0E4
:102B500025F02BC026F02CC027F02DC028F0190E30
:102B6000B7EF15F0D8902832273226322532E82EDA
:102B7000B2EF15F025503026265031222750322250
:102B8000285033222CC02DF02BC02CF02AC02BF063
:102B90002A6A2E502FC025F0266A2526000E2622EE
:102BA000820E2524346EFF0E2620356EEDEF15F0D3
:102BB000D89030363136323633362DAEE2EF15F05E
:102BC000E4EF15F0E5EF15F03080D8902A362B367B
:102BD0002C362D363406D8A0350632AEF2EF15F07D
:102BE000F4EF15F0D8EF15F0000E2E6E2DAEFBEFC2
:102BF00015F0FDEF15F021EF16F0FF0E2A14256EEB
:102C0000FF0E2B14266EFF0E2C14276E7F0E2D1434
:102C1000286E2550261027102810D8B412EF16F071
:102C200014EF16F018EF16F0010E2E6E21EF16F0CD
:102C300030A01DEF16F01FEF16F021EF16F014EF85
:102C400016F02E50D8B427EF16F029EF16F04DEFFE
:102C500016F0010E3026000E31223222332233A02C
:102C600034EF16F036EF16F04DEF16F030C025F0C9
:102C700031C026F032C027F033C028F02834283283
:102C800027322632253225C030F026C031F027C049
:102C900032F028C033F0344A352A35BE58EF16F0EA
:102CA000355008E13428D8A058EF16F05AEF16F046
:102CB00064EF16F0000E306E000E316E800E326E34
:102CC0007F0E336E92EF16F035BE71EF16F0355071
:102CD00006E13404D8B06FEF16F071EF16F07DEF17
:102CE00016F0000E306E000E316E000E326E000EC9
:102CF000336E000E296E92EF16F034C02FF0FF0EE7
:102D00003016FF0E31167F0E3216000E33162FA02E
:102D10008CEF16F08EEF16F08FEF16F0328ED89003
:102D20002F30336E2950331230C01DF031C01EF0E9
:102D300032C01FF033C020F012003950800B466EB5
:102D4000395039244D6E38AEA8EF16F0AAEF16F0C0
:102D5000ABEF16F04D804D50D8B4B1EF16F0B3EF95
:102D600016F0C8EF16F04D28D8A4B9EF16F0BBEF57
:102D700016F0C3EF16F0000E366E000E376E000E22
:102D8000386E000E396E388E000E396ED0EF16F0A8
:102D9000000E366E000E376E000E386E000E396E65
:102DA0003D50800B461A3D503D244E6E3CAEDBEF4D
:102DB00016F0DDEF16F0DEEF16F04E804E50D8B470
:102DC000E4EF16F0E6EF16F0FBEF16F04E28D8A46D
:102DD000ECEF16F0EEEF16F0F6EF16F0000E3A6E8E
:102DE000000E3B6E000E3C6E000E3D6E3C8E000EE3
:102DF0003D6E03EF17F0000E3A6E000E3B6E000EB4
:102E00003C6E000E3D6E3A503B103C103D10D8A475
:102E10000CEF17F00EEF17F026EF17F0000E366EDE
:102E2000000E376E000E386E000E396E800E3812AE
:102E30007F0E39124650391236C036F037C037F09F
:102E400038C038F039C039F069EF18F04D50D8A4C7
:102E50002CEF17F02EEF17F038EF17F0000E366E4C
:102E6000000E376E000E386E000E396E69EF18F0E6
:102E70004E504DC03EF03F6A3E5E000E3F5A7F0E00
:102E80003E24476E000E3F20486E36C042F037C0E9
:102E900043F038C044F039C045F0000E366E000EE5
:102EA000376E000E386E000E396E000E496E000E41
:102EB0004A6E000E4B6E000E4C6E000E4E6E99EF79
:102EC00017F04E50D8B467EF17F069EF17F080EFA6
:102ED00017F0D8904236433644364536D8903636C9
:102EE0003736383639364CAE78EF17F07AEF17F0C0
:102EF0007BEF17F03680D89049364A364B364C3641
:102F00003A50425C3B5043583C5044583D50455821
:102F1000D8A08DEF17F08FEF17F098EF17F04C8CCB
:102F20003A50425E3B50435A3C50445A3D50455AF9
:102F30004E2A190E4E649FEF17F0A1EF17F061EFC4
:102F400017F04250431044104510D8B4AAEF17F0C0
:102F5000ACEF17F0C4EF17F04980C4EF17F0D8902A
:102F600036363736383639364CAEB9EF17F0BBEF58
:102F700017F0BCEF17F03680D89049364A364B36FA
:102F80004C364706D8A0480638AEC9EF17F0CBEF4D
:102F900017F0AFEF17F0000E4E6E4CAED2EF17F0F9
:102FA000D4EF17F0F8EF17F0FF0E49143E6EFF0E46
:102FB0004A143F6EFF0E4B14406E7F0E4C14416E50
:102FC0003E503F1040104110D8B4E9EF17F0EBEF3E
:102FD00017F0EFEF17F0010E4E6EF8EF17F036A076
:102FE000F4EF17F0F6EF17F0F8EF17F0EBEF17F03C
:102FF0004E50D8B4FEEF17F000EF18F024EF18F0A1
:10300000010E3626000E37223822392239A00BEF66
:1030100018F00DEF18F024EF18F036C03EF037C06E
:103020003FF038C040F039C041F0413441324032C5
:103030003F323E323EC036F03FC037F040C038F03D
:1030400041C039F0474A482A48BE2FEF18F048508F
:1030500008E14728D8A02FEF18F031EF18F03CEF27
:1030600018F0000E486E4768000E366E000E376E80
:10307000000E386E000E396E48BE49EF18F0485009
:1030800006E14704D8B047EF18F049EF18F057EFC2
:1030900018F0000E486E000E476E000E366E000EE1
:1030A000376E000E386E000E396E000E466E47C049
:1030B0004DF04DA05EEF18F060EF18F063EF18F0E0
:1030C000388E64EF18F0389ED8904D30396E1AEF74
:1030D00017F0120089EC2CF0BBEC2CF0000E066E01
:1030E000C70E056E3EEC29F07C9E849E80968896E5
:1030F0007C988498809088907E9086908092889228
:103100007C9684967C887E8080807E807C867F8092
:103110007D8E79868790859E819686840E01B495F2
:103120008686B497000E01014A6F640E056E010E8B
:10313000066E5B0E076E010E086E2EEC27F04B0E2E
:10314000126E010E136EE6EC25F0420E106E010EAB
:10315000116E30EC2AF08EA6B0EF18F0B3EF18F035
:10316000010EB4EF18F0000E0001E76F8EA4BBEF64
:1031700018F0BEEF18F0010EBFEF18F0000EE715C3
:10318000E8A0C5EF18F0C7EF18F0E4EF18F07C8E58
:103190008086520E0001E86F2B0EE76F000EE82EBE
:1031A000FED7E72FFCD7E82FFAD700F07C9E809659
:1031B00001014A51D8B4DFEF18F0E2EF18F0010E28
:1031C000E3EF18F0000E4A6F8EA4E9EF18F0ECEF71
:1031D00018F0010EEDEF18F0000E0001E76FE86B3C
:1031E0008EB6F5EF18F0F9EF18F0E96BE92BFBEF6D
:1031F00018F00001E96BE951E717000EE817E751F5
:10320000E811D8B406EF19F008EF19F00EEF19F035
:103210004B0E126E010E136EE6EC25F08EA613EF28
:1032200019F016EF19F0010E17EF19F0000E00015A
:10323000E76FE86B8EB41FEF19F023EF19F0E96B1D
:10324000E92B25EF19F00001E96BE951E717000EB2
:10325000E817E751E811D8B430EF19F032EF19F060
:1032600038EF19F0530E126E010E136E74EC25F048
:1032700080A63DEF19F042EF19F00001E76BE72B54
:1032800044EF19F00001E76BE747E747E747805055
:10329000E719F70BE719806E59C105F05AC106F01E
:1032A000076A086A000ED0EC1DF005C03AF106C0AE
:1032B0003BF107C03CF108C03DF148C105F049C1F0
:1032C00006F0076A086A000ED0EC1DF005C036F063
:1032D00006C037F007C038F008C039F03AC13AF0FC
:1032E0003BC13BF03CC13CF03DC13DF09DEC16F0D4
:1032F00036C03EF137C03FF138C040F139C041F12E
:103300008F0E366EC20E376EF50E386E3D0E396E6C
:103310003EC13AF03FC13BF040C13CF041C13DF0FD
:1033200073EC24F0D8A097EF19F09AEF19F0010E82
:103330009BEF19F0000E0001E76FE86B01014A51A5
:103340000001E717000EE817E751E811D8B4ABEF1A
:1033500019F0ADEF19F0D3EF19F03EC1D9F03FC12C
:10336000DAF040C1DBF041C1DCF04B0EDD6F010E45
:10337000DE6F530EDF6F010EE06F640EE16F010E22
:10338000E26F5B0EE36F010EE46F16EC07F0290E9F
:103390000001E86F960EE76F7F0EE82EFED7E72F4D
:1033A000FCD7E82FFAD701014A51D8B4DAEF19F067
:1033B000DCEF19F0E8EF19F0640E186E010E196ECB
:1033C0005B0E1A6E010E1B6E58EC26F0F2EF19F030
:1033D000640E186E010E196E5B0E1A6E010E1B6ED6
:1033E000FCEC27F0090E0001E86F1E0EE76FE40EFB
:1033F000E82EFED7E72FFCD7E82FFAD700F0A5EF8D
:1034000018F03BEF00F0A5C0D9FFA6C0DAFFDECF71
:10341000F6FFDDCFF7FF000EF86E0800F550250A25
:10342000D8A415EF1AF017EF1AF06FEF1BF0A5C034
:10343000D9FFA6C0DAFFDE2A000EDD22000E000151
:10344000F36F000EF26FF2C0FAF0F469F569A5C0EF
:10345000D9FFA6C0DAFFDECFB2F0DDCFB3F0B2C045
:10346000F6FFB3C0F7FF000EF86E0800F550640ACF
:10347000D8B43DEF1AF03FEF1AF04FEF1AF0B2C098
:10348000F6FFB3C0F7FF000EF86E0800F550690AAA
:10349000D8A44DEF1AF04FEF1AF092EF1AF0A7C030
:1034A000D9FFA8C0DAFFDFCF55F0020EDE26DFCF4E
:1034B00056F0000EDD2255C0D9FF56C0DAFFDECF30
:1034C000A9F0DDCFAAF0000EAABFFF0EAB6FAC6F64
:1034D000AD6FAE6FAF6FB06F010EB225556E000EBF
:1034E000B321566EA5C0D9FFA6C0DAFF55C0DEFFD6
:1034F00056C0DDFFA3C020F0A4C021F0A9C022F077
:10350000AAC023F0ABC024F0ACC025F0ADC026F0BB
:10351000AEC027F0AFC028F0B0C029F086EC1BF099
:1035200085EF1BF0A5C0D9FFA6C0DAFFDECFB2F051
:10353000DDCFB3F0B2C0F6FFB3C0F7FF000EF86EF8
:103540000800F5CFB1F0B1EF1AF0B24BB32BCAEFD0
:103550001AF06C0EB16FCAEF1AF0000EB16FCAEF1D
:103560001AF0B151556E566A5650000AD8B4BBEFE6
:103570001AF0ADEF1AF055504C0AD8B4A5EF1AF076
:103580002A0AD8B4A9EF1AF00A0AD8B4A5EF1AF09B
:10359000ADEF1AF0B2C0F6FFB3C0F7FF000EF86E41
:1035A0000800F550660AD8A4D8EF1AF0DAEF1AF03E
:1035B00066EF1BF010EF1BF0A7C0D9FFA8C0DAFF21
:1035C000DFCF55F0040EDE26DFCF56F0000EDD22F1
:1035D00055C0D9FF56C0DAFFDECFA9F0DECFAAF082
:1035E000DECFABF0DECFACF025EF1BF0A7C0D9FFEC
:1035F000A8C0DAFFDFCF55F0040EDE26DFCF56F08D
:10360000000EDD2255C0D9FF56C0DAFFDECFA9F08B
:10361000DECFAAF0DECFABF0DECFACF025EF1BF0B3
:10362000B151556E566A5650000AD8B41AEF1BF0C5
:1036300025EF1BF055504C0AD8B4F6EF1AF0200ACB
:10364000D8B4DCEF1AF025EF1BF0010EB225556E51
:10365000000EB321566EA5C0D9FFA6C0DAFF55C033
:10366000DEFF56C0DDFF4EEF1BF0A3C070F0A4C01C
:1036700071F0A9C072F0AAC073F0ABC074F0ACC016
:1036800075F0B2C0F6FFB3C0F7FF000EF86E080089
:10369000F5CF76F02BEC0DF085EF1BF0B2C0F6FF06
:1036A000B3C0F7FF000EF86E0800F550556E566A6D
:1036B0005650000AD8B45FEF1BF066EF1BF0555070
:1036C000660AD8B435EF1BF066EF1BF0A5C0D9FF32
:1036D000A6C0DAFFDE2A000EDD2285EF1BF0A5C0B2
:1036E000D9FFA6C0DAFFDECFF6FFDDCFF7FF000E71
:1036F000F86E0800F550056E066AA3C007F0A4C076
:1037000008F097EC27F066EF1BF0120022C038F0AB
:1037100023C039F024C03AF025C03BF026C03CF06D
:1037200027C03DF028C03EF029C03FF03FBE9BEFD0
:103730001BF09EEF1BF0010E9FEF1BF0000E426E80
:103740004250D8B4A6EF1BF0A8EF1BF0B8EF1BF067
:103750003F1E3E1E3D1E3C1E3B1E3A1E391E386C4F
:10376000000E39223A223B223C223D223E223F22B9
:103770000001F5BFC6EF1BF0F55106E1F405D8B026
:10378000C4EF1BF0C6EF1BF0CCEF1BF0000E356E44
:10379000010E346ED0EF1BF0F4C034F0F5C035F0FC
:1037A000F2C036F0F3C037F04250D8B4DAEF1BF075
:1037B000DCEF1BF0F3EF1BF03606D8A037064250C3
:1037C000D8A4E5EF1BF0E7EF1BF0EDEF1BF0000EC8
:1037D000336E2B0E326EF1EF1BF0000E336E2D0E9A
:1037E000326E32C042F0000E416E4F0E406E000E3F
:1037F0000101D06F78EF1CF04006D8A04106810E81
:103800004024D96E010E4120DA6E38C005F039C06F
:1038100006F03AC007F03BC008F03CC009F03DC0DC
:103820000AF03EC00BF03FC00CF00A0E0D6E000E09
:103830000E6E000E0F6E000E106E000E116E000E5A
:10384000126E000E136E000E146E24EC20F005C0F4
:103850002AF006C02BF007C02CF008C02DF009C0DC
:103860002EF00AC02FF00BC030F00CC031F02AC08F
:1038700017F02BC018F02EEC2CF01750300FDF6E25
:103880003406D8A035063606D8A0370638C005F06D
:1038900039C006F03AC007F03BC008F03CC009F060
:1038A0003DC00AF03EC00BF03FC00CF00A0E0D6E9A
:1038B000000E0E6E000E0F6E000E106E000E116EDA
:1038C000000E126E000E136E000E146EAAEC1EF0A7
:1038D00005C038F006C039F007C03AF008C03BF028
:1038E00009C03CF00AC03DF00BC03EF00CC03FF0F8
:1038F00041BE83EF1CF0415008E14004D8A083EFA3
:103900001CF085EF1CF0A1EF1CF0385039103A1074
:103910003B103C103D103E103F10D8A492EF1CF01D
:1039200094EF1CF0FCEF1BF035BEA1EF1CF03550FE
:1039300006E13404D8B09FEF1CF0A1EF1CF0FCEFBF
:103940001BF04250D8B4A7EF1CF0A9EF1CF0B4EF65
:103950001CF04006D8A04106810E4024D96E010E0D
:103960004120DA6E42C0DFFF20C015F021C016F002
:10397000810E4024176E010E4120186E36C019F0DA
:1039800037C01AF086EC29F01200EAC06CF0EBC0E8
:103990006DF0ECC06EF0EDC06FF04FC06CF050C039
:1039A0006DF051C06EF052C06FF0810E0001606F7B
:1039B000FF0E616F6CC062F06DC063F06EC064F0AA
:1039C0006FC065F0180EEAEF1CF0D89065336433D1
:1039D00063336233E82EE5EF1CF0625160256A6FB5
:1039E000000E61216B6F6BBFFFEF1CF06B5109E1A3
:1039F000170E6A5DD8A0FFEF1CF001EF1DF00BEF72
:103A00001DF04FC04FF050C050F051C051F052C0A7
:103A100052F0CFEF1DF06BBF10EF1DF012EF1DF055
:103A200083EF1DF06AC060F0FF0E616FFF0E626FE2
:103A30007F0E636F000E646F606721EF1DF029EF4A
:103A40001DF064356433633362336133602F1CEFE0
:103A50001DF061C066F062C067F063C068F064C0CA
:103A600069F0000166516C15606F67516D15616FEB
:103A700068516E15626F69516F15636F6051611106
:103A800062116311D8A447EF1DF049EF1DF04BEF11
:103A90001DF001EF1DF06CC060F06DC061F06EC0F4
:103AA00062F06FC063F0200E5BEF1DF0D8906333BF
:103AB000623361336033E82E56EF1DF060516111BF
:103AC00062116311D8B467EF1DF069EF1DF071EF5B
:103AD0001DF066516C2767516D2368516E23695143
:103AE0006F23661D606F671D616F681D626F691DC2
:103AF000636F60516C1761516D1762516E1763519E
:103B00006F17C7EF1DF06CC060F06DC061F06EC044
:103B100062F06FC063F0200E93EF1DF0D890633316
:103B2000623361336033E82E8EEF1DF06051611116
:103B300062116311D8A49FEF1DF0A1EF1DF0ABEF50
:103B40001DF0000E6C6F000E6D6F000E6E6F000E9C
:103B50006F6FC7EF1DF0D8906C35606F6D35616F7A
:103B60006E35626F6F35636F605161116211631161
:103B7000D8B4BDEF1DF0BFEF1DF0C7EF1DF0000E74
:103B80006C6F000E6D6F800E6E6FBF0E6F6F6CC02E
:103B90004FF06DC050F06EC051F06FC052F0120087
:103BA0000D6E0D50D8B4D7EF1DF0D9EF1DF0FBEF1F
:103BB0001DF008BEE0EF1DF0DEEF1DF0FBEF1DF085
:103BC00005C009F006C00AF007C00BF008C00CF0F1
:103BD000091E0A1E0B1E0C1E092A000E0A220B22A9
:103BE0000C2209C00FF00AC010F00BC011F00CC07D
:103BF00012F003EF1EF005C00FF006C010F007C072
:103C000011F008C012F00550061007100810D8A4D3
:103C10000CEF1EF00EEF1EF018EF1EF0000E056EFA
:103C2000000E066E000E076E000E086EA9EF1EF065
:103C3000960E0E6E22EF1EF00E2AD890123211321E
:103C400010320F32000E0F14096E000E10140A6E9F
:103C5000000E11140B6EFE0E12140C6E09500A1099
:103C60000B100C10D8A437EF1EF039EF1EF01CEF2C
:103C70001EF047EF1EF00E2A010E0F26000E102236
:103C800011221222D8901232113210320F32000E4D
:103C90000F14096E000E10140A6E000E11140B6E34
:103CA000FF0E12140C6E09500A100B100C10D8A441
:103CB0005CEF1EF05EEF1EF03BEF1EF066EF1EF0B5
:103CC0000E06D8900F3610361136123611BE6BEF35
:103CD0001EF06DEF1EF075EF1EF0020E0E6073EF1A
:103CE0001EF075EF1EF060EF1EF00EB07AEF1EF0C2
:103CF0007CEF1EF07DEF1EF0119ED8900E320EC0AC
:103D000009F00A6A0B6A0C6A09C00CF00B6A0A6AAD
:103D1000096A09500F120A5010120B5011120C5060
:103D200012120D50D8B497EF1EF099EF1EF0A1EFCC
:103D30001EF008BEA0EF1EF09EEF1EF0A1EF1EF0D9
:103D4000128E0FC005F010C006F011C007F012C0AF
:103D500008F01200000E166E14BEB3EF1EF0B1EFA5
:103D60001EF0C5EF1EF0141E131E121E111E101E93
:103D70000F1E0E1E0D6C000E0E220F22102211229D
:103D8000122213221422010E166E0CBECCEF1EF06E
:103D9000CAEF1EF0DEEF1EF00C1E0B1E0A1E091EDF
:103DA000081E071E061E056C000E062207220822AA
:103DB00009220A220B220C22010E161A20EE17F0FD
:103DC000070EDE6AE806FDE20D500E100F1010100F
:103DD0001110121013101410D8B4F1EF1EF0F3EFFD
:103DE0001EF045EF1FF0010E156E01EF1FF0D89089
:103DF0000D360E360F36103611361236133614368F
:103E0000152A14AE06EF1FF008EF1FF0F7EF1EF0B3
:103E1000D8901736183619361A361B361C361D360A
:103E20001E360D50055C0E5006580F5007581050A6
:103E300008581150095812500A5813500B58145072
:103E40000C58D8A026EF1FF028EF1FF039EF1FF015
:103E50000D50055E0E50065A0F50075A1050085A62
:103E60001150095A12500A5A13500B5A14500C5A36
:103E70001780D890143213321232113210320F32AE
:103E80000E320D32152E08EF1FF01650D8B44BEF3E
:103E90001FF04DEF1FF05DEF1FF01E1E1D1E1C1EBC
:103EA0001B1E1A1E191E181E176C000E182219222E
:103EB0001A221B221C221D221E2217C005F018C028
:103EC00006F019C007F01AC008F01BC009F01CC0AA
:103ED0000AF01DC00BF01EC00CF0120020EE02F024
:103EE0001250D9261350DA22DF50D8B47AEF1FF0DF
:103EF0007CEF1FF0B0EF1FF012C0D9FF13C0DAFF44
:103F0000DF50146E1450056E066A20EE03F0125056
:103F1000D9261350DA22DECF07F0DDCF08F03BECD4
:103F20002DF005C00BF006C00CF0000E0E6E640EF6
:103F30000D6EC3EC29F020EE03F01250D926135079
:103F4000DA22DF50156E0B50155C166E20EE03F072
:103F50001250D9261350DA22DF50176ED3EF1FF01C
:103F6000000E166E12C0D9FF13C0DAFFDF50146EB8
:103F70001450056E066A20EE03F01250D926135035
:103F8000DA22DECF07F0DDCF08F03BEC2DF005C0E4
:103F90000BF006C00CF0000E0E6E640E0D6EC3EC3E
:103FA00029F00B50176E20EE01F01250D926135055
:103FB000DA22DF50D8B4DFEF1FF0E1EF1FF003EF9C
:103FC00020F020EE05F01250D9261350DA22DECF71
:103FD00014F0DDCF15F014C0D9FF15C0DAFF16C0FC
:103FE000DFFF20EE07F01250D9261350DA22DECF81
:103FF00014F0DDCF15F014C0D9FF15C0DAFF17C0DB
:10400000DFFF23EF20F020EE05F01250D9261350E9
:10401000DA22DECF14F0DDCF15F014C0D9FF15C0C1
:10402000DAFF17C0DFFF20EE07F01250D926135039
:10403000DA22DECF14F0DDCF15F014C0D9FF15C0A1
:10404000DAFF16C0DFFF1200000E166E0CBE2DEF59
:1040500020F02BEF20F03FEF20F00C1E0B1E0A1E6D
:10406000091E081E071E061E056C000E06220722EA
:10407000082209220A220B220C22010E166E14BEFF
:1040800046EF20F044EF20F056EF20F0141E131EF0
:10409000121E111E101E0F1E0E1E0D6C000E0E2283
:1040A0000F22102211221222132214220D500E1060
:1040B0000F1010101110121013101410D8B463EF59
:1040C00020F065EF20F0ADEF20F0010E156E73EFDC
:1040D00020F0D8900D360E360F36103611361236C7
:1040E00013361436152A14AE78EF20F07AEF20F04C
:1040F00069EF20F00D50055C0E5006580F50075820
:10410000105008581150095812500A5813500B58A3
:1041100014500C58D8A08FEF20F091EF20F0A1EFB1
:1041200020F00D50055E0E50065A0F50075A1050E1
:10413000085A1150095A12500A5A13500B5A145067
:104140000C5AD890143213321232113210320F320C
:104150000E320D32152E7AEF20F01650D8B4B3EF90
:1041600020F0B5EF20F0C5EF20F00C1E0B1E0A1E4C
:10417000091E081E071E061E056C000E06220722D9
:10418000082209220A220B220C2205C005F006C0D3
:1041900006F007C007F008C008F009C009F00AC01F
:1041A0000AF00BC00BF00CC00CF012001EC018F08F
:1041B0001FC019F020C01AF021C01BF0FCEC27F042
:1041C000090E236E1E0E226EE40EE82EFED7222E5E
:1041D000FCD7232EFAD700D01EC018F01FC019F04C
:1041E00020C01AF021C01BF0C3EC26F0390E236E5C
:1041F000D20E226E4C0EE82EFED7222EFCD7232E96
:10420000FAD700D01EC018F01FC019F020C01AF055
:1042100021C01BF0FCEC27F020EE01F01E50D92647
:104220001F50DA22010EDF6E20EE01F02050D92659
:104230002150DA22000EDF6E20EE02F01E50D92649
:104240001F50DA22010EDF6E20EE02F01E50D9263A
:104250001F50DA22010EDF6E46EF21F01EC0D9FF9B
:104260001FC0DAFF0A0EDF2620C0D9FF21C0DAFF07
:104270000A0EDF261EC012F01FC013F06EEC1FF0F6
:1042800020C012F021C013F06EEC1FF01EC0D9FF49
:104290001FC0DAFF4F0EDF6450EF21F052EF21F024
:1042A0002EEF21F020C0D9FF21C0DAFF4F0EDF64CE
:1042B0005CEF21F05EEF21F02EEF21F0100E236E67
:1042C0002E0E226EAA0EE82EFED7222EFCD7232E0B
:1042D000FAD700D01EC018F01FC019F020C01AF085
:1042E00021C01BF0FCEC27F012001EC018F01FC00C
:1042F00019F020C01AF021C01BF0FCEC27F0090EC9
:10430000236E1E0E226EE40EE82EFED7222EFCD760
:10431000232EFAD700D01EC018F01FC019F020C0FD
:104320001AF021C01BF0C3EC26F0390E236ED20E1A
:10433000226E4C0EE82EFED7222EFCD7232EFAD763
:1043400000D01EC018F01FC019F020C01AF021C004
:104350001BF0FCEC27F020EE01F01E50D9261F5078
:10436000DA22010EDF6E20EE01F02050D926215016
:10437000DA22000EDF6E20EE02F01E50D9261F500A
:10438000DA22010EDF6E20EE02F01E50D9261F50F9
:10439000DA22010EDF6EE5EF21F01EC0D9FF1FC04B
:1043A000DAFF0A0EDF2620C0D9FF21C0DAFF0A0E8D
:1043B000DF261EC012F01FC013F06EEC1FF020C0ED
:1043C00012F021C013F06EEC1FF01EC0D9FF1FC009
:1043D000DAFF4F0EDF64EFEF21F0F1EF21F0CDEFC8
:1043E00021F020C0D9FF21C0DAFF4F0EDF64FBEFC0
:1043F00021F0FDEF21F0CDEF21F0170E236EC50E59
:10440000226E810EE82EFED7222EFCD7232EFAD75D
:1044100000F01EC018F01FC019F020C01AF021C013
:104420001BF0FCEC27F012001EC018F01FC019F0A2
:1044300020C01AF021C01BF0FCEC27F0090E236EFF
:104440001E0E226EE40EE82EFED7222EFCD7232E5F
:10445000FAD700D01EC018F01FC019F020C01AF003
:1044600021C01BF0C3EC26F0390E236ED20E226E53
:104470004C0EE82EFED7222EFCD7232EFAD700D0E2
:104480001EC018F01FC019F020C01AF021C01BF088
:10449000FCEC27F020EE01F01E50D9261F50DA2246
:1044A000010EDF6E20EE01F02050D9262150DA22D5
:1044B000000EDF6E20EE02F01E50D9261F50DA22C9
:1044C000010EDF6E20EE02F01E50D9261F50DA22B8
:1044D000010EDF6E84EF22F01EC0D9FF1FC0DAFF8D
:1044E0000A0EDF2620C0D9FF21C0DAFF0A0EDF2620
:1044F0001EC012F01FC013F06EEC1FF020C012F0AF
:1045000021C013F06EEC1FF01EC0D9FF1FC0DAFFF0
:104510004F0EDF648EEF22F090EF22F06CEF22F06E
:1045200020C0D9FF21C0DAFF4F0EDF649AEF22F0DE
:104530009CEF22F06CEF22F0100E236E2E0E226EF6
:10454000AA0EE82EFED7222EFCD7232EFAD700D0B3
:104550001EC018F01FC019F020C01AF021C01BF0B7
:10456000FCEC27F012001EC018F01FC019F020C08C
:104570001AF021C01BF0FCEC27F0090E236E1E0E72
:10458000226EE40EE82EFED7222EFCD7232EFAD779
:1045900000D01EC018F01FC019F020C01AF021C0B2
:1045A0001BF0C3EC26F0390E236ED20E226E4C0E99
:1045B000E82EFED7222EFCD7232EFAD700D01EC01D
:1045C00018F01FC019F020C01AF021C01BF0FCEC3D
:1045D00027F020EE01F01E50D9261F50DA22000EDF
:1045E000DF6E20EE01F02050D9262150DA22010E94
:1045F000DF6E20EE02F01E50D9261F50DA22010E87
:10460000DF6E20EE02F01E50D9261F50DA22010E76
:10461000DF6E23EF23F01EC0D9FF1FC0DAFF0A0EA2
:10462000DF2620C0D9FF21C0DAFF0A0EDF261EC018
:1046300012F01FC013F06EEC1FF020C012F021C06A
:1046400013F06EEC1FF01EC0D9FF1FC0DAFF4F0E33
:10465000DF642DEF23F02FEF23F00BEF23F020C0CA
:10466000D9FF21C0DAFF4F0EDF6439EF23F03BEFB3
:1046700023F00BEF23F0100E236E2E0E226EAA0EE7
:10468000E82EFED7222EFCD7232EFAD700D01EC04C
:1046900018F01FC019F020C01AF021C01BF0FCEC6C
:1046A00027F012001EC018F01FC019F020C01AF029
:1046B00021C01BF0FCEC27F0090E236E1E0E226EAB
:1046C000E40EE82EFED7222EFCD7232EFAD700D0F8
:1046D0001EC018F01FC019F020C01AF021C01BF036
:1046E000C3EC26F0390E236ED20E226E4C0EE82E4D
:1046F000FED7222EFCD7232EFAD700D01EC018F0EA
:104700001FC019F020C01AF021C01BF0FCEC27F0EC
:1047100020EE01F01E50D9261F50DA22000EDF6E67
:1047200020EE01F02050D9262150DA22010EDF6E52
:1047300020EE02F01E50D9261F50DA22010EDF6E45
:1047400020EE02F01E50D9261F50DA22010EDF6E35
:10475000C2EF23F01EC0D9FF1FC0DAFF0A0EDF260A
:1047600020C0D9FF21C0DAFF0A0EDF261EC012F0DA
:104770001FC013F06EEC1FF020C012F021C013F028
:104780006EEC1FF01EC0D9FF1FC0DAFF4F0EDF64B2
:10479000CCEF23F0CEEF23F0AAEF23F020C0D9FF17
:1047A00021C0DAFF4F0EDF64D8EF23F0DAEF23F0F9
:1047B000AAEF23F02E0E236E8A0E226E040EE82E30
:1047C000FED7222EFCD7232EFAD71EC018F01FC00A
:1047D00019F020C01AF021C01BF0FCEC27F01200E9
:1047E000073408340E6E0E50D8A4F9EF23F0FBEF17
:1047F00023F005EF24F0000E056E000E066E000E8D
:10480000076E000E086E72EF24F005C009F006C0B6
:104810000AF007C00BF008C00CF0200E15EF24F0D2
:10482000D8900C320B320A320932E82E10EF24F005
:1048300009500D6E078EFF0E0516FF0E0616FF0EB1
:104840000716000E0816960E0E5E0EBE2CEF24F014
:104850002AEF24F042EF24F00E50800A970FD8B0D0
:1048600034EF24F036EF24F038EF24F0FBEF23F0A0
:10487000D89008320732063205320E3E38EF24F067
:104880005AEF24F01F0E0E6448EF24F04AEF24F094
:1048900052EF24F0FBEF23F0D890053606360736AA
:1048A00008360E060E50D8A458EF24F05AEF24F024
:1048B0004CEF24F00D50D8B460EF24F062EF24F0F8
:1048C0006AEF24F0081E071E061E056C000E062265
:1048D0000722082205C005F006C006F007C007F051
:1048E00008C008F01200000E36143E6E000E371499
:1048F0003F6E800E3814406E7F0E3914416E3E506C
:104900003F1040104110D8A488EF24F08AEF24F023
:1049100092EF24F0000E366E000E376E000E386EE9
:10492000000E396E000E3A143E6E000E3B143F6EC0
:10493000800E3C14406E7F0E3D14416E3E503F1081
:1049400040104110D8A4A7EF24F0A9EF24F0B1EF54
:1049500024F0000E3A6E000E3B6E000E3C6E000E10
:104960003D6E39AEB6EF24F0B8EF24F0C1EF24F07D
:10497000366C371ED8B0372A381ED8B0382A800E89
:1049800039563DAEC6EF24F0C8EF24F0D1EF24F045
:104990003A6C3B1ED8B03B2A3C1ED8B03C2A800E55
:1049A0003D56000E361A000E371A000E381A800EC9
:1049B000391A000E3A1A000E3B1A000E3C1A800EED
:1049C0003D1A3A50365C3B5037583C5038583D50B1
:1049D0003958D8B0EEEF24F0F0EF24F0F3EF24F0E4
:1049E000D890F4EF24F0D8801200EEC00FF0EFC0A2
:1049F00010F0F0C011F0F1C012F005C00FF006C0C9
:104A000010F007C011F008C012F00FC009F010C07C
:104A10000AF011C00BF012C00CF0180E15EF25F0C3
:104A2000D8900C320B320A320932E82E10EF25F002
:104A300009500D6E0E6A0D500E10D8A422EF25F00D
:104A400024EF25F044EF25F0D8900F34096E103490
:104A50000A6E11340B6E12340C6E09500A100B10D2
:104A60000C10D8A436EF25F038EF25F03EEF25F0F6
:104A7000000E066E020E056E73EF25F0000E066E38
:104A8000030E056E73EF25F00D280E10D8A44BEF22
:104A900025F04DEF25F06FEF25F00FC009F010C0A5
:104AA0000AF011C00BF012C00CF0090ED8900936B4
:104AB0000A360B360C36E82E56EF25F009500A1050
:104AC0000B100C10D8B467EF25F06AEF25F0010E3B
:104AD0006BEF25F0000E056E066A73EF25F0000EF1
:104AE000066E040E056E1200000E176E000E166E96
:104AF0007CAE7DEF25F081EF25F0146A142A82EF59
:104B000025F0146A143214327C5014187F0B1418D8
:104B10007C6E090E156E1E0E146EE40EE82EFED786
:104B2000142EFCD7152EFAD700D0164A172A17BE16
:104B3000A3EF25F0175009E1140E165CD8A0A3EFDF
:104B400025F0A5EF25F078EF25F07CAEAAEF25F053
:104B5000AEEF25F0146A142AAFEF25F0146A143270
:104B600014327C5014187F0B14187C6E290E156EAD
:104B7000960E146E7F0EE82EFED7142EFCD7152E3F
:104B8000FAD700F012C010F013C011F030EC2AF088
:104B9000290E156E960E146E7F0EE82EFED7142E7B
:104BA000FCD7152EFAD700F07CAED9EF25F0DDEF5B
:104BB00025F0146A142ADEEF25F0146A1432143238
:104BC0007C5014187F0B14187C6E1200000E176EA8
:104BD000000E166E7CAEEFEF25F0F3EF25F0146AB1
:104BE000142AF4EF25F0146A143214327C5014188D
:104BF0007F0B14187C6E090E156E1E0E146EE40EDB
:104C0000E82EFED7142EFCD7152EFAD700D0164A60
:104C1000172A17BE15EF26F0175009E1140E165C7F
:104C2000D8A015EF26F017EF26F0EAEF25F07CAEBE
:104C30001CEF26F020EF26F0146A142A21EF26F04C
:104C4000146A143214327C5014187F0B14187C6EC2
:104C5000290E156E960E146E7F0EE82EFED7142EBA
:104C6000FCD7152EFAD700F012C010F013C011F0C7
:104C700030EC2AF0290E156E960E146E7F0EE82E7B
:104C8000FED7142EFCD7152EFAD700F07CAE4BEFD2
:104C900026F04FEF26F0146A142A50EF26F0146A1B
:104CA000143214327C5014187F0B14187C6E1200CE
:104CB00020EE01F01850D9261950DA22010EDF6ECD
:104CC00020EE01F01A50D9261B50DA22010EDF6EB9
:104CD00020EE02F01850D9261950DA22010EDF6EAC
:104CE00020EE02F01850D9261950DA22010EDF6E9C
:104CF0009EEF26F018C0D9FF19C0DAFF190EDF6049
:104D000084EF26F086EF26F08CEF26F018C0D9FF4E
:104D100019C0DAFF050EDF261AC0D9FF1BC0DAFF63
:104D2000190EDF6096EF26F098EF26F09EEF26F042
:104D30001AC0D9FF1BC0DAFF050EDF2618C0D9FF45
:104D400019C0DAFF190EDF60A8EF26F0AAEF26F0EF
:104D5000B6EF26F01AC0D9FF1BC0DAFF180EDF64C9
:104D6000B4EF26F0B6EF26F07AEF26F018C012F076
:104D700019C013F06EEC1FF01AC012F01BC013F034
:104D80006EEC1FF0120020EE01F01850D9261950D9
:104D9000DA22000EDF6E20EE01F01A50D9261B50E9
:104DA000DA22000EDF6E20EE02F01850D9261950DC
:104DB000DA22010EDF6E20EE02F01850D9261950CB
:104DC000DA22010EDF6E09EF27F018C0D9FF19C0F3
:104DD000DAFF190EDF60EFEF26F0F1EF26F0F7EFC4
:104DE00026F018C0D9FF19C0DAFF050EDF261AC059
:104DF000D9FF1BC0DAFF190EDF6001EF27F003EFC8
:104E000027F009EF27F01AC0D9FF1BC0DAFF050E03
:104E1000DF2618C0D9FF19C0DAFF190EDF6013EFC3
:104E200027F015EF27F021EF27F01AC0D9FF1BC09C
:104E3000DAFF180EDF641FEF27F021EF27F0E5EF10
:104E400026F018C012F019C013F06EEC1FF01AC053
:104E500012F01BC013F06EEC1FF0120005C0D9FF5A
:104E600006C0DAFF000EDF6E20EE01F00550D926F5
:104E70000650DA22010EDF6E20EE02F00550D92630
:104E80000650DA22010EDF6E20EE05F00550D9261D
:104E90000650DA22AA0EDE6E0F0EDD6E20EE07F04F
:104EA0000550D9260650DA22A60EDE6E0F0EDD6EF4
:104EB00020EE03F00550D9260650DA22C70EDE6E2A
:104EC000000EDD6E07C0D9FF08C0DAFF000EDF6EEE
:104ED00020EE01F00750D9260850DA22010EDF6ECD
:104EE00020EE02F00750D9260850DA22010EDF6EBC
:104EF00020EE05F00750D9260850DA22250EDE6E86
:104F00000F0EDD6E20EE07F00750D9260850DA228A
:104F1000210EDE6E0F0EDD6E20EE03F00750D92657
:104F20000850DA22C70EDE6E000EDD6E120007504A
:104F30000810D8B49EEF27F0A0EF27F0A9EF27F0D4
:104F400007500810D8A4A7EF27F0A9EF27F0AEEF7D
:104F500027F005509AEC2DF0FBEF27F020EE09F03A
:104F60000750D9260850DA22DE50DE10D8B4BBEF45
:104F700027F0BDEF27F0D8EF27F020EE09F007501B
:104F8000D9260850DA2210EE03F00750E126085027
:104F9000E222DE50E65CE650800A0D6EDE50800AAA
:104FA0000D58D8B0D6EF27F0D8EF27F0FBEF27F059
:104FB00020EE03F00750D9260850DA22DECF09F0A0
:104FC000DDCF0AF007C0D9FF08C0DAFFDECF0BF053
:104FD000DDCF0CF009500B24D96E0A500C20DA6E8C
:104FE00005C0DFFF20EE03F00750D9260850DA2273
:104FF000DE2A000EDD2212002EEF28F018C0D9FFA5
:1050000019C0DAFFDF50D8B408EF28F00AEF28F013
:1050100010EF28F018C0D9FF19C0DAFF050EDF5EC7
:105020001AC0D9FF1BC0DAFFDF50D8B41AEF28F03E
:105030001CEF28F022EF28F01AC0D9FF1BC0DAFFBE
:10504000050EDF5E18C012F019C013F06EEC1FF0F1
:105050001AC012F01BC013F06EEC1FF018C0D9FF7D
:1050600019C0DAFFDF50D8B438EF28F03AEF28F053
:1050700046EF28F01AC0D9FF1BC0DAFFDF50D8A4D2
:1050800044EF28F046EF28F0FEEF27F0090E1D6EE2
:105090001E0E1C6EE40EE82EFED71C2EFCD71D2E15
:1050A000FAD700D01200000E05140D6E000E061483
:1050B0000E6E800E07140F6E7F0E0814106E0D50CA
:1050C0000E100F101010D8A468EF28F06AEF28F027
:1050D00072EF28F0000E056E000E066E000E076ED1
:1050E000000E086E000E09140D6E000E0A140E6EEE
:1050F000800E0B140F6E7F0E0C14106E0D500E10E0
:105100000F101010D8A487EF28F089EF28F091EF46
:1051100028F0000E096E000E0A6E000E0B6E000ED7
:105120000C6E095005180FE10A5006180CE10B50DF
:10513000071809E10C500818D8B4A1EF28F0A3EF24
:1051400028F0A6EF28F0D890A7EF28F0D88012001A
:1051500024C018F025C019F026C01AF027C01BF093
:10516000C3EC26F0390E296ED20E286E4C0EE82EB6
:10517000FED7282EFCD7292EFAD700D024C018F04D
:1051800025C019F026C01AF027C01BF0FCEC27F050
:1051900024C018F025C019F026C01AF027C01BF053
:1051A000C3EC26F0720E296EA30E286E9B0EE82E1D
:1051B000FED7282EFCD7292EFAD700F024C01EF0E7
:1051C00025C01FF026C020F027C021F014EC22F0EB
:1051D00024C018F025C019F026C01AF027C01BF013
:1051E000FCEC27F0120024C018F025C019F026C0EE
:1051F0001AF027C01BF0C3EC26F0390E296ED20E30
:10520000286E4C0EE82EFED7282EFCD7292EFAD772
:1052100000D024C018F025C019F026C01AF027C00D
:105220001BF0FCEC27F024C018F025C019F026C0B4
:105230001AF027C01BF0C3EC26F0720E296EA30EE5
:10524000286E9B0EE82EFED7282EFCD7292EFAD7E3
:1052500000F024C01EF025C01FF026C020F027C09B
:1052600021F0B3EC22F024C018F025C019F026C0BC
:105270001AF027C01BF0FCEC27F012007D947D98FB
:105280007B9E7F9C85948598839E879C050E0E014E
:10529000746F060E766F070E696F080E886FBD502B
:1052A0008F0B3009BD6EE00EBE16BF50F00B01092A
:1052B000BF6EC70EBC6EBD8E000EAA6E000EA66E2F
:1052C000000E0F01256F000E216FFC0EAD16F30EC0
:1052D000AD16CF0EAD163F0EAD16AB88AB50F00B32
:1052E0000C09AB6EAB8EA788A750F00B0C09A76E0C
:1052F000A78E26892651F00B0C09266F268F22894E
:105300002251F00B0C09226F228F12001ABE8BEF74
:1053100029F08DEF29F093EF29F019C01EF01AC083
:105320001FF097EF29F0000E1F6E000E1E6E000E8C
:105330001D6E000E1C6EA9EF29F0000E066E200EE9
:10534000056E15C007F016C008F097EC27F01C4A50
:105350001D2A1E501C5C1D50800A1B6E1F50800AA7
:105360001B58D8A0B6EF29F0B8EF29F09DEF29F02F
:1053700017C00EF018C00FF015C010F016C011F0D5
:10538000EBEC2BF01200000E106E000E0F6E0D50A5
:105390000E10D8B4CEEF29F0D0EF29F0F8EF29F0B5
:1053A000010E116ED8EF29F0D8900D360E36112A65
:1053B0000EAEDDEF29F0DFEF29F0D4EF29F0D89021
:1053C0000F3610360D500B5C0E500C58D8A0EBEF7A
:1053D00029F0EDEF29F0F2EF29F00D500B5E0E50A1
:1053E0000C5A0F80D8900E320D32112EDFEF29F0BB
:1053F0000FC00BF010C00CF0120008BE0CEF2AF02A
:1054000008500710061006E10504D8B00AEF2AF08C
:105410000CEF2AF027EF2AF005C009F006C00AF0C9
:1054200007C00BF008C00CF0091E0A1E0B1E0C1E54
:10543000092A000E0A220B220C2209C005F00AC01C
:1054400006F00BC007F00CC008F02FEF2AF005C0E3
:1054500005F006C006F007C007F008C008F012000B
:1054600006EC2BF010C0D9FF11C0DAFF09C0DEFF37
:105470000AC0DDFF2EEC2BF020EE02F01050D926F2
:105480001150DA2209C0DEFF0AC0DDFF7EEC2BF0EE
:1054900020EE04F01050D9261150DA2209C0DEFFA8
:1054A0000AC0DDFF56EC2BF020EE06F01050D92696
:1054B0001150DA2209C0DEFF0AC0DDFF1200300EF3
:1054C000F66E5B0EF76E000EF86E00EEFBF010EE5F
:1054D00004F00900F5CFEEFFE550E150FAE102EEED
:1054E00000F03C0EEE6AE806FDE101EE6DF0640EA0
:1054F000EE6AE806FDE100EEEAF0110EEE6AE8065B
:10550000FDE15A6A596A586A576A5B905B920001DA
:105510006AEF18F0B6C0BAF0B7C0BBF09FEF2AF040
:10552000B4C0A3F0B5C0A4F0BA0E0001A56F000E80
:10553000A66FB8C0A7F0B9C0A8F003EC1AF0BAC0C3
:10554000F6FFBBC0F7FF000EF86E0800F55000092B
:10555000D8A4ADEF2AF0AFEF2AF090EF2AF0000EBA
:105560000001B56F000EB46F1200C00E0001CC6FC9
:10557000000ECD6FBCC0CEF0BDC0CFF0000ED26F1C
:10558000000ED16F000ED86F000ED76FCE0EB46F25
:10559000000EB56FBEC0B6F0BFC0B7F0CC0EB86F8E
:1055A000000EB96F8AEC2AF00001D151BC25D96EEA
:1055B000D251BD21DA6E000EDF6E120007C00DF071
:1055C00008C00EF005C00BF006C00CF0F8EF2AF092
:1055D0000DC0D9FF0EC0DAFFDF500F6E0D4A0E2A44
:1055E0000BC0D9FF0CC0DAFF0FC0DFFF0B4A0C2A3B
:1055F0000906D8A00A06092806E10A28D8A403EF5C
:105600002BF005EF2BF0E8EF2AF012008EEC2DF0D6
:10561000520E83EC2DF0B60E83EC2DF093EC2DF0B2
:10562000530E83EC2DF0010E0DEC2CF00B6E0B5095
:105630000E6E0F6A000E0DEC2CF00B6E0B500D6E03
:105640000C6A0E500C100E6E0F500D100F6E89EC80
:105650002DF00EC009F00FC00AF012008EEC2DF0F4
:10566000520E83EC2DF0B80E83EC2DF093EC2DF060
:10567000530E83EC2DF0010E0DEC2CF00B6E0B5045
:105680000E6E0F6A000E0DEC2CF00B6E0B500D6EB3
:105690000C6A0E500C100E6E0F500D100F6E89EC30
:1056A0002DF00EC009F00FC00AF012008EEC2DF0A4
:1056B000520E83EC2DF0B40E83EC2DF093EC2DF014
:1056C000530E83EC2DF0010E0DEC2CF00B6E0B50F5
:1056D0000E6E0F6A000E0DEC2CF00B6E0B500D6E63
:1056E0000C6A0E500C100E6E0F500D100F6E89ECE0
:1056F0002DF00EC009F00FC00AF012008EEC2DF054
:10570000520E83EC2DF0BA0E83EC2DF093EC2DF0BD
:10571000530E83EC2DF0010E0DEC2CF00B6E0B50A4
:105720000E6E0F6A000E0DEC2CF00B6E0B500D6E12
:105730000C6A0E500C100E6E0F500D100F6E89EC8F
:105740002DF00EC009F00FC00AF01200000E191A59
:10575000000E1A1A000E1B1A800E1C1A15C005F036
:1057600016C006F017C007F018C008F019C009F0FD
:105770001AC00AF01BC00BF01CC00CF028EC12F091
:1057800005C015F006C016F007C017F008C018F0E5
:10579000120007C009F008C00AF005C00BF006C0EF
:1057A0000CF009C0F6FF0AC0F7FF094A0A2A000EEA
:1057B000F86E0BC0D9FF0CC0DAFF0B4A0C2A0800A8
:1057C000F5CFDFFFDF50D8A4E8EF2BF0EAEF2BF0A6
:1057D000D1EF2BF01200000E146E000E136EFCEFD2
:1057E0002BF012C005F0066A10C007F011C008F0D7
:1057F00097EC27F0134A142A13500E24D96E145034
:105800000F20DA6EDF50126E1250D8A40AEF2CF07F
:105810000CEF2CF0F1EF2BF01200076E27EC2DF0BF
:105820000E01DA8727EC2DF0D5CE08F027EC2DF00D
:105830000750D8B41EEF2CF022EF2CF0066A062A8F
:1058400023EF2CF0066A063A06460E01DA510618D6
:10585000DF0B0618DA6FDA890850120018BE3BEF2A
:105860002CF0185006E11704D8B039EF2CF03BEFBC
:105870002CF049EF2CF017C019F018C01AF0191EBF
:105880001A1E194A1A2A19C017F01AC018F04DEF3B
:105890002CF017C017F018C018F0120024C01EF02A
:1058A00025C01FF026C020F027C021F0D6EC20F044
:1058B00024C01EF025C01FF026C020F027C021F014
:1058C000D6EC20F024C018F025C019F026C01AF03C
:1058D00027C01BF0FCEC27F0120005500610071043
:1058E0000810D8B476EF2CF078EF2CF080EF2CF085
:1058F000000E051A000E061A000E071A800E081A6E
:1059000005C005F006C006F007C007F008C008F0A3
:105910001200E8EC2CF0010E076E000E4EEC2DF09C
:105920003F0E096E550EE82EFED7092EFCD700F06B
:10593000030E076E000E4EEC2DF0D50E076E010E15
:105940004EEC2DF01200AEEF2CF006C0D9FF07C0D0
:10595000DAFFDF50FDEC2CF0064A072A06C0D9FF1B
:1059600007C0DAFFDF50D8A4B8EF2CF0BAEF2CF064
:10597000A5EF2CF012000E01E997E895330EE56FC4
:10598000000EE66FE789E88BE78F8382120E626F65
:10599000110E156FF28EF28AF28C2D872D952387CA
:1059A000238512003B0E5764D8EF2CF0DAEF2CF071
:1059B000DCEF2CF0000E576E572A5704016E026A76
:1059C000000E0124D96E020E0220DA6EDF501200A2
:1059D0000E01D951F00B0809D96FD98B9F0ED66FE4
:1059E000848A848CA79BA79D1D0E1D6F1E0E1C6FA5
:1059F0001C0E6F6F1B0E706F1200056E3B0E58640D
:105A000004EF2DF006EF2DF008EF2DF0000E586E8C
:105A1000000E5824D96EDA6A020EDA2205C0DFFFC2
:105A2000582A1200016E130E5A6419EF2DF01BEF65
:105A30002DF01DEF2DF0000E5A6E6D0E5A24D96E0A
:105A4000DA6A010EDA2201C0DFFF5A2A12000E01C3
:105A5000D8B52DEF2DF02FEF2DF027EF2DF0DACE6A
:105A600005F01F0E0516D8A438EF2DF03AEF2DF0F3
:105A700027EF2DF0120005500702F3CF09F0F4CF05
:105A80000AF005500802F3500A2606500702F350A8
:105A90000A2609C005F00AC006F01200086E8EEC56
:105AA0002DF0520E83EC2DF00850800983EC2DF080
:105AB000075083EC2DF089EC2DF012006BEC2DF0EB
:105AC0000009D8B466EF2DF068EF2DF06AEF2DF0E5
:105AD0000E012D85120057505818D8A472EF2DF0E2
:105AE00075EF2DF0010E76EF2DF0000E12005750DD
:105AF0005818D8A47EEF2DF081EF2DF0010E82EF23
:105B00002DF0000E1200066E27EC2DF006C0D5FE1B
:105B1000120027EC2DF00E01DA85120027EC2DF093
:105B20000E01DA81120027EC2DF00E01DA8312004B
:065B3000BC02BB001200E4
:020000040020DA
:10000000FF0FFF0FFF0FFF0FFF0FFF0FFF0FFF0F80
:020000040030CA
:0C000000AAFFFFFF9FFFFFFFFFFFFFFFB5
:00000001FF
