:040000003BEF00F0E2
:100008005B82D9CF03F0DACF04F00E0137A70FEFE8
:1000180000F011EF00F014EF00F0E351CBEC27F003
:100028000E0137A51AEF00F01CEF00F035EF00F0D5
:100038002DA521EF00F023EF00F035EF00F030ECB4
:1000480028F0E806D8A42BEF00F02DEF00F033EFEE
:1000580000F076EC27F00E01E46F35EF00F00E01AA
:100068002D9504C0DAFF03C0D9FF5B9211008CEF15
:0200780027F06F
:100E0000002020433A2025642020256420202566E8
:100E1000200D0025642C25642C25642C2564200DD0
:0B0E20000A00696E66006E616E000043
:100E2C007E0E106E000E116E1EEC25F064C0D9FF04
:100E3C0065C0DAFFDECF78F0DDCF79F0000120EE6F
:100E4C0002F06451D9266551DA22DECF7AF0DDCF7B
:100E5C007BF020EE04F06451D9266551DA22DECF06
:100E6C007CF0DDCF7DF066C0D9FF67C0DAFFDECF46
:100E7C004FF0DDCF50F04FC005F050C006F0076AC0
:100E8C00086A000E9AEC1CF005C06CF006C06DF000
:100E9C0007C06EF008C06FF0000120EE02F0665142
:100EAC00D9266751DA22DECF4FF0DDCF50F04FC09C
:100EBC0005F050C006F0076A086A000E9AEC1CF0A8
:100ECC0005C070F006C071F007C072F008C073F076
:100EDC00000120EE04F06651D9266751DA22DECFEC
:100EEC004FF0DDCF50F04FC005F050C006F0076A50
:100EFC00086A000E9AEC1CF005C074F006C075F080
:100F0C0007C076F008C077F0000120EE06F06651BD
:100F1C00D9266751DA22DECF4FF0DDCF50F04FC02B
:100F2C0005F050C006F0076A086A000E9AEC1CF037
:100F3C00000178517E5D4F6E79517F59506E4FC0D4
:100F4C0005F050C006F0076A086A000E9AEC1CF017
:100F5C0005C036F006C037F007C038F008C039F0CD
:100F6C0060C019F061C01AF062C01BF063C01CF0C5
:100F7C0078C005F079C006F0076A086A000E9AEC92
:100F8C001CF005C032F006C033F007C034F008C0C6
:100F9C0035F06CC02EF06DC02FF06EC030F06FC00D
:100FAC0031F069EC26F02EC015F02FC016F030C0D1
:100FBC0017F031C018F0C8EC13F015C03AF016C099
:100FCC003BF017C03CF018C03DF0DDEC15F036C01E
:100FDC0086F037C087F038C088F039C089F000013E
:100FEC007A51805D4F6E7B518159506E4FC005F028
:100FFC0050C006F0076A086A000E9AEC1CF005C097
:10100C0036F006C037F007C038F008C039F060C0C1
:10101C0019F061C01AF062C01BF063C01CF07AC0FA
:10102C0005F07BC006F0076A086A000E9AEC1CF00B
:10103C0005C032F006C033F007C034F008C035F0FC
:10104C0070C02EF071C02FF072C030F073C031F050
:10105C0069EC26F02EC015F02FC016F030C017F03A
:10106C0031C018F0C8EC13F015C03AF016C03BF0C4
:10107C0017C03CF018C03DF0DDEC15F036C08AF01E
:10108C0037C08BF038C08CF039C08DF000017C512A
:10109C00825D4F6E7D518359506E4FC005F050C02C
:1010AC0006F0076A086A000E9AEC1CF005C036F0D0
:1010BC0006C037F007C038F008C039F060C019F02E
:1010CC0061C01AF062C01BF063C01CF07CC005F05C
:1010DC007DC006F0076A086A000E9AEC1CF005C089
:1010EC0032F006C033F007C034F008C035F074C0DD
:1010FC002EF075C02FF076C030F077C031F069EC6F
:10110C0026F02EC015F02FC016F030C017F031C0ED
:10111C0018F0C8EC13F015C03AF016C03BF017C02D
:10112C003CF018C03DF0DDEC15F036C08EF037C049
:10113C008FF038C090F039C091F0000189BFA9EF51
:10114C0008F0ABEF08F0C4EF08F0000E366E000E9E
:10115C00376E000E386E400E396E86C03AF087C07E
:10116C003BF088C03CF089C03DF0A6EC20F0D8B034
:10117C00C2EF08F0C4EF08F0CDEF08F0000E00014C
:10118C00866F000E876F000E886F000E896F00014E
:10119C008DBFD3EF08F0D5EF08F0EEEF08F0000E9E
:1011AC00366E000E376E000E386E400E396E8AC0E9
:1011BC003AF08BC03BF08CC03CF08DC03DF0A6ECFF
:1011CC0020F0D8B0ECEF08F0EEEF08F0F7EF08F0F5
:1011DC00000E00018A6F000E8B6F000E8C6F000EDC
:1011EC008D6F000191BFFDEF08F0FFEF08F018EFD5
:1011FC0009F0000E366E000E376E000E386E400E83
:10120C00396E8EC03AF08FC03BF090C03CF091C06C
:10121C003DF0A6EC20F0D8B016EF09F018EF09F06D
:10122C0021EF09F0000E00018E6F000E8F6F000E83
:10123C00906F000E916F660E366E660E376E660EF0
:10124C00386E3F0E396E86C03AF087C03BF088C0CE
:10125C003CF089C03DF0A6EC20F0D8B038EF09F096
:10126C003AEF09F084EF09F0660E366E660E376EB3
:10127C00660E386E3F0E396E8AC03AF08BC03BF06A
:10128C008CC03CF08DC03DF0A6EC20F0D8B051EFF6
:10129C0009F053EF09F084EF09F0660E366E660E16
:1012AC00376E660E386E3F0E396E8EC03AF08FC0B8
:1012BC003BF090C03CF091C03DF0A6EC20F0D8B0D3
:1012CC006AEF09F06CEF09F084EF09F02A0E4F6E0B
:1012DC008E0EE82EFED74F2EFCD768C018F069C0D2
:1012EC0019F06AC01AF06BC01BF0B2EC24F02A0E95
:1012FC004F6E8E0EE82EFED74F2EFCD7000E366E9C
:10130C00000E376EC00E386E3F0E396E86C03AF046
:10131C0087C03BF088C03CF089C03DF0A6EC20F0C3
:10132C00D8B09BEF09F09DEF09F004EF0AF0CD0E59
:10133C00366ECC0E376E4C0E386E3F0E396E8AC040
:10134C0032F08BC033F08CC034F08DC035F086C0D9
:10135C002EF087C02FF088C030F089C031F069ECD6
:10136C0026F02EC03AF02FC03BF030C03CF031C01C
:10137C003DF0A6EC20F0D8B0C6EF09F0C8EF09F0AC
:10138C0004EF0AF0CD0E366ECC0E376E4C0E386E66
:10139C003F0E396E8EC032F08FC033F090C034F0F7
:1013AC0091C035F086C02EF087C02FF088C030F089
:1013BC0089C031F069EC26F02EC03AF02FC03BF01A
:1013CC0030C03CF031C03DF0A6EC20F0D8B0F1EFCD
:1013DC0009F0F3EF09F004EF0AF068C018F069C0E7
:1013EC0019F06AC01AF06BC01BF023EC20F02A0E27
:1013FC004F6E8E0EE82EFED74F2EFCD7660E366E35
:10140C00660E376EA60E386E3F0E396E86C03AF0F9
:10141C0087C03BF088C03CF089C03DF0A6EC20F0C2
:10142C00D8B01BEF0AF01DEF0AF056EF0AF0000ED1
:10143C00366E000E376E000E386E3F0E396E8AC057
:10144C003AF08BC03BF08CC03CF08DC03DF0A6EC6C
:10145C0020F0D8B034EF0AF036EF0AF056EF0AF06D
:10146C00000E366E000E376E000E386E3F0E396E63
:10147C008EC03AF08FC03BF090C03CF091C03DF074
:10148C00A6EC20F0D8B04DEF0AF04FEF0AF056EF73
:10149C000AF02A0E4F6E8E0EE82EFED74F2EFCD77A
:1014AC00000E366E000E376E800E386E3F0E396EA3
:1014BC0086C03AF087C03BF088C03CF089C03DF054
:1014CC00A6EC20F0D8B06DEF0AF06FEF0AF0A8EFA1
:1014DC000AF0CD0E366ECC0E376E4C0E386E3F0EBB
:1014EC00396E8AC03AF08BC03BF08CC03CF08DC09A
:1014FC003DF0A6EC20F0D8B086EF0AF088EF0AF0A9
:10150C00A8EF0AF08EC036F08FC037F090C038F0DC
:10151C0091C039F0CD0E3A6ECC0E3B6E4C0E3C6E3B
:10152C003F0E3D6EA6EC20F0D8B09FEF0AF0A1EF75
:10153C000AF0A8EF0AF02A0E4F6E8E0EE82EFED798
:10154C004F2EFCD7330E366E330E376E330E386E8D
:10155C003F0E396E86C032F087C033F088C034F04D
:10156C0089C035F08EC02EF08FC02FF090C030F0B7
:10157C0091C031F069EC26F02EC03AF02FC03BF050
:10158C0030C03CF031C03DF0A6EC20F0D8B0D1EF2B
:10159C000AF0D3EF0AF01EEF0BF09A0E366E990E8E
:1015AC00376E990E386E3E0E396E8AC032F08BC093
:1015BC0033F08CC034F08DC035F08EC02EF08FC05F
:1015CC002FF090C030F091C031F069EC26F02EC0B5
:1015DC003AF02FC03BF030C03CF031C03DF0A6ECEF
:1015EC0020F0D8B0FCEF0AF0FEEF0AF01EEF0BF083
:1015FC00330E366E330E376E330E386E3F0E396E39
:10160C008EC03AF08FC03BF090C03CF091C03DF0E2
:10161C00A6EC20F0D8B015EF0BF017EF0BF01EEF87
:10162C000BF02A0E4F6E8E0EE82EFED74F2EFCD7E7
:10163C00CD0E366ECC0E376ECC0E386E3E0E396E2D
:10164C0086C032F087C033F088C034F089C035F0E2
:10165C008AC02EF08BC02FF08CC030F08DC031F0D2
:10166C0069EC26F02EC03AF02FC03BF030C03CF0B5
:10167C0031C03DF0A6EC20F0D8B047EF0BF049EFAD
:10168C000BF094EF0BF0000E366E000E376E800EE2
:10169C00386E3F0E396E8AC03AF08BC03BF08CC06E
:1016AC003CF08DC03DF0A6EC20F0D8B060EF0BF014
:1016BC0062EF0BF094EF0BF0CD0E366ECC0E376E56
:1016CC00CC0E386E3E0E396E8EC032F08FC033F0B9
:1016DC0090C034F091C035F08AC02EF08BC02FF042
:1016EC008CC030F08DC031F069EC26F02EC03AF091
:1016FC002FC03BF030C03CF031C03DF0A6EC20F0E8
:10170C00D8B08BEF0BF08DEF0BF094EF0BF02A0EA3
:10171C004F6E8E0EE82EFED74F2EFCD786C036F0BD
:10172C0087C037F088C038F089C039F0330E3A6E74
:10173C00330E3B6E330E3C6E3F0E3D6EA6EC20F02E
:10174C00D8B0ABEF0BF0ADEF0BF0E6EF0BF0000EFB
:10175C00366E000E376E800E386E3F0E396E8AC0B4
:10176C003AF08BC03BF08CC03CF08DC03DF0A6EC49
:10177C0020F0D8B0C4EF0BF0C6EF0BF0E6EF0BF097
:10178C00000E366E000E376E800E386E3F0E396EC0
:10179C008EC03AF08FC03BF090C03CF091C03DF051
:1017AC00A6EC20F0D8B0DDEF0BF0DFEF0BF0E6EF9E
:1017BC000BF02A0E4F6E8E0EE82EFED74F2EFCD756
:1017CC00330E366E330E376E730E386E3F0E396E27
:1017DC0086C03AF087C03BF088C03CF089C03DF031
:1017EC00A6EC20F0D8B0FDEF0BF0FFEF0BF06AEF9A
:1017FC000CF0CD0E366ECC0E376E4C0E386E3F0E96
:10180C00396E8AC03AF08BC03BF08CC03CF08DC076
:10181C003DF0A6EC20F0D8B016EF0CF018EF0CF061
:10182C006AEF0CF08AC036F08BC037F08CC038F001
:10183C008DC039F0660E3A6E660E3B6E660E3C6ECF
:10184C003F0E3D6EA6EC20F0D8B02FEF0CF031EF30
:10185C000CF06AEF0CF0CD0E366ECC0E376E4C0ED3
:10186C00386E3F0E396E8EC03AF08FC03BF090C090
:10187C003CF091C03DF0A6EC20F0D8B048EF0CF055
:10188C004AEF0CF06AEF0CF08EC036F08FC037F0D8
:10189C0090C038F091C039F0330E3A6E330E3B6E77
:1018AC00730E3C6E3F0E3D6EA6EC20F0D8B061EF8F
:1018BC000CF063EF0CF06AEF0CF02A0E4F6E8E0EEC
:1018CC00E82EFED74F2EFCD71200000E0001986FA9
:1018DC0072C099F073C09AF074C09BF075C09CF004
:1018EC009CBF7DEF0CF07BEF0CF091EF0CF0010E38
:1018FC00986F99C005F09AC006F09BC007F09CC089
:10190C0008F011EC27F005C099F006C09AF007C05A
:10191C009BF008C09CF0000E00019E6F000E9D6FA6
:10192C00F3C088F0F4C089F09851D8B4A0EF0CF053
:10193C00A2EF0CF0B6EF0CF09851D8A4A8EF0CF075
:10194C00AAEF0CF0B0EF0CF0000E7E6F2B0E7D6F3B
:10195C00B4EF0CF0000E7E6F2D0E7D6F7DC098F0F5
:10196C0099C005F09AC006F09BC007F09CC008F027
:10197C0028EC21F005040610D8A4C7EF0CF0C9EF31
:10198C000CF0FCEF0CF000019851D8B4D0EF0CF037
:10199C00D2EF0CF0DBEF0CF098C03CF18807D8A02C
:1019AC008907000E9E6F010E9D6F3C0E9D25056EE6
:1019BC00010E9E21066E220E076E0E0E086E8CEC2A
:1019CC0026F00001FD0E8827FF0E892370C015F04C
:1019DC0071C016F03C0E176E010E186E88C019F00F
:1019EC0089C01AF03BEC24F067EF11F099C005F0B8
:1019FC009AC006F09BC007F09CC008F028EC21F0C0
:101A0C0005500610D8A40DEF0DF00FEF0DF02FEFD1
:101A1C000DF000019851D8B416EF0DF018EF0DF041
:101A2C0021EF0DF098C03CF18807D8A08907000E73
:101A3C009E6F010E9D6F3C0E9D25056E010E9E2125
:101A4C00066E260E076E0E0E086E8CEC26F0E7EF77
:101A5C000CF0000E00019F6F000EA06F800EA16FA6
:101A6C003F0EA26F000E876F000E866F99C005F0B7
:101A7C009AC006F09BC007F09CC008F0000E096EDF
:101A8C00000E0A6E000E0B6E000E0C6E59EC23F05D
:101A9C00D8B053EF0DF055EF0DF034EF0EF062EFC0
:101AAC000DF08AC09FF08BC0A0F08CC0A1F08DC04F
:101ABC00A2F00001864B872B9FC015F0A0C016F03A
:101ACC00A1C017F0A2C018F0000E196E000E1A6E0D
:101ADC00200E1B6E410E1C6EC8EC13F015C08AF064
:101AEC0016C08BF017C08CF018C08DF000018A5115
:101AFC00995D056E8B519A59066E8C519B59076EE8
:101B0C008D519C59086EEBEC24F008BE99EF0DF04A
:101B1C0008500710061009E1020E055CD8A099EFD9
:101B2C000DF09BEF0DF057EF0DF08AC036F08BC027
:101B3C0037F08CC038F08DC039F099C03AF09AC0AB
:101B4C003BF09BC03CF09CC03DF0A6EC20F0D8A034
:101B5C00B2EF0DF0B4EF0DF057EF0DF000019F5107
:101B6C00995D056EA0519A59066EA1519B59076E4D
:101B7C00A2519C59086EEBEC24F008BED3EF0DF08B
:101B8C0008500710061007E1020E055CD8B0D1EF23
:101B9C000DF0D3EF0DF01BEF0EF09FC099F0A0C02D
:101BAC009AF0A1C09BF0A2C09CF034EF0EF09FC045
:101BBC0036F0A0C037F0A1C038F0A2C039F0000E4A
:101BCC003A6E000E3B6E200E3C6E410E3D6EDDEC0F
:101BDC0015F036C09FF037C0A0F038C0A1F039C066
:101BEC00A2F000018607D8A087079F51995D056E6A
:101BFC00A0519A59066EA1519B59076EA2519C593E
:101C0C00086EEBEC24F008BE19EF0EF0085007102C
:101C1C00061007E1020E055CD8B017EF0EF019EFB5
:101C2C000EF01BEF0EF0D3EF0DF099C036F09AC00A
:101C3C0037F09BC038F09CC039F09FC03AF0A0C080
:101C4C003BF0A1C03CF0A2C03DF0A6EC20F0D8A027
:101C5C0032EF0EF034EF0EF0DDEF0DF076C080F0C9
:101C6C0080C081F00001F6BF3EEF0EF040EF0EF0A9
:101C7C0046EF0EF0F5C079F0F6C07AF04AEF0EF0B0
:101C8C00000E7A6F060E796F79C084F07AC085F0F9
:101C9C00844B852B660E8119D8A457EF0EF059EFA3
:101CAC000EF079EF0EF087BF60EF0EF05EEF0EF0E6
:101CBC006CEF0EF0000E9F6F000EA06F800EA16FE8
:101CCC003F0EA26F000E876F000E866F670E801995
:101CDC00D8B473EF0EF075EF0EF079EF0EF086516D
:101CEC00842787518523000E8F6F000E8E6F99C04D
:101CFC0090F09AC091F09BC092F09CC093F09FC062
:101D0C008AF0A0C08BF0A1C08CF0A2C08DF00AEFBD
:101D1C000FF090C036F091C037F092C038F093C0FD
:101D2C0039F09FC03AF0A0C03BF0A1C03CF0A2C07B
:101D3C003DF0DDEC15F036C04FF037C050F038C038
:101D4C0051F039C052F08FEC1BF04FC094F050C0E2
:101D5C0095F051C096F052C097F094C005F095C024
:101D6C0006F096C007F097C008F0A0EC1FF005C075
:101D7C0082F006C083F090C02EF091C02FF092C07C
:101D8C0030F093C031F094C019F095C01AF096C0A1
:101D9C001BF097C01CF09FC015F0A0C016F0A1C09E
:101DAC0017F0A2C018F0C8EC13F015C032F016C032
:101DBC0033F017C034F018C035F069EC26F02EC0A3
:101DCC0090F02FC091F030C092F031C093F09FC0D2
:101DDC0036F0A0C037F0A1C038F0A2C039F0000E28
:101DEC003A6E000E3B6E200E3C6E410E3D6EDDECED
:101DFC0015F036C09FF037C0A0F038C0A1F039C044
:101E0C00A2F000018E4B8F2B84518E5D8F51800A76
:101E1C00536E8551800A5358D8A017EF0FF019EF65
:101E2C000FF08FEF0EF09FC015F0A0C016F0A1C000
:101E3C0017F0A2C018F0000E196E000E1A6EA00E4C
:101E4C001B6E400E1C6EC8EC13F015C094F016C03F
:101E5C0095F017C096F018C097F090C036F091C06E
:101E6C0037F092C038F093C039F094C03AF095C076
:101E7C003BF096C03CF097C03DF0A6EC20F0D8B0FB
:101E8C004AEF0FF04CEF0FF057EF0FF0000E000180
:101E9C00946F000E956F000E966F000E976F80EF8B
:101EAC000FF090C005F091C006F092C007F093C0FF
:101EBC0008F094C009F095C00AF096C00BF097C0DA
:101ECC000CF059EC23F0D8A06EEF0FF070EF0FF080
:101EDC0080EF0FF0000182B176EF0FF078EF0FF08A
:101EEC0080EF0FF0000E946F000E956F000E966F42
:101EFC00000E976F99C005F09AC006F09BC007F0D2
:101F0C009CC008F094C009F095C00AF096C00BF084
:101F1C0097C00CF068EC11F005C090F006C091F081
:101F2C0007C092F008C093F090C036F091C037F023
:101F3C0092C038F093C039F0000E196E000E1A6E74
:101F4C00200E1B6E410E1C6E8AC015F08BC016F055
:101F5C008CC017F08DC018F0C8EC13F015C03AF017
:101F6C0016C03BF017C03CF018C03DF0A6EC20F0BA
:101F7C00D8A0C3EF0FF0C5EF0FF0EEEF0FF000019C
:101F8C00864B872B8AC015F08BC016F08CC017F0CF
:101F9C008DC018F0000E196E000E1A6E200E1B6EFE
:101FAC00410E1C6EC8EC13F015C08AF016C08BF0F5
:101FBC0017C08CF018C08DF0660E00018119D8A4E2
:101FCC00EAEF0FF0ECEF0FF0EEEF0FF0844B852BF8
:101FDC008AC09FF08BC0A0F08CC0A1F08DC0A2F085
:101FEC0086C077F087C078F0000E00017F6F000E7E
:101FFC007C6F000E7B6F000E8F6F000E8E6FECEF00
:10200C0010F090C036F091C037F092C038F093C009
:10201C0039F09FC03AF0A0C03BF0A1C03CF0A2C088
:10202C003DF0DDEC15F036C04FF037C050F038C045
:10203C0051F039C052F08FEC1BF04FC094F050C0EF
:10204C0095F051C096F052C097F094C005F095C031
:10205C0006F096C007F097C008F0A0EC1FF006BE83
:10206C0043EF10F0065007E10A0E055CD8B041EFC3
:10207C0010F043EF10F053EF10F094C005F095C042
:10208C0006F096C007F097C008F0A0EC1FF005C052
:10209C0082F006C083F058EF10F0000E0001836F41
:1020AC00090E826F00017F51D8A45FEF10F061EF31
:1020BC0010F089EF10F078BF68EF10F066EF10F0B9
:1020CC0089EF10F03C0E9D25D96E010E9E21DA6E23
:1020DC002E0EDF6E9D4B9E2B8807D8A08907010E14
:1020EC007F6F89EF10F03C0E9D25D96E010E9E215D
:1020FC00DA6E300EDF6E9D4B9E2B8807D8A08907B9
:10210C007B07D8A07C077B517C11D8A490EF10F0F2
:10211C0092EF10F079EF10F03C0E9D25D96E010E68
:10212C009E21DA6E8251300FDF6E9D4B9E2B8807FD
:10213C00D8A0890790C02EF091C02FF092C030F03B
:10214C0093C031F094C019F095C01AF096C01BF0F2
:10215C0097C01CF09FC015F0A0C016F0A1C017F0DE
:10216C00A2C018F0C8EC13F015C032F016C033F052
:10217C0017C034F018C035F069EC26F02EC090F082
:10218C002FC091F030C092F031C093F09FC036F068
:10219C00A0C037F0A1C038F0A2C039F0000E3A6EE2
:1021AC00000E3B6E200E3C6E410E3D6EDDEC15F0CC
:1021BC0036C09FF037C0A0F038C0A1F039C0A2F0F3
:1021CC0000017707D8A078078E4B8F2B84518E5D3A
:1021DC008F51800A536E8551800A5358D8B0F9EF4D
:1021EC0010F0FBEF10F009EF11F09EBF07EF11F0AC
:1021FC009E5109E14B0E9D5DD8A007EF11F009EF40
:10220C0011F007EF10F0000E8F6F4F0E8E6F3C0E1B
:10221C008E25D96E010E8F21DA6E000EDF6E3C0E0C
:10222C00536E010E546E9D51535E9E51545A8E51F5
:10223C005324056E8F515420066E3C0E076E010E12
:10224C00086E9DC009F09EC00AF0A1EC25F00001BB
:10225C009D518E5D9D6F9E518F599E6F9851D8A444
:10226C003AEF11F03DEF11F0010E3EEF11F0000EC0
:10227C008E6F8F6B9851D8B446EF11F048EF11F078
:10228C0053EF11F09D07D8A09E073C0E9D25D96EEB
:10229C00010E9E21DA6E98C0DFFF8E51885F8F5140
:1022AC00895B70C015F071C016F03C0E9D25176E41
:1022BC00010E9E21186E88C019F089C01AF03BECF3
:1022CC0024F012000850800B116E08500824136E75
:1022DC0007AE73EF11F075EF11F076EF11F013807C
:1022EC001350D8B47CEF11F07EEF11F093EF11F096
:1022FC001328D8A484EF11F086EF11F08EEF11F0B3
:10230C00000E056E000E066E000E076E000E086EB7
:10231C00078E000E086E9BEF11F0000E056E000E7E
:10232C00066E000E076E000E086E0C50800B126EBF
:10233C0011501218D8B4A5EF11F0A7EF11F0A8EFB7
:10234C0011F0118C0C500C24126E0BAEB0EF11F07E
:10235C00B2EF11F0B3EF11F012801250D8B4B9EF04
:10236C0011F0BBEF11F0D0EF11F01228D8A4C1EF8F
:10237C0011F0C3EF11F0CBEF11F0000E096E000E4F
:10238C000A6E000E0B6E000E0C6E0B8E000E0C6E99
:10239C00D8EF11F0000E096E000E0A6E000E0B6ED7
:1023AC00000E0C6E1350125CD8B0DFEF11F0E1EFA1
:1023BC0011F008EF12F011ACE6EF11F0E8EF11F0AC
:1023CC00EAEF11F0800E111A13C014F012C013F0C2
:1023DC0014C012F005C014F009C005F014C009F0C7
:1023EC0006C014F00AC006F014C00AF007C014F0BE
:1023FC000BC007F014C00BF008C014F00CC008F0B0
:10240C0014C00CF0000E146E135012C00DF00E6AB6
:10241C000D5E000E0E5A0EBE1DEF12F00E5009E1AD
:10242C001A0E0D5CD8A01DEF12F01FEF12F056EF34
:10243C0012F00550061007100810D8A428EF12F05F
:10244C002BEF12F0010E2CEF12F0000E146E000E9A
:10245C00056E000E066E000E076E000E086E12C0A2
:10246C0013F05FEF12F014A03EEF12F040EF12F0F9
:10247C0046EF12F0D89014300109146E48EF12F0A8
:10248C00D890143205A04DEF12F04FEF12F050EF30
:10249C0012F0148E08340832073206320532132A31
:1024AC001250135CD8A05DEF12F05FEF12F039EF11
:1024BC0012F011BC64EF12F066EF12F0A6EF12F0FE
:1024CC001350D8A46CEF12F06EEF12F078EF12F0FC
:1024DC00000E056E000E066E000E076E000E086EE6
:1024EC00C7EF13F0095005260A5006220B5007229D
:1024FC000C50082208A085EF12F087EF12F033EF92
:10250C0013F014A08CEF12F08EEF12F094EF12F087
:10251C00D89014300109146E96EF12F0D890143242
:10252C0005A09BEF12F09DEF12F09EEF12F0148EAF
:10253C0008340832073206320532132A33EF13F00F
:10254C000950055C0A5006580B5007580850800A71
:10255C000D6E0C50800A0D58D8B0B7EF12F0B9EFD1
:10256C0012F0E4EF12F00550095C0D6E06500A589B
:10257C000E6E07500B580F6E08500C58106EFF0E55
:10258C000D24056EFF0E0E20066EFF0E0F20076E3B
:10259C00FF0E1020086E800E111A146C1450D8A463
:1025AC00DAEF12F0DCEF12F0ECEF12F0010E052670
:1025BC00000E062207220822ECEF12F00950055EED
:1025CC000A50065A0B50075A0C50085A0550061060
:1025DC0007100810D8A4F5EF12F0F7EF12F02CEF5B
:1025EC0013F01450D8A4FDEF12F0FFEF12F02CEF03
:1025FC0013F0000E056E000E066E000E076E000E38
:10260C00086EC7EF13F0D890053606360736083635
:10261C0014AE13EF13F015EF13F016EF13F0058053
:10262C0014A01BEF13F01DEF13F021EF13F0D88063
:10263C00143623EF13F0D89014361350D8B429EF76
:10264C0013F02BEF13F02CEF13F0130607AE31EF52
:10265C0013F033EF13F009EF13F0000E126E14AEFB
:10266C003AEF13F03CEF13F054EF13F014C00DF0ED
:10267C007F0E0D16D8B445EF13F047EF13F04BEF68
:10268C0013F0010E126E54EF13F005A050EF13F07F
:10269C0052EF13F054EF13F047EF13F01250D8B47D
:1026AC005AEF13F05CEF13F087EF13F0010E0526D1
:1026BC00000E06220722082208A067EF13F069EF2C
:1026CC0013F087EF13F005C00DF006C00EF007C035
:1026DC000FF008C010F0103410320F320E320D32E1
:1026EC000DC005F00EC006F00FC007F010C008F0CA
:1026FC001328D8B484EF13F086EF13F087EF13F0A0
:10270C00132A1328D8B48DEF13F08FEF13F097EF33
:10271C0013F01350D8A495EF13F097EF13F0A9EF23
:10272C0013F0000E056E000E066E000E076E000E06
:10273C00086E1350D8A4A5EF13F0A7EF13F0A9EF70
:10274C0013F0000E116E13A0AEEF13F0B0EF13F0F8
:10275C00B3EF13F0078EB4EF13F0079ED89013303D
:10276C00086E11AEBCEF13F0BEEF13F0BFEF13F019
:10277C00088E05C005F006C006F007C007F008C0BB
:10278C0008F012001850800B216E18501824276E78
:10279C0017AED3EF13F0D5EF13F0D6EF13F027806D
:1027AC002750D8B4DCEF13F0DEEF13F0F1EF13F099
:1027BC002728D8A4E4EF13F0E6EF13F0EEEF13F0B4
:1027CC00000E156E000E166E000E176E000E186EB3
:1027DC00178EF9EF13F0000E156E000E166E000E2C
:1027EC00176E000E186E1C50800B211A1C501C24E6
:1027FC00266E1BAE04EF14F006EF14F007EF14F086
:10280C0026802650D8B40DEF14F00FEF14F022EF01
:10281C0014F02628D8A415EF14F017EF14F01FEFBE
:10282C0014F0000E196E000E1A6E000E1B6E000EC8
:10283C001C6E1B8E2AEF14F0000E196E000E1A6E11
:10284C00000E1B6E000E1C6E2650D8B430EF14F028
:10285C0032EF14F03AEF14F02750D8A438EF14F0FC
:10286C003AEF14F044EF14F0000E156E000E166ED5
:10287C00000E176E000E186EDCEF15F01B501502D3
:10288C00F3CF2CF0F4CF2DF02C50226E236A246A57
:10289C00256A2D50286E296A2A6A2B6A1A5016024C
:1028AC00F3CF2CF0F4CF2DF02C502226000E232247
:1028BC00242225222D502826000E29222A222B22C2
:1028CC0019501702F3CF2CF0F4CF2DF02C502226F8
:1028DC00000E2322242225222D502826000E2922E8
:1028EC002A222B2224C025F023C024F022C023F05E
:1028FC00226A19501602F3CF2CF0F4CF2DF02C5085
:10290C0022262D502322000E2422000E25221A509E
:10291C001502F3CF2CF0F4CF2DF02C5022262D5095
:10292C002322000E2422000E252224C025F023C0D1
:10293C0024F022C023F0226A19501502F3CF2CF098
:10294C00F4CF2DF02C5022262D502322000E2422C1
:10295C00000E25221B501602F3CF2CF0F4CF2DF0D5
:10296C002C5028262D502922000E2A22000E2B2214
:10297C001A501702F3CF2CF0F4CF2DF02C50282640
:10298C002D502922000E2A22000E2B221B5017023A
:10299C00F3CF2CF0F4CF2DF02C501D6E2D501E6E5D
:1029AC001F6A206A1FC020F01EC01FF01DC01EF041
:1029BC001D6A1D5028261E5029221F502A222050E5
:1029CC002B2222C01DF023C01EF024C01FF025C0F6
:1029DC0020F0190EF7EF14F0D89020321F321E326F
:1029EC001D32E82EF2EF14F01D5028261E5029221D
:1029FC001F502A2220502B2224C025F023C024F063
:102A0C0022C023F0226A265027C01DF01E6A1D2604
:102A1C00000E1E22820E1D242C6EFF0E1E202D6E0B
:102A2C002DEF15F0D890283629362A362B3625AEC0
:102A3C0022EF15F024EF15F025EF15F02880D89033
:102A4C0022362336243625362C06D8A02D062AAE5F
:102A5C0032EF15F034EF15F018EF15F0000E266E6E
:102A6C0025AE3BEF15F03DEF15F061EF15F0FF0EC5
:102A7C0022141D6EFF0E23141E6EFF0E24141F6EE7
:102A8C007F0E2514206E1D501E101F102010D8B460
:102A9C0052EF15F054EF15F058EF15F0010E266EAD
:102AAC0061EF15F028A05DEF15F05FEF15F061EF09
:102ABC0015F054EF15F02650D8B467EF15F069EF08
:102ACC0015F08DEF15F0010E2826000E29222A2272
:102ADC002B222BA074EF15F076EF15F08DEF15F07F
:102AEC0028C01DF029C01EF02AC01FF02BC020F0FA
:102AFC00203420321F321E321D321DC028F01EC061
:102B0C0029F01FC02AF020C02BF02C4A2D2A2DBEF4
:102B1C0098EF15F02D5008E12C28D8A098EF15F05F
:102B2C009AEF15F0A4EF15F0000E286E000E296E2A
:102B3C00800E2A6E7F0E2B6ED2EF15F02DBEB1EFEC
:102B4C0015F02D5006E12C04D8B0AFEF15F0B1EF15
:102B5C0015F0BDEF15F0000E286E000E296E000E5C
:102B6C002A6E000E2B6E000E216ED2EF15F02CC0CB
:102B7C0027F0FF0E2816FF0E29167F0E2A16000EC0
:102B8C002B1627A0CCEF15F0CEEF15F0CFEF15F0EC
:102B9C002A8ED89027302B6E21502B1228C015F07E
:102BAC0029C016F02AC017F02BC018F012003950AB
:102BBC00800B466E395039244D6E38AEE8EF15F067
:102BCC00EAEF15F0EBEF15F04D804D50D8B4F1EF66
:102BDC0015F0F3EF15F008EF16F04D28D8A4F9EF27
:102BEC0015F0FBEF15F003EF16F0000E366E000E2D
:102BFC00376E000E386E000E396E388E000E396E40
:102C0C0010EF16F0000E366E000E376E000E386E9A
:102C1C00000E396E3D50800B461A3D503D244E6ED1
:102C2C003CAE1BEF16F01DEF16F01EEF16F04E80AB
:102C3C004E50D8B424EF16F026EF16F03BEF16F0FA
:102C4C004E28D8A42CEF16F02EEF16F036EF16F017
:102C5C00000E3A6E000E3B6E000E3C6E000E3D6E8A
:102C6C003C8E000E3D6E43EF16F0000E3A6E000ED9
:102C7C003B6E000E3C6E000E3D6E3A503B103C100D
:102C8C003D10D8A44CEF16F04EEF16F066EF16F090
:102C9C00000E366E000E376E000E386E000E396E5A
:102CAC00800E38127F0E39124650391236C036F06B
:102CBC0037C037F038C038F039C039F0A9EF17F009
:102CCC004D50D8A46CEF16F06EEF16F078EF16F0AE
:102CDC00000E366E000E376E000E386E000E396E1A
:102CEC00A9EF17F04E504DC03EF03F6A3E5E000E0D
:102CFC003F5A7F0E3E24476E000E3F20486E36C072
:102D0C0042F037C043F038C044F039C045F0000EF3
:102D1C00366E000E376E000E386E000E396E000ED9
:102D2C00496E000E4A6E000E4B6E000E4C6E000E7D
:102D3C004E6ED9EF16F04E50D8B4A7EF16F0A9EF9F
:102D4C0016F0C0EF16F0D89042364336443645366E
:102D5C00D89036363736383639364CAEB8EF16F0A2
:102D6C00BAEF16F0BBEF16F03680D89049364A36DB
:102D7C004B364C363A50425C3B5043583C504458CE
:102D8C003D504558D8A0CDEF16F0CFEF16F0D8EF48
:102D9C0016F04C8C3A50425E3B50435A3C50445ACD
:102DAC003D50455A4E2A190E4E64DFEF16F0E1EFF6
:102DBC0016F0A1EF16F04250431044104510D8B451
:102DCC00EAEF16F0ECEF16F004EF17F0498004EF81
:102DDC0017F0D89036363736383639364CAEF9EFE0
:102DEC0016F0FBEF16F0FCEF16F03680D890493653
:102DFC004A364B364C364706D8A0480638AE09EF53
:102E0C0017F00BEF17F0EFEF16F0000E4E6E4CAE06
:102E1C0012EF17F014EF17F038EF17F0FF0E4914FC
:102E2C003E6EFF0E4A143F6EFF0E4B14406E7F0E2B
:102E3C004C14416E3E503F1040104110D8B429EF55
:102E4C0017F02BEF17F02FEF17F0010E4E6E38EF37
:102E5C0017F036A034EF17F036EF17F038EF17F005
:102E6C002BEF17F04E50D8B43EEF17F040EF17F0A1
:102E7C0064EF17F0010E3626000E37223822392265
:102E8C0039A04BEF17F04DEF17F064EF17F036C089
:102E9C003EF037C03FF038C040F039C041F041340B
:102EAC00413240323F323E323EC036F03FC037F006
:102EBC0040C038F041C039F0474A482A48BE6FEF4D
:102ECC0017F0485008E14728D8A06FEF17F071EFC2
:102EDC0017F07CEF17F0000E486E4768000E366E48
:102EEC00000E376E000E386E000E396E48BE89EF3C
:102EFC0017F0485006E14704D8B087EF17F089EF78
:102F0C0017F097EF17F0000E486E000E476E000E8C
:102F1C00366E000E376E000E386E000E396E000ED7
:102F2C00466E47C04DF04DA09EEF17F0A0EF17F086
:102F3C00A3EF17F0388EA4EF17F0389ED8904D30D1
:102F4C00396E5AEF16F01200A5C0D9FFA6C0DAFFF1
:102F5C00DECFF6FFDDCFF7FF000EF86E0800F55060
:102F6C00250AD8A4BCEF17F0BEEF17F016EF19F036
:102F7C00A5C0D9FFA6C0DAFFDE2A000EDD22000EA6
:102F8C000001F46F000EF36FF3C0F7F0F569F6690A
:102F9C00A5C0D9FFA6C0DAFFDECFB2F0DDCFB3F00B
:102FAC00B2C0F6FFB3C0F7FF000EF86E0800F55084
:102FBC00640AD8B4E4EF17F0E6EF17F0F6EF17F069
:102FCC00B2C0F6FFB3C0F7FF000EF86E0800F55064
:102FDC00690AD8A4F4EF17F0F6EF17F039EF18F0F0
:102FEC00A7C0D9FFA8C0DAFFDFCF55F0020EDE264E
:102FFC00DFCF56F0000EDD2255C0D9FF56C0DAFFE8
:10300C00DECFA9F0DDCFAAF0000EAABFFF0EAB6F8A
:10301C00AC6FAD6FAE6FAF6FB06F010EB225556E6A
:10302C00000EB321566EA5C0D9FFA6C0DAFF55C05D
:10303C00DEFF56C0DDFFA3C020F0A4C021F0A9C064
:10304C0022F0AAC023F0ABC024F0ACC025F0ADC078
:10305C0026F0AEC027F0AFC028F0B0C029F02DECA0
:10306C0019F02CEF19F0A5C0D9FFA6C0DAFFDECFFE
:10307C00B2F0DDCFB3F0B2C0F6FFB3C0F7FF000E75
:10308C00F86E0800F5CFB1F058EF18F0B24BB32B37
:10309C0071EF18F06C0EB16F71EF18F0000EB16F8C
:1030AC0071EF18F0B151556E566A5650000AD8B4EB
:1030BC0062EF18F054EF18F055504C0AD8B44CEF9E
:1030CC0018F02A0AD8B450EF18F00A0AD8B44CEF0A
:1030DC0018F054EF18F0B2C0F6FFB3C0F7FF000EB3
:1030EC00F86E0800F550660AD8A47FEF18F081EF4F
:1030FC0018F00DEF19F0B7EF18F0A7C0D9FFA8C062
:10310C00DAFFDFCF55F0040EDE26DFCF56F0000ECF
:10311C00DD2255C0D9FF56C0DAFFDECFA9F0DECFD5
:10312C00AAF0DECFABF0DECFACF0CCEF18F0A7C03E
:10313C00D9FFA8C0DAFFDFCF55F0040EDE26DFCFB3
:10314C0056F0000EDD2255C0D9FF56C0DAFFDECF97
:10315C00A9F0DECFAAF0DECFABF0DECFACF0CCEF37
:10316C0018F0B151556E566A5650000AD8B4C1EFDA
:10317C0018F0CCEF18F055504C0AD8B49DEF18F05D
:10318C00200AD8B483EF18F0CCEF18F0010EB2255A
:10319C00556E000EB321566EA5C0D9FFA6C0DAFF3E
:1031AC0055C0DEFF56C0DDFFF5EF18F0A3C070F080
:1031BC00A4C071F0A9C072F0AAC073F0ABC074F0D7
:1031CC00ACC075F0B2C0F6FFB3C0F7FF000EF86EDE
:1031DC000800F5CF76F06BEC0CF02CEF19F0B2C0C8
:1031EC00F6FFB3C0F7FF000EF86E0800F550556EF1
:1031FC00566A5650000AD8B406EF19F00DEF19F0C4
:10320C005550660AD8B4DCEF18F00DEF19F0A5C0D4
:10321C00D9FFA6C0DAFFDE2A000EDD222CEF19F052
:10322C00A5C0D9FFA6C0DAFFDECFF6FFDDCFF7FFD2
:10323C00000EF86E0800F550056E066AA3C007F084
:10324C00A4C008F0F4EC22F00DEF19F0120022C02B
:10325C0038F023C039F024C03AF025C03BF026C02A
:10326C003CF027C03DF028C03EF029C03FF03FBEE7
:10327C0042EF19F045EF19F0010E46EF19F0000E70
:10328C00426E4250D8B44DEF19F04FEF19F05FEF8A
:10329C0019F03F1E3E1E3D1E3C1E3B1E3A1E391EA3
:1032AC00386C000E39223A223B223C223D223E222F
:1032BC003F220001F6BF6DEF19F0F65106E1F5055E
:1032CC00D8B06BEF19F06DEF19F073EF19F0000E29
:1032DC00356E010E346E77EF19F0F5C034F0F6C090
:1032EC0035F0F3C036F0F4C037F04250D8B481EF6B
:1032FC0019F083EF19F09AEF19F03606D8A03706BB
:10330C004250D8A48CEF19F08EEF19F094EF19F00D
:10331C00000E336E2B0E326E98EF19F0000E336EDA
:10332C002D0E326E32C042F0000E416E4F0E406ECA
:10333C00000E01018B6F1FEF1AF04006D8A041065A
:10334C003C0E4024D96E010E4120DA6E38C005F0D7
:10335C0039C006F03AC007F03BC008F03CC009F099
:10336C003DC00AF03EC00BF03FC00CF00A0E0D6ED3
:10337C00000E0E6E000E0F6E000E106E000E116E13
:10338C00000E126E000E136E000E146EEEEC1EF09C
:10339C0005C02AF006C02BF007C02CF008C02DF099
:1033AC0009C02EF00AC02FF00BC030F00CC031F069
:1033BC002AC017F02BC018F0F1EC26F01750300F84
:1033CC00DF6E3406D8A035063606D8A0370638C0CE
:1033DC0005F039C006F03AC007F03BC008F03CC01D
:1033EC0009F03DC00AF03EC00BF03FC00CF00A0ED5
:1033FC000D6E000E0E6E000E0F6E000E106E000E97
:10340C00116E000E126E000E136E000E146E74EC24
:10341C001DF005C038F006C039F007C03AF008C0FE
:10342C003BF009C03CF00AC03DF00BC03EF00CC0B4
:10343C003FF041BE2AEF1AF0415008E14004D8A0F9
:10344C002AEF1AF02CEF1AF048EF1AF03850391016
:10345C003A103B103C103D103E103F10D8A439EFF1
:10346C001AF03BEF1AF0A3EF19F035BE48EF1AF043
:10347C00355006E13404D8B046EF1AF048EF1AF094
:10348C00A3EF19F04250D8B44EEF1AF050EF1AF0E7
:10349C005BEF1AF04006D8A041063C0E4024D96ED2
:1034AC00010E4120DA6E42C0DFFF20C015F021C0B2
:1034BC0016F03C0E4024176E010E4120186E36C0DB
:1034CC0019F037C01AF03BEC24F012002DEC27F069
:1034DC005FEC27F0000E066EC70E056EAEEC23F007
:1034EC007C9E849E809688967C9884988090889008
:1034FC007E908690809288927C9684967C887E8042
:10350C0080807E807C867F807D8E79868790859E6C
:10351C00819686840E01B4958686B497C90E056E85
:10352C00010E066EC00E076E010E086E8BEC22F0BB
:10353C00B00E106E010E116E1EEC25F08EB4A9EFBC
:10354C001AF0ABEF1AF0B1EF1AF0A80E126E010ED2
:10355C00136E19EC22F08EB6B6EF1AF0B8EF1AF023
:10356C00BEEF1AF0B80E126E010E136EA7EC21F01E
:10357C0080A6C3EF1AF0C8EF1AF00001D56BD52B5B
:10358C00CAEF1AF00001D56BD547D547D547805007
:10359C00D519F70BD519806EBEC105F0BFC106F069
:1035AC00076A086A000E9AEC1CF005C0A0F106C070
:1035BC00A1F107C0A2F108C0A3F1B6C105F0B7C1D3
:1035CC0006F0076A086A000E9AEC1CF005C036F08B
:1035DC0006C037F007C038F008C039F0A0C13AF087
:1035EC00A1C13BF0A2C13CF0A3C13DF0DDEC15F054
:1035FC0036C0A4F137C0A5F138C0A6F139C0A7F187
:10360C008F0E366EC20E376EF50E386E3D0E396E5D
:10361C00A4C13AF0A5C13BF0A6C13CF0A7C13DF056
:10362C00A6EC20F0D8B01DEF1BF01FEF1BF048EFFD
:10363C001BF0A4C160F0A5C161F0A6C162F0A7C1E6
:10364C0063F0A80E0001646F010E656FB80E666F13
:10365C00010E676FC90E686F010E696FC00E6A6F3D
:10366C00010E6B6F16EC07F0290E0001D66F960E4B
:10367C00D56F7F0EE82EFED7D52FFCD7D62FFAD7D5
:10368C0052EF1BF0C90E186E010E196EC00E1A6E99
:10369C00010E1B6EF6EC23F0090E0001D66F1E0E08
:1036AC00D56FE40EE82EFED7D52FFCD7D62FFAD740
:1036BC0000F08C0E0001BC6F010EBD6F010EBE6FD1
:1036CC000E0EBF6FB6C1C0F0B7C1C1F0BEC1C2F023
:1036DC00BFC1C3F0A4C1C4F0A5C1C5F0A6C1C6F05A
:1036EC00A7C1C7F078EC25F08C0E066E010E076EA4
:1036FC0047EC27F017EC28F02A0E0001D56F8D0E41
:10370C00E82EFED7D52FFCD700D09EEF1AF03BEF5A
:10371C0000F0EBC06CF0ECC06DF0EDC06EF0EEC0E4
:10372C006FF04FC06CF050C06DF051C06EF052C0D5
:10373C006FF0810E0001606FFF0E616F6CC062F064
:10374C006DC063F06EC064F06FC065F0180EB4EF1E
:10375C001BF0D8906533643363336233E82EAFEFDC
:10376C001BF0625160256A6F000E61216B6F6BBF9D
:10377C00C9EF1BF06B5109E1170E6A5DD8A0C9EFB8
:10378C001BF0CBEF1BF0D5EF1BF04FC04FF050C030
:10379C0050F051C051F052C052F099EF1CF06BBF79
:1037AC00DAEF1BF0DCEF1BF04DEF1CF06AC060F0A1
:1037BC00FF0E616FFF0E626F7F0E636F000E646F02
:1037CC006067EBEF1BF0F3EF1BF06435643363338E
:1037DC0062336133602FE6EF1BF061C066F062C0AC
:1037EC0067F063C068F064C069F0000166516C1545
:1037FC00606F67516D15616F68516E15626F69511D
:10380C006F15636F6051611162116311D8A411EFD0
:10381C001CF013EF1CF015EF1CF0CBEF1BF06CC081
:10382C0060F06DC061F06EC062F06FC063F0200E8E
:10383C0025EF1CF0D8906333623361336033E82E8C
:10384C0020EF1CF06051611162116311D8B431EF9B
:10385C001CF033EF1CF03BEF1CF066516C276751EA
:10386C006D2368516E2369516F23661D606F671D50
:10387C00616F681D626F691D636F60516C176151D8
:10388C006D1762516E1763516F1791EF1CF06CC07E
:10389C0060F06DC061F06EC062F06FC063F0200E1E
:1038AC005DEF1CF0D8906333623361336033E82EE4
:1038BC0058EF1CF06051611162116311D8A469EFCB
:1038CC001CF06BEF1CF075EF1CF0000E6C6F000E13
:1038DC006D6F000E6E6F000E6F6F91EF1CF0D89035
:1038EC006C35606F6D35616F6E35626F6F35636F00
:1038FC006051611162116311D8B487EF1CF089EF2C
:10390C001CF091EF1CF0000E6C6F000E6D6F800EB2
:10391C006E6FBF0E6F6F6CC04FF06DC050F06EC00D
:10392C0051F06FC052F012000D6E0D50D8B4A1EFD3
:10393C001CF0A3EF1CF0C5EF1CF008BEAAEF1CF0A6
:10394C00A8EF1CF0C5EF1CF005C009F006C00AF08A
:10395C0007C00BF008C00CF0091E0A1E0B1E0C1E33
:10396C00092A000E0A220B220C2209C00FF00AC0F1
:10397C0010F00BC011F00CC012F0CDEF1CF005C014
:10398C000FF006C010F007C011F008C012F005507F
:10399C00061007100810D8A4D6EF1CF0D8EF1CF0B6
:1039AC00E2EF1CF0000E056E000E066E000E076EA8
:1039BC00000E086E73EF1DF0960E0E6EECEF1CF001
:1039CC000E2AD8901232113210320F32000E0F1410
:1039DC00096E000E10140A6E000E11140B6EFE0E02
:1039EC0012140C6E09500A100B100C10D8A401EF15
:1039FC001DF003EF1DF0E6EF1CF011EF1DF00E2A89
:103A0C00010E0F26000E102211221222D890123213
:103A1C00113210320F32000E0F14096E000E1014FA
:103A2C000A6E000E11140B6EFF0E12140C6E095060
:103A3C000A100B100C10D8A426EF1DF028EF1DF067
:103A4C0005EF1DF030EF1DF00E06D8900F36103636
:103A5C001136123611BE35EF1DF037EF1DF03FEF6A
:103A6C001DF0020E0E603DEF1DF03FEF1DF02AEF32
:103A7C001DF00EB044EF1DF046EF1DF047EF1DF0AA
:103A8C00119ED8900E320EC009F00A6A0B6A0C6AAD
:103A9C0009C00CF00B6A0A6A096A09500F120A5025
:103AAC0010120B5011120C5012120D50D8B461EFB1
:103ABC001DF063EF1DF06BEF1DF008BE6AEF1DF0FB
:103ACC0068EF1DF06BEF1DF0128E0FC005F010C0EB
:103ADC0006F011C007F012C008F01200000E166EAE
:103AEC0014BE7DEF1DF07BEF1DF08FEF1DF0141E4B
:103AFC00131E121E111E101E0F1E0E1E0D6C000E1C
:103B0C000E220F2210221122122213221422010E35
:103B1C00166E0CBE96EF1DF094EF1DF0A8EF1DF085
:103B2C000C1E0B1E0A1E091E081E071E061E056C07
:103B3C00000E06220722082209220A220B220C223E
:103B4C00010E161A20EE17F0070EDE6AE806FDE2EB
:103B5C000D500E100F101010111012101310141015
:103B6C00D8B4BBEF1DF0BDEF1DF00FEF1EF0010E32
:103B7C00156ECBEF1DF0D8900D360E360F36103675
:103B8C001136123613361436152A14AED0EF1DF03A
:103B9C00D2EF1DF0C1EF1DF0D8901736183619363C
:103BAC001A361B361C361D361E360D50055C0E5053
:103BBC0006580F50075810500858115009581250F9
:103BCC000A5813500B5814500C58D8A0F0EF1DF095
:103BDC00F2EF1DF003EF1EF00D50055E0E50065A6D
:103BEC000F50075A1050085A1150095A12500A5ABD
:103BFC0013500B5A14500C5A1780D890143213329D
:103C0C001232113210320F320E320D32152ED2EF1B
:103C1C001DF01650D8B415EF1EF017EF1EF027EF5D
:103C2C001EF01E1E1D1E1C1E1B1E1A1E191E181EEB
:103C3C00176C000E182219221A221B221C221D227C
:103C4C001E2217C005F018C006F019C007F01AC0E4
:103C5C0008F01BC009F01CC00AF01DC00BF01EC000
:103C6C000CF0120020EE02F01250D9261350DA227A
:103C7C00DF50D8B444EF1EF046EF1EF07AEF1EF082
:103C8C0012C0D9FF13C0DAFFDF50146E1450056E4A
:103C9C00066A20EE03F01250D9261350DA22DECF3A
:103CAC0007F0DDCF08F0F4EC27F005C00BF006C0F0
:103CBC000CF0000E0E6E640E0D6E78EC24F020EEFF
:103CCC0003F01250D9261350DA22DF50156E0B5028
:103CDC00155C166E20EE03F01250D9261350DA2222
:103CEC00DF50176E9DEF1EF0000E166E12C0D9FF3E
:103CFC0013C0DAFFDF50146E1450056E066A20EE06
:103D0C0003F01250D9261350DA22DECF07F0DDCFA4
:103D1C0008F0F4EC27F005C00BF006C00CF0000E18
:103D2C000E6E640E0D6E78EC24F00B50176E20EEB8
:103D3C0001F01250D9261350DA22DF50D8B4A9EF73
:103D4C001EF0ABEF1EF0CDEF1EF020EE05F0125082
:103D5C00D9261350DA22DECF14F0DDCF15F014C0C3
:103D6C00D9FF15C0DAFF16C0DFFF20EE07F01250A6
:103D7C00D9261350DA22DECF14F0DDCF15F014C0A3
:103D8C00D9FF15C0DAFF17C0DFFFEDEF1EF020EEF4
:103D9C0005F01250D9261350DA22DECF14F0DDCF05
:103DAC0015F014C0D9FF15C0DAFF17C0DFFF20EEE5
:103DBC0007F01250D9261350DA22DECF14F0DDCFE3
:103DCC0015F014C0D9FF15C0DAFF16C0DFFF1200C2
:103DDC00000E166E0CBEF7EF1EF0F5EF1EF009EF9D
:103DEC001FF00C1E0B1E0A1E091E081E071E061EA7
:103DFC00056C000E06220722082209220A220B2239
:103E0C000C22010E166E14BE10EF1FF00EEF1FF0F9
:103E1C0020EF1FF0141E131E121E111E101E0F1E5B
:103E2C000E1E0D6C000E0E220F22102211221222D9
:103E3C00132214220D500E100F101010111012100E
:103E4C0013101410D8B42DEF1FF02FEF1FF077EFD5
:103E5C001FF0010E156E3DEF1FF0D8900D360E368B
:103E6C000F3610361136123613361436152A14AE98
:103E7C0042EF1FF044EF1FF033EF1FF00D50055CC5
:103E8C000E5006580F50075810500858115009582A
:103E9C0012500A5813500B5814500C58D8A059EF04
:103EAC001FF05BEF1FF06BEF1FF00D50055E0E5017
:103EBC00065A0F50075A1050085A1150095A1250EE
:103ECC000A5A13500B5A14500C5AD89014321332FD
:103EDC001232113210320F320E320D32152E44EFD7
:103EEC001FF01650D8B47DEF1FF07FEF1FF08FEF4F
:103EFC001FF00C1E0B1E0A1E091E081E071E061E96
:103F0C00056C000E06220722082209220A220B2227
:103F1C000C2205C005F006C006F007C007F008C06B
:103F2C0008F009C009F00AC00AF00BC00BF00CC075
:103F3C000CF01200073408340E6E0E50D8A4A9EF02
:103F4C001FF0ABEF1FF0B5EF1FF0000E056E000E6B
:103F5C00066E000E076E000E086E22EF20F005C0F4
:103F6C0009F006C00AF007C00BF008C00CF0200ED8
:103F7C00C5EF1FF0D8900C320B320A320932E82E02
:103F8C00C0EF1FF009500D6E078EFF0E0516FF0EC9
:103F9C000616FF0E0716000E0816960E0E5E0EBEC7
:103FAC00DCEF1FF0DAEF1FF0F2EF1FF00E50800A7B
:103FBC00970FD8B0E4EF1FF0E6EF1FF0E8EF1FF01B
:103FCC00ABEF1FF0D89008320732063205320E3EA6
:103FDC00E8EF1FF00AEF20F01F0E0E64F8EF1FF051
:103FEC00FAEF1FF002EF20F0ABEF1FF0D890053680
:103FFC000636073608360E060E50D8A408EF20F009
:10400C000AEF20F0FCEF1FF00D50D8B410EF20F0A9
:10401C0012EF20F01AEF20F0081E071E061E056C8A
:10402C00000E06220722082205C005F006C006F085
:10403C0007C007F008C008F0120020EE01F018507D
:10404C00D9261950DA22010EDF6E20EE01F01A503B
:10405C00D9261B50DA22000EDF6E20EE02F018502B
:10406C00D9261950DA22010EDF6E20EE02F018501C
:10407C00D9261950DA22010EDF6E62EF20F018C03B
:10408C00D9FF19C0DAFFDF2A1AC0D9FF1BC0DAFF2B
:10409C00DF2A18C012F019C013F038EC1EF01AC049
:1040AC0012F01BC013F038EC1EF02A0E1C6E8E0E94
:1040BC00E82EFED71C2EFCD718C0D9FF19C0DAFF8A
:1040CC00090EDF646CEF20F06EEF20F045EF20F06E
:1040DC00090E1D6E1E0E1C6EE40EE82EFED71C2E55
:1040EC00FCD71D2EFAD700D099EF20F018C0D9FFBD
:1040FC0019C0DAFFDF061AC0D9FF1BC0DAFFDF06D2
:10410C0018C012F019C013F038EC1EF01AC012F0DF
:10411C001BC013F038EC1EF02A0E1C6E8E0EE82E0F
:10412C00FED71C2EFCD718C0D9FF19C0DAFFDF5000
:10413C00D8A4A3EF20F0A5EF20F07CEF20F0120024
:10414C00000E36143E6E000E37143F6E800E38147F
:10415C00406E7F0E3914416E3E503F10401041109E
:10416C00D8A4BBEF20F0BDEF20F0C5EF20F0000E7F
:10417C00366E000E376E000E386E000E396E000E65
:10418C003A143E6E000E3B143F6E800E3C14406E93
:10419C007F0E3D14416E3E503F1040104110D8A48C
:1041AC00DAEF20F0DCEF20F0E4EF20F0000E3A6EB6
:1041BC00000E3B6E000E3C6E000E3D6E39AEE9EF0C
:1041CC0020F0EBEF20F0F4EF20F0366C371ED8B077
:1041DC00372A381ED8B0382A800E39563DAEF9EF42
:1041EC0020F0FBEF20F004EF21F03A6C3B1ED8B02E
:1041FC003B2A3C1ED8B03C2A800E3D56000E361A87
:10420C00000E371A000E381A800E391A000E3A1AA0
:10421C00000E3B1A000E3C1A800E3D1A3A50365CCA
:10422C003B5037583C5038583D503958D8B021EF96
:10423C0021F023EF21F026EF21F0D89027EF21F089
:10424C00D8801200EFC00FF0F0C010F0F1C011F0E8
:10425C00F2C012F005C00FF006C010F007C011F04C
:10426C0008C012F00FC009F010C00AF011C00BF01A
:10427C0012C00CF0180E48EF21F0D8900C320B3213
:10428C000A320932E82E43EF21F009500D6E0E6A06
:10429C000D500E10D8A455EF21F057EF21F077EF09
:1042AC0021F0D8900F34096E10340A6E11340B6E55
:1042BC0012340C6E09500A100B100C10D8A469EFB4
:1042CC0021F06BEF21F071EF21F0000E066E020E63
:1042DC00056EA6EF21F0000E066E030E056EA6EF1E
:1042EC0021F00D280E10D8A47EEF21F080EF21F0E4
:1042FC00A2EF21F00FC009F010C00AF011C00BF0B2
:10430C0012C00CF0090ED89009360A360B360C3652
:10431C00E82E89EF21F009500A100B100C10D8B4BC
:10432C009AEF21F09DEF21F0010E9EEF21F0000E8F
:10433C00056E066AA6EF21F0000E066E040E056EE1
:10434C001200000E176E000E166E7CAEB0EF21F050
:10435C00B4EF21F0146A142AB5EF21F0146A143268
:10436C0014327C5014187F0B14187C6E090E156EC9
:10437C001E0E146EE40EE82EFED7142EFCD7152E4E
:10438C00FAD700D0164A172A17BED6EF21F01750CD
:10439C0009E1140E165CD8A0D6EF21F0D8EF21F06D
:1043AC00ABEF21F07CAEDDEF21F0E1EF21F0146AF0
:1043BC00142AE2EF21F0146A143214327C501418CF
:1043CC007F0B14187C6E290E156E960E146E7F0ED4
:1043DC00E82EFED7142EFCD7152EFAD700F012C0FB
:1043EC0010F013C011F01EEC25F0290E156E960E70
:1043FC00146E7F0EE82EFED7142EFCD7152EFAD78E
:10440C0000F07CAE0CEF22F010EF22F0146A142AAC
:10441C0011EF22F0146A143214327C5014187F0BF2
:10442C0014187C6E1200000E176E000E166E7CAE09
:10443C0022EF22F026EF22F0146A142A27EF22F042
:10444C00146A143214327C5014187F0B14187C6EBE
:10445C00090E156E1E0E146EE40EE82EFED7142EE9
:10446C00FCD7152EFAD700D0164A172A17BE48EFDC
:10447C0022F0175009E1140E165CD8A048EF22F078
:10448C004AEF22F01DEF22F07CAE4FEF22F053EFFB
:10449C0022F0146A142A54EF22F0146A14321432E3
:1044AC007C5014187F0B14187C6E290E156E960E0A
:1044BC00146E7F0EE82EFED7142EFCD7152EFAD7CD
:1044CC0000F012C010F013C011F01EEC25F0290EF4
:1044DC00156E960E146E7F0EE82EFED7142EFCD79A
:1044EC00152EFAD700F07CAE7EEF22F082EF22F090
:1044FC00146A142A83EF22F0146A143214327C509A
:10450C0014187F0B14187C6E120005C0D9FF06C05E
:10451C00DAFF000EDF6E20EE01F00550D9260650B2
:10452C00DA22010EDF6E20EE02F00550D92606507D
:10453C00DA22010EDF6E20EE05F00550D92606506A
:10454C00DA22AA0EDE6E0F0EDD6E20EE07F005509D
:10455C00D9260650DA22A60EDE6E0F0EDD6E20EE88
:10456C0003F00550D9260650DA22C70EDE6E000E77
:10457C00DD6E07C0D9FF08C0DAFF000EDF6E20EE3B
:10458C0001F00750D9260850DA22010EDF6E20EE1A
:10459C0002F00750D9260850DA22010EDF6E20EE09
:1045AC0005F00750D9260850DA22250EDE6E0F0EC4
:1045BC00DD6E20EE07F00750D9260850DA22210EC6
:1045CC00DE6E0F0EDD6E20EE03F00750D92608507C
:1045DC00DA22C70EDE6E000EDD6E120007500810D8
:1045EC00D8B4FBEF22F0FDEF22F006EF23F00750DA
:1045FC000810D8A404EF23F006EF23F00BEF23F000
:10460C00055051EC28F058EF23F020EE09F007503C
:10461C00D9260850DA22DE50DE10D8B418EF23F079
:10462C001AEF23F035EF23F020EE09F00750D926CE
:10463C000850DA2210EE03F00750E1260850E2226F
:10464C00DE50E65CE650800A0D6EDE50800A0D5896
:10465C00D8B033EF23F035EF23F058EF23F020EEF2
:10466C0003F00750D9260850DA22DECF09F0DDCF4F
:10467C000AF007C0D9FF08C0DAFFDECF0BF0DDCFA0
:10468C000CF009500B24D96E0A500C20DA6E05C0C0
:10469C00DFFF20EE03F00750D9260850DA22DE2A7D
:1046AC00000EDD221200000E05140D6E000E061415
:1046BC000E6E800E07140F6E7F0E0814106E0D50C8
:1046CC000E100F101010D8A46EEF23F070EF23F023
:1046DC0078EF23F0000E056E000E066E000E076ECE
:1046EC00000E086E000E09140D6E000E0A140E6EEC
:1046FC00800E0B140F6E7F0E0C14106E0D500E10DE
:10470C000F101010D8A48DEF23F08FEF23F097EF3C
:10471C0023F0000E096E000E0A6E000E0B6E000EDA
:10472C000C6E095005180FE10A5006180CE10B50DD
:10473C00071809E10C500818D8B4A7EF23F0A9EF1B
:10474C0023F0ACEF23F0D890ADEF23F0D88012001B
:10475C007D947D987B9E7F9C85948598839E879C79
:10476C00050E0E01746F060E766F070E696F080E3C
:10477C00886FBD508F0B3009BD6EE00EBE16BF505A
:10478C00F00B0109BF6EC70EBC6EBD8E000EAA6E7B
:10479C00000EA66E000E0F01256F000E216FFC0E91
:1047AC00AD16F30EAD16CF0EAD163F0EAD16AB8893
:1047BC00AB50F00B0C09AB6EAB8EA788A750F00B6F
:1047CC000C09A76EA78E26892651F00B0C09266FB3
:1047DC00268F22892251F00B0C09226F228F120096
:1047EC0020EE01F01850D9261950DA22010EDF6E96
:1047FC0020EE01F01A50D9261B50DA22010EDF6E82
:10480C0020EE02F01850D9261950DA22000EDF6E75
:10481C0020EE02F01850D9261950DA22000EDF6E65
:10482C0022EF24F018C0D9FF19C0DAFFDF061AC036
:10483C00D9FF1BC0DAFFDF0618C0D9FF19C0DAFF99
:10484C00DF50D8A42CEF24F02EEF24F018EF24F036
:10485C0018C012F019C013F038EC1EF01AC012F088
:10486C001BC013F038EC1EF012001ABE40EF24F0FF
:10487C0042EF24F048EF24F019C01EF01AC01FF0CC
:10488C004CEF24F0000E1F6E000E1E6E000E1D6EFF
:10489C00000E1C6E5EEF24F0000E066E200E056EF0
:1048AC0015C007F016C008F0F4EC22F01C4A1D2AC3
:1048BC001E501C5C1D50800A1B6E1F50800A1B581A
:1048CC00D8A06BEF24F06DEF24F052EF24F017C05A
:1048DC000EF018C00FF015C010F016C011F0AEECB1
:1048EC0026F01200000E106E000E0F6E0D500E1002
:1048FC00D8B483EF24F085EF24F0ADEF24F0010E53
:10490C00116E8DEF24F0D8900D360E36112A0EAEA6
:10491C0092EF24F094EF24F089EF24F0D8900F3626
:10492C0010360D500B5C0E500C58D8A0A0EF24F094
:10493C00A2EF24F0A7EF24F00D500B5E0E500C5A92
:10494C000F80D8900E320D32112E94EF24F00FC040
:10495C000BF010C00CF0120018C0D9FF19C0DAFF10
:10496C00320EDF6E1AC0D9FF1BC0DAFF320EDF6EBB
:10497C0020EE01F01850D9261950DA22010EDF6E04
:10498C0020EE01F01A50D9261B50DA22010EDF6EF0
:10499C0020EE02F01850D9261950DA22010EDF6EE3
:1049AC0020EE02F01850D9261950DA22010EDF6ED3
:1049BC0018C012F019C013F038EC1EF01AC012F027
:1049CC001BC013F038EC1EF0120008BEFAEF24F0F6
:1049DC0008500710061006E10504D8B0F8EF24F0D3
:1049EC00FAEF24F015EF25F005C009F006C00AF027
:1049FC0007C00BF008C00CF0091E0A1E0B1E0C1E83
:104A0C00092A000E0A220B220C2209C005F00AC04A
:104A1C0006F00BC007F00CC008F01DEF25F005C028
:104A2C0005F006C006F007C007F008C008F0120039
:104A3C00C9EC25F010C0D9FF11C0DAFF09C0DEFFA8
:104A4C000AC0DDFFF1EC25F020EE02F01050D92663
:104A5C001150DA2209C0DEFF0AC0DDFF41EC26F05E
:104A6C0020EE04F01050D9261150DA2209C0DEFFD6
:104A7C000AC0DDFF19EC26F020EE06F01050D92606
:104A8C001150DA2209C0DEFF0AC0DDFF1200B6C0E9
:104A9C00BAF0B7C0BBF062EF25F0B4C0A3F0B5C05C
:104AAC00A4F0BA0E0001A56F000EA66FB8C0A7F057
:104ABC00B9C0A8F0AAEC17F0BAC0F6FFBBC0F7FF5C
:104ACC00000EF86E0800F5500009D8A470EF25F020
:104ADC0072EF25F053EF25F0000E0001B56F000EBC
:104AEC00B46F1200C00E0001C86F000EC96FBCC0BD
:104AFC00CAF0BDC0CBF0000ECE6F000ECD6F000E15
:104B0C00D46F000ED36FCA0EB46F000EB56FBEC05B
:104B1C00B6F0BFC0B7F0C80EB86F000EB96F4DEC51
:104B2C0025F00001CD51BC25D96ECE51BD21DA6ED8
:104B3C00000EDF6E120007C00DF008C00EF005C0AD
:104B4C000BF006C00CF0BBEF25F00DC0D9FF0EC06A
:104B5C00DAFFDF500F6E0D4A0E2A0BC0D9FF0CC0C6
:104B6C00DAFF0FC0DFFF0B4A0C2A0906D8A00A0691
:104B7C00092806E10A28D8A4C6EF25F0C8EF25F0CD
:104B8C00ABEF25F0120047EC28F0520E3CEC28F06D
:104B9C00B60E3CEC28F04CEC28F0530E3CEC28F014
:104BAC00010ED0EC26F00B6E0B500E6E0F6A000E41
:104BBC00D0EC26F00B6E0B500D6E0C6A0E500C10D8
:104BCC000E6E0F500D100F6E42EC28F00EC009F057
:104BDC000FC00AF0120047EC28F0520E3CEC28F003
:104BEC00B80E3CEC28F04CEC28F0530E3CEC28F0C2
:104BFC00010ED0EC26F00B6E0B500E6E0F6A000EF1
:104C0C00D0EC26F00B6E0B500D6E0C6A0E500C1087
:104C1C000E6E0F500D100F6E42EC28F00EC009F006
:104C2C000FC00AF0120047EC28F0520E3CEC28F0B2
:104C3C00B40E3CEC28F04CEC28F0530E3CEC28F075
:104C4C00010ED0EC26F00B6E0B500E6E0F6A000EA0
:104C5C00D0EC26F00B6E0B500D6E0C6A0E500C1037
:104C6C000E6E0F500D100F6E42EC28F00EC009F0B6
:104C7C000FC00AF0120047EC28F0520E3CEC28F062
:104C8C00BA0E3CEC28F04CEC28F0530E3CEC28F01F
:104C9C00010ED0EC26F00B6E0B500E6E0F6A000E50
:104CAC00D0EC26F00B6E0B500D6E0C6A0E500C10E7
:104CBC000E6E0F500D100F6E42EC28F00EC009F066
:104CCC000FC00AF01200000E321A000E331A000E3A
:104CDC00341A800E351A2EC005F02FC006F030C0E5
:104CEC0007F031C008F032C009F033C00AF034C00C
:104CFC000BF035C00CF068EC11F005C02EF006C0BE
:104D0C002FF007C030F008C031F0120007C009F0D6
:104D1C0008C00AF005C00BF006C00CF009C0F6FF85
:104D2C000AC0F7FF094A0A2A000EF86E0BC0D9FF19
:104D3C000CC0DAFF0B4A0C2A0800F5CFDFFFDF505E
:104D4C00D8A4ABEF26F0ADEF26F094EF26F01200CE
:104D5C00000E146E000E136EBFEF26F012C005F09D
:104D6C00066A10C007F011C008F0F4EC22F0134AE8
:104D7C00142A13500E24D96E14500F20DA6EDF5003
:104D8C00126E1250D8A4CDEF26F0CFEF26F0B4EF70
:104D9C0026F01200076EE0EC27F00E01DA87E0EC4B
:104DAC0027F0D5CE08F0E0EC27F00750D8B4E1EFAF
:104DBC0026F0E5EF26F0066A062AE6EF26F0066AEC
:104DCC00063A06460E01DA510618DF0B0618DA6FA2
:104DDC00DA890850120018BEFEEF26F0185006E1D2
:104DEC001704D8B0FCEF26F0FEEF26F00CEF27F0FE
:104DFC0017C019F018C01AF0191E1A1E194A1A2ACF
:104E0C0019C017F01AC018F010EF27F017C017F0E0
:104E1C0018C018F012000550061007100810D8B46E
:104E2C001AEF27F01CEF27F024EF27F0000E051ADD
:104E3C00000E061A000E071A800E081A05C005F09F
:104E4C0006C006F007C007F008C008F01200A1EC7D
:104E5C0027F0010E076E000E07EC28F03F0E096ECE
:104E6C00550EE82EFED7092EFCD700F0030E076E68
:104E7C00000E07EC28F0D50E076E010E07EC28F09B
:104E8C00120052EF27F006C0D9FF07C0DAFFDF503F
:104E9C00B6EC27F0064A072A06C0D9FF07C0DAFF8E
:104EAC00DF50D8A45CEF27F05EEF27F049EF27F036
:104EBC0012000E01E997E895330EE56F000EE66FD0
:104ECC00E789E88BE78F8382120E626F110E156FE4
:104EDC00F28EF28AF28C2D872D9523872385120072
:104EEC003B0E57647CEF27F07EEF27F080EF27F026
:104EFC00000E576E572A5704016E026A000E0124E9
:104F0C00D96E010E0220DA6EDF50120001EE00F0B5
:104F1C008C0EEE6AE806FDE100EED7F0210EEE6A8B
:104F2C00E806FDE15A6A596A586A576A5B905B92C7
:104F3C0000016CEF1AF00E01D951F00B0809D96F72
:104F4C00D98B9F0ED66F848A848CA79BA79D1D0E30
:104F5C001D6F1E0E1C6F1C0E6F6F1B0E706F1200E0
:104F6C00056E3B0E5864BDEF27F0BFEF27F0C1EF85
:104F7C0027F0000E586E000E5824D96EDA6A010E16
:104F8C00DA2205C0DFFF582A1200016E130E5A6494
:104F9C00D2EF27F0D4EF27F0D6EF27F0000E5A6EA1
:104FAC00D70E5A24D96EDA6A000EDA2201C0DFFF5E
:104FBC005A2A12000E01D8B5E6EF27F0E8EF27F0D9
:104FCC00E0EF27F0DACE05F01F0E0516D8A4F1EFAE
:104FDC0027F0F3EF27F0E0EF27F01200055007025F
:104FEC00F3CF09F0F4CF0AF005500802F3500A266B
:104FFC0006500702F3500A2609C005F00AC006F055
:10500C001200086E47EC28F0520E3CEC28F00850C9
:10501C0080093CEC28F007503CEC28F042EC28F0DE
:10502C00120024EC28F00009D8B41FEF28F021EF6F
:10503C0028F023EF28F00E012D8512005750581838
:10504C00D8A42BEF28F02EEF28F0010E2FEF28F02C
:10505C00000E120057505818D8A437EF28F03AEF2A
:10506C0028F0010E3BEF28F0000E1200066EE0EC6B
:10507C0027F006C0D5FE1200E0EC27F00E01DA8511
:10508C001200E0EC27F00E01DA811200E0EC27F0C0
:08509C000E01DA83120012007C
:020000040020DA
:10000000FF0FFF0FFF0FFF0FFF0FFF0FFF0FFF0F80
:020000040030CA
:0C000000AAFFFFFF9FFFFFFFFFFFFFFFB5
:00000001FF
