:040000003BEF00F0E2
:100008005B82D9CF03F0DACF04F00E0137A70FEFE8
:1000180000F011EF00F014EF00F0E351E0EC22F0F3
:100028000E0137A51AEF00F01CEF00F035EF00F0D5
:100038002DA521EF00F023EF00F035EF00F045EC9F
:1000480023F0E806D8A42BEF00F02DEF00F033EFF3
:1000580000F0A0EC22F00E01E46F35EF00F00E0185
:100068002D9504C0DAFF03C0D9FF5B921100B7EFEA
:0200780020F076
:100E00000025642C25642C25642C2564200D0A0003
:100E100025642020256620202566200D0000B70EC1
:100E2000106E000E116E88EC20F087C0D9FF88C0CC
:100E3000DAFFDECFB1F0DDCFB2F0000120EE02F03C
:100E40008751D9268851DA22DECFB3F0DDCFB4F056
:100E500020EE04F08751D9268851DA22DECFB5F092
:100E6000DDCFB6F089C0D9FF8AC0DAFFDECF8FF0C0
:100E7000DDCF90F08FC005F090C006F0076A086AD9
:100E8000000E8AEC15F005C0A5F006C0A6F007C05C
:100E9000A7F008C0A8F0000120EE02F08951D92681
:100EA0008A51DA22DECF8FF0DDCF90F08FC005F0CF
:100EB00090C006F0076A086A000E8AEC15F005C0BB
:100EC000A9F006C0AAF007C0ABF008C0ACF0000162
:100ED00020EE04F08951D9268A51DA22DECF8FF034
:100EE000DDCF90F08FC005F090C006F0076A086A69
:100EF000000E8AEC15F005C0ADF006C0AEF007C0DC
:100F0000AFF008C0B0F0000120EE06F08951D926FC
:100F10008A51DA22DECF8FF0DDCF90F08FC005F05E
:100F200090C006F0076A086A000E8AEC15F000010E
:100F3000B151B75D8F6FB251B859906F8FC005F046
:100F400090C006F0076A086A000E8AEC15F005C02A
:100F500036F006C037F007C038F008C039F083C05B
:100F600021F084C022F085C023F086C024F0B1C0F7
:100F700005F0B2C006F0076A086A000E8AEC15F0A8
:100F800005C019F006C01AF007C01BF008C01CF01D
:100F9000A5C015F0A6C016F0A7C017F0A8C018F09D
:100FA000D1EC21F015C01DF016C01EF017C01FF0C7
:100FB00018C020F072EC0FF01DC03AF01EC03BF0DC
:100FC0001FC03CF020C03DF087EC11F036C0BFF0F0
:100FD00037C0C0F038C0C1F039C0C2F00001B35111
:100FE000B95D8F6FB451BA59906F8FC005F090C042
:100FF00006F0076A086A000E8AEC15F005C036F0A4
:1010000006C037F007C038F008C039F083C021F0BF
:1010100084C022F085C023F086C024F0B3C005F060
:10102000B4C006F0076A086A000E8AEC15F005C025
:1010300019F006C01AF007C01BF008C01CF0A9C0C8
:1010400015F0AAC016F0ABC017F0ACC018F0D1EC88
:1010500021F015C01DF016C01EF017C01FF018C0FB
:1010600020F072EC0FF01DC03AF01EC03BF01FC024
:101070003CF020C03DF087EC11F036C0C3F037C023
:10108000C4F038C0C5F039C0C6F00001B551BB5D31
:101090008F6FB651BC59906F8FC005F090C006F0AD
:1010A000076A086A000E8AEC15F005C036F006C023
:1010B00037F007C038F008C039F083C021F084C091
:1010C00022F085C023F086C024F0B5C005F0B6C07C
:1010D00006F0076A086A000E8AEC15F005C019F0E0
:1010E00006C01AF007C01BF008C01CF0ADC015F018
:1010F000AEC016F0AFC017F0B0C018F0D1EC21F0C0
:1011000015C01DF016C01EF017C01FF018C020F04B
:1011100072EC0FF01DC03AF01EC03BF01FC03CF057
:1011200020C03DF087EC11F036C0C7F037C0C8F0E2
:1011300038C0C9F039C0CAF00001C2BFA2EF08F040
:10114000A4EF08F0BDEF08F0000E1D6E000E1E6E3D
:10115000000E1F6E400E206EBFC021F0C0C022F0F6
:10116000C1C023F0C2C024F051EC1CF0D8B0BBEFDA
:1011700008F0BDEF08F0C6EF08F0000E0001BF6FE9
:10118000000EC06F000EC16F000EC26F0001C6BF1F
:10119000CCEF08F0CEEF08F0E7EF08F0000E1D6E80
:1011A000000E1E6E000E1F6E400E206EC3C021F09A
:1011B000C4C022F0C5C023F0C6C024F051EC1CF01E
:1011C000D8B0E5EF08F0E7EF08F0F0EF08F0000E18
:1011D0000001C36F000EC46F000EC56F000EC66F16
:1011E0000001CABFF6EF08F0F8EF08F011EF09F0C0
:1011F000000E1D6E000E1E6E000E1F6E400E206E45
:10120000C7C021F0C8C022F0C9C023F0CAC024F072
:1012100051EC1CF0D8B00FEF09F011EF09F01AEF04
:1012200009F0000E0001C76F000EC86F000EC96FF5
:10123000000ECA6F660E1D6E660E1E6E660E1F6E67
:101240003F0E206EBFC021F0C0C022F0C1C023F00D
:10125000C2C024F051EC1CF0D8B031EF09F033EFEC
:1012600009F077EF09F0660E1D6E660E1E6E660EB3
:101270001F6E3F0E206EC3C021F0C4C022F0C5C057
:1012800023F0C6C024F051EC1CF0D8B04AEF09F0AE
:101290004CEF09F077EF09F0660E1D6E660E1E6EBC
:1012A000660E1F6E3F0E206EC7C021F0C8C022F030
:1012B000C9C023F0CAC024F051EC1CF0D8B063EFD1
:1012C00009F065EF09F077EF09F02A0E00018F6F42
:1012D0008D0EE82EFED78F2FFCD700D02A0E0001EE
:1012E0008F6F8D0EE82EFED78F2FFCD700D0000E0B
:1012F0001D6E000E1E6EC00E1F6E3F0E206EBFC014
:1013000021F0C0C022F0C1C023F0C2C024F051ECD3
:101310001CF0D8B08EEF09F090EF09F0F9EF09F06A
:10132000CD0E1D6ECC0E1E6E4C0E1F6E3F0E206E2F
:10133000C3C019F0C4C01AF0C5C01BF0C6C01CF071
:10134000BFC015F0C0C016F0C1C017F0C2C018F081
:10135000D1EC21F015C021F016C022F017C023F007
:1013600018C024F051EC1CF0D8B0B9EF09F0BBEF75
:1013700009F0F9EF09F0CD0E1D6ECC0E1E6E4C0E6D
:101380001F6E3F0E206EC7C019F0C8C01AF0C9C04A
:101390001BF0CAC01CF0BFC015F0C0C016F0C1C021
:1013A00017F0C2C018F0D1EC21F015C021F016C022
:1013B00022F017C023F018C024F051EC1CF0D8B074
:1013C000E4EF09F0E6EF09F0F9EF09F08BC01EF049
:1013D0008CC01FF08DC020F08EC021F075EC1AF08B
:1013E0002A0E00018F6F8D0EE82EFED78F2FFCD7AF
:1013F00000D0660E1D6E660E1E6EA60E1F6E3F0E90
:10140000206EBFC021F0C0C022F0C1C023F0C2C016
:1014100024F051EC1CF0D8B010EF0AF012EF0AF0F3
:1014200060EF0AF0000E1D6E000E1E6E000E1F6EA5
:101430003F0E206EC3C021F0C4C022F0C5C023F00F
:10144000C6C024F051EC1CF0D8B029EF0AF02BEF05
:101450000AF060EF0AF0000E1D6E000E1E6E000E08
:101460001F6E3F0E206EC7C021F0C8C022F0C9C059
:1014700023F0CAC024F051EC1CF0D8B042EF0AF0BF
:1014800044EF0AF060EF0AF02A0E00018F6F8D0E14
:10149000E82EFED78F2FFCD700D08BC01EF08CC05B
:1014A0001FF08DC020F08EC021F0D6EC19F02A0E6E
:1014B00000018F6F8D0EE82EFED78F2FFCD700D046
:1014C000000E1D6E000E1E6E800E1F6E3F0E206EF3
:1014D000BFC021F0C0C022F0C1C023F0C2C024F0C0
:1014E00051EC1CF0D8B077EF0AF079EF0AF0C7EFB3
:1014F0000AF0CD0E1D6ECC0E1E6E4C0E1F6E3F0EF2
:10150000206EC3C021F0C4C022F0C5C023F0C6C005
:1015100024F051EC1CF0D8B090EF0AF092EF0AF0F2
:10152000C7EF0AF0C7C01DF0C8C01EF0C9C01FF049
:10153000CAC020F0CD0E216ECC0E226E4C0E236E52
:101540003F0E246E51EC1CF0D8B0A9EF0AF0ABEFBF
:101550000AF0C7EF0AF02A0E00018F6F8D0EE82EF9
:10156000FED78F2FFCD700D08BC024F08CC025F085
:101570008DC026F08EC027F08FEC1FF02A0E0001E0
:101580008F6F8D0EE82EFED78F2FFCD700D0330E35
:101590001D6E330E1E6E330E1F6E3F0E206EBFC0CB
:1015A00019F0C0C01AF0C1C01BF0C2C01CF0C7C007
:1015B00015F0C8C016F0C9C017F0CAC018F0D1ECB9
:1015C00021F015C021F016C022F017C023F018C07A
:1015D00024F051EC1CF0D8B0F0EF0AF0F2EF0AF072
:1015E00052EF0BF09A0E1D6E990E1E6E990E1F6E25
:1015F0003E0E206EC3C019F0C4C01AF0C5C01BF067
:10160000C6C01CF0C7C015F0C8C016F0C9C017F09E
:10161000CAC018F0D1EC21F015C021F016C022F09C
:1016200017C023F018C024F051EC1CF0D8B01BEF09
:101630000BF01DEF0BF052EF0BF0330E1D6E330E5F
:101640001E6E330E1F6E3F0E206EC7C021F0C8C045
:1016500022F0C9C023F0CAC024F051EC1CF0D8B06D
:1016600034EF0BF036EF0BF052EF0BF02A0E0001C7
:101670008F6F8D0EE82EFED78F2FFCD700D08BC03A
:101680001EF08CC01FF08DC020F08EC021F037EC12
:1016900019F02A0E00018F6F8D0EE82EFED78F2FC6
:1016A000FCD700D0CD0E1D6ECC0E1E6ECC0E1F6E64
:1016B0003E0E206EBFC019F0C0C01AF0C1C01BF0B2
:1016C000C2C01CF0C3C015F0C4C016F0C5C017F0EE
:1016D000C6C018F0D1EC21F015C021F016C022F0E0
:1016E00017C023F018C024F051EC1CF0D8B07BEFE9
:1016F0000BF07DEF0BF0DDEF0BF0000E1D6E000E1A
:101700001E6E800E1F6E3F0E206EC3C021F0C4C03F
:1017100022F0C5C023F0C6C024F051EC1CF0D8B0B4
:1017200094EF0BF096EF0BF0DDEF0BF0CD0E1D6E8E
:10173000CC0E1E6ECC0E1F6E3E0E206EC7C019F072
:10174000C8C01AF0C9C01BF0CAC01CF0C3C015F055
:10175000C4C016F0C5C017F0C6C018F0D1EC21F017
:1017600015C021F016C022F017C023F018C024F0D5
:1017700051EC1CF0D8B0BFEF0BF0C1EF0BF0DDEF78
:101780000BF02A0E00018F6F8D0EE82EFED78F2FE3
:10179000FCD700D08BC01EF08CC01FF08DC020F095
:1017A0008EC021F014EC1BF02A0E00018F6F8D0EFD
:1017B000E82EFED78F2FFCD700D0BFC01DF0C0C0D1
:1017C0001EF0C1C01FF0C2C020F0330E216E330ED8
:1017D000226E330E236E3F0E246E51EC1CF0D8B0F7
:1017E000F4EF0BF0F6EF0BF044EF0CF0000E1D6E73
:1017F000000E1E6E800E1F6E3F0E206EC3C021F0C5
:10180000C4C022F0C5C023F0C6C024F051EC1CF0C7
:10181000D8B00DEF0CF00FEF0CF044EF0CF0000E11
:101820001D6E000E1E6E800E1F6E3F0E206EC7C016
:1018300021F0C8C022F0C9C023F0CAC024F051EC86
:101840001CF0D8B026EF0CF028EF0CF044EF0CF0B1
:101850002A0E00018F6F8D0EE82EFED78F2FFCD73A
:1018600000D08BC01EF08CC01FF08DC020F08EC049
:1018700021F0B3EC1BF02A0E00018F6F8D0EE82EC5
:10188000FED78F2FFCD700D0330E1D6E330E1E6E89
:10189000730E1F6E3F0E206EBFC021F0C0C022F03D
:1018A000C1C023F0C2C024F051EC1CF0D8B05BEFF3
:1018B0000CF05DEF0CF0DDEF0CF0CD0E1D6ECC0EDC
:1018C0001E6E4C0E1F6E3F0E206EC3C021F0C4C0B2
:1018D00022F0C5C023F0C6C024F051EC1CF0D8B0F3
:1018E00074EF0CF076EF0CF0DDEF0CF0C3C01DF0E0
:1018F000C4C01EF0C5C01FF0C6C020F0660E216E29
:10190000660E226E660E236E3F0E246E51EC1CF0A6
:10191000D8B08DEF0CF08FEF0CF0DDEF0CF0CD0EAA
:101920001D6ECC0E1E6E4C0E1F6E3F0E206EC7C07D
:1019300021F0C8C022F0C9C023F0CAC024F051EC85
:101940001CF0D8B0A6EF0CF0A8EF0CF0DDEF0CF017
:10195000C7C01DF0C8C01EF0C9C01FF0CAC020F02B
:10196000330E216E330E226E730E236E3F0E246EE5
:1019700051EC1CF0D8B0BFEF0CF0C1EF0CF0DDEF74
:101980000CF02A0E00018F6F8D0EE82EFED78F2FE0
:10199000FCD700D08BC024F08CC025F08DC026F081
:1019A0008EC027F0D0EC1FF02A0E00018F6F8D0E35
:1019B000E82EFED78F2FFCD700D0910E0001666F66
:1019C000000E676F100E686F0E0E696FBFC06AF071
:1019D000C0C06BF0C1C06CF0C2C06DF0C3C06EF08F
:1019E000C4C06FF0C5C070F0C6C071F0C7C072F05F
:1019F000C8C073F0C9C074F0CAC075F0E0EC20F044
:101A0000910E066E000E076E71EC22F02CEC23F0A6
:101A10002A0E00018F6F8D0EE82EFED78F2FFCD778
:101A200000D012000850800B116E08500824136E6D
:101A300007AE1DEF0DF01FEF0DF020EF0DF013803E
:101A40001350D8B426EF0DF028EF0DF03DEF0DF058
:101A50001328D8A42EEF0DF030EF0DF038EF0DF075
:101A6000000E056E000E066E000E076E000E086E6C
:101A7000078E000E086E45EF0DF0000E056E000E8D
:101A8000066E000E076E000E086E0C50800B126E74
:101A900011501218D8B44FEF0DF051EF0DF052EF76
:101AA0000DF0118C0C500C24126E0BAE5AEF0DF091
:101AB0005CEF0DF05DEF0DF012801250D8B463EFC3
:101AC0000DF065EF0DF07AEF0DF01228D8A46BEF52
:101AD0000DF06DEF0DF075EF0DF0000E096E000EBC
:101AE0000A6E000E0B6E000E0C6E0B8E000E0C6E4E
:101AF00082EF0DF0000E096E000E0A6E000E0B6EE6
:101B0000000E0C6E1350125CD8B089EF0DF08BEF05
:101B10000DF0B2EF0DF011AC90EF0DF092EF0DF073
:101B200094EF0DF0800E111A13C014F012C013F0D0
:101B300014C012F005C014F009C005F014C009F07B
:101B400006C014F00AC006F014C00AF007C014F072
:101B50000BC007F014C00BF008C014F00CC008F064
:101B600014C00CF0000E146E135012C00DF00E6A6B
:101B70000D5E000E0E5A0EBEC7EF0DF00E5009E1BD
:101B80001A0E0D5CD8A0C7EF0DF0C9EF0DF000EFF5
:101B90000EF00550061007100810D8A4D2EF0DF073
:101BA000D5EF0DF0010ED6EF0DF0000E146E000E05
:101BB000056E000E066E000E076E000E086E12C057
:101BC00013F009EF0EF014A0E8EF0DF0EAEF0DF0BE
:101BD000F0EF0DF0D89014300109146EF2EF0DF013
:101BE000D890143205A0F7EF0DF0F9EF0DF0FAEFF1
:101BF0000DF0148E08340832073206320532132AEB
:101C00001250135CD8A007EF0EF009EF0EF0E3EFCF
:101C10000DF011BC0EEF0EF010EF0EF050EF0EF0C5
:101C20001350D8A416EF0EF018EF0EF022EF0EF0BE
:101C3000000E056E000E066E000E076E000E086E9A
:101C400071EF0FF0095005260A5006220B500722AB
:101C50000C50082208A02FEF0EF031EF0EF0DDEF50
:101C60000EF014A036EF0EF038EF0EF03EEF0EF04F
:101C7000D89014300109146E40EF0EF0D890143251
:101C800005A045EF0EF047EF0EF048EF0EF0148E72
:101C900008340832073206320532132ADDEF0EF01F
:101CA0000950055C0A5006580B5007580850800A26
:101CB0000D6E0C50800A0D58D8B061EF0EF063EF36
:101CC0000EF08EEF0EF00550095C0D6E06500A58AE
:101CD0000E6E07500B580F6E08500C58106EFF0E0A
:101CE0000D24056EFF0E0E20066EFF0E0F20076EF0
:101CF000FF0E1020086E800E111A146C1450D8A418
:101D000084EF0EF086EF0EF096EF0EF0010E052632
:101D1000000E06220722082296EF0EF00950055EFB
:101D20000A50065A0B50075A0C50085A0550061014
:101D300007100810D8A49FEF0EF0A1EF0EF0D6EF19
:101D40000EF01450D8A4A7EF0EF0A9EF0EF0D6EFC6
:101D50000EF0000E056E000E066E000E076E000EF1
:101D6000086E71EF0FF0D890053606360736083644
:101D700014AEBDEF0EF0BFEF0EF0C0EF0EF0058019
:101D800014A0C5EF0EF0C7EF0EF0CBEF0EF0D88029
:101D90001436CDEF0EF0D89014361350D8B4D3EFDC
:101DA0000EF0D5EF0EF0D6EF0EF0130607AEDBEF18
:101DB0000EF0DDEF0EF0B3EF0EF0000E126E14AE6B
:101DC000E4EF0EF0E6EF0EF0FEEF0EF014C00DF0B3
:101DD0007F0E0D16D8B4EFEF0EF0F1EF0EF0F5EF29
:101DE0000EF0010E126EFEEF0EF005A0FAEF0EF0EF
:101DF000FCEF0EF0FEEF0EF0F1EF0EF01250D8B443
:101E000004EF0FF006EF0FF031EF0FF0010E052693
:101E1000000E06220722082208A011EF0FF013EF90
:101E20000FF031EF0FF005C00DF006C00EF007C047
:101E30000FF008C010F0103410320F320E320D3295
:101E40000DC005F00EC006F00FC007F010C008F07E
:101E50001328D8B42EEF0FF030EF0FF031EF0FF062
:101E6000132A1328D8B437EF0FF039EF0FF041EFF2
:101E70000FF01350D8A43FEF0FF041EF0FF053EFE6
:101E80000FF0000E056E000E066E000E076E000EBF
:101E9000086E1350D8A44FEF0FF051EF0FF053EF2F
:101EA0000FF0000E116E13A058EF0FF05AEF0FF065
:101EB0005DEF0FF0078E5EEF0FF0079ED8901330A6
:101EC000086E11AE66EF0FF068EF0FF069EF0FF0DC
:101ED000088E05C005F006C006F007C007F008C070
:101EE00008F012002050800B296E205020242F6E05
:101EF0001FAE7DEF0FF07FEF0FF080EF0FF02F8020
:101F00002F50D8B486EF0FF088EF0FF09BEF0FF053
:101F10002F28D8A48EEF0FF090EF0FF098EF0FF06E
:101F2000000E1D6E000E1E6E000E1F6E000E206E47
:101F30001F8EA3EF0FF0000E1D6E000E1E6E000E22
:101F40001F6E000E206E2450800B291A245024246A
:101F50002A6E23AEAEEF0FF0B0EF0FF0B1EF0FF03F
:101F60002A802A50D8B4B7EF0FF0B9EF0FF0CCEFBA
:101F70000FF02A28D8A4BFEF0FF0C1EF0FF0C9EF80
:101F80000FF0000E216E000E226E000E236E000E6A
:101F9000246E238ED4EF0FF0000E216E000E226E01
:101FA000000E236E000E246E2A50D8B4DAEF0FF024
:101FB000DCEF0FF0E4EF0FF02F50D8A4E2EF0FF0BA
:101FC000E4EF0FF0EEEF0FF0000E1D6E000E1E6E30
:101FD000000E1F6E000E206E86EF11F023501D02C2
:101FE000F3CF34F0F4CF35F034502B6E2C6A2D6AD9
:101FF0002E6A3550306E316A326A336A22501E02C0
:10200000F3CF34F0F4CF35F034502B26000E2C22D1
:102010002D222E2235503026000E3122322233223C
:1020200021501F02F3CF34F0F4CF35F034502B267B
:10203000000E2C222D222E2235503026000E312269
:10204000322233222DC02EF02CC02DF02BC02CF0CC
:102050002B6A21501E02F3CF34F0F4CF35F0345008
:102060002B2635502C22000E2D22000E2E2222501F
:102070001D02F3CF34F0F4CF35F034502B26355019
:102080002C22000E2D22000E2E222DC02EF02CC050
:102090002DF02BC02CF02B6A21501D02F3CF34F011
:1020A000F4CF35F034502B2635502C22000E2D2243
:1020B000000E2E2223501E02F3CF34F0F4CF35F061
:1020C0003450302635503122000E3222000E332299
:1020D00022501F02F3CF34F0F4CF35F034503026C5
:1020E00035503122000E3222000E332223501F02BF
:1020F000F3CF34F0F4CF35F03450256E3550266EE2
:10210000276A286A27C028F026C027F025C026F0B5
:10211000256A255030262650312227503222285059
:1021200033222BC025F02CC026F02DC027F02EC066
:1021300028F0190EA1EF10F0D8902832273226325D
:102140002532E82E9CEF10F0255030262650312203
:1021500027503222285033222DC02EF02CC02DF0D3
:102160002BC02CF02B6A2A502FC025F0266A25267A
:10217000000E2622820E2524346EFF0E2620356E98
:10218000D7EF10F0D89030363136323633362EAEA7
:10219000CCEF10F0CEEF10F0CFEF10F03080D890F1
:1021A0002B362C362D362E363406D8A0350632AED8
:1021B000DCEF10F0DEEF10F0C2EF10F0000E2A6E30
:1021C0002EAEE5EF10F0E7EF10F00BEF11F0FF0E81
:1021D0002B14256EFF0E2C14266EFF0E2D14276E69
:1021E0007F0E2E14286E2550261027102810D8B4E4
:1021F000FCEF10F0FEEF10F002EF11F0010E2A6E6E
:102200000BEF11F030A007EF11F009EF11F00BEF19
:1022100011F0FEEF10F02A50D8B411EF11F013EFC7
:1022200011F037EF11F0010E3026000E312232226C
:10223000332233A01EEF11F020EF11F037EF11F031
:1022400030C025F031C026F032C027F033C028F06E
:102250002834283227322632253225C030F026C0D5
:1022600031F027C032F028C033F0344A352A35BE69
:1022700042EF11F0355008E13428D8A042EF11F0B8
:1022800044EF11F04EEF11F0000E306E000E316E83
:10229000800E326E7F0E336E7CEF11F035BE5BEF39
:1022A00011F0355006E13404D8B059EF11F05BEF6E
:1022B00011F067EF11F0000E306E000E316E000E5F
:1022C000326E000E336E000E296E7CEF11F034C0BA
:1022D0002FF0FF0E3016FF0E31167F0E3216000E55
:1022E00033162FA076EF11F078EF11F079EF11F09F
:1022F000328ED8902F30336E2950331230C01DF0FB
:1023000031C01EF032C01FF033C020F0120039502F
:10231000800B466E395039244D6E38AE92EF11F075
:1023200094EF11F095EF11F04D804D50D8B49BEF24
:1023300011F09DEF11F0B2EF11F04D28D8A4A3EFEA
:1023400011F0A5EF11F0ADEF11F0000E366E000E9A
:10235000376E000E386E000E396E388E000E396EF4
:10236000BAEF11F0000E366E000E376E000E386EAA
:10237000000E396E3D50800B461A3D503D244E6E86
:102380003CAEC5EF11F0C7EF11F0C8EF11F04E8071
:102390004E50D8B4CEEF11F0D0EF11F0E5EF11F0C0
:1023A0004E28D8A4D6EF11F0D8EF11F0E0EF11F0DD
:1023B000000E3A6E000E3B6E000E3C6E000E3D6E3F
:1023C0003C8E000E3D6EEDEF11F0000E3A6E000EE9
:1023D0003B6E000E3C6E000E3D6E3A503B103C10C2
:1023E0003D10D8A4F6EF11F0F8EF11F010EF12F055
:1023F000000E366E000E376E000E386E000E396E0F
:10240000800E38127F0E39124650391236C036F01F
:1024100037C037F038C038F039C039F053EF13F017
:102420004D50D8A416EF12F018EF12F022EF12F070
:10243000000E366E000E376E000E386E000E396ECE
:1024400053EF13F04E504DC03EF03F6A3E5E000E1B
:102450003F5A7F0E3E24476E000E3F20486E36C026
:1024600042F037C043F038C044F039C045F0000EA8
:10247000366E000E376E000E386E000E396E000E8E
:10248000496E000E4A6E000E4B6E000E4C6E000E32
:102490004E6E83EF12F04E50D8B451EF12F053EF5E
:1024A00012F06AEF12F0D890423643364436453681
:1024B000D89036363736383639364CAE62EF12F0B1
:1024C00064EF12F065EF12F03680D89049364A3644
:1024D0004B364C363A50425C3B5043583C50445883
:1024E0003D504558D8A077EF12F079EF12F082EF07
:1024F00012F04C8C3A50425E3B50435A3C50445A86
:102500003D50455A4E2A190E4E6489EF12F08BEF5A
:1025100012F04BEF12F04250431044104510D8B463
:1025200094EF12F096EF12F0AEEF12F04980AEEF9A
:1025300012F0D89036363736383639364CAEA3EFEF
:1025400012F0A5EF12F0A6EF12F03680D8904936BF
:102550004A364B364C364706D8A0480638AEB3EF5D
:1025600012F0B5EF12F099EF12F0000E4E6E4CAE75
:10257000BCEF12F0BEEF12F0E2EF12F0FF0E4914C2
:102580003E6EFF0E4A143F6EFF0E4B14406E7F0EE0
:102590004C14416E3E503F1040104110D8B4D3EF60
:1025A00012F0D5EF12F0D9EF12F0010E4E6EE2EFFD
:1025B00012F036A0DEEF12F0E0EF12F0E2EF12F0D0
:1025C000D5EF12F04E50D8B4E8EF12F0EAEF12F067
:1025D0000EEF13F0010E3626000E37223822392274
:1025E00039A0F5EF12F0F7EF12F00EEF13F036C04E
:1025F0003EF037C03FF038C040F039C041F04134C0
:10260000413240323F323E323EC036F03FC037F0BA
:1026100040C038F041C039F0474A482A48BE19EF57
:1026200013F0485008E14728D8A019EF13F01BEF2A
:1026300013F026EF13F0000E486E4768000E366E5A
:10264000000E376E000E386E000E396E48BE33EF46
:1026500013F0485006E14704D8B031EF13F033EFE0
:1026600013F041EF13F0000E486E000E476E000E9F
:10267000366E000E376E000E386E000E396E000E8C
:10268000466E47C04DF04DA048EF13F04AEF13F0EF
:102690004DEF13F0388E4EEF13F0389ED8904D303A
:1026A000396E04EF12F0120022C038F023C039F066
:1026B00024C03AF025C03BF026C03CF027C03DF0D6
:1026C00028C03EF029C03FF03FBE69EF13F06CEF29
:1026D00013F0010E6DEF13F0000E406E4050D8B4B1
:1026E00074EF13F076EF13F086EF13F03F1E3E1EEB
:1026F0003D1E3C1E3B1E3A1E391E386C000E392210
:102700003A223B223C223D223E223F220001D0BF02
:1027100094EF13F0D05106E1CF05D8B092EF13F04B
:1027200094EF13F09AEF13F0000E356E010E346E35
:102730009EEF13F0CFC034F0D0C035F0CDC036F0EE
:10274000CEC037F04050D8B4A8EF13F0AAEF13F082
:10275000C1EF13F03606D8A037064050D8A4B3EF27
:1027600013F0B5EF13F0BBEF13F0000E336E2B0E2A
:10277000326EBFEF13F0000E336E2D0E326E32C08C
:1027800040F0000E426E1F0E416E000E0101736F8D
:1027900046EF14F04106D8A04206540E4124D96EEB
:1027A000010E4220DA6E38C005F039C006F03AC09A
:1027B00007F03BC008F03CC009F03DC00AF03EC045
:1027C0000BF03FC00CF00A0E0D6E000E0E6E000EE8
:1027D0000F6E000E106E000E116E000E126E000EC7
:1027E000136E000E146EDEEC17F005C02AF006C062
:1027F0002BF007C02CF008C02DF009C02EF00AC045
:102800002FF00BC030F00CC031F02AC017F02BC0F5
:1028100018F037EC22F01750300FDF6E3406D8A0D6
:1028200035063606D8A0370638C005F039C006F0A0
:102830003AC007F03BC008F03CC009F03DC00AF0C8
:102840003EC00BF03FC00CF00A0E0D6E000E0E6E77
:10285000000E0F6E000E106E000E116E000E126E46
:10286000000E136E000E146E64EC16F005C038F006
:1028700006C039F007C03AF008C03BF009C03CF090
:102880000AC03DF00BC03EF00CC03FF042BE51EF1D
:1028900014F0425008E14104D8A051EF14F053EF76
:1028A00014F06FEF14F0385039103A103B103C1010
:1028B0003D103E103F10D8A460EF14F062EF14F00A
:1028C000CAEF13F035BE6FEF14F0355006E1340453
:1028D000D8B06DEF14F06FEF14F0CAEF13F0405062
:1028E000D8B475EF14F077EF14F082EF14F04106CE
:1028F000D8A04206540E4124D96E010E4220DA6E51
:1029000040C0DFFF20C015F021C016F0540E412456
:10291000176E010E4220186E36C019F037C01AF03B
:1029200011EC20F0120057EC22F089EC22F0000E9E
:10293000066EC70E056E47EC1FF07C9E849E809647
:1029400088967C988498809088907E9086908092DB
:1029500088927C9684967C887E8080807E807C862F
:102960007F807D8E79868790859E819686840E01F4
:10297000B4958686B4979D0E056E010E066E940E74
:10298000076E010E086E22EC1EF07C0E106E010E1A
:10299000116E88EC20F08EB4D0EF14F0D2EF14F06A
:1029A000D8EF14F0840E126E010E136E45EC1DF07C
:1029B0008EB6DDEF14F0DFEF14F0E5EF14F08C0EBF
:1029C000126E010E136ED3EC1CF080A6EAEF14F029
:1029D000EFEF14F00001CB6BCB2BF1EF14F0000103
:1029E000CB6BCB47CB47CB478050CB19F70BCB19E1
:1029F000806E92C105F093C106F0076A086A000E66
:102A00008AEC15F005C074F106C075F107C076F1C7
:102A100008C077F182C105F083C106F0076A086A31
:102A2000000E8AEC15F005C036F006C037F007C07E
:102A300038F008C039F074C13AF075C13BF076C186
:102A40003CF077C13DF087EC11F036C078F137C02B
:102A500079F138C07AF139C07BF18F0E1D6EC20E4C
:102A60001E6EF50E1F6E3D0E206E78C121F079C1ED
:102A700022F07AC123F07BC124F051EC1CF0D8B0D5
:102A800044EF15F046EF15F06FEF15F078C183F0C5
:102A900079C184F07AC185F07BC186F0840E000193
:102AA000876F010E886F8C0E896F010E8A6F9D0EE5
:102AB0008B6F010E8C6F940E8D6F010E8E6F0FEC6D
:102AC00007F0290E0001CC6F960ECB6F7F0EE82E1B
:102AD000FED7CB2FFCD7CC2FFAD779EF15F09D0E70
:102AE000186E010E196E940E1A6E010E1B6EF0EC2C
:102AF0001EF0090E0001CC6F1E0ECB6FE40EE82E07
:102B0000FED7CB2FFCD7CC2FFAD700F0C5EF14F0AF
:102B10003BEF00F00D6E0D50D8B491EF15F093EF30
:102B200015F0B5EF15F008BE9AEF15F098EF15F017
:102B3000B5EF15F005C009F006C00AF007C00BF0AC
:102B400008C00CF0091E0A1E0B1E0C1E092A000EDE
:102B50000A220B220C2209C00FF00AC010F00BC091
:102B600011F00CC012F0BDEF15F005C00FF006C05B
:102B700010F007C011F008C012F005500610071041
:102B80000810D8A4C6EF15F0C8EF15F0D2EF15F075
:102B9000000E056E000E066E000E076E000E086E2B
:102BA00063EF16F0960E0E6EDCEF15F00E2AD8903D
:102BB0001232113210320F32000E0F14096E000E55
:102BC00010140A6E000E11140B6EFE0E12140C6E11
:102BD00009500A100B100C10D8A4F1EF15F0F3EF08
:102BE00015F0D6EF15F001EF16F00E2A010E0F26A4
:102BF000000E102211221222D890123211321032FD
:102C00000F32000E0F14096E000E10140A6E000E23
:102C100011140B6EFF0E12140C6E09500A100B10DB
:102C20000C10D8A416EF16F018EF16F0F5EF15F00B
:102C300020EF16F00E06D8900F36103611361236E9
:102C400011BE25EF16F027EF16F02FEF16F0020E4B
:102C50000E602DEF16F02FEF16F01AEF16F00EB0F3
:102C600034EF16F036EF16F037EF16F0119ED890CD
:102C70000E320EC009F00A6A0B6A0C6A09C00CF029
:102C80000B6A0A6A096A09500F120A5010120B5097
:102C900011120C5012120D50D8B451EF16F053EF20
:102CA00016F05BEF16F008BE5AEF16F058EF16F06C
:102CB0005BEF16F0128E0FC005F010C006F011C0C9
:102CC00007F012C008F01200000E166E14BE6DEF71
:102CD00016F06BEF16F07FEF16F0141E131E121E87
:102CE000111E101E0F1E0E1E0D6C000E0E220F2246
:102CF00010221122122213221422010E166E0CBE73
:102D000086EF16F084EF16F098EF16F00C1E0B1EEF
:102D10000A1E091E081E071E061E056C000E06224E
:102D20000722082209220A220B220C22010E161A5F
:102D300020EE17F0070EDE6AE806FDE20D500E10D9
:102D40000F1010101110121013101410D8B4ABEF94
:102D500016F0ADEF16F0FFEF16F0010E156EBBEF9B
:102D600016F0D8900D360E360F3610361136123654
:102D700013361436152A14AEC0EF16F0C2EF16F053
:102D8000B1EF16F0D8901736183619361A361B36AA
:102D90001C361D361E360D50055C0E5006580F5061
:102DA0000758105008581150095812500A5813501B
:102DB0000B5814500C58D8A0E0EF16F0E2EF16F0C4
:102DC000F3EF16F00D50055E0E50065A0F50075ADD
:102DD0001050085A1150095A12500A5A13500B5ADF
:102DE00014500C5A1780D890143213321232113208
:102DF00010320F320E320D32152EC2EF16F0165071
:102E0000D8B405EF17F007EF17F017EF17F01E1EF5
:102E10001D1E1C1E1B1E1A1E191E181E176C000ECE
:102E2000182219221A221B221C221D221E2217C020
:102E300005F018C006F019C007F01AC008F01BC052
:102E400009F01CC00AF01DC00BF01EC00CF01200EF
:102E500020EE02F01250D9261350DA22DF50D8B4F7
:102E600034EF17F036EF17F06AEF17F012C0D9FF02
:102E700013C0DAFFDF50146E1450056E066A20EEA0
:102E800003F01250D9261350DA22DECF07F0DDCF3F
:102E900008F009EC23F005C00BF006C00CF0000EA2
:102EA0000E6E640E0D6E4EEC20F020EE03F012500C
:102EB000D9261350DA22DF50156E0B50155C166EB2
:102EC00020EE03F01250D9261350DA22DF50176E8D
:102ED0008DEF17F0000E166E12C0D9FF13C0DAFF87
:102EE000DF50146E1450056E066A20EE03F0125087
:102EF000D9261350DA22DECF07F0DDCF08F009EC37
:102F000023F005C00BF006C00CF0000E0E6E640E30
:102F10000D6E4EEC20F00B50176E20EE01F01250AB
:102F2000D9261350DA22DF50D8B499EF17F09BEF6F
:102F300017F0BDEF17F020EE05F01250D926135010
:102F4000DA22DECF14F0DDCF15F014C0D9FF15C0A2
:102F5000DAFF16C0DFFF20EE07F01250D92613501B
:102F6000DA22DECF14F0DDCF15F014C0D9FF15C082
:102F7000DAFF17C0DFFFDDEF17F020EE05F012508B
:102F8000D9261350DA22DECF14F0DDCF15F014C0AD
:102F9000D9FF15C0DAFF17C0DFFF20EE07F012508F
:102FA000D9261350DA22DECF14F0DDCF15F014C08D
:102FB000D9FF15C0DAFF16C0DFFF1200000E166E33
:102FC0000CBEE7EF17F0E5EF17F0F9EF17F00C1E66
:102FD0000B1E0A1E091E081E071E061E056C000E8B
:102FE00006220722082209220A220B220C22010EA5
:102FF000166E14BE00EF18F0FEEF17F010EF18F089
:10300000141E131E121E111E101E0F1E0E1E0D6CFE
:10301000000E0E220F22102211221222132214223D
:103020000D500E100F10101011101210131014105C
:10303000D8B41DEF18F01FEF18F067EF18F0010E6D
:10304000156E2DEF18F0D8900D360E360F3610365F
:103050001136123613361436152A14AE32EF18F024
:1030600034EF18F023EF18F00D50055C0E500658A1
:103070000F500758105008581150095812500A584C
:1030800013500B5814500C58D8A049EF18F04BEFC0
:1030900018F05BEF18F00D50055E0E50065A0F50F9
:1030A000075A1050085A1150095A12500A5A135010
:1030B0000B5A14500C5AD890143213321232113267
:1030C00010320F320E320D32152E34EF18F016502A
:1030D000D8B46DEF18F06FEF18F07FEF18F00C1EFA
:1030E0000B1E0A1E091E081E071E061E056C000E7A
:1030F00006220722082209220A220B220C2205C0DE
:1031000005F006C006F007C007F008C008F009C0C7
:1031100009F00AC00AF00BC00BF00CC00CF0120052
:1031200045C0D9FF46C0DAFFDECFF6FFDDCFF7FF9F
:103130000800F550250AD8A4A0EF18F0A2EF18F067
:1031400022EF19F045C0D9FF46C0DAFFDE2A000E93
:10315000DD22000E0001CE6F000ECD6FCDC0D1F08C
:10316000CF69D06945C0D9FF46C0DAFFDECF53F042
:10317000DDCF54F053C0F6FF54C0F7FF0800F55000
:10318000640AD8B4C6EF18F0C8EF18F0D6EF18F0FC
:1031900053C0F6FF54C0F7FF0800F550690AD8A4E1
:1031A000D4EF18F0D6EF18F019EF19F047C0D9FF97
:1031B00048C0DAFFDFCF49F0020EDE26DFCF4AF04B
:1031C000000EDD2249C0D9FF4AC0DAFFDECF4BF046
:1031D000DDCF4CF0000E4CBEFF0E4D6E4E6E4F6EAE
:1031E000506E516E526E010E5324496E000E5420E3
:1031F0004A6E45C0D9FF46C0DAFF49C0DEFF4AC06B
:10320000DDFF43C020F044C021F04BC022F04CC091
:1032100023F04DC024F04EC025F04FC026F050C022
:1032200027F051C028F052C029F054EC13F036EFCB
:1032300019F045C0D9FF46C0DAFFDE2A000EDD22B4
:1032400036EF19F045C0D9FF46C0DAFFDECFF6FFF2
:10325000DDCFF7FF0800F550056E066A43C007F0A2
:1032600044C008F08BEC1EF019EF19F012001EC0DC
:1032700018F01FC019F020C01AF021C01BF0F0ECAC
:103280001EF0090E236E1E0E226EE40EE82EFED7EF
:10329000222EFCD7232EFAD700D01EC018F01FC054
:1032A00019F020C01AF021C01BF0B7EC1DF0110E70
:1032B000236E3C0E226ECB0EE82EFED7222EFCD7BC
:1032C000232EFAD700F01EC018F01FC019F020C03E
:1032D0001AF021C01BF0F0EC1EF020EE01F01E50A1
:1032E000D9261F50DA22000EDF6E20EE01F02050AA
:1032F000D9262150DA22010EDF6E20EE02F01E5098
:10330000D9261F50DA22010EDF6E20EE02F01E5089
:10331000D9261F50DA22010EDF6EA7EF19F01EC06A
:10332000D9FF1FC0DAFF0A0EDF2620C0D9FF21C057
:10333000DAFF0A0EDF261EC012F01FC013F028ECC1
:1033400017F020C012F021C013F028EC17F01EC0B7
:10335000D9FF1FC0DAFF450EDF64B1EF19F0B3EFFC
:1033600019F08FEF19F020C0D9FF21C0DAFF450E08
:10337000DF64BDEF19F0BFEF19F08FEF19F0410EC8
:10338000236EF00E226E330EE82EFED7222EFCD7CF
:10339000232EFAD700F01EC018F01FC019F020C06D
:1033A0001AF021C01BF0F0EC1EF012001EC018F045
:1033B0001FC019F020C01AF021C01BF0F0EC1EF065
:1033C000090E236E1E0E226EE40EE82EFED7222E6C
:1033D000FCD7232EFAD700D01EC018F01FC019F05A
:1033E00020C01AF021C01BF0B7EC1DF0110E236EA7
:1033F0003C0E226ECB0EE82EFED7222EFCD7232EBB
:10340000FAD700F01EC018F01FC019F020C01AF043
:1034100021C01BF0F0EC1EF020EE01F01E50D9266A
:103420001F50DA22010EDF6E20EE01F02050D92667
:103430002150DA22000EDF6E20EE02F01E50D92657
:103440001F50DA22010EDF6E20EE02F01E50D92648
:103450001F50DA22010EDF6E46EF1AF01EC0D9FFB0
:103460001FC0DAFF0A0EDF2620C0D9FF21C0DAFF15
:103470000A0EDF261EC012F01FC013F028EC17F052
:1034800020C012F021C013F028EC17F01EC0D9FFA5
:103490001FC0DAFF4F0EDF6450EF1AF052EF1AF040
:1034A0002EEF1AF020C0D9FF21C0DAFF4F0EDF64E3
:1034B0005CEF1AF05EEF1AF02EEF1AF0110E236E89
:1034C0003C0E226ECB0EE82EFED7222EFCD7232EEA
:1034D000FAD700F01EC018F01FC019F020C01AF073
:1034E00021C01BF0F0EC1EF012001EC018F01FC02F
:1034F00019F020C01AF021C01BF0F0EC1EF0090EEC
:10350000236E1E0E226EE40EE82EFED7222EFCD76E
:10351000232EFAD700D01EC018F01FC019F020C00B
:103520001AF021C01BF0B7EC1DF0110E236E3C0EFB
:10353000226ECB0EE82EFED7222EFCD7232EFAD7F2
:1035400000F01EC018F01FC019F020C01AF021C0F2
:103550001BF0F0EC1EF020EE01F01E50D9261F509B
:10356000DA22010EDF6E20EE01F02050D926215024
:10357000DA22000EDF6E20EE02F01E50D9261F5018
:10358000DA22010EDF6E20EE02F01E50D9261F5007
:10359000DA22010EDF6EE5EF1AF01EC0D9FF1FC060
:1035A000DAFF0A0EDF2620C0D9FF21C0DAFF0A0E9B
:1035B000DF261EC012F01FC013F028EC17F020C049
:1035C00012F021C013F028EC17F01EC0D9FF1FC065
:1035D000DAFF4F0EDF64EFEF1AF0F1EF1AF0CDEFE4
:1035E0001AF020C0D9FF21C0DAFF4F0EDF64FBEFD5
:1035F0001AF0FDEF1AF0CDEF1AF0110E236E3C0E0B
:10360000226ECB0EE82EFED7222EFCD7232EFAD721
:1036100000F01EC018F01FC019F020C01AF021C021
:103620001BF0F0EC1EF012001EC018F01FC019F0C5
:1036300020C01AF021C01BF0F0EC1EF0090E236E22
:103640001E0E226EE40EE82EFED7222EFCD7232E6D
:10365000FAD700D01EC018F01FC019F020C01AF011
:1036600021C01BF0B7EC1DF0110E236E3C0E226E34
:10367000CB0EE82EFED7222EFCD7232EFAD700F051
:103680001EC018F01FC019F020C01AF021C01BF096
:10369000F0EC1EF020EE01F01E50D9261F50DA2269
:1036A000000EDF6E20EE01F02050D9262150DA22E4
:1036B000010EDF6E20EE02F01E50D9261F50DA22D6
:1036C000010EDF6E20EE02F01E50D9261F50DA22C6
:1036D000010EDF6E84EF1BF01EC0D9FF1FC0DAFFA2
:1036E0000A0EDF2620C0D9FF21C0DAFF0A0EDF262E
:1036F0001EC012F01FC013F028EC17F020C012F00B
:1037000021C013F028EC17F01EC0D9FF1FC0DAFF4C
:103710004F0EDF648EEF1BF090EF1BF06CEF1BF091
:1037200020C0D9FF21C0DAFF4F0EDF649AEF1BF0F3
:103730009CEF1BF06CEF1BF0210E236E780E226EB7
:10374000980EE82EFED7222EFCD7232EFAD700D0D3
:103750001EC018F01FC019F020C01AF021C01BF0C5
:10376000F0EC1EF012001EC018F01FC019F020C0AF
:103770001AF021C01BF0F0EC1EF0090E236E1E0E95
:10378000226EE40EE82EFED7222EFCD7232EFAD787
:1037900000D01EC018F01FC019F020C01AF021C0C0
:1037A0001BF0B7EC1DF0110E236E3C0E226ECB0EFB
:1037B000E82EFED7222EFCD7232EFAD700F01EC00B
:1037C00018F01FC019F020C01AF021C01BF0F0EC57
:1037D0001EF020EE01F01E50D9261F50DA22000EF6
:1037E000DF6E20EE01F02050D9262150DA22010EA2
:1037F000DF6E20EE02F01E50D9261F50DA22010E95
:10380000DF6E20EE02F01E50D9261F50DA22010E84
:10381000DF6E23EF1CF01EC0D9FF1FC0DAFF0A0EB7
:10382000DF2620C0D9FF21C0DAFF0A0EDF261EC026
:1038300012F01FC013F028EC17F020C012F021C0C6
:1038400013F028EC17F01EC0D9FF1FC0DAFF4F0E8F
:10385000DF642DEF1CF02FEF1CF00BEF1CF020C0ED
:10386000D9FF21C0DAFF4F0EDF6439EF1CF03BEFC8
:103870001CF00BEF1CF0310E236EB40E226E660EA0
:10388000E82EFED7222EFCD7232EFAD71EC018F022
:103890001FC019F020C01AF021C01BF0F0EC1EF080
:1038A0001200000E1D14256E000E1E14266E800ED2
:1038B0001F14276E7F0E2014286E25502610271007
:1038C0002810D8A466EF1CF068EF1CF070EF1CF015
:1038D000000E1D6E000E1E6E000E1F6E000E206E7E
:1038E000000E2114256E000E2214266E800E231465
:1038F000276E7F0E2414286E2550261027102810BE
:10390000D8A485EF1CF087EF1CF08FEF1CF0000EA1
:10391000216E000E226E000E236E000E246E20AE6D
:1039200094EF1CF096EF1CF09FEF1CF01D6C1E1E18
:10393000D8B01E2A1F1ED8B01F2A800E205624AED3
:10394000A4EF1CF0A6EF1CF0AFEF1CF0216C221EC0
:10395000D8B0222A231ED8B0232A800E2456000E67
:103960001D1A000E1E1A000E1F1A800E201A000EBD
:10397000211A000E221A000E231A800E241A21503A
:103980001D5C22501E5823501F5824502058D8B078
:10399000CCEF1CF0CEEF1CF0D1EF1CF0D890D2EFA2
:1039A0001CF0D8801200000E176E000E166E7CAE52
:1039B000DCEF1CF0E0EF1CF0146A142AE1EF1CF0BD
:1039C000146A143214327C5014187F0B14187C6E55
:1039D000090E156E1E0E146EE40EE82EFED7142E80
:1039E000FCD7152EFAD700D0164A172A17BE02EFB9
:1039F0001DF0175009E1140E165CD8A002EF1DF05F
:103A000004EF1DF0D7EF1CF07CAE09EF1DF00DEFB9
:103A10001DF0146A142A0EEF1DF0146A14321432C9
:103A20007C5014187F0B14187C6E290E156E960EA0
:103A3000146E7F0EE82EFED7142EFCD7152EFAD763
:103A400000F012C010F013C011F088EC20F0290E25
:103A5000156E960E146E7F0EE82EFED7142EFCD730
:103A6000152EFAD700F07CAE38EF1DF03CEF1DF0BC
:103A7000146A142A3DEF1DF0146A143214327C507B
:103A800014187F0B14187C6E1200000E176E000EB7
:103A9000166E7CAE4EEF1DF052EF1DF0146A142A24
:103AA00053EF1DF0146A143214327C5014187F0B3B
:103AB00014187C6E090E156E1E0E146EE40EE82EA0
:103AC000FED7142EFCD7152EFAD700D0164A172A87
:103AD00017BE74EF1DF0175009E1140E165CD8A044
:103AE00074EF1DF076EF1DF049EF1DF07CAE7BEF1B
:103AF0001DF07FEF1DF0146A142A80EF1DF0146A88
:103B0000143214327C5014187F0B14187C6E290E5A
:103B1000156E960E146E7F0EE82EFED7142EFCD76F
:103B2000152EFAD700F012C010F013C011F088EC77
:103B300020F0290E156E960E146E7F0EE82EFED71D
:103B4000142EFCD7152EFAD700F07CAEAAEF1DF08C
:103B5000AEEF1DF0146A142AAFEF1DF0146A143290
:103B600014327C5014187F0B14187C6E120020EE57
:103B700001F01850D9261950DA22000EDF6E20EE1F
:103B800001F01A50D9261B50DA22000EDF6E20EE0B
:103B900002F01850D9261950DA22010EDF6E20EEFD
:103BA00002F01850D9261950DA22010EDF6EFDEF0F
:103BB0001DF018C0D9FF19C0DAFF190EDF60E3EF5E
:103BC0001DF0E5EF1DF0EBEF1DF018C0D9FF19C097
:103BD000DAFF050EDF261AC0D9FF1BC0DAFF190E67
:103BE000DF60F5EF1DF0F7EF1DF0FDEF1DF01AC0DF
:103BF000D9FF1BC0DAFF050EDF2618C0D9FF19C098
:103C0000DAFF190EDF6007EF1EF009EF1EF015EF67
:103C10001EF01AC0D9FF1BC0DAFF180EDF6413EFC5
:103C20001EF015EF1EF0D9EF1DF018C012F019C0EC
:103C300013F028EC17F01AC012F01BC013F028EC98
:103C400017F0120005C0D9FF06C0DAFF000EDF6EC4
:103C500020EE01F00550D9260650DA22010EDF6E63
:103C600020EE02F00550D9260650DA22010EDF6E52
:103C700020EE05F00550D9260650DA22AA0EDE6E97
:103C80000F0EDD6E20EE07F00550D9260650DA2221
:103C9000A60EDE6E0F0EDD6E20EE03F00550D92667
:103CA0000650DA22C70EDE6E000EDD6E07C0D9FFA9
:103CB00008C0DAFF000EDF6E20EE01F00750D926B3
:103CC0000850DA22010EDF6E20EE02F00750D926EE
:103CD0000850DA22010EDF6E20EE05F00750D926DB
:103CE0000850DA22250EDE6E0F0EDD6E20EE07F094
:103CF0000750D9260850DA22210EDE6E0F0EDD6E37
:103D000020EE03F00750D9260850DA22C70EDE6EE7
:103D1000000EDD6E120007500810D8B492EF1EF0AE
:103D200094EF1EF09DEF1EF007500810D8A49BEFF3
:103D30001EF09DEF1EF0A2EF1EF0055068EC23F080
:103D4000EFEF1EF020EE09F00750D9260850DA22D6
:103D5000DE50DE10D8B4AFEF1EF0B1EF1EF0CCEFA6
:103D60001EF020EE09F00750D9260850DA2210EE96
:103D700003F00750E1260850E222DE50E65CE650F0
:103D8000800A0D6EDE50800A0D58D8B0CAEF1EF0C2
:103D9000CCEF1EF0EFEF1EF020EE03F00750D92617
:103DA0000850DA22DECF09F0DDCF0AF007C0D9FFD4
:103DB00008C0DAFFDECF0BF0DDCF0CF009500B248A
:103DC000D96E0A500C20DA6E05C0DFFF20EE03F03A
:103DD0000750D9260850DA22DE2A000EDD22120012
:103DE00022EF1FF018C0D9FF19C0DAFFDF50D8B496
:103DF000FCEF1EF0FEEF1EF004EF1FF018C0D9FF1D
:103E000019C0DAFF050EDF5E1AC0D9FF1BC0DAFF4A
:103E1000DF50D8B40EEF1FF010EF1FF016EF1FF0B9
:103E20001AC0D9FF1BC0DAFF050EDF5E18C012F002
:103E300019C013F028EC17F01AC012F01BC013F0D1
:103E400028EC17F018C0D9FF19C0DAFFDF50D8B43A
:103E50002CEF1FF02EEF1FF03AEF1FF01AC0D9FF22
:103E60001BC0DAFFDF50D8A438EF1FF03AEF1FF085
:103E7000F2EF1EF0090E1D6E1E0E1C6EE40EE82EF3
:103E8000FED71C2EFCD71D2EFAD700D012007D9431
:103E90007D987B9E7F9C85948598839E879C050E4C
:103EA0000E01746F060E766F070E696F080E886F2D
:103EB000BD508F0B3009BD6EE00EBE16BF50F00B2B
:103EC0000109BF6EC70EBC6EBD8E000EAA6E000E3D
:103ED000A66E000E0F01256F000E216FFC0EAD16B1
:103EE000F30EAD16CF0EAD163F0EAD16AB88AB5030
:103EF000F00B0C09AB6EAB8EA788A750F00B0C092A
:103F0000A76EA78E26892651F00B0C09266F268FE7
:103F100022892251F00B0C09226F228F120024C03B
:103F200018F025C019F026C01AF027C01BF0F0ECDD
:103F30001EF0090E296E1E0E286EE40EE82EFED726
:103F4000282EFCD7292EFAD700D024C018F025C07F
:103F500019F026C01AF027C01BF0B7EC1DF0290E8F
:103F6000296E960E286E7F0EE82EFED7282EFCD7DF
:103F7000292EFAD700F024C01EF025C01FF026C05D
:103F800020F027C021F075EC1AF024C018F025C0ED
:103F900019F026C01AF027C01BF0F0EC1EF012003A
:103FA00024C018F025C019F026C01AF027C01BF055
:103FB000F0EC1EF0090E296E1E0E286EE40EE82E9F
:103FC000FED7282EFCD7292EFAD700D024C018F00F
:103FD00025C019F026C01AF027C01BF0B7EC1DF061
:103FE000290E296E960E286E7F0EE82EFED7282EFB
:103FF000FCD7292EFAD700F024C01EF025C01FF0F0
:1040000026C020F027C021F014EC1BF024C018F0CB
:1040100025C019F026C01AF027C01BF0F0EC1EF0E6
:1040200012001ABE16EF20F018EF20F01EEF20F05D
:1040300019C01EF01AC01FF022EF20F0000E1F6EF4
:10404000000E1E6E000E1D6E000E1C6E34EF20F072
:10405000000E066E200E056E15C007F016C008F0A3
:104060008BEC1EF01C4A1D2A1E501C5C1D50800A41
:104070001B6E1F50800A1B58D8A041EF20F043EF61
:1040800020F028EF20F017C00EF018C00FF015C078
:1040900010F016C011F0F4EC21F01200000E116EB9
:1040A000000E106E0D500E10D8B459EF20F05BEFDB
:1040B00020F083EF20F0010E0F6E63EF20F0D89018
:1040C0000D360E360F2A0EAE68EF20F06AEF20F0A4
:1040D0005FEF20F0D890103611360D500B5C0E506B
:1040E0000C58D8A076EF20F078EF20F07DEF20F08C
:1040F0000D500B5E0E500C5A1080D8900E320D32BF
:104100000F2E6AEF20F010C00BF011C00CF012005F
:1041100031EC21F010C0D9FF11C0DAFF09C0DEFF79
:104120000AC0DDFF59EC21F020EE02F01050D92634
:104130001150DA2209C0DEFF0AC0DDFFA9EC21F030
:1041400020EE04F01050D9261150DA2209C0DEFF0B
:104150000AC0DDFF81EC21F020EE06F01050D926D8
:104160001150DA2209C0DEFF0AC0DDFF1200CC0EBA
:10417000F66E460EF76E000EF86E01EEA6F010EE2B
:1041800004F00900F5CFEEFFE550E150FAE101EE51
:1041900000F0740EEE6AE806FDE10001D16BD06B11
:1041A000CF6BCE6BCD6B5A6A596A586A576A5B906F
:1041B0005B92000EF86E0E0EF76E000193EF14F096
:1041C0006A0E0001766F000E776F66C078F067C0E8
:1041D00079F0000E7C6F000E7B6F000E826F000E78
:1041E000816F780E606F000E616F68C062F069C009
:1041F00063F0760E646F000E656F09EC21F000012C
:104200007B516625D96E7C516721DA6E000EDF6E18
:10421000120062C055F063C056F01DEF21F060C07F
:1042200043F061C044F0550E456E000E466E64C00A
:1042300047F065C048F090EC18F055C0F6FF56C046
:10424000F7FF0800F5500009D8A429EF21F02BEF63
:1042500021F00FEF21F0000E0001616F000E606F82
:1042600012005CEC23F0520E51EC23F0B60E51EC30
:1042700023F061EC23F0530E51EC23F0010E16EC09
:1042800022F00B6E0B500E6E0F6A000E16EC22F031
:104290000B6E0B500D6E0C6A0E500C100E6E0F5004
:1042A0000D100F6E57EC23F00EC009F00FC00AF08E
:1042B00012005CEC23F0520E51EC23F0B80E51ECDE
:1042C00023F061EC23F0530E51EC23F0010E16ECB9
:1042D00022F00B6E0B500E6E0F6A000E16EC22F0E1
:1042E0000B6E0B500D6E0C6A0E500C100E6E0F50B4
:1042F0000D100F6E57EC23F00EC009F00FC00AF03E
:1043000012005CEC23F0520E51EC23F0B40E51EC91
:1043100023F061EC23F0530E51EC23F0010E16EC68
:1043200022F00B6E0B500E6E0F6A000E16EC22F090
:104330000B6E0B500D6E0C6A0E500C100E6E0F5063
:104340000D100F6E57EC23F00EC009F00FC00AF0ED
:1043500012005CEC23F0520E51EC23F0BA0E51EC3B
:1043600023F061EC23F0530E51EC23F0010E16EC18
:1043700022F00B6E0B500E6E0F6A000E16EC22F040
:104380000B6E0B500D6E0C6A0E500C100E6E0F5013
:104390000D100F6E57EC23F00EC009F00FC00AF09D
:1043A0001200000E191A000E1A1A000E1B1A800EA7
:1043B0001C1A15C005F016C006F017C007F018C08B
:1043C00008F019C009F01AC00AF01BC00BF01CC09D
:1043D0000CF012EC0DF005C015F006C016F007C089
:1043E00017F008C018F01200000E146E000E136EC5
:1043F00005EF22F012C005F0066A10C007F011C0E8
:1044000008F08BEC1EF0134A142A13500E24D96EB8
:1044100014500F20DA6EDF50126E1250D8A413EF32
:1044200022F015EF22F0FAEF21F01200076EF5EC02
:1044300022F00E01DA87F5EC22F0D5CE08F0F5EC8B
:1044400022F00750D8B427EF22F02BEF22F0066AB3
:10445000062A2CEF22F0066A063A06460E01DA51C9
:104460000618DF0B0618DA6FDA890850120018BE3A
:1044700044EF22F0185006E11704D8B042EF22F0C2
:1044800044EF22F052EF22F017C019F018C01AF0D2
:10449000191E1A1E194A1A2A19C017F01AC018F044
:1044A00056EF22F017C017F018C018F01200B6EC43
:1044B00022F0010E076E000E1CEC23F03F0E096E79
:1044C000550EE82EFED7092EFCD700F0030E076E1E
:1044D000000E1CEC23F0D50E076E010E1CEC23F031
:1044E00012007CEF22F006C0D9FF07C0DAFFDF50D0
:1044F000CBEC22F0064A072A06C0D9FF07C0DAFF34
:10450000DF50D8A486EF22F088EF22F073EF22F07C
:1045100012000E01E997E895330EE56F000EE66F85
:10452000E789E88BE78F8382120E626F110E156F99
:10453000F28EF28AF28C2D872D9523872385120027
:104540003B0E5764A6EF22F0A8EF22F0AAEF22F06C
:10455000000E576E572A5704016E026A000E01249E
:10456000D96E010E0220DA6EDF5012000E01D95111
:10457000F00B0809D96FD98B9F0ED66F848A848C73
:10458000A79BA79D1D0E1D6F1E0E1C6F1C0E6F6F2F
:104590001B0E706F1200056E3B0E5864D2EF22F0B6
:1045A000D4EF22F0D6EF22F0000E586E000E582401
:1045B000D96EDA6A010EDA2205C0DFFF582A12002E
:1045C000016E130E5A64E7EF22F0E9EF22F0EBEFF1
:1045D00022F0000E5A6E3C0E5A24D96EDA6A010E91
:1045E000DA2201C0DFFF5A2A12000E01D8B5FBEF14
:1045F00022F0FDEF22F0F5EF22F0DACE05F01F0EEB
:104600000516D8A406EF23F008EF23F0F5EF22F00B
:10461000120005500702F3CF09F0F4CF0AF005505D
:104620000802F3500A2606500702F3500A2609C072
:1046300005F00AC006F01200086E5CEC23F0520E82
:1046400051EC23F00850800951EC23F0075051EC55
:1046500023F057EC23F0120039EC23F00009D8B412
:1046600034EF23F036EF23F038EF23F00E012D85E1
:10467000120057505818D8A440EF23F043EF23F00E
:10468000010E44EF23F0000E120057505818D8A422
:104690004CEF23F04FEF23F0010E50EF23F0000E0C
:1046A0001200066EF5EC22F006C0D5FE1200F5EC05
:1046B00022F00E01DA851200F5EC22F00E01DA810B
:1046C0001200F5EC22F00E01DA831200C800C800D7
:0246D0001200D6
:020000040020DA
:10000000FF0FFF0FFF0FFF0FFF0FFF0FFF0FFF0F80
:020000040030CA
:0C000000AAFFFFFF9FFFFFFFFFFFFFFFB5
:00000001FF
