:0400000034EF00F0E9
:100008005B82D9CF03F0DACF04F00E0137A70FEFE8
:1000180000F011EF00F014EF00F0E351AAEC25F026
:100028000E0137A51AEF00F01CEF00F02EEF00F0DC
:100038001FEC26F00009D8B424EF00F026EF00F0FA
:100048002CEF00F06AEC25F00E01E46F2EEF00F0C3
:100058000E012D9504C0DAFF03C0D9FF5B92110091
:040068008DEF24F004
:100E0000004B3A256420493A256420433A25642062
:100E1000543A2564200D0000800E106E000E116EF5
:100E20006BEC23F064C0D9FF65C0DAFFDECF78F049
:100E3000DDCF79F0000120EE02F06451D926655132
:100E4000DA22DECF7AF0DDCF7BF020EE04F06451C1
:100E5000D9266551DA22DECF7CF0DDCF7DF066C089
:100E6000D9FF67C0DAFFDECF4FF0DDCF50F04FC0C3
:100E700005F050C006F0076A086A000EE7EC17F0AC
:100E800005C06CF006C06DF007C06EF008C06FF0D2
:100E9000000120EE02F06651D9266751DA22DECF3A
:100EA0004FF0DDCF50F04FC005F050C006F0076A9C
:100EB000086A000EE7EC17F005C070F006C071F08C
:100EC00007C072F008C073F0000120EE04F0665114
:100ED000D9266751DA22DECF4FF0DDCF50F04FC078
:100EE00005F050C006F0076A086A000EE7EC17F03C
:100EF00005C074F006C075F007C076F008C077F042
:100F0000000120EE06F06651D9266751DA22DECFC5
:100F10004FF0DDCF50F04FC005F050C006F0076A2B
:100F2000086A000EE7EC17F000017851805D4F6E03
:100F300079518159506E4FC005F050C006F0076AD4
:100F4000086A000EE7EC17F005C036F006C037F06F
:100F500007C038F008C039F060C021F061C022F04D
:100F600062C023F063C024F078C005F079C006F0B9
:100F7000076A086A000EE7EC17F005C019F006C012
:100F80001AF007C01BF008C01CF06CC015F06DC053
:100F900016F06EC017F06FC018F0B2EC24F015C058
:100FA0001DF016C01EF017C01FF018C020F08FEC07
:100FB00011F01DC03AF01EC03BF01FC03CF020C035
:100FC0003DF0A4EC13F036C088F037C089F038C08B
:100FD0008AF039C08BF000017A51825D4F6E7B51EF
:100FE0008359506E4FC005F050C006F0076A086A7A
:100FF000000EE7EC17F005C036F006C037F007C06A
:1010000038F008C039F060C021F061C022F062C041
:1010100023F063C024F07AC005F07BC006F0076AB5
:10102000086A000EE7EC17F005C019F006C01AF0C8
:1010300007C01BF008C01CF070C015F071C016F09E
:1010400072C017F073C018F0B2EC24F015C01DF098
:1010500016C01EF017C01FF018C020F08FEC11F062
:101060001DC03AF01EC03BF01FC03CF020C03DF058
:10107000A4EC13F036C08CF037C08DF038C08EF081
:1010800039C08FF000017C51845D4F6E7D518559D0
:10109000506E4FC005F050C006F0076A086A000E97
:1010A000E7EC17F005C036F006C037F007C038F09F
:1010B00008C039F060C021F061C022F062C023F0A6
:1010C00063C024F07CC005F07DC006F0076A086AA2
:1010D000000EE7EC17F005C019F006C01AF007C0C3
:1010E0001BF008C01CF074C015F075C016F076C077
:1010F00017F077C018F0B2EC24F015C01DF016C040
:101100001EF017C01FF018C020F08FEC11F01DC0AA
:101110003AF01EC03BF01FC03CF020C03DF0A4ECF4
:1011200013F036C090F037C091F038C092F039C05B
:1011300093F0000E00017F6F0B0E7E6F8BBFA3EF4D
:1011400008F0A5EF08F0BEEF08F0000E1D6E000ECF
:101150001E6E000E1F6E400E206E88C021F089C0EA
:1011600022F08AC023F08BC024F0B5EC1EF0D8B07A
:10117000BCEF08F0BEEF08F0C7EF08F0000E00016A
:10118000886F000E896F000E8A6F000E8B6F000152
:101190008FBFCDEF08F0CFEF08F0E8EF08F0000EBA
:1011A0001D6E000E1E6E000E1F6E400E206E8CC057
:1011B00021F08DC022F08EC023F08FC024F0B5EC5A
:1011C0001EF0D8B0E6EF08F0E8EF08F0F1EF08F015
:1011D000000E00018C6F000E8D6F000E8E6F000EE2
:1011E0008F6F000193BFF7EF08F0F9EF08F012EFEF
:1011F00009F0000E1D6E000E1E6E000E1F6E400EDA
:10120000206E90C021F091C022F092C023F093C0D4
:1012100024F0B5EC1EF0D8B010EF09F012EF09F091
:101220001BEF09F0000E0001906F000E916F000E91
:10123000926F000E936F660E1D6E660E1E6E660E2A
:101240001F6E3F0E206E88C021F089C022F08AC038
:1012500023F08BC024F0B5EC1EF0D8B032EF09F0CB
:1012600034EF09F06DEF09F0660E1D6E660E1E6E0E
:10127000660E1F6E3F0E206E8CC021F08DC022F0D6
:101280008EC023F08FC024F0B5EC1EF0D8B04BEF29
:1012900009F04DEF09F06DEF09F0660E1D6E660E58
:1012A0001E6E660E1F6E3F0E206E90C021F091C024
:1012B00022F092C023F093C024F0B5EC1EF0D8B019
:1012C00064EF09F066EF09F06DEF09F0000E000120
:1012D0007F6F080E7E6FF1EF0CF0000E1D6E000E9A
:1012E0001E6EC00E1F6E3F0E206E88C021F089C09A
:1012F00022F08AC023F08BC024F0B5EC1EF0D8B0E9
:1013000084EF09F086EF09F0FBEF09F0CD0E1D6EBA
:10131000CC0E1E6E4C0E1F6E3F0E206E8CC019F050
:101320008DC01AF08EC01BF08FC01CF088C015F065
:1013300089C016F08AC017F08BC018F0B2EC24F008
:1013400015C021F016C022F017C023F018C024F0F9
:10135000B5EC1EF0D8B0AFEF09F0B1EF09F0FBEF3C
:1013600009F0CD0E1D6ECC0E1E6E4C0E1F6E3F0E84
:10137000206E90C019F091C01AF092C01BF093C07B
:101380001CF088C015F089C016F08AC017F08BC019
:1013900018F0B2EC24F015C021F016C022F017C0EE
:1013A00023F018C024F0B5EC1EF0D8B0DAEF09F045
:1013B000DCEF09F0FBEF09F02A0E4F6E8E0EE82EDF
:1013C000FED74F2EFCD768C01EF069C01FF06AC060
:1013D00020F06BC021F03BEC1CF02A0E4F6E8E0EFD
:1013E000E82EFED74F2EFCD7000E00017F6F010EB6
:1013F0007E6FF1EF0CF0CD0E1D6ECC0E1E6ECC0E7E
:101400001F6E3E0E206E88C019F089C01AF08AC087
:101410001BF08BC01CF08CC015F08DC016F08EC078
:1014200017F08FC018F0B2EC24F015C021F016C0F0
:1014300022F017C023F018C024F0B5EC1EF0D8B08D
:1014400024EF0AF026EF0AF089EF0AF0000E1D6E75
:10145000000E1E6E800E1F6E3F0E206E8CC021F09F
:101460008DC022F08EC023F08FC024F0B5EC1EF0AA
:10147000D8B03DEF0AF03FEF0AF089EF0AF0CD0E49
:101480001D6ECC0E1E6ECC0E1F6E3E0E206E90C0DA
:1014900019F091C01AF092C01BF093C01CF08CC0E0
:1014A00015F08DC016F08EC017F08FC018F0B2EC9A
:1014B00024F015C021F016C022F017C023F018C088
:1014C00024F0B5EC1EF0D8B068EF0AF06AEF0AF02D
:1014D00089EF0AF02A0E4F6E8E0EE82EFED74F2EA1
:1014E000FCD768C01EF069C01FF06AC020F06BC056
:1014F00021F0DAEC1CF02A0E4F6E8E0EE82EFED78D
:101500004F2EFCD7000E00017F6F020E7E6FF1EFB1
:101510000CF0330E1D6E330E1E6E330E1F6E3F0E1B
:10152000206E88C019F089C01AF08AC01BF08BC0E9
:101530001CF090C015F091C016F092C017F093C047
:1015400018F0B2EC24F015C021F016C022F017C03C
:1015500023F018C024F0B5EC1EF0D8B0B2EF0AF0BA
:10156000B4EF0AF017EF0BF09A0E1D6E990E1E6E77
:10157000990E1F6E3E0E206E8CC019F08DC01AF0B1
:101580008EC01BF08FC01CF090C015F091C016F0FB
:1015900092C017F093C018F0B2EC24F015C021F0FF
:1015A00016C022F017C023F018C024F0B5EC1EF0CE
:1015B000D8B0DDEF0AF0DFEF0AF017EF0BF0330ED3
:1015C0001D6E330E1E6E330E1F6E3F0E206E90C0CA
:1015D00021F091C022F092C023F093C024F0B5EC2A
:1015E0001EF0D8B0F6EF0AF0F8EF0AF017EF0BF0A4
:1015F0002A0E4F6E8E0EE82EFED74F2EFCD768C0F7
:101600001EF069C01FF06AC020F06BC021F09CEC96
:101610001BF02A0E4F6E8E0EE82EFED74F2EFCD7F3
:10162000000E00017F6F030E7E6FF1EF0CF0000ED5
:101630001D6E000E1E6E800E1F6E3F0E206E88C047
:1016400021F089C022F08AC023F08BC024F0B5ECD1
:101650001EF0D8B02EEF0BF030EF0BF081EF0BF057
:10166000CD0E1D6ECC0E1E6E4C0E1F6E3F0E206EEC
:101670008CC021F08DC022F08EC023F08FC024F0EA
:10168000B5EC1EF0D8B047EF0BF049EF0BF081EF4F
:101690000BF090C01DF091C01EF092C01FF093C0DF
:1016A00020F0CD0E216ECC0E226E4C0E236E3F0E1E
:1016B000246EB5EC1EF0D8B060EF0BF062EF0BF0CB
:1016C00081EF0BF02A0E4F6E8E0EE82EFED74F2EB6
:1016D000FCD768C024F069C025F06AC026F06BC052
:1016E00027F016EC22F02A0E4F6E8E0EE82EFED753
:1016F0004F2EFCD7000E00017F6F040E7E6FF1EFBE
:101700000CF0330E1D6E330E1E6E730E1F6E3F0EE9
:10171000206E88C021F089C022F08AC023F08BC0DF
:1017200024F0B5EC1EF0D8B098EF0BF09AEF0BF068
:101730001DEF0CF0CD0E1D6ECC0E1E6E4C0E1F6EEE
:101740003F0E206E8CC021F08DC022F08EC023F0A1
:101750008FC024F0B5EC1EF0D8B0B1EF0BF0B3EFB2
:101760000BF01DEF0CF08CC01DF08DC01EF08EC074
:101770001FF08FC020F0660E216E660E226E660E80
:10178000236E3F0E246EB5EC1EF0D8B0CAEF0BF0FE
:10179000CCEF0BF01DEF0CF0CD0E1D6ECC0E1E6EBF
:1017A0004C0E1F6E3F0E206E90C021F091C022F0B3
:1017B00092C023F093C024F0B5EC1EF0D8B0E3EF54
:1017C0000BF0E5EF0BF01DEF0CF090C01DF091C099
:1017D0001EF092C01FF093C020F0330E216E330E26
:1017E000226E730E236E3F0E246EB5EC1EF0D8B041
:1017F000FCEF0BF0FEEF0BF01DEF0CF02A0E4F6E1E
:101800008E0EE82EFED74F2EFCD768C024F069C09C
:1018100025F06AC026F06BC027F061EC22F02A0E9A
:101820004F6E8E0EE82EFED74F2EFCD7000E000115
:101830007F6F050E7E6FF1EF0CF0660E1D6E660E6B
:101840001E6EA60E1F6E3F0E206E88C021F089C04E
:1018500022F08AC023F08BC024F0B5EC1EF0D8B083
:1018600034EF0CF036EF0CF087EF0CF0000E1D6E2D
:10187000000E1E6E000E1F6E3F0E206E8CC021F0FB
:101880008DC022F08EC023F08FC024F0B5EC1EF086
:10189000D8B04DEF0CF04FEF0CF087EF0CF0000ECE
:1018A0001D6E000E1E6E000E1F6E3F0E206E90C04D
:1018B00021F091C022F092C023F093C024F0B5EC47
:1018C0001EF0D8B066EF0CF068EF0CF087EF0CF06C
:1018D0002A0E4F6E8E0EE82EFED74F2EFCD768C014
:1018E0001EF069C01FF06AC020F06BC021F079ECD7
:1018F0001DF02A0E4F6E8E0EE82EFED74F2EFCD70F
:10190000000E00017F6F060E7E6FF1EF0CF088C0B5
:101910001DF089C01EF08AC01FF08BC020F0330E6E
:10192000216E330E226E330E236E3F0E246EB5EC05
:101930001EF0D8B09EEF0CF0A0EF0CF0F1EF0CF021
:10194000000E1D6E000E1E6E800E1F6E3F0E206E6E
:101950008CC021F08DC022F08EC023F08FC024F007
:10196000B5EC1EF0D8B0B7EF0CF0B9EF0CF0F1EF1A
:101970000CF0000E1D6E000E1E6E800E1F6E3F0ED0
:10198000206E90C021F091C022F092C023F093C04D
:1019900024F0B5EC1EF0D8B0D0EF0CF0D2EF0CF084
:1019A000F1EF0CF02A0E4F6E8E0EE82EFED74F2E62
:1019B000FCD768C01EF069C01FF06AC020F06BC081
:1019C00021F017EC1EF02A0E4F6E8E0EE82EFED779
:1019D0004F2EFCD7000E00017F6F070E7E6FF1EFD8
:1019E0000CF07EC060F07FC061F012000850800BE8
:1019F000116E08500824136E07AE01EF0DF003EFCF
:101A00000DF004EF0DF013801350D8B40AEF0DF071
:101A10000CEF0DF021EF0DF01328D8A412EF0DF00C
:101A200014EF0DF01CEF0DF0000E056E000E066EAB
:101A3000000E076E000E086E078E000E086E29EF6E
:101A40000DF0000E056E000E066E000E076E000E05
:101A5000086E0C50800B126E11501218D8B433EF70
:101A60000DF035EF0DF036EF0DF0118C0C500C240D
:101A7000126E0BAE3EEF0DF040EF0DF041EF0DF0AA
:101A800012801250D8B447EF0DF049EF0DF05EEF21
:101A90000DF01228D8A44FEF0DF051EF0DF059EFD3
:101AA0000DF0000E096E000E0A6E000E0B6E000E99
:101AB0000C6E0B8E000E0C6E66EF0DF0000E096EB4
:101AC000000E0A6E000E0B6E000E0C6E1350125CB0
:101AD000D8B06DEF0DF06FEF0DF096EF0DF011AC8B
:101AE00074EF0DF076EF0DF078EF0DF0800E111A17
:101AF00013C014F012C013F014C012F005C014F09B
:101B000009C005F014C009F006C014F00AC006F0C0
:101B100014C00AF007C014F00BC007F014C00BF09B
:101B200008C014F00CC008F014C00CF0000E146EC5
:101B3000135012C00DF00E6A0D5E000E0E5A0EBE4E
:101B4000ABEF0DF00E5009E11A0E0D5CD8A0ABEF13
:101B50000DF0ADEF0DF0E4EF0DF00550061007109D
:101B60000810D8A4B6EF0DF0B9EF0DF0010EBAEFE2
:101B70000DF0000E146E000E056E000E066E000EC7
:101B8000076E000E086E12C013F0EDEF0DF014A0FA
:101B9000CCEF0DF0CEEF0DF0D4EF0DF0D890143067
:101BA0000109146ED6EF0DF0D890143205A0DBEFCA
:101BB0000DF0DDEF0DF0DEEF0DF0148E083408327D
:101BC000073206320532132A1250135CD8A0EBEF0D
:101BD0000DF0EDEF0DF0C7EF0DF011BCF2EF0DF0D1
:101BE000F4EF0DF034EF0EF01350D8A4FAEF0DF02F
:101BF000FCEF0DF006EF0EF0000E056E000E066E07
:101C0000000E076E000E086E55EF0FF00950052606
:101C10000A5006220B5007220C50082208A013EF8E
:101C20000EF015EF0EF0C1EF0EF014A01AEF0EF04B
:101C30001CEF0EF022EF0EF0D89014300109146E54
:101C400024EF0EF0D890143205A029EF0EF02BEF00
:101C50000EF02CEF0EF0148E0834083207320632E4
:101C60000532132AC1EF0EF00950055C0A500658E0
:101C70000B5007580850800A0D6E0C50800A0D5802
:101C8000D8B045EF0EF047EF0EF072EF0EF00550B2
:101C9000095C0D6E06500A580E6E07500B580F6EF9
:101CA00008500C58106EFF0E0D24056EFF0E0E200E
:101CB000066EFF0E0F20076EFF0E1020086E800EBE
:101CC000111A146C1450D8A468EF0EF06AEF0EF0DD
:101CD0007AEF0EF0010E0526000E062207220822DA
:101CE0007AEF0EF00950055E0A50065A0B50075A5B
:101CF0000C50085A0550061007100810D8A483EF9E
:101D00000EF085EF0EF0BAEF0EF01450D8A48BEF62
:101D10000EF08DEF0EF0BAEF0EF0000E056E000E15
:101D2000066E000E076E000E086E55EF0FF0D8908D
:101D3000053606360736083614AEA1EF0EF0A3EFCF
:101D40000EF0A4EF0EF0058014A0A9EF0EF0ABEF9B
:101D50000EF0AFEF0EF0D8801436B1EF0EF0D89041
:101D600014361350D8B4B7EF0EF0B9EF0EF0BAEF47
:101D70000EF0130607AEBFEF0EF0C1EF0EF097EFB7
:101D80000EF0000E126E14AEC8EF0EF0CAEF0EF099
:101D9000E2EF0EF014C00DF07F0E0D16D8B4D3EFA5
:101DA0000EF0D5EF0EF0D9EF0EF0010E126EE2EF4D
:101DB0000EF005A0DEEF0EF0E0EF0EF0E2EF0EF019
:101DC000D5EF0EF01250D8B4E8EF0EF0EAEF0EF0B7
:101DD00015EF0FF0010E0526000E0622072208223D
:101DE00008A0F5EF0EF0F7EF0EF015EF0FF005C0BD
:101DF0000DF006C00EF007C00FF008C010F0103450
:101E000010320F320E320D320DC005F00EC006F04A
:101E10000FC007F010C008F01328D8B412EF0FF06D
:101E200014EF0FF015EF0FF0132A1328D8B41BEF9F
:101E30000FF01DEF0FF025EF0FF01350D8A423EF94
:101E40000FF025EF0FF037EF0FF0000E056E000ECC
:101E5000066E000E076E000E086E1350D8A433EF06
:101E60000FF035EF0FF037EF0FF0000E116E13A0EB
:101E70003CEF0FF03EEF0FF041EF0FF0078E42EF17
:101E80000FF0079ED8901330086E11AE4AEF0FF096
:101E90004CEF0FF04DEF0FF0088E05C005F006C0B7
:101EA00006F007C007F008C008F0120038EC25F073
:101EB000E6EC25F0000E066EC70E056EACEC22F0C7
:101EC0007C9E849E809688967C988498809088904A
:101ED0007E908690809288927C9684967C887E8084
:101EE00080807E807C867F807D8E79868790859EAF
:101EF000819686840E01B4958686B497000E000103
:101F0000AB6FC70E056E000E066EBE0E076E000E9E
:101F1000086EF1EC20F0000E0001BD6F000EBC6FEA
:101F2000000EA06F000E9F6FAC0E126E000E136EAF
:101F3000A9EC1FF0A30E106E000E116E6BEC23F0D7
:101F40008EB4A5EF0FF0A7EF0FF0CAEF0FF08EB62B
:101F5000ACEF0FF0AEEF0FF0CAEF0FF07C8E808683
:101F6000290E0001956F960E946F7F0EE82EFED716
:101F7000942FFCD7952FFAD77C9E80960001AB5109
:101F8000D8B4C5EF0FF0C8EF0FF0010EC9EF0FF096
:101F9000000EAB6F8EA4CFEF0FF0D2EF0FF0010E5B
:101FA000D3EF0FF0000E0001946F956B8EB6DBEF50
:101FB0000FF0DFEF0FF0966B962BE1EF0FF00001C3
:101FC000966B96519417000E951794519511D8B4AD
:101FD000ECEF0FF0EEEF0FF0F4EF0FF0AC0E126E2F
:101FE000000E136EA9EC1FF08EA6F9EF0FF0FCEFB8
:101FF0000FF0010EFDEF0FF0000E0001946F956BD6
:102000008EB405EF10F009EF10F0966B962B0BEFE6
:1020100010F00001966B96519417000E951794518D
:102020009511D8B416EF10F018EF10F01EEF10F065
:10203000B40E126E000E136E37EC1FF080A623EF65
:1020400010F028EF10F00001946B942B2AEF10F0A1
:102050000001946B94479447944780509419F70B70
:102060009419806EBAC005F0BBC006F0076A086A12
:10207000000EE7EC17F005C097F006C098F007C017
:1020800099F008C09AF0A9C005F0AAC006F0076A46
:10209000086A000EE7EC17F005C036F006C037F00E
:1020A00007C038F008C039F097C03AF098C03BF04C
:1020B00099C03CF09AC03DF0A4EC13F036C09BF000
:1020C00037C09CF038C09DF039C09EF08F0E1D6E59
:1020D000C20E1E6EF50E1F6E3D0E206E9BC021F0CF
:1020E0009CC022F09DC023F09EC024F0B5EC1EF0F1
:1020F000D8B07DEF10F07FEF10F02AEF11F0000163
:10210000AB51D8B486EF10F088EF10F02AEF11F041
:102110009BC060F09CC061F09DC062F09EC063F007
:10212000AC0E646F000E656FB40E666F000E676FC5
:10213000C70E686F000E696FBE0E6A6F000E6B6F80
:102140000CEC07F060C0A1F061C0A2F00001A25148
:1021500007E1090EA15DD8B0B0EF10F0B2EF10F0BA
:102160002AEF11F0D890BC35D96EBD35DA6E000E6D
:10217000D926020EDA22000EDE6E000EDD6ED89039
:10218000BC35D96EBD35DA6E000ED926030EDA22C3
:102190009FC0DEFFA0C0DDFFBC4BBD2B000EA06FBB
:1021A000000E9F6F080EA119A211D8A4DAEF10F04B
:1021B000DCEF10F002EF11F0C70E1E6E000E1F6E66
:1021C000BE0E206E000E216E9CEC1BF07C8E808675
:1021D000000E00017F6F020E806F000E816F030EF4
:1021E000826FBCC083F0BDC084F0C70E856F000E47
:1021F000866FBE0E876F000E886FB0EC16F0000E73
:102200000001AB6FD890BC35D96EBD35DA6E000ECB
:10221000D926020EDA22A1C0DEFFA2C0DDFFD890CF
:10222000BC35D96EBD35DA6E000ED926030EDA2222
:10223000010EDE6E000EDD6EBC4BBD2B290E0001C3
:10224000956F960E946F7F0EE82EFED7942FFCD7D5
:10225000952FFAD70001AB51D8B431EF11F033EF1D
:1022600011F053EF11F0C70E186E000E196EBE0E6E
:102270001A6E000E1B6E1BEC20F07CA842EF11F0D2
:1022800047EF11F00001946B942B49EF11F000011E
:10229000946B943B7C509419EF0B94197C6E9F4B7C
:1022A000A02B5DEF11F0C70E186E000E196EBE0E5A
:1022B0001A6E000E1B6EBFEC21F0050E0001956F2B
:1022C0000F0E946FF10EE82EFED7942FFCD7952FAA
:1022D000FAD7D10E00019F5D070EA059D8A073EF69
:1022E00011F075EF11F09AEF0FF0000E7F6F020EF4
:1022F000806F000E816F030E826FBCC083F0BDC083
:1023000084F0C70E856F000E866FBE0E876F000EBD
:10231000886FB0EC16F09AEF0FF034EF00F0205019
:10232000800B296E205020242F6E1FAE9AEF11F0E3
:102330009CEF11F09DEF11F02F802F50D8B4A3EF38
:1023400011F0A5EF11F0B8EF11F02F28D8A4ABEFE2
:1023500011F0ADEF11F0B5EF11F0000E1D6E000E93
:102360001E6E000E1F6E000E206E1F8EC0EF11F04D
:10237000000E1D6E000E1E6E000E1F6E000E206EF3
:102380002450800B291A245024242E6E23AECBEF28
:1023900011F0CDEF11F0CEEF11F02E802E50D8B409
:1023A000D4EF11F0D6EF11F0E9EF11F02E28D8A4F8
:1023B000DCEF11F0DEEF11F0E6EF11F0000E216E10
:1023C000000E226E000E236E000E246E238EF1EF9F
:1023D00011F0000E216E000E226E000E236E000E14
:1023E000246E2E50D8B4F7EF11F0F9EF11F001EF91
:1023F00012F02F50D8A4FFEF11F001EF12F00BEF05
:1024000012F0000E1D6E000E1E6E000E1F6E000EEE
:10241000206EA3EF13F023501D02F3CF34F0F4CF5E
:1024200035F034502A6E2B6A2C6A2D6A3550306E86
:10243000316A326A336A22501E02F3CF34F0F4CF8D
:1024400035F034502A26000E2B222C222D22355016
:102450003026000E31223222332221501F02F3CFC8
:1024600034F0F4CF35F034502A26000E2B222C22E3
:102470002D2235503026000E3122322233222CC03C
:102480002DF02BC02CF02AC02BF02A6A21501E02FE
:10249000F3CF34F0F4CF35F034502A2635502B22C8
:1024A000000E2C22000E2D2222501D02F3CF34F0FC
:1024B000F4CF35F034502A2635502B22000E2C2232
:1024C000000E2D222CC02DF02BC02CF02AC02BF09A
:1024D0002A6A21501D02F3CF34F0F4CF35F0345086
:1024E0002A2635502B22000E2C22000E2D2223509E
:1024F0001E02F3CF34F0F4CF35F03450302635508F
:102500003122000E3222000E332222501F02F3CF5E
:1025100034F0F4CF35F03450302635503122000EEF
:102520003222000E332223501F02F3CF34F0F4CFB7
:1025300035F03450256E3550266E276A286A27C03C
:1025400028F026C027F025C026F0256A2550302621
:102550002650312227503222285033222AC025F01B
:102560002BC026F02CC027F02DC028F0190EBEEF8E
:1025700012F0D8902832273226322532E82EB9EFD1
:1025800012F0255030262650312227503222285072
:1025900033222CC02DF02BC02CF02AC02BF02A6A3D
:1025A0002E502FC025F0266A2526000E2622820EE8
:1025B0002524346EFF0E2620356EF4EF12F0D890ED
:1025C00030363136323633362DAEE9EF12F0EBEFDE
:1025D00012F0ECEF12F03080D8902A362B362C36E1
:1025E0002D363406D8A0350632AEF9EF12F0FBEFE7
:1025F00012F0DFEF12F0000E2E6E2DAE02EF13F090
:1026000004EF13F028EF13F0FF0E2A14256EFF0ECF
:102610002B14266EFF0E2C14276E7F0E2D14286EA1
:102620002550261027102810D8B419EF13F01BEFEF
:1026300013F01FEF13F0010E2E6E28EF13F030A0F1
:1026400024EF13F026EF13F028EF13F01BEF13F035
:102650002E50D8B42EEF13F030EF13F054EF13F0E8
:10266000010E3026000E31223222332233A03BEFFE
:1026700013F03DEF13F054EF13F030C025F031C0EC
:1026800026F032C027F033C028F028342832273211
:102690002632253225C030F026C031F027C032F076
:1026A00028C033F0344A352A35BE5FEF13F0355079
:1026B00008E13428D8A05FEF13F061EF13F06BEF5F
:1026C00013F0000E306E000E316E800E326E7F0EF3
:1026D000336E99EF13F035BE78EF13F0355006E105
:1026E0003404D8B076EF13F078EF13F084EF13F0E2
:1026F000000E306E000E316E000E326E000E336E24
:10270000000E296E99EF13F034C02FF0FF0E301633
:10271000FF0E31167F0E3216000E33162FA093EFE8
:1027200013F095EF13F096EF13F0328ED8902F3010
:10273000336E2950331230C01DF031C01EF032C04C
:102740001FF033C020F012003950800B466E395014
:1027500039244D6E38AEAFEF13F0B1EF13F0B2EF96
:1027600013F04D804D50D8B4B8EF13F0BAEF13F01A
:10277000CFEF13F04D28D8A4C0EF13F0C2EF13F041
:10278000CAEF13F0000E366E000E376E000E386E74
:10279000000E396E388E000E396ED7EF13F0000E32
:1027A000366E000E376E000E386E000E396E3D50DC
:1027B000800B461A3D503D244E6E3CAEE2EF13F0C6
:1027C000E4EF13F0E5EF13F04E804E50D8B4EBEF8A
:1027D00013F0EDEF13F002EF14F04E28D8A4F3EF4E
:1027E00013F0F5EF13F0FDEF13F0000E3A6E000E4C
:1027F0003B6E000E3C6E000E3D6E3C8E000E3D6E3C
:102800000AEF14F0000E3A6E000E3B6E000E3C6EA6
:10281000000E3D6E3A503B103C103D10D8A413EF13
:1028200014F015EF14F02DEF14F0000E366E000EBC
:10283000376E000E386E000E396E800E38127F0E25
:1028400039124650391236C036F037C037F038C02A
:1028500038F039C039F070EF15F04D50D8A433EF8F
:1028600014F035EF14F03FEF14F0000E366E000E4A
:10287000376E000E386E000E396E70EF15F04E5048
:102880004DC03EF03F6A3E5E000E3F5A7F0E3E2432
:10289000476E000E3F20486E36C042F037C043F00E
:1028A00038C044F039C045F0000E366E000E376E69
:1028B000000E386E000E396E000E496E000E4A6E24
:1028C000000E4B6E000E4C6E000E4E6EA0EF14F01C
:1028D0004E50D8B46EEF14F070EF14F087EF14F090
:1028E000D8904236433644364536D8903636373659
:1028F000383639364CAE7FEF14F081EF14F082EFAA
:1029000014F03680D89049364A364B364C363A5019
:10291000425C3B5043583C5044583D504558D8A029
:1029200094EF14F096EF14F09FEF14F04C8C3A50A3
:10293000425E3B50435A3C50445A3D50455A4E2A01
:10294000190E4E64A6EF14F0A8EF14F068EF14F01F
:102950004250431044104510D8B4B1EF14F0B3EF17
:1029600014F0CBEF14F04980CBEF14F0D89036364A
:102970003736383639364CAEC0EF14F0C2EF14F0AB
:10298000C3EF14F03680D89049364A364B364C3671
:102990004706D8A0480638AED0EF14F0D2EF14F0B6
:1029A000B6EF14F0000E4E6E4CAED9EF14F0DBEF24
:1029B00014F0FFEF14F0FF0E49143E6EFF0E4A14A0
:1029C0003F6EFF0E4B14406E7F0E4C14416E3E5016
:1029D0003F1040104110D8B4F0EF14F0F2EF14F0B3
:1029E000F6EF14F0010E4E6EFFEF14F036A0FBEF81
:1029F00014F0FDEF14F0FFEF14F0F2EF14F04E506E
:102A0000D8B405EF15F007EF15F02BEF15F0010E18
:102A10003626000E37223822392239A012EF15F05F
:102A200014EF15F02BEF15F036C03EF037C03FF035
:102A300038C040F039C041F04134413240323F3279
:102A40003E323EC036F03FC037F040C038F041C0A3
:102A500039F0474A482A48BE36EF15F0485008E199
:102A60004728D8A036EF15F038EF15F043EF15F0F2
:102A7000000E486E4768000E366E000E376E000E70
:102A8000386E000E396E48BE50EF15F0485006E122
:102A90004704D8B04EEF15F050EF15F05EEF15F08B
:102AA000000E486E000E476E000E366E000E376E3A
:102AB000000E386E000E396E000E466E47C04DF0A7
:102AC0004DA065EF15F067EF15F06AEF15F0388E41
:102AD0006BEF15F0389ED8904D30396E21EF14F021
:102AE000120022C038F023C039F024C03AF025C0CB
:102AF0003BF026C03CF027C03DF028C03EF029C086
:102B00003FF03FBE86EF15F089EF15F0010E8AEF1A
:102B100015F0000E406E4050D8B491EF15F093EFD1
:102B200015F0A3EF15F03F1E3E1E3D1E3C1E3B1E42
:102B30003A1E391E386C000E39223A223B223C22C2
:102B40003D223E223F220001E7BFB1EF15F0E751E1
:102B500006E1E605D8B0AFEF15F0B1EF15F0B7EF2D
:102B600015F0000E356E010E346EBBEF15F0E6C0A9
:102B700034F0E7C035F0E4C036F0E5C037F040503F
:102B8000D8B4C5EF15F0C7EF15F0DEEF15F0360637
:102B9000D8A037064050D8A4D0EF15F0D2EF15F0EA
:102BA000D8EF15F0000E336E2B0E326EDCEF15F001
:102BB000000E336E2D0E326E32C040F0000E426EAB
:102BC0001F0E416E000E0101F56F63EF16F0410616
:102BD000D8A04206D60E4124D96E010E4220DA6EEC
:102BE00038C005F039C006F03AC007F03BC008F025
:102BF0003CC009F03DC00AF03EC00BF03FC00CF0F5
:102C00000A0E0D6E000E0E6E000E0F6E000E106E90
:102C1000000E116E000E126E000E136E000E146E7A
:102C20003BEC1AF005C02AF006C02BF007C02CF0D0
:102C300008C02DF009C02EF00AC02FF00BC030F0F4
:102C40000CC031F02AC017F02BC018F018EC25F09A
:102C50001750300FDF6E3406D8A035063606D8A0E0
:102C6000370638C005F039C006F03AC007F03BC05F
:102C700008F03CC009F03DC00AF03EC00BF03FC078
:102C80000CF00A0E0D6E000E0E6E000E0F6E000E92
:102C9000106E000E116E000E126E000E136E000EFE
:102CA000146EC1EC18F005C038F006C039F007C04A
:102CB0003AF008C03BF009C03CF00AC03DF00BC040
:102CC0003EF00CC03FF042BE6EEF16F0425008E1FD
:102CD0004104D8A06EEF16F070EF16F08CEF16F0EE
:102CE000385039103A103B103C103D103E103F1048
:102CF000D8A47DEF16F07FEF16F0E7EF15F035BEA4
:102D00008CEF16F0355006E13404D8B08AEF16F097
:102D10008CEF16F0E7EF15F04050D8B492EF16F0B4
:102D200094EF16F09FEF16F04106D8A04206D60E9B
:102D30004124D96E010E4220DA6E40C0DFFF20C070
:102D400015F021C016F0D60E4124176E010E422058
:102D5000186E36C019F037C01AF0F4EC22F01200E9
:102D600083C098F184C099F1010199BFBCEF16F0BE
:102D7000BAEF16F0BEEF16F0E6EF17F02A0E0001DC
:102D8000896F8D0EE82EFED7892FFCD700D0000E5C
:102D90000001666F010E676F010E686F0E0E696F9E
:102DA00098C16AF099C16BF083C06CF084C06DF07B
:102DB000D89001019835D96E9935DA6E00018151AC
:102DC000D9268251DA22DECF6EF0DDCF6FF0D890B7
:102DD00001019835D96E9935DA6E00017F51D926F7
:102DE0008051DA22DECF70F0DDCF71F0C4EC23F039
:102DF000000E066E010E076E52EC25F006EC26F072
:102E00002A0E0001896F8D0EE82EFED7892FFCD780
:102E100000D096EF17F085C01EF086C01FF087C067
:102E200020F088C021F0DAEC1CF0CFEF17F085C05D
:102E30001EF086C01FF087C020F088C021F03BEC58
:102E40001CF0CFEF17F085C01EF086C01FF087C0C2
:102E500020F088C021F09CEC1BF0CFEF17F085C06C
:102E60001EF086C01FF087C020F088C021F017EC4C
:102E70001EF0CFEF17F085C01EF086C01FF087C090
:102E800020F088C021F079EC1DF0CFEF17F085C05D
:102E900018F086C019F087C01AF088C01BF01BEC30
:102EA00020F0D89001019835D96E9935DA6E00017D
:102EB0008151D9268251DA22DECF89F0DDCF8AF026
:102EC000FE0E89250101966FFF0E00018A21010186
:102ED000976F7AEF17F09607D8A09707050E0001B5
:102EE0008A6F0F0E896FF10EE82EFED7892FFCD75F
:102EF0008A2FFAD7010197BF88EF17F0975106E1A3
:102F00009605D8B086EF17F088EF17F06BEF17F043
:102F1000CFEF17F085C018F086C019F087C01AF0FF
:102F200088C01BF0BFEC21F0CFEF17F0D890010163
:102F30009835D96E9935DA6E00017F51D9268051C6
:102F4000DA22DECF89F0DDCF8AF08A51000AD8B4C8
:102F5000ACEF17F08AEF17F08951000AD8B447EFA9
:102F600017F0010AD8B40BEF17F0030AD8B417EF23
:102F700017F0010AD8B423EF17F0070AD8B40BEF03
:102F800017F0010AD8B417EF17F0030AD8B42FEFDF
:102F900017F0010AD8B43BEF17F08AEF17F0050ECF
:102FA00000018A6F0F0E896FF10EE82EFED7892F70
:102FB000FCD78A2FFAD701019807D8A0990799BFA3
:102FC000E6EF17F0E4EF17F0BEEF16F012000D6E0B
:102FD0000D50D8B4EEEF17F0F0EF17F012EF18F035
:102FE00008BEF7EF17F0F5EF17F012EF18F005C075
:102FF00009F006C00AF007C00BF008C00CF0091E6B
:103000000A1E0B1E0C1E092A000E0A220B220C227D
:1030100009C00FF00AC010F00BC011F00CC012F084
:103020001AEF18F005C00FF006C010F007C011F03D
:1030300008C012F00550061007100810D8A423EF9E
:1030400018F025EF18F02FEF18F0000E056E000EA7
:10305000066E000E076E000E086EC0EF18F0960E9A
:103060000E6E39EF18F00E2AD8901232113210324B
:103070000F32000E0F14096E000E10140A6E000EAF
:1030800011140B6EFE0E12140C6E09500A100B1068
:103090000C10D8A44EEF18F050EF18F033EF18F0E2
:1030A0005EEF18F00E2A010E0F26000E10221122DC
:1030B0001222D8901232113210320F32000E0F1439
:1030C000096E000E10140A6E000E11140B6EFF0E26
:1030D00012140C6E09500A100B100C10D8A473EFC8
:1030E00018F075EF18F052EF18F07DEF18F00E069B
:1030F000D8900F3610361136123611BE82EF18F006
:1031000084EF18F08CEF18F0020E0E608AEF18F0C2
:103110008CEF18F077EF18F00EB091EF18F093EFF6
:1031200018F094EF18F0119ED8900E320EC009F0EE
:103130000A6A0B6A0C6A09C00CF00B6A0A6A096A0F
:1031400009500F120A5010120B5011120C5012128B
:103150000D50D8B4AEEF18F0B0EF18F0B8EF18F08B
:1031600008BEB7EF18F0B5EF18F0B8EF18F0128EF0
:103170000FC005F010C006F011C007F012C008F033
:103180001200000E166E14BECAEF18F0C8EF18F049
:10319000DCEF18F0141E131E121E111E101E0F1E3F
:1031A0000E1E0D6C000E0E220F2210221122122272
:1031B00013221422010E166E0CBEE3EF18F0E1EF9D
:1031C00018F0F5EF18F00C1E0B1E0A1E091E081E43
:1031D000071E061E056C000E062207220822092281
:1031E0000A220B220C22010E161A20EE17F0070EEF
:1031F000DE6AE806FDE20D500E100F1010101110DF
:10320000121013101410D8B408EF19F00AEF19F0C7
:103210005CEF19F0010E156E18EF19F0D8900D360D
:103220000E360F3610361136123613361436152A6E
:1032300014AE1DEF19F01FEF19F00EEF19F0D89032
:103240001736183619361A361B361C361D361E36FA
:103250000D50055C0E5006580F5007581050085876
:103260001150095812500A5813500B5814500C584A
:10327000D8A03DEF19F03FEF19F050EF19F00D50C5
:10328000055E0E50065A0F50075A1050085A11503A
:10329000095A12500A5A13500B5A14500C5A1780DC
:1032A000D890143213321232113210320F320E32E1
:1032B0000D32152E1FEF19F01650D8B462EF19F029
:1032C00064EF19F074EF19F01E1E1D1E1C1E1B1E4C
:1032D0001A1E191E181E176C000E182219221A2207
:1032E0001B221C221D221E2217C005F018C006F04A
:1032F00019C007F01AC008F01BC009F01CC00AF082
:103300001DC00BF01EC00CF0120020EE02F0125097
:10331000D9261350DA22DF50D8B491EF19F093EF89
:1033200019F0C7EF19F012C0D9FF13C0DAFFDF5050
:10333000146E1450056E066A20EE03F01250D92662
:103340001350DA22DECF07F0DDCF08F0D3EC25F002
:1033500005C00BF006C00CF0000E0E6E640E0D6E74
:1033600031EC23F020EE03F01250D9261350DA226C
:10337000DF50156E0B50155C166E20EE03F01250E8
:10338000D9261350DA22DF50176EEAEF19F0000E3B
:10339000166E12C0D9FF13C0DAFFDF50146E14503E
:1033A000056E066A20EE03F01250D9261350DA2279
:1033B000DECF07F0DDCF08F0D3EC25F005C00BF031
:1033C00006C00CF0000E0E6E640E0D6E31EC23F094
:1033D0000B50176E20EE01F01250D9261350DA224E
:1033E000DF50D8B4F6EF19F0F8EF19F01AEF1AF031
:1033F00020EE05F01250D9261350DA22DECF14F059
:10340000DDCF15F014C0D9FF15C0DAFF16C0DFFFFD
:1034100020EE07F01250D9261350DA22DECF14F036
:10342000DDCF15F014C0D9FF15C0DAFF17C0DFFFDC
:103430003AEF1AF020EE05F01250D9261350DA2296
:10344000DECF14F0DDCF15F014C0D9FF15C0DAFFC0
:1034500017C0DFFF20EE07F01250D9261350DA22F2
:10346000DECF14F0DDCF15F014C0D9FF15C0DAFFA0
:1034700016C0DFFF1200000E166E0CBE44EF1AF0ED
:1034800042EF1AF056EF1AF00C1E0B1E0A1E091E10
:10349000081E071E061E056C000E062207220822C3
:1034A00009220A220B220C22010E166E14BE5DEFB9
:1034B0001AF05BEF1AF06DEF1AF0141E131E121EB5
:1034C000111E101E0F1E0E1E0D6C000E0E220F225E
:1034D000102211221222132214220D500E100F104E
:1034E00010101110121013101410D8B47AEF1AF033
:1034F0007CEF1AF0C4EF1AF0010E156E8AEF1AF085
:10350000D8900D360E360F36103611361236133669
:103510001436152A14AE8FEF1AF091EF1AF080EFDF
:103520001AF00D50055C0E5006580F5007581050F9
:1035300008581150095812500A5813500B5814507B
:103540000C58D8A0A6EF1AF0A8EF1AF0B8EF1AF0AE
:103550000D50055E0E50065A0F50075A1050085A6B
:103560001150095A12500A5A13500B5A14500C5A3F
:10357000D890143213321232113210320F320E320E
:103580000D32152E91EF1AF01650D8B4CAEF1AF07A
:10359000CCEF1AF0DCEF1AF00C1E0B1E0A1E091EEF
:1035A000081E071E061E056C000E062207220822B2
:1035B00009220A220B220C2205C005F006C006F0E3
:1035C00007C007F008C008F009C009F00AC00AF0F7
:1035D0000BC00BF00CC00CF0120045C0D9FF46C068
:1035E000DAFFDECFF6FFDDCFF7FF000EF86E080042
:1035F000F550250AD8A4FFEF1AF001EF1BF085EF74
:103600001BF045C0D9FF46C0DAFFDE2A000EDD22DE
:10361000000E0001E56F000EE46FE4C0ECF0E66917
:10362000E76945C0D9FF46C0DAFFDECF53F0DDCFF2
:1036300054F053C0F6FF54C0F7FF000EF86E0800B8
:10364000F550640AD8B427EF1BF029EF1BF039EFCF
:103650001BF053C0F6FF54C0F7FF000EF86E0800D1
:10366000F550690AD8A437EF1BF039EF1BF07CEF57
:103670001BF047C0D9FF48C0DAFFDFCF49F0020E88
:10368000DE26DFCF4AF0000EDD2249C0D9FF4AC056
:10369000DAFFDECF4BF0DDCF4CF0000E4CBEFF0E5C
:1036A0004D6E4E6E4F6E506E516E526E010E532423
:1036B000496E000E54204A6E45C0D9FF46C0DAFF5D
:1036C00049C0DEFF4AC0DDFF43C020F044C021F006
:1036D0004BC022F04CC023F04DC024F04EC025F06A
:1036E0004FC026F050C027F051C028F052C029F03A
:1036F00071EC15F09BEF1BF045C0D9FF46C0DAFF17
:10370000DE2A000EDD229BEF1BF045C0D9FF46C02C
:10371000DAFFDECFF6FFDDCFF7FF000EF86E080010
:10372000F550056E066A43C007F044C008F05AEC35
:1037300021F07CEF1BF012001EC018F01FC019F022
:1037400020C01AF021C01BF0BFEC21F0090E236E3F
:103750001E0E226EE40EE82EFED7222EFCD7232E5C
:10376000FAD700D01EC018F01FC019F020C01AF000
:1037700021C01BF086EC20F0350E236EC30E226EA6
:10378000590EE82EFED7222EFCD7232EFAD700F0B2
:103790001EC018F01FC019F020C01AF021C01BF085
:1037A000BFEC21F020EE01F01E50D9261F50DA2286
:1037B000010EDF6E20EE01F02050D9262150DA22D2
:1037C000000EDF6E20EE02F01E50D9261F50DA22C6
:1037D000010EDF6E20EE02F01E50D9261F50DA22B5
:1037E000010EDF6E0CEF1CF01EC0D9FF1FC0DAFF08
:1037F0000A0EDF2620C0D9FF21C0DAFF0A0EDF261D
:103800001EC012F01FC013F085EC19F020C012F09A
:1038100021C013F085EC19F01EC0D9FF1FC0DAFFDC
:103820004F0EDF6416EF1CF018EF1CF0F4EF1BF0E6
:1038300020C0D9FF21C0DAFF4F0EDF6422EF1CF059
:1038400024EF1CF0F4EF1BF0180E236E700E226EA6
:10385000EE0EE82EFED7222EFCD7232EFAD700D06C
:103860001EC018F01FC019F020C01AF021C01BF0B4
:10387000BFEC21F012001EC018F01FC019F020C0CC
:103880001AF021C01BF0BFEC21F0090E236E1E0EB2
:10389000226EE40EE82EFED7222EFCD7232EFAD776
:1038A00000D01EC018F01FC019F020C01AF021C0AF
:1038B0001BF086EC20F0350E236EC30E226E590EDF
:1038C000E82EFED7222EFCD7232EFAD700F01EC0FA
:1038D00018F01FC019F020C01AF021C01BF0BFEC77
:1038E00021F020EE01F01E50D9261F50DA22010EE1
:1038F000DF6E20EE01F02050D9262150DA22000E92
:10390000DF6E20EE02F01E50D9261F50DA22010E83
:10391000DF6E20EE02F01E50D9261F50DA22010E73
:10392000DF6EABEF1CF01EC0D9FF1FC0DAFF0A0E1E
:10393000DF2620C0D9FF21C0DAFF0A0EDF261EC015
:1039400012F01FC013F085EC19F020C012F021C056
:1039500013F085EC19F01EC0D9FF1FC0DAFF4F0E1F
:10396000DF64B5EF1CF0B7EF1CF093EF1CF020C044
:10397000D9FF21C0DAFF4F0EDF64C1EF1CF0C3EFA7
:103980001CF093EF1CF00E0E236E650E226E870E58
:10399000E82EFED7222EFCD7232EFAD700F01EC029
:1039A00018F01FC019F020C01AF021C01BF0BFECA6
:1039B00021F012001EC018F01FC019F020C01AF02C
:1039C00021C01BF0BFEC21F0090E236E1E0E226EEB
:1039D000E40EE82EFED7222EFCD7232EFAD700D0F5
:1039E0001EC018F01FC019F020C01AF021C01BF033
:1039F00086EC20F0350E236EC30E226E590EE82E93
:103A0000FED7222EFCD7232EFAD700F01EC018F0C6
:103A10001FC019F020C01AF021C01BF0BFEC21F02C
:103A200020EE01F01E50D9261F50DA22000EDF6E64
:103A300020EE01F02050D9262150DA22010EDF6E4F
:103A400020EE02F01E50D9261F50DA22010EDF6E42
:103A500020EE02F01E50D9261F50DA22010EDF6E32
:103A60004AEF1DF01EC0D9FF1FC0DAFF0A0EDF2685
:103A700020C0D9FF21C0DAFF0A0EDF261EC012F0D7
:103A80001FC013F085EC19F020C012F021C013F014
:103A900085EC19F01EC0D9FF1FC0DAFF4F0EDF649E
:103AA00054EF1DF056EF1DF032EF1DF020C0D9FF8E
:103AB00021C0DAFF4F0EDF6460EF1DF062EF1DF0F2
:103AC00032EF1DF00E0E236E650E226E870EE82E6D
:103AD000FED7222EFCD7232EFAD700F01EC018F0F6
:103AE0001FC019F020C01AF021C01BF0BFEC21F05C
:103AF00012001EC018F01FC019F020C01AF021C01B
:103B00001BF0BFEC21F0090E236E1E0E226EE40E98
:103B1000E82EFED7222EFCD7232EFAD700D01EC0C7
:103B200018F01FC019F020C01AF021C01BF086EC5D
:103B300020F0350E236EC30E226E590EE82EFED7EE
:103B4000222EFCD7232EFAD700F01EC018F01FC07B
:103B500019F020C01AF021C01BF0BFEC21F020EEBC
:103B600001F01E50D9261F50DA22010EDF6E20EE22
:103B700001F02050D9262150DA22000EDF6E20EE0F
:103B800002F01E50D9261F50DA22010EDF6E20EE01
:103B900002F01E50D9261F50DA22010EDF6EE9EF27
:103BA0001DF01EC0D9FF1FC0DAFF0A0EDF2620C09D
:103BB000D9FF21C0DAFF0A0EDF261EC012F01FC097
:103BC00013F085EC19F020C012F021C013F085EC41
:103BD00019F01EC0D9FF1FC0DAFF4F0EDF64F3EFEC
:103BE0001DF0F5EF1DF0D1EF1DF020C0D9FF21C071
:103BF000DAFF4F0EDF64FFEF1DF001EF1EF0D1EF93
:103C00001DF0150E236E170E226ECC0EE82EFED779
:103C1000222EFCD7232EFAD71EC018F01FC019F091
:103C200020C01AF021C01BF0BFEC21F012001EC012
:103C300018F01FC019F020C01AF021C01BF0BFEC13
:103C400021F0090E236E1E0E226EE40EE82EFED722
:103C5000222EFCD7232EFAD700D01EC018F01FC08A
:103C600019F020C01AF021C01BF086EC20F0350EB0
:103C7000236EC30E226E590EE82EFED7222EFCD7DD
:103C8000232EFAD700F01EC018F01FC019F020C074
:103C90001AF021C01BF0BFEC21F020EE01F01E5005
:103CA000D9261F50DA22000EDF6E20EE01F02050E0
:103CB000D9262150DA22010EDF6E20EE02F01E50CE
:103CC000D9261F50DA22010EDF6E20EE02F01E50C0
:103CD000D9261F50DA22010EDF6E87EF1EF01EC0BC
:103CE000D9FF1FC0DAFF0A0EDF2620C0D9FF21C08E
:103CF000DAFF0A0EDF261EC012F01FC013F085EC9B
:103D000019F020C012F021C013F085EC19F01EC08C
:103D1000D9FF1FC0DAFF4F0EDF6491EF1EF093EF63
:103D20001EF06FEF1EF020C0D9FF21C0DAFF4F0E4A
:103D3000DF649DEF1EF09FEF1EF06FEF1EF0150E7B
:103D4000236E170E226ECC0EE82EFED7222EFCD745
:103D5000232EFAD71EC018F01FC019F020C01AF089
:103D600021C01BF0BFEC21F01200000E1D14256EC7
:103D7000000E1E14266E800E1F14276E7F0E201458
:103D8000286E2550261027102810D8A4CAEF1EF040
:103D9000CCEF1EF0D4EF1EF0000E1D6E000E1E6E56
:103DA000000E1F6E000E206E000E2114256E000EF8
:103DB0002214266E800E2314276E7F0E2414286E84
:103DC0002550261027102810D8A4E9EF1EF0EBEF9D
:103DD0001EF0F3EF1EF0000E216E000E226E000E9C
:103DE000236E000E246E20AEF8EF1EF0FAEF1EF0E8
:103DF00003EF1FF01D6C1E1ED8B01E2A1F1ED8B068
:103E00001F2A800E205624AE08EF1FF00AEF1FF085
:103E100013EF1FF0216C221ED8B0222A231ED8B027
:103E2000232A800E2456000E1D1A000E1E1A000EA4
:103E30001F1A800E201A000E211A000E221A000EE0
:103E4000231A800E241A21501D5C22501E58235024
:103E50001F5824502058D8B030EF1FF032EF1FF019
:103E600035EF1FF0D89036EF1FF0D8801200000E0B
:103E7000176E000E166E7CAE40EF1FF044EF1FF081
:103E8000146A142A45EF1FF0146A143214327C505D
:103E900014187F0B14187C6E090E156E1E0E146E0E
:103EA000E40EE82EFED7142EFCD7152EFAD700D03C
:103EB000164A172A17BE66EF1FF0175009E1140EB5
:103EC000165CD8A066EF1FF068EF1FF03BEF1FF005
:103ED0007CAE6DEF1FF071EF1FF0146A142A72EFC1
:103EE0001FF0146A143214327C5014187F0B14180B
:103EF0007C6E290E156E960E146E7F0EE82EFED780
:103F0000142EFCD7152EFAD700F012C010F013C0F3
:103F100011F06BEC23F0290E156E960E146E7F0EC9
:103F2000E82EFED7142EFCD7152EFAD700F07CAE63
:103F30009CEF1FF0A0EF1FF0146A142AA1EF1FF0EE
:103F4000146A143214327C5014187F0B14187C6ECF
:103F50001200000E176E000E166E7CAEB2EF1FF050
:103F6000B6EF1FF0146A142AB7EF1FF0146A143268
:103F700014327C5014187F0B14187C6E090E156EC9
:103F80001E0E146EE40EE82EFED7142EFCD7152E4E
:103F9000FAD700D0164A172A17BED8EF1FF01750CD
:103FA00009E1140E165CD8A0D8EF1FF0DAEF1FF06D
:103FB000ADEF1FF07CAEDFEF1FF0E3EF1FF0146AF0
:103FC000142AE4EF1FF0146A143214327C501418CF
:103FD0007F0B14187C6E290E156E960E146E7F0ED4
:103FE000E82EFED7142EFCD7152EFAD700F012C0FB
:103FF00010F013C011F06BEC23F0290E156E960E25
:10400000146E7F0EE82EFED7142EFCD7152EFAD78D
:1040100000F07CAE0EEF20F012EF20F0146A142AAC
:1040200013EF20F0146A143214327C5014187F0BF2
:1040300014187C6E120020EE01F01850D926195089
:10404000DA22010EDF6E20EE01F01A50D9261B5045
:10405000DA22010EDF6E20EE02F01850D926195038
:10406000DA22010EDF6E20EE02F01850D926195028
:10407000DA22010EDF6E61EF20F018C0D9FF19C0FF
:10408000DAFF280EDF6047EF20F049EF20F04FEF16
:1040900020F018C0D9FF19C0DAFF050EDF261AC0BC
:1040A000D9FF1BC0DAFF280EDF6059EF20F05BEF6D
:1040B00020F061EF20F01AC0D9FF1BC0DAFF050E17
:1040C000DF2618C0D9FF19C0DAFF280EDF606BEFBA
:1040D00020F06DEF20F079EF20F01AC0D9FF1BC05F
:1040E000DAFF270EDF6477EF20F079EF20F03DEF65
:1040F00020F018C012F019C013F085EC19F01AC0A6
:1041000012F01BC013F085EC19F0120020EE01F044
:104110001850D9261950DA22000EDF6E20EE01F079
:104120001A50D9261B50DA22000EDF6E20EE02F064
:104130001850D9261950DA22010EDF6E20EE02F057
:104140001850D9261950DA22010EDF6ECCEF20F07C
:1041500018C0D9FF19C0DAFF190EDF60B2EF20F0E6
:10416000B4EF20F0BAEF20F018C0D9FF19C0DAFF81
:10417000050EDF261AC0D9FF1BC0DAFF190EDF605B
:10418000C4EF20F0C6EF20F0CCEF20F01AC0D9FF2A
:104190001BC0DAFF050EDF2618C0D9FF19C0DAFFF1
:1041A000190EDF60D6EF20F0D8EF20F0E4EF20F01A
:1041B0001AC0D9FF1BC0DAFF180EDF64E2EF20F04F
:1041C000E4EF20F0A8EF20F018C012F019C013F0AF
:1041D00085EC19F01AC012F01BC013F085EC19F031
:1041E000120005C0D9FF06C0DAFF000EDF6E20EE18
:1041F00001F00550D9260650DA22010EDF6E20EEBE
:1042000002F00550D9260650DA22010EDF6E20EEAC
:1042100005F00550D9260650DA22AA0EDE6E0F0EE2
:10422000DD6E20EE07F00550D9260650DA22A60EE4
:10423000DE6E0F0EDD6E20EE03F00550D92606501F
:10424000DA22C70EDE6E000EDD6E07C0D9FF08C091
:10425000DAFF000EDF6E20EE01F00750D92608507D
:10426000DA22010EDF6E20EE02F00750D926085048
:10427000DA22010EDF6E20EE05F00750D926085035
:10428000DA22250EDE6E0F0EDD6E20EE07F00750EF
:10429000D9260850DA22210EDE6E0F0EDD6E20EEDA
:1042A00003F00750D9260850DA22C70EDE6E000E42
:1042B000DD6E120007500810D8B461EF21F063EFF3
:1042C00021F06CEF21F007500810D8A46AEF21F01C
:1042D0006CEF21F071EF21F0055042EC26F0BEEFBB
:1042E00021F020EE09F00750D9260850DA22DE50DE
:1042F000DE10D8B47EEF21F080EF21F09BEF21F0AB
:1043000020EE09F00750D9260850DA2210EE03F00B
:104310000750E1260850E222DE50E65CE650800AB3
:104320000D6EDE50800A0D58D8B099EF21F09BEF4A
:1043300021F0BEEF21F020EE03F00750D9260850FF
:10434000DA22DECF09F0DDCF0AF007C0D9FF08C0BE
:10435000DAFFDECF0BF0DDCF0CF009500B24D96E65
:104360000A500C20DA6E05C0DFFF20EE03F0075084
:10437000D9260850DA22DE2A000EDD221200F1EFE3
:1043800021F018C0D9FF19C0DAFFDF50D8B4CBEF45
:1043900021F0CDEF21F0D3EF21F018C0D9FF19C0E3
:1043A000DAFF050EDF5E1AC0D9FF1BC0DAFFDF504F
:1043B000D8B4DDEF21F0DFEF21F0E5EF21F01AC0F6
:1043C000D9FF1BC0DAFF050EDF5E18C012F019C05E
:1043D00013F085EC19F01AC012F01BC013F085EC35
:1043E00019F018C0D9FF19C0DAFFDF50D8B4FBEFBD
:1043F00021F0FDEF21F009EF22F01AC0D9FF1BC018
:10440000DAFFDF50D8A407EF22F009EF22F0C1EF66
:1044100021F0090E1D6E1E0E1C6EE40EE82EFED756
:104420001C2EFCD71D2EFAD700D0120024C018F085
:1044300025C019F026C01AF027C01BF086EC20F02A
:10444000350E296EC30E286E590EE82EFED7282E83
:10445000FCD7292EFAD700F024C018F025C019F097
:1044600026C01AF027C01BF0BFEC21F024C018F0C2
:1044700025C019F026C01AF027C01BF086EC20F0EA
:10448000350E296EC30E286E590EE82EFED7282E43
:10449000FCD7292EFAD700F024C01EF025C01FF04B
:1044A00026C020F027C021F03BEC1CF024C018F0FF
:1044B00025C019F026C01AF027C01BF0BFEC21F070
:1044C000120024C018F025C019F026C01AF027C029
:1044D0001BF086EC20F0350E296EC30E286E590EA7
:1044E000E82EFED7282EFCD7292EFAD700F024C0BC
:1044F00018F025C019F026C01AF027C01BF0BFEC39
:1045000021F024C018F025C019F026C01AF027C0E9
:104510001BF086EC20F0350E296EC30E286E590E66
:10452000E82EFED7282EFCD7292EFAD700F024C07B
:104530001EF025C01FF026C020F027C021F0DAECC5
:104540001CF024C018F025C019F026C01AF027C0AE
:104550001BF0BFEC21F012007D947D987B9E7F9C28
:1045600085948598839E879C050E0E01746F060EB8
:10457000766F070E696F080E886FBD508F0B30097C
:10458000BD6EE00EBE16BF50F00B0109BF6EC70E28
:10459000BC6EBD8E000EAA6E000EA66E000E0F0140
:1045A000256F000E216FFC0EAD16F30EAD16CF0E6B
:1045B000AD163F0EAD16AB88AB50F00B0C09AB6ED1
:1045C000AB8EA788A750F00B0C09A76EA78E268983
:1045D0002651F00B0C09266F268F22892251F00BF1
:1045E0000C09226F228F12001ABEF9EF22F0FBEFA6
:1045F00022F001EF23F019C01EF01AC01FF005EFE2
:1046000023F0000E1F6E000E1E6E000E1D6E000EBB
:104610001C6E17EF23F0000E066E200E056E15C0FF
:1046200007F016C008F05AEC21F01C4A1D2A1E5053
:104630001C5C1D50800A1B6E1F50800A1B58D8A09E
:1046400024EF23F026EF23F00BEF23F017C00EF03A
:1046500018C00FF015C010F016C011F0D5EC24F002
:104660001200000E106E000E0F6E0D500E10D8B41A
:104670003CEF23F03EEF23F066EF23F0010E116EC6
:1046800046EF23F0D8900D360E36112A0EAE4BEFC2
:1046900023F04DEF23F042EF23F0D8900F36103681
:1046A0000D500B5C0E500C58D8A059EF23F05BEF67
:1046B00023F060EF23F00D500B5E0E500C5A0F806C
:1046C000D8900E320D32112E4DEF23F00FC00BF0AB
:1046D00010C00CF01200EDEC23F010C0D9FF11C097
:1046E000DAFF09C0DEFF0AC0DDFF15EC24F020EE82
:1046F00002F01050D9261150DA2209C0DEFF0AC09C
:10470000DDFF65EC24F020EE04F01050D9261150A6
:10471000DA2209C0DEFF0AC0DDFF3DEC24F020EE06
:1047200006F01050D9261150DA2209C0DEFF0AC067
:10473000DDFF120062C055F063C056F0AEEF23F00B
:1047400060C043F061C044F0550E456E000E466EE9
:1047500064C047F065C048F0EDEC1AF055C0F6FFB4
:1047600056C0F7FF000EF86E0800F5500009D8A4F7
:10477000BCEF23F0BEEF23F0A0EF23F0000E00010A
:10478000616F000E606F12006A0E0001726F000E02
:10479000736F66C074F067C075F0000E786F000E1E
:1047A000776F000E7E6F000E7D6F740E606F000ECF
:1047B000616F68C062F069C063F0720E646F000ED2
:1047C000656F9AEC23F0000177516625D96E785118
:1047D0006721DA6E000EDF6E120036EC26F0520E04
:1047E0002BEC26F0B60E2BEC26F03BEC26F0530E0D
:1047F0002BEC26F0010EF7EC24F00B6E0B500E6E36
:104800000F6A000EF7EC24F00B6E0B500D6E0C6A65
:104810000E500C100E6E0F500D100F6E31EC26F076
:104820000EC009F00FC00AF0120036EC26F0520E4E
:104830002BEC26F0B80E2BEC26F03BEC26F0530EBA
:104840002BEC26F0010EF7EC24F00B6E0B500E6EE5
:104850000F6A000EF7EC24F00B6E0B500D6E0C6A15
:104860000E500C100E6E0F500D100F6E31EC26F026
:104870000EC009F00FC00AF0120036EC26F0520EFE
:104880002BEC26F0B40E2BEC26F03BEC26F0530E6E
:104890002BEC26F0010EF7EC24F00B6E0B500E6E95
:1048A0000F6A000EF7EC24F00B6E0B500D6E0C6AC5
:1048B0000E500C100E6E0F500D100F6E31EC26F0D6
:1048C0000EC009F00FC00AF0120036EC26F0520EAE
:1048D0002BEC26F0BA0E2BEC26F03BEC26F0530E18
:1048E0002BEC26F0010EF7EC24F00B6E0B500E6E45
:1048F0000F6A000EF7EC24F00B6E0B500D6E0C6A75
:104900000E500C100E6E0F500D100F6E31EC26F085
:104910000EC009F00FC00AF01200800EF66E4C0EA9
:10492000F76E000EF86E00EEEDF010EE04F00900E8
:10493000F5CFEEFFE550E150FAE101EE9AF05C0EA2
:10494000EE6AE806FDE100EED0F01D0EEE6AE80624
:10495000FDE15A6A596A586A576A5B905B92000196
:1049600056EF0FF0000E191A000E1A1A000E1B1A3D
:10497000800E1C1A15C005F016C006F017C007F00F
:1049800018C008F019C009F01AC00AF01BC00BF0DB
:104990001CC00CF0F6EC0CF005C015F006C016F0CB
:1049A00007C017F008C018F01200000E146E000EB9
:1049B000136EE6EF24F012C005F0066A10C007F08F
:1049C00011C008F05AEC21F0134A142A13500E2497
:1049D000D96E14500F20DA6EDF50126E1250D8A428
:1049E000F4EF24F0F6EF24F0DBEF24F01200076E72
:1049F000BFEC25F00E01DA87BFEC25F0D5CE08F02C
:104A0000BFEC25F00750D8B408EF25F00CEF25F0E7
:104A1000066A062A0DEF25F0066A063A06460E01DA
:104A2000DA510618DF0B0618DA6FDA89085012001F
:104A300018BE25EF25F0185006E11704D8B023EF73
:104A400025F025EF25F033EF25F017C019F018C039
:104A50001AF0191E1A1E194A1A2A19C017F01AC07C
:104A600018F037EF25F017C017F018C018F0120033
:104A700095EC25F0010E076E000EF6EC25F03F0ECA
:104A8000096E550EE82EFED7092EFCD700F0030E56
:104A9000076E000EF6EC25F0D50E076E010EF6EC53
:104AA00025F012005DEF25F006C0D9FF07C0DAFF40
:104AB000DF5080EC25F0064A072A06C0D9FF07C060
:104AC000DAFFDF50D8A467EF25F069EF25F054EF47
:104AD00025F012003B0E576470EF25F072EF25F0C1
:104AE00074EF25F0000E576E572A5704016E026AC4
:104AF0009A0E0124D96E010E0220DA6EDF501200E8
:104B0000056E3B0E586487EF25F089EF25F08BEF9B
:104B100025F0000E586E9A0E5824D96EDA6A010EEE
:104B2000DA2205C0DFFF582A12000E01D951F00B1E
:104B30000809D96FD98B9F0ED66F848A848CA79B66
:104B4000A79D1D0E1D6F1E0E1C6F1C0E6F6F1B0E82
:104B5000706F1200016E130E5A64B1EF25F0B3EFBF
:104B600025F0B5EF25F0000E5A6ED00E5A24D96EFE
:104B7000DA6A000EDA2201C0DFFF5A2A12000E01A3
:104B8000D8B5C5EF25F0C7EF25F0BFEF25F0DACE99
:104B900005F01F0E0516D8A4D0EF25F0D2EF25F0B2
:104BA000BFEF25F0120005500702F3CF09F0F4CF54
:104BB0000AF005500802F3500A2606500702F35087
:104BC0000A2609C005F00AC006F01200120E0E01F6
:104BD000626F110E156F8382E997E895330EE56FCA
:104BE000000EE66FE789E88BE78F1200086E36EC5F
:104BF00026F0520E2BEC26F0085080092BEC26F004
:104C000007502BEC26F031EC26F0120013EC26F0C6
:104C10000009D8B40EEF26F010EF26F012EF26F0C0
:104C20000E012D85120057505818D8A41AEF26F0FF
:104C30001DEF26F0010E1EEF26F0000E1200575059
:104C40005818D8A426EF26F029EF26F0010E2AEFF7
:104C500026F0000E1200066EBFEC25F006C0D5FE51
:104C60001200BFEC25F00E01DA851200BFEC25F032
:104C70000E01DA811200BFEC25F00E01DA8312007A
:064C80008A02A5001200EB
:020000040020DA
:10000000FF0FFF0FFF0FFF0FFF0FFF0FFF0FFF0F80
:020000040030CA
:0C000000AAFFFFFF9FFFFFFFFFFFFFFFB5
:00000001FF
