:0400000028EF00F0F5
:1000080043820E0133AB0BEF00F00DEF00F024EF4D
:1000180000F07BAA12EF00F014EF00F01DEF00F0E3
:100028003B1C016E3C1C026EABEC03F07B9A24EF88
:1000380000F03D1C016E3E1C026EABEC03F07B8AA7
:100048000E01339B4392110069EF03F020EE02F09A
:100058001050D9261150DA22DF50D8B436EF00F00C
:1000680038EF00F06CEF00F010C0D9FF11C0DAFFD4
:10007800DF50126E1250036E046A20EE03F0105027
:10008800D9261150DA22DECF05F0DDCF06F082EC5A
:1000980003F003C009F004C00AF0000E0C6E640EF1
:1000A8000B6E2FEC03F020EE03F01050D926115000
:1000B800DA22DF50136E0950135C146E20EE03F041
:1000C8001050D9261150DA22DF50156E8FEF00F04C
:1000D800000E146E10C0D9FF11C0DAFFDF50126E87
:1000E8001250036E046A20EE03F01050D926115006
:1000F800DA22DECF05F0DDCF06F082EC03F003C094
:1001080009F004C00AF0000E0C6E640E0B6E2FECA2
:1001180003F00950156E20EE01F01050D926115049
:10012800DA22DF50D8B49BEF00F09DEF00F0BFEF6C
:1001380000F020EE05F01050D9261150DA22DECF5B
:1001480012F0DDCF13F012C0D9FF13C0DAFF14C0CC
:10015800DFFF20EE07F01050D9261150DA22DECF4B
:1001680012F0DDCF13F012C0D9FF13C0DAFF15C0AB
:10017800DFFFDFEF00F020EE05F01050D926115018
:10018800DA22DECF12F0DDCF13F012C0D9FF13C090
:10019800DAFF15C0DFFF20EE07F01050D926115006
:1001A800DA22DECF12F0DDCF13F012C0D9FF13C070
:1001B800DAFF14C0DFFF12001CC016F01DC017F0D4
:1001C8001EC018F01FC019F04FEC02F0090E216E86
:1001D8001E0E206EE40EE82EFED7202EFCD7212E10
:1001E800FAD700D01CC016F01DC017F01EC018F0BA
:1001F8001FC019F07FEC01F0110E216E3C0E206E2D
:10020800CB0EE82EFED7202EFCD7212EFAD700F0F1
:100218001CC016F01DC017F01EC018F01FC019F042
:100228004FEC02F020EE01F01C50D9261D50DA22C6
:10023800010EDF6E20EE01F01E50D9261F50DA2283
:10024800000EDF6E20EE02F01C50D9261D50DA2277
:10025800010EDF6E20EE02F01C50D9261D50DA2266
:10026800010EDF6E50EF01F01CC0D9FF1DC0DAFF90
:100278000A0EDF261EC0D9FF1FC0DAFF0A0EDF26CE
:100288001CC010F01DC011F02AEC00F01EC010F0C8
:100298001FC011F02AEC00F01CC0D9FF1DC0DAFF06
:1002A8004F0EDF645AEF01F05CEF01F038EF01F018
:1002B8001EC0D9FF1FC0DAFF4F0EDF6466EF01F0E2
:1002C80068EF01F038EF01F0060E216ED90E206EAE
:1002D800140EE82EFED7202EFCD7212EFAD700D0F8
:1002E8001CC016F01DC017F01EC018F01FC019F072
:1002F8004FEC02F0120020EE01F01650D9261750EC
:10030800DA22000EDF6E20EE01F01850D9261950BF
:10031800DA22000EDF6E20EE02F01650D9261750B2
:10032800DA22010EDF6E20EE02F01650D9261750A1
:10033800DA22010EDF6EC5EF01F016C0D9FF17C033
:10034800DAFF190EDF60ABEF01F0ADEF01F0B3EFAC
:1003580001F016C0D9FF17C0DAFF050EDF2618C056
:10036800D9FF19C0DAFF190EDF60BDEF01F0BFEF4A
:1003780001F0C5EF01F018C0D9FF19C0DAFF050E6A
:10038800DF2616C0D9FF17C0DAFF190EDF60CFEFDE
:1003980001F0D1EF01F0DDEF01F018C0D9FF19C06D
:1003A800DAFF180EDF64DBEF01F0DDEF01F0A1EFFB
:1003B80001F016C010F017C011F02AEC00F018C0B8
:1003C80010F019C011F02AEC00F0120095EC03F0BF
:1003D800A5EC03F0000E046EC70E036EA6EC02F047
:1003E800839A000E326E010E336E010E346EAA0E21
:1003F800376E0F0E386EA60E396E0F0E3A6E000E5F
:10040800366EC70E356E000E296E010E2A6E010E6D
:100418002B6E250E2E6E0F0E2F6E210E306E0F0EC8
:10042800316E000E2D6EC70E2C6E000E286E86845F
:100438000E01B4958EB423EF02F025EF02F04DEFD4
:1004480002F0040E28602BEF02F02DEF02F025EFEA
:1004580002F0320E166E000E176E290E186E000E80
:10046800196E4FEC02F0320E226E000E236E290E2A
:10047800246E000E256EEEEC02F0320E166E000EA3
:10048800176E290E186E000E196E4FEC02F025EF4C
:1004980002F028EF00F081EF02F016C0D9FF17C074
:1004A800DAFFDF50D8B45BEF02F05DEF02F063EFE4
:1004B80002F016C0D9FF17C0DAFF050EDF5E18C0BC
:1004C800D9FF19C0DAFFDF50D8B46DEF02F06FEF33
:1004D80002F075EF02F018C0D9FF19C0DAFF050E57
:1004E800DF5E16C010F017C011F02AEC00F018C03B
:1004F80010F019C011F02AEC00F016C0D9FF17C08F
:10050800DAFFDF50D8B48BEF02F08DEF02F099EFED
:1005180002F018C0D9FF19C0DAFFDF50D8A497EF4E
:1005280002F099EF02F051EF02F0090E1B6E1E0E59
:100538001A6EE40EE82EFED71A2EFCD71B2EFAD719
:1005480000D012007D947D987B9E7F9C8594859831
:10055800839E879C050E0E01746F060E766F070E3C
:10056800696F080E886FBD508F0B3009BD6EE00EA5
:10057800BE16BF50F00B0109BF6EC70EBC6EBD8E14
:10058800000EAA6E000EA66E000E0F01256F000E5B
:10059800216FFC0EAD16F30EAD16CF0EAD163F0E45
:1005A800AD16AB88AB50F00B0C09AB6EAB8EA788C1
:1005B800A750F00B0C09A76EA78E26892651F00BC1
:1005C8000C09266F268F22892251F00B0C09226F05
:1005D800228F120022C016F023C017F024C018F092
:1005E80025C019F04FEC02F0090E276E1E0E266E7C
:1005F800E40EE82EFED7262EFCD7272EFAD700D0F9
:1006080022C016F023C017F024C018F025C019F036
:100618007FEC01F0290E276E960E266E7F0EE82ECF
:10062800FED7262EFCD7272EFAD700F022C01CF0C2
:1006380023C01DF024C01EF025C01FF0E0EC00F020
:1006480022C016F023C017F024C018F025C019F0F6
:100658004FEC02F01200000E0E6E000E0D6E0B50E5
:100668000C10D8B43AEF03F03CEF03F064EF03F05A
:10067800010E0F6E44EF03F0D8900B360C360F2A9C
:100688000CAE49EF03F04BEF03F040EF03F0D890C6
:100698000D360E360B50095C0C500A58D8A057EF8F
:1006A80003F059EF03F05EEF03F00B50095E0C50B6
:1006B8000A5A0D80D8900C320B320F2E4BEF03F0F4
:1006C8000DC009F00EC00AF01200600EF66E070E9B
:1006D800F76E000EF86E00EE3FF010EE04F0090021
:1006E800F5CFEEFFE550E150FAE13E6A3D6A3C6A1B
:1006F8003B6A439043920001EAEF01F00350050280
:10070800F3CF07F0F4CF08F003500602F3500826A1
:1007180004500502F350082607C003F008C004F08F
:100728001200D6501F0B4009D66ED688D650F00B53
:100738000709D66ED588F60ED46E3B0ED36ED58ECD
:1007480012000E01298BF28CF29AF28E12000250DE
:0C075800D46E01C0D3FF1200C80048009E
:020000040020DA
:10000000FF0FFF0FFF0FFF0FFF0FFF0FFF0FFF0F80
:020000040030CA
:0C000000AAFFFFFF9FFFFFFFFFFFFFFFB5
:00000001FF
