:0400000028EF00F0F5
:100008003E820E0133AB0BEF00F00DEF00F024EF52
:1000180000F07BAA12EF00F014EF00F01DEF00F0E3
:10002800361C016E371C026E09EC04F07B9A24EF33
:1000380000F0381C016E391C026E09EC04F07B8A52
:100048000E01339B3E921100C7EF03F020EE02F041
:100058001050D9261150DA22DF50D8B436EF00F00C
:1000680038EF00F06CEF00F010C0D9FF11C0DAFFD4
:10007800DF50126E1250036E046A20EE03F0105027
:10008800D9261150DA22DECF05F0DDCF06F0E0ECFC
:1000980003F003C009F004C00AF0000E0C6E640EF1
:1000A8000B6E8DEC03F020EE03F01050D9261150A2
:1000B800DA22DF50136E0950135C146E20EE03F041
:1000C8001050D9261150DA22DF50156E8FEF00F04C
:1000D800000E146E10C0D9FF11C0DAFFDF50126E87
:1000E8001250036E046A20EE03F01050D926115006
:1000F800DA22DECF05F0DDCF06F0E0EC03F003C036
:1001080009F004C00AF0000E0C6E640E0B6E8DEC44
:1001180003F00950156E20EE01F01050D926115049
:10012800DA22DF50D8B49BEF00F09DEF00F0BFEF6C
:1001380000F020EE05F01050D9261150DA22DECF5B
:1001480012F0DDCF13F012C0D9FF13C0DAFF14C0CC
:10015800DFFF20EE07F01050D9261150DA22DECF4B
:1001680012F0DDCF13F012C0D9FF13C0DAFF15C0AB
:10017800DFFFDFEF00F020EE05F01050D926115018
:10018800DA22DECF12F0DDCF13F012C0D9FF13C090
:10019800DAFF15C0DFFF20EE07F01050D926115006
:1001A800DA22DECF12F0DDCF13F012C0D9FF13C070
:1001B800DAFF14C0DFFF12001BC016F01CC017F0D6
:1001C8001DC018F01EC019F0FAEC02F0090E206EDE
:1001D8001E0E1F6EE40EE82EFED71F2EFCD7202E13
:1001E800FAD700D01BC016F01CC017F01DC018F0BD
:1001F8001EC019F024EC02F0110E206E3C0E1F6E8A
:10020800CB0EE82EFED71F2EFCD7202EFAD700F0F3
:100218001BC016F01CC017F01DC018F01EC019F046
:10022800FAEC02F0090E206E1E0E1F6EE40EE82E88
:10023800FED71F2EFCD7202EFAD700D020EE01F0D3
:100248001B50D9261C50DA22000EDF6E20EE01F07A
:100258001D50D9261E50DA22010EDF6E20EE02F064
:100268001B50D9261C50DA22010EDF6E20EE02F058
:100278001B50D9261C50DA22010EDF6E50EF01F018
:100288001DC0D9FF1EC0DAFF050EDF261BC0D9FF2F
:100298001CC0DAFF050EDF261DC0D9FF1EC0DAFF1D
:1002A800450EDF645AEF01F05CEF01F044EF01F016
:1002B8000A0E206E6B0E1F6E5B0EE82EFED71F2EE9
:1002C800FCD7202EFAD700F01BC016F01CC017F080
:1002D8001DC018F01EC019F0FAEC02F0090E206ECD
:1002E8001E0E1F6EE40EE82EFED71F2EFCD7202E02
:1002F800FAD700D01BC010F01CC011F02AEC00F097
:100308001DC010F01EC011F02AEC00F01200F3EC32
:1003180003F003EC04F0000E046EC70E036E45EC08
:1003280003F0839A000E2D6E010E2E6E010E2F6EB5
:10033800AA0E326E0F0E336EA60E346E0F0E356E89
:10034800000E316EC70E306E000E246E010E256E43
:10035800010E266E250E296E0F0E2A6E210E2B6EAB
:100368000F0E2C6E000E286EC70E276E000E236E21
:1003780086840E01B4958EB4C4EF01F0C6EF01F087
:1003880022EF02F02D0E166E000E176E240E186E58
:10039800000E196E24EC02F0290E226E960E216EC4
:1003A8007F0EE82EFED7212EFCD7222EFAD700F09A
:1003B800232A2D0E166E000E176E240E186E000ED0
:1003C800196EFAEC02F0190E226E5A0E216EB20E58
:1003D800E82EFED7212EFCD7222EFAD72D0E166E28
:1003E800000E176E240E186E000E196E8FEC02F0B8
:1003F800290E226E960E216E7F0EE82EFED7212E34
:10040800FCD7222EFAD700F02D0E1B6E000E1C6EA4
:10041800240E1D6E000E1E6EE0EC00F0110E226E12
:100428003C0E216ECB0EE82EFED7212EFCD7222EB5
:10043800FAD700F0000E236EC6EF01F028EF00F0A7
:1004480020EE01F01650D9261750DA22000EDF6E82
:1004580020EE01F01850D9261950DA22000EDF6E6E
:1004680020EE02F01650D9261750DA22010EDF6E60
:1004780020EE02F01650D9261750DA22010EDF6E50
:100488006AEF02F016C0D9FF17C0DAFF190EDF6055
:1004980050EF02F052EF02F058EF02F016C0D9FF09
:1004A80017C0DAFF050EDF2618C0D9FF19C0DAFF1A
:1004B800190EDF6062EF02F064EF02F06AEF02F0FB
:1004C80018C0D9FF19C0DAFF050EDF2616C0D9FFFC
:1004D80017C0DAFF190EDF6074EF02F076EF02F052
:1004E80082EF02F018C0D9FF19C0DAFF180EDF64D6
:1004F80080EF02F082EF02F046EF02F016C010F033
:1005080017C011F02AEC00F018C010F019C011F053
:100518002AEC00F0120020EE01F01650D9261750F0
:10052800DA22010EDF6E20EE01F01850D92619509C
:10053800DA22010EDF6E20EE02F01650D92617508F
:10054800DA22010EDF6E20EE02F01650D92617507F
:10055800DA22010EDF6ED5EF02F016C0D9FF17C000
:10056800DAFF190EDF60BBEF02F0BDEF02F0C3EF58
:1005780002F016C0D9FF17C0DAFF050EDF2618C033
:10058800D9FF19C0DAFF190EDF60CDEF02F0CFEF07
:1005980002F0D5EF02F018C0D9FF19C0DAFF050E36
:1005A800DF2616C0D9FF17C0DAFF190EDF60DFEFAC
:1005B80002F0E1EF02F0EDEF02F018C0D9FF19C028
:1005C800DAFF180EDF64EBEF02F0EDEF02F0B1EFA7
:1005D80002F016C010F017C011F02AEC00F018C095
:1005E80010F019C011F02AEC00F012002CEF03F003
:1005F80016C0D9FF17C0DAFFDF50D8B406EF03F0F2
:1006080008EF03F00EEF03F016C0D9FF17C0DAFFAA
:10061800050EDF5E18C0D9FF19C0DAFFDF50D8B465
:1006280018EF03F01AEF03F020EF03F018C0D9FF1A
:1006380019C0DAFF050EDF5E16C010F017C011F002
:100648002AEC00F018C010F019C011F02AEC00F0E4
:1006580016C0D9FF17C0DAFFDF50D8B436EF03F061
:1006680038EF03F044EF03F018C0D9FF19C0DAFFE0
:10067800DF50D8A442EF03F044EF03F0FCEF02F0A0
:1006880012007D947D987B9E7F9C85948598839E9F
:10069800879C050E0E01746F060E766F070E696F44
:1006A800080E886FBD508F0B3009BD6EE00EBE1668
:1006B800BF50F00B0109BF6EC70EBC6EBD8E000E99
:1006C800AA6E000EA66E000E0F01256F000E216F98
:1006D800FC0EAD16F30EAD16CF0EAD163F0EAD16D1
:1006E800AB88AB50F00B0C09AB6EAB8EA788A7504C
:1006F800F00B0C09A76EA78E26892651F00B0C0962
:10070800266F268F22892251F00B0C09226F228F27
:100718001200000E0E6E000E0D6E0B500C10D8B4A9
:1007280098EF03F09AEF03F0C2EF03F0010E0F6E9B
:10073800A2EF03F0D8900B360C360F2A0CAEA7EFB9
:1007480003F0A9EF03F09EEF03F0D8900D360E36B4
:100758000B50095C0C500A58D8A0B5EF03F0B7EF5E
:1007680003F0BCEF03F00B50095E0C500A5A0D80E1
:10077800D8900C320B320F2EA9EF03F00DC009F000
:100788000EC00AF012001C0EF66E080EF76E000E70
:10079800F86E00EE3AF010EE04F00900F5CFEEFF27
:1007A800E550E150FAE1396A386A376A366A3E90AC
:1007B8003E9200018BEF01F003500502F3CF07F0E2
:1007C800F4CF08F003500602F3500826045005023F
:1007D800F350082607C003F008C004F01200D650F2
:1007E8001F0B4009D66ED688D650F00B0709D66E77
:1007F800D588F60ED46E3B0ED36ED58E12000E0140
:10080800298BF28CF29AF28E12000250D46E01C03B
:08081800D3FF1200C8007400B8
:020000040020DA
:10000000FF0FFF0FFF0FFF0FFF0FFF0FFF0FFF0F80
:020000040030CA
:0C000000AAFFFFFF9FFFFFFFFFFFFFFFB5
:00000001FF
