:0400000034EF00F0E9
:100008004C82D9CF03F0DACF04F00E0137A70FEFF7
:1000180000F011EF00F014EF00F0E35115EC0BF0D5
:100028000E0137A51AEF00F01CEF00F02EEF00F0DC
:1000380071EC0BF00009D8B424EF00F026EF00F0C3
:100048002CEF00F0EAEC0AF00E01E46F2EEF00F05E
:100058000E012D9504C0DAFF03C0D9FF4C921100A0
:04006800ABEF0AF000
:0F0E00000025642020256620202566200D000097
:100E100020EE02F01250D9261350DA22DF50D8B457
:100E200014EF07F016EF07F04AEF07F012C0D9FFF2
:100E300013C0DAFFDF50146E1450056E066A20EE00
:100E400003F01250D9261350DA22DECF07F0DDCF9F
:100E500008F03EEC0BF005C00BF006C00CF0000EE5
:100E60000E6E640E0D6E71EC0AF020EE03F012505F
:100E7000D9261350DA22DF50156E0B50155C166E12
:100E800020EE03F01250D9261350DA22DF50176EED
:100E90006DEF07F0000E166E12C0D9FF13C0DAFF17
:100EA000DF50146E1450056E066A20EE03F01250E7
:100EB000D9261350DA22DECF07F0DDCF08F03EEC62
:100EC0000BF005C00BF006C00CF0000E0E6E640EA9
:100ED0000D6E71EC0AF00B50176E20EE01F01250FF
:100EE000D9261350DA22DF50D8B479EF07F07BEF20
:100EF00007F09DEF07F020EE05F01250D9261350B1
:100F0000DA22DECF14F0DDCF15F014C0D9FF15C002
:100F1000DAFF16C0DFFF20EE07F01250D92613507B
:100F2000DA22DECF14F0DDCF15F014C0D9FF15C0E2
:100F3000DAFF17C0DFFFBDEF07F020EE05F012501B
:100F4000D9261350DA22DECF14F0DDCF15F014C00D
:100F5000D9FF15C0DAFF17C0DFFF20EE07F01250EF
:100F6000D9261350DA22DECF14F0DDCF15F014C0ED
:100F7000D9FF15C0DAFF16C0DFFF12001EC018F03F
:100F80001FC019F020C01AF021C01BF031EC09F08D
:100F9000090E236E1E0E226EE40EE82EFED7222EC0
:100FA000FCD7232EFAD700D01EC018F01FC019F0AE
:100FB00020C01AF021C01BF05DEC08F0390E236E42
:100FC000D20E226E4C0EE82EFED7222EFCD7232EF8
:100FD000FAD700D01EC018F01FC019F020C01AF0B8
:100FE00021C01BF031EC09F020EE01F01E50D92693
:100FF0001F50DA22010EDF6E20EE01F02050D926BC
:101000002150DA22000EDF6E20EE02F01E50D926AB
:101010001F50DA22010EDF6E20EE02F01E50D9269C
:101020001F50DA22010EDF6E2EEF08F01EC0D9FF2E
:101030001FC0DAFF0A0EDF2620C0D9FF21C0DAFF69
:101040000A0EDF261EC012F01FC013F008EC07F0D6
:1010500020C012F021C013F008EC07F01EC0D9FF29
:101060001FC0DAFF4F0EDF6438EF08F03AEF08F0E8
:1010700016EF08F020C0D9FF21C0DAFF4F0EDF6461
:1010800044EF08F046EF08F016EF08F0100E236E5C
:101090002E0E226EAA0EE82EFED7222EFCD7232E6D
:1010A000FAD700D01EC018F01FC019F020C01AF0E7
:1010B00021C01BF031EC09F0120020EE01F01850B5
:1010C000D9261950DA22000EDF6E20EE01F01A50F8
:1010D000D9261B50DA22000EDF6E20EE02F01850E7
:1010E000D9261950DA22010EDF6E20EE02F01850D8
:1010F000D9261950DA22010EDF6EA3EF08F018C0CE
:10110000D9FF19C0DAFF190EDF6089EF08F08BEF05
:1011100008F091EF08F018C0D9FF19C0DAFF050EEA
:10112000DF261AC0D9FF1BC0DAFF190EDF609BEF64
:1011300008F09DEF08F0A3EF08F01AC0D9FF1BC01C
:10114000DAFF050EDF2618C0D9FF19C0DAFF190E25
:10115000DF60ADEF08F0AFEF08F0BBEF08F01AC0AA
:10116000D9FF1BC0DAFF180EDF64B9EF08F0BBEF40
:1011700008F07FEF08F018C012F019C013F008EC67
:1011800007F01AC012F01BC013F008EC07F01200B1
:1011900005C0D9FF06C0DAFF000EDF6E20EE01F0B9
:1011A0000550D9260650DA22010EDF6E20EE02F03D
:1011B0000550D9260650DA22010EDF6E20EE05F02A
:1011C0000550D9260650DA22AA0EDE6E0F0EDD6E0D
:1011D00020EE07F00550D9260650DA22A60EDE6E64
:1011E0000F0EDD6E20EE03F00550D9260650DA22F0
:1011F000C70EDE6E000EDD6E07C0D9FF08C0DAFF35
:10120000000EDF6E20EE01F00750D9260850DA22DA
:10121000010EDF6E20EE02F00750D9260850DA22C8
:10122000010EDF6E20EE05F00750D9260850DA22B5
:10123000250EDE6E0F0EDD6E20EE07F00750D9266C
:101240000850DA22210EDE6E0F0EDD6E20EE03F066
:101250000750D9260850DA22C70EDE6E000EDD6E6A
:10126000120063EF09F018C0D9FF19C0DAFFDF5090
:10127000D8B43DEF09F03FEF09F045EF09F018C091
:10128000D9FF19C0DAFF050EDF5E1AC0D9FF1BC0F7
:10129000DAFFDF50D8B44FEF09F051EF09F057EF04
:1012A00009F01AC0D9FF1BC0DAFF050EDF5E18C0B7
:1012B00012F019C013F008EC07F01AC012F01BC0AE
:1012C00013F008EC07F018C0D9FF19C0DAFFDF509F
:1012D000D8B46DEF09F06FEF09F07BEF09F01AC099
:1012E000D9FF1BC0DAFFDF50D8A479EF09F07BEFFC
:1012F00009F033EF09F0090E1D6E1E0E1C6EE40E90
:10130000E82EFED71C2EFCD71D2EFAD700D01200D7
:10131000D0EC0AF051EC0BF0000E066EC70E056E15
:1013200029EC0AF07C9E849E809688967C9884980E
:10133000809088907E908690809288927C96849609
:101340007C887E8080807E807C867F807D8E798692
:101350008790859E819686840E01B4958686B49783
:10136000A50E056E000E066E9C0E076E000E086E32
:10137000C8EC08F086840E01B4958EB4C2EF09F073
:10138000C4EF09F0DCEF09F0A50E246E000E256E07
:101390009C0E266E000E276EDEEC09F0090E2B6EF9
:1013A0001E0E2A6EE40EE82EFED72A2EFCD72B2E18
:1013B000FAD700D0C4EF09F034EF00F024C018F0E1
:1013C00025C019F026C01AF027C01BF05DEC08F00C
:1013D000390E296ED20E286E4C0EE82EFED7282E1E
:1013E000FCD7292EFAD700D024C018F025C019F058
:1013F00026C01AF027C01BF031EC09F024C018F009
:1014000025C019F026C01AF027C01BF05DEC08F0CB
:10141000720E296EA30E286E9B0EE82EFED7282E84
:10142000FCD7292EFAD700F024C01EF025C01FF0EB
:1014300026C020F027C021F0BEEC07F024C018F031
:1014400025C019F026C01AF027C01BF031EC09F0B6
:1014500012007D947D987B9E7F9C85948598839EC9
:10146000879C050E0E01746F060E766F070E696F6E
:10147000080E886FBD508F0B3009BD6EE00EBE1692
:10148000BF50F00B0109BF6EC70EBC6EBD8E000EC3
:10149000AA6E000EA66E000E0F01256F000E216FC2
:1014A000FC0EAD16F30EAD16CF0EAD163F0EAD16FB
:1014B000AB88AB50F00B0C09AB6EAB8EA788A75076
:1014C000F00B0C09A76EA78E26892651F00B0C098C
:1014D000266F268F22892251F00B0C09226F228F52
:1014E0001200000E116E000E106E0D500E10D8B4CA
:1014F0007CEF0AF07EEF0AF0A6EF0AF0010E0F6E05
:1015000086EF0AF0D8900D360E360F2A0EAE8BEF0E
:101510000AF08DEF0AF082EF0AF0D89010361136FB
:101520000D500B5C0E500C58D8A099EF0AF09BEFB1
:101530000AF0A0EF0AF00D500B5E0E500C5A10800E
:10154000D8900E320D320F2E8DEF0AF010C00BF036
:1015500011C00CF012001A0EF66E170EF76E000E88
:10156000F86E00EE48F010EE04F00900F5CFEEFF43
:10157000E550E150FAE100EE60F03C0EEE6AE8065C
:10158000FDE100EE2CF01C0EEE6AE806FDE14C9049
:101590004C92000EF86E0E0EF76E000188EF09F007
:1015A00000EC0BF0010E076E000E61EC0BF03F0E2D
:1015B000096E550EE82EFED7092EFCD700F0030E5B
:1015C000076E000E61EC0BF0D50E076E010E61EC9C
:1015D0000BF012003B0E4464F0EF0AF0F2EF0AF059
:1015E000F4EF0AF0000E446E442A4404016E026ACD
:1015F000600E0124D96E000E0220DA6EDF50120058
:101600000E01D951F00B0809D96FD98B9F0ED66FF7
:10161000848A848CA79BA79D1D0E1D6F1E0E1C6FB8
:101620001C0E6F6F1B0E706F1200016E130E47645D
:101630001CEF0BF01EEF0BF020EF0BF0000E476ECF
:101640002C0E4724D96EDA6A000EDA2201C0DFFFC1
:10165000472A12000E01D8B530EF0BF032EF0BF035
:101660002AEF0BF0DACE05F01F0E0516D8A43BEFDB
:101670000BF03DEF0BF02AEF0BF0120005500702C4
:10168000F3CF09F0F4CF0AF005500802F3500A2610
:1016900006500702F3500A2609C005F00AC006F0FA
:1016A0001200120E0E01626F110E156F8382E99700
:1016B000E895330EE56F000EE66FE789E88BE78F5C
:1016C0001200086E88EC0BF0520E7DEC0BF0085007
:1016D00080097DEC0BF007507DEC0BF083EC0BF0F8
:1016E000120044504518D8A478EF0BF07BEF0BF0B4
:1016F000010E7CEF0BF0000E1200066E2AEC0BF0D0
:1017000006C0D5FE12002AEC0BF00E01DA8512009D
:0E1710002AEC0BF00E01DA811200BC02BB00C5
:020000040020DA
:10000000FF0FFF0FFF0FFF0FFF0FFF0FFF0FFF0F80
:020000040030CA
:0C000000AAFFFFFF9FFFFFFFFFFFFFFFB5
:00000001FF
